:1000000000000320D10100000D550000C554000080
:10001000C5540000C5540000C5540000C55400007C
:10002000C5540000C5540000C55400000D55000023
:100030000D550000C55400005D4D0000614E0000EC
:100040000D5500000D5500000D5500000D55000028
:100050000D5500000D5500000D5500000D55000018
:100060000D5500000D5500000D5500000D55000008
:100070000D5500000D5500000D5500000D550000F8
:100080000D5500000D5500000D5500000D550000E8
:100090000D5500000D5500000D5500000D550000D8
:1000A000E9460000F54600000D5500000D55000022
:1000B0000D5500000D5500000D5500002D5B000092
:1000C0000D550000456E00000D550000716F0000D9
:1000D0000D550000697000000D5500000D55000021
:1000E0000D5500000D5500000D5500000D55000088
:1000F0000D5500000D5500000D5500000D55000078
:100100000D5500000D5500000D5500000D55000067
:100110000D550000ED5D00000D5500000D5500006F
:100120000D5500000D5500000D5500000D55000047
:100130000D5500000D5500000D5500000D55000037
:10014000194A00000D550000617100000D550000B6
:100150000D5500000D5500000D5500000D55000017
:100160000D5500000D550000014700000D55000021
:100170000D5500000D5500000D5500000D550000F7
:100180000D5500000D5500000D5500000D550000E7
:100190000D5500000D550000597200000D5500006E
:1001A0000D5500000D5500000D5500000D550000C7
:1001B0000D5500000D5500000D5500000D550000B7
:1001C0000D5500000D5500000D5500000D550000A7
:1001D0005C4B4CF2205210B51A804DF628121A8052
:1001E00000BF00BF05F096F9574B4FF030621A6020
:1001F000564A9A60564ADA60564B4FF470021A60BB
:10020000554B564A1A60564B1A78110703D51A787F
:1002100042F008021A70534B5349AA221A70534AEB
:10022000534B8B4204D252F8040F43F8040BF8E707
:10023000504B514900228B4202D243F8042BFAE77B
:100240004E494F4A002352F8230041F8230001335E
:10025000742BF8D14B4B4C4A802103F8011B93427D
:10026000FBD14A4B454A1A60494B8A221A70A3F5C2
:10027000805324225A70A0221A709A799207FCD5D2
:100280009A79D406FCD4434A937903F00C03082BE3
:10029000FAD1414B60221A7002331A78802AFCD1BD
:1002A0003C4B01221A715D225A719A799006FCD555
:1002B0009979384A4906FBD5384B394919600021EC
:1002C000596020231370937903F00C030C2BFAD19F
:1002D000344B354A1A60354A354C136813F4807331
:1002E00003D123604FF4A8531360324B324A1A6093
:1002F00000225A60072243F8042C304AC3F80C2D20
:1003000062B605F091FA2368DA0705D52C4805F0A6
:10031000E9F92C4B2C4A1A602C4B1B785B0609D54B
:10032000284C294B22689A4204D1254805F0DAF975
:100330000023236008F026FB05F0F2F805F020F812
:10034000FEE700BF0E20054030800440823F0400DD
:100350000100002B88ED00E0002008E0030000858C
:1003600002D0074000E007404821FF1FAC9D01007C
:100370003015FF1F4821FF1FD878FF1F0010FF1FF7
:100380000000000000E400E064E400E008ED00E0AC
:10039000005006400040064001E007404480044011
:1003A0000000060204800440C010070010D0034083
:1003B00014D0034014E000E01FBF02000000202022
:1003C0009ED80A601CE00340A5C3945A00F0074081
:1003D000FFFFFFFFFFFFFFFFFFFFFFFFFFFFFFFF2D
:1003E000FFFFFFFFFFFFFFFFFFFFFFFFFFFFFFFF1D
:1003F000FFFFFFFFFFFFFFFFFFFFFFFFFFFFFFFF0D
:10040000FFFFFFFFFFFFFFFFFFFFFFFFDEF9FFFF23
:1004100010B5054C237833B9044B13B10448AFF33E
:1004200000800123237010BD4821FF1F0000000041
:10043000B09D0100084B10B51BB108490848AFF347
:1004400000800848036803B910BD074B002BFBD0A0
:10045000BDE81040184700BF000000004C21FF1FFE
:10046000B09D01004821FF1F0000000000207047E0
:10047000704700BF4069C000704700BF10B5044618
:1004800004F074FA204610BD2DE9F04F866985B05E
:1004900005460C46002E00F07181A368EA69002B26
:1004A00040F366812746183257F8148B04F1340064
:1004B00094F813900DF10706394609F10109B44685
:1004C000BE465EF8043F43445B7843B194F80DA008
:1004D00083FA5AF3DBB209FB03F3C3F30723864520
:1004E0000CF8013FEDD1DDF80880039B88EAD81CA9
:1004F00083EAD31E0CF0AA1C0EF0AA1E88EA0C0890
:1005000083EA0E0388EACC1C83EACE1E4CF6CC4864
:100510008CEA9C3A8EEA9E39434609EA03030AEACA
:1005200008088CEA080C8EEA030E8CEA883C8EEAF6
:10053000833E4FEA0E184FEA1C130EF0F03E0CF00B
:100540000F3C08F0F03803F00F3343EA0E0348EA9B
:100550000C0E4FEA1E494FEA1E684FEA132C02F8B0
:1005600011EC02F8153C4FEA1E2A4FEA134E1B0EFF
:1005700002F816CC02F817EC02F812AC02F8139C41
:1005800002F8148C02F8183C94F81290D4F8008009
:1005900009F101090DF1070CBE465EF8043F18F899
:1005A000033043B194F80CA083FA5AF3DBB209FB91
:1005B00003F3C3F3072386450CF8013FEDD1DDF8C3
:1005C0000880039B88EAD81C83EAD31E0CF0AA1C7F
:1005D0000EF0AA1E88EA0C0883EA0E0388EACC1CF7
:1005E00083EACE1E4CF6CC488CEA9C3A8EEA9E39C1
:1005F000434609EA03030AEA08088CEA080C8EEA73
:10060000030E8CEA883C8EEA833E4FEA0E184FEACE
:100610001C130EF0F03E0CF00F3C08F0F03803F025
:100620000F3343EA0E0348EA0C0E02F809EC4FEAD6
:10063000132C02F80D3C4FEA1E2A4FEA1E494FEADE
:100640001E684FEA134E1B0E02F80AAC02F80B9C10
:1006500002F80C8C02F80ECC02F80FEC02F8103CF9
:1006600094F814C0D4F800E00CF1010C51F8043FE8
:1006700073449B7843B194F80E8083FA58F3DBB24D
:100680000CFB03F3C3F30723884206F8013FEDD1C7
:10069000029B039E83EAD31186EAD61E0EF0AA1EA1
:1006A00001F0AA114B4086EA0E0683EAC11186EAE0
:1006B000CE164CF6CC4381EA913886EA963C9E46AB
:1006C0000CEA0E0E08EA0303594086EA0E0681EA98
:1006D000833186EA8E3633014FEA111E0EF00F3E4B
:1006E00001F00F3106F0F03603F0F0330B434EEA21
:1006F00006064FEA132A4FEA13494FEA13684FEAF6
:10070000162C4FEA164E310E02F8013C02F8056C29
:1007100002F802AC02F8039C02F8048C02F806CC42
:1007200002F807EC02F8081CA36894F80CC094F8CF
:100730000DE094F80E90266894F80FB094F810A08D
:10074000617C94F91580013BCCEB0B0CCEEB0A0ECF
:10075000C9EB0101B044002B02F1180284F80CC06F
:1007600084F80DE0A173C4F80080A3603FF7A0AE49
:10077000A86905B0BDE8F04F01F080BDD1F8048054
:1007800008EB4807FF00384608F028F9E8613846CA
:1007900008F024F92862012004F01AFFEB692A6AA4
:1007A00000960746414601F0E5FBAF61384601F08F
:1007B000F7FB72E6F0B591B0002305688DF80030C4
:1007C0008DF801308DF802302E683A4A8DF80430E9
:1007D00096428DF805308DF8063064D1827C039105
:1007E000012A044604918DF81A308DF81B308DF8DB
:1007F0001C30CDF808D01AD08DF819308DF818308B
:100800008DF817308DF816308DF815308DF81430BE
:1008100000228DF81D2007AB0FA943F8042F994241
:10082000FBD1AB69204602A9984711B0F0BD224A1E
:100830001378013303F0070313F0010F14BF802175
:10084000002113709A0744BF41F04001C9B25B0711
:1008500048BF41F0200110310022C9B20DF1170349
:100860000DF11A074FF4807EAAB19EFBF2F2D2B2CC
:10087000501CC0B200FB01152D121870EEB205B16C
:10088000013E03F8036C00B11A7001339F4208D097
:10089000DA78002AE9D11A7003F8032C01339F4259
:1008A000F6D12568B4E70A4601AB6946B04711B0F6
:1008B000F0BD00BF950900006421FF1FF0B5857CE5
:1008C0001C785E789B788FB0012D8DE8060002922F
:1008D0008DF812408DF813608DF8143020D000236D
:1008E0008DF811308DF810308DF80F308DF80E30F6
:1008F0008DF80D308DF80C30032100238DF8151084
:1009000002EB4202194605AC0131082944F8043FC4
:100910001344F9D1036869469B6998470FB0F0BD4D
:100920001B490B78013303F0070313F0010F0B7021
:1009300014BF802100219D0744BF41F04001C9B28E
:100940005B0748BF41F020011031C9B20DF10F0320
:100950000DF1120E4FF4807CACB19CFBF4F4E4B2C8
:10096000651CEDB205FB011636121D70F7B206B11B
:10097000013F03F8037C05B11C7001337345BBD004
:10098000DC78002CE9D11C7003F8034CF5E700BFBC
:100990006421FF1FF0B5857C1C785E789B788FB052
:1009A000012D8DE8060002928DF812408DF813603B
:1009B0008DF814301BD000238DF811308DF81030D5
:1009C0008DF80F308DF80E308DF80D308DF80C301D
:1009D00000228DF8152005AB0DA943F8042F8B429A
:1009E000FBD1036869469B6998470FB0F0BD1B4A6D
:1009F0001378013303F0070313F0010F137014BFD2
:100A000080220022990744BF42F04002D2B25B0725
:100A100048BF42F020021032D2B20DF10F030DF1A7
:100A200012074FF4807EACB19EFBF4F4E4B2611C7B
:100A3000C9B201FB02252D121970EEB205B1013EBB
:100A400003F8036C01B11C7001339F42C0D0DC7805
:100A5000002CE9D11C7003F8034CF5E76421FF1F5B
:100A60002DE9F04F8BB00027069051F82730DBB20C
:100A70000137FF2BBFB2F8D10B6807974FEA136815
:100A8000C3F3072BC3F307494FF0FF33C6460024D7
:100A90000593884658F8045F0698C5F307274FEA80
:100AA000241CC5F30746ECB2F9B2C5F30765039100
:100AB000E9B204915FFA8CF1029107990F2908AA13
:100AC0004FEA14135FFA86FA0CD805998C4507DCB7
:100AD0000F2905D00131C9B28B42029138BF0B46B4
:100AE00059B2059109A9009102998DF820B08DF8AD
:100AF00021908DF822E08DF824708DF825608DF816
:100B0000265001F0ABFDFF2CDDF810E0DDF80CB055
:100B1000D146BFD106980BB0BDE8F08F38B52A4852
:100B200001F07AFFD8B1294C012323600C21284819
:100B300006F006F8274804F0B1F9274D27480C21A4
:100B400003F0E4FD284602F0B1F82368ABB1012BB5
:100B500023D0234B4FF400429A61DA6138BD1B4C1D
:100B600003460C211F48236005F0EAFF194804F0F2
:100B700095F92368012BE0D1D8E75522202128469A
:100B800002F068F80028E4D0EA8842F0040292B249
:100B90002846242102F05EF8DBE740F273122A2196
:100BA000284602F057F80028D3D088222021284672
:100BB00002F050F80028CCD0EA88284622F004023F
:100BC000242102F047F8C4E7FC56FF1FB856FF1F68
:100BD0005C950000E416FF1F9439FF1F0002FF1F01
:100BE0002C3AFF1F4C9500002DE9F84F104C114F87
:100BF000114EDFF848B0DFF848A0DFF8489004F560
:100C00008C780025204601F055FE143402230C2177
:100C1000CBF8003044454FF0080347F8045F46F82E
:100C2000045FCAF80030C9F80010EBD1BDE8F88FB6
:100C30009454FF1FE839FF1F7456FF1F9429FF1FAC
:100C4000E439FF1FA039FF1F70B5224B86B0002486
:100C500053F8042F092A04F1010120DCCCB20E2C38
:100C6000F6D11D4D1D4E2B680193019B31681C4A26
:100C70005B1A93421DD82B6803931A4B039A1B6887
:100C800032602A680592059AD31AB3F57A7F04D99F
:100C9000FFF7AAFF144B01221A7006B070BD0E4D6B
:100CA0000E4E2B680193019B31680D4A5B1A9342EB
:100CB00005D92B680293029B3360FFF795FF0B2C3D
:100CC000D9D82B6807490493049B074A0B6000217D
:100CD0001170D6E70C54FF1F8874FF1FD855FF1FF3
:100CE000E0930400142AFF1FF455FF1FE64BE74A68
:100CF00003F1380053F8041F42F8041F9842F9D159
:100D00002DE9F047DFF8C093DFF8C083B9F8183059
:100D100007EE903A2DED028BDD4BDFEDDE8AF8EE2B
:100D2000677AD3E9006767EEA87A4C4617EE900A17
:100D300007F096FA32463B4607F0E6FA0022D64B19
:100D400007F0E2FA07F090FDB9F81A30C8F8000091
:100D500007EE903AF8EE677A08EE100A67EEA87A86
:100D600009F1360517EE900A07F07AFA32463B464B
:100D700007F0CAFA0022C84B07F0C6FA07F074FD64
:100D8000B9F81E20B9F81C30C8F80400134407EE67
:100D9000903AF8EEE77A67EEA87A17EE900A07F035
:100DA0005FFA32463B4607F0AFFA0022BA4B07F033
:100DB000ABFA07F059FDB9F82010B9F82230B9F8AC
:100DC0002420C8F808000B44134407EE903AF8EECC
:100DD000E77A67EEA87A17EE900A07F041FA3246F2
:100DE0003B4607F091FA0022AB4B07F08DFA07F073
:100DF0003BFDB9F828E0B9F82630B9F82A1034F8E4
:100E00002C2FC8F80C0073440B44134407EE903A9F
:100E1000F8EEE77A67EEA87A17EE900A07F020FA64
:100E200032463B4607F070FA9B4B002207F06CFA03
:100E300007F01AFD0023C8F8100034F8022FA5426D
:100E40001344FAD107EE903AFBEEC97A934C17EEB1
:100E5000900A07F005FA32463B4607F055FA0022A1
:100E60008D4B07F051FA07F0FFFCC8F81400002082
:100E700035F8023FAC421844FAD107EE900AFBEE77
:100E8000C97A874D17EE900A07F0EAF932463B46D9
:100E900007F03AFA0022804B07F036FA07F0E4FC3C
:100EA000C8F81800002034F8023FA5421844FAD1CF
:100EB00007EE900AFBEEC97A7A4C17EE900A07F01B
:100EC000CFF932463B4607F01FFA0022724B07F07B
:100ED0001BFA07F0C9FCC8F81C00002035F8023FD7
:100EE000AC421844FAD107EE900AFBEEC97A6E4D77
:100EF00017EE900A07F0B4F932463B4607F004FAC1
:100F00000022654B07F000FA07F0AEFCC8F820009D
:100F1000002034F8023FA5421844FAD107EE900AA7
:100F2000FBEEC97A614C17EE900A07F099F9324648
:100F30003B4607F0E9F90022574B07F0E5F907F0C7
:100F400093FCC8F82400002035F8023FAC42184456
:100F5000FAD107EE900AFBEEC97A554D17EE900ACA
:100F600007F07EF932463B4607F0CEF900224A4BA5
:100F700007F0CAF907F078FCC8F82800002034F818
:100F8000023FA5421844FAD107EE900AFBEEC97A57
:100F9000484C17EE900A07F063F932463B4607F0DB
:100FA000B3F900223C4B07F0AFF907F05DFCC8F83D
:100FB0002C00002035F8023FAC421844FAD107EE6D
:100FC000900AFBEEC97A3C4D17EE900A07F048F9FB
:100FD00032463B4607F098F900222F4B07F094F970
:100FE00007F042FCC8F83000002034F8023FA54268
:100FF0001844FAD107EE900AFBEEC97A2F4C17EE8F
:10100000900A07F02DF932463B4607F07DF90022A1
:10101000214B07F079F907F027FCC8F834000020CD
:1010200035F8023FAC421844FAD107EE900AFBEEC5
:10103000C97A17EE900A07F013F932463B4607F0DB
:1010400063F90022144B07F05FF907F00DFC1C4A0E
:10105000C8F83800002034F8023FA2421844FAD100
:1010600007EE900AFBEEC97ADFF86490154CDFF8C2
:1010700064A017EE900A07F0F3F832463B4607F0FB
:1010800043F90022044B27E00C54FF1F1C39FF1FBB
:101090004015FF1F0000803800408F40C03FFF1FF9
:1010A000D43FFF1FF03FFF1F1840FF1F4E40FF1FA0
:1010B0009A40FF1F0441FF1F9641FF1F6242FF1F1E
:1010C0009243FF1F9454FF1F7C3FFF1F1054FF1FCC
:1010D0001C39FF1FF855FF1F1B4F1C4E07F014F95A
:1010E00007F0C2FB0025C8F83C00C9F8005001E039
:1010F00096ED008A2046B8EEC80A01F0E3FB2046D0
:1011000001F026FC10EE100A07F0AAF8E7E8020149
:10111000204601F02DFC10EE100A07F0A1F8D9F8D6
:10112000003056F8042B01351344102D04F114043B
:10113000EAE80201C9F80030DAD1BDEC028BBDE863
:10114000F047FFF781BD00BF7057FF1F1054FF1F0E
:10115000F0B530490B5C022B85B02ED02E4B53F8E6
:101160002020002A0DDD2D4A2D4C12682D490392B6
:10117000039A54F8204051F82010121B323191424A
:101180000BD303280EDD284B1B680A2B274BCCBF43
:10119000012200221A7005B0F0BD0022032843F896
:1011A0002020F0DC204953F820200B689A42ECDD27
:1011B0001F4C0A6013462070E7E7184C184D23684F
:1011C0000093009B55F820609B1BF92B05D8124B10
:1011D000012453F820200C54C3E723680193154FD2
:1011E000019B57F820202468DFF838E00294991B0F
:1011F000521A094B029C4EF820101D323A2A53F81D
:10120000202047F820109CBF013243F8202045F8E9
:101210002040A6E76839FF1FD053FF1F8874FF1FC7
:101220002857FF1F9829FF1F6857FF1F9054FF1F63
:101230009029FF1F5054FF1F2DE9F843284B53F806
:1012400020908046484606F0F9FF264A4FEAC80338
:101250001A440D462449D2E900670B440446D3E9F9
:1012600000011DA3D3E9002307F04EF832463B46A8
:1012700006F098FE02460B462046294607F0D4FAAF
:1012800068B1B9F5967F0ADD184B13F80820022AD9
:101290001AD052B9022203F80820BDE8F883DFF81B
:1012A0004C9019F80830012B01D0BDE8F883324684
:1012B0003B462046294607F0A3FA0028F5D0002334
:1012C00009F80830BDE8F883012203F80820BDE8DA
:1012D000F88300BFAFF30080000000606666024044
:1012E0001054FF1F7057FF1FF855FF1F6839FF1F6D
:1012F00010B40E4B0E4A53F820100E4C52F820300A
:10130000245C0529C4BF023342F82030022C04BFFC
:10131000013342F82030B3F5967F04DD0129DCBFAC
:10132000023B42F820305DF8044B7047D053FF1F5A
:101330007856FF1F6839FF1F2DE9F04F91B0FFF776
:10134000D5FCA04BA04A029319460023DFF8B892BF
:10135000DFF8B8B213609A46884622E0DBF8000056
:1013600006F06CFF3246CDE900013B462046294697
:1013700006F016FE0022954B06F0C6FF02460B460D
:10138000DDE9000106F00EFE07F06EFACBF8000072
:101390000AF1010A80F30800BAF10E0F4BF8040BB2
:1013A00031D05046FFF748FF5046FFF7D1FE504678
:1013B000FFF79EFF59F8040F06F040FFF8E80267B8
:1013C00032463B4604460D4607F02EFA0028C5D1AA
:1013D000DBF8000006F032FF2246CDE900012B4683
:1013E0003046394606F0DCFD0022784B06F08CFFD3
:1013F00002460B46DDE9000106F0D2FD07F034FAA3
:10140000CBF80000C4E7724A724B1768724A1B6837
:10141000D2F80090714A724DD2F80080714A0B9355
:1014200012680592704A09934FF0000ACDF818A08F
:10143000CDF81CA0CDF820A0CDF828A0CDF80CA0A8
:101440005446CDF810A0D2F800B00095BA46029FDD
:101450005C4B634903EBC80E04F109030293009B44
:101460001A68099B51F823309A4203DD01230B943B
:1014700009940A9300995A4B594D4A6953F82A30F6
:10148000486A55F82910029D9A4204F10503C8BF25
:101490009A46089BC8BF01238842C8BFA946D7E91E
:1014A0000001079D0893C8BF0125DEE900230795C9
:1014B00007F0BAF9059D434A069E002802EBC503D2
:1014C00018BF0126D3E90023D7E90A0118BFA046B7
:1014D000069607F0A9F93B4A002804F1050602EB3D
:1014E000CB0308BF2E46D3E90023D7E912010596A6
:1014F000049E18BF0126049607F096F9009B029DF2
:10150000002803F1040304F10104009318BFAB4663
:10151000039B18BF0123042C039307F1080797D1FD
:101520005746DDF810A0002B47D10A9B13B1294B79
:101530000B9A1A60089B0BB1254B1F60079B13B1D8
:10154000254BC3F80090069B13B1244BC3F80080D1
:10155000BAF1000F02D0234B059A1A60234B099968
:101560005A5C022A54D0224A52F82120082A4FDC21
:101570009B78022B4CD01F4F1F4C3B68DB074FD58D
:101580001E4E1F4D33680F9395E806000F9B5B1AA4
:101590009A4253D923681B490A2BA8BF0A236FF02C
:1015A00009000A688342B8BF03461A4482F308025E
:1015B00023600A6011B0BDE8F08F0B4BC3F800B098
:1015C000B3E700BF7057FF1F6857FF1F0000E03FE1
:1015D000E439FF1F9429FF1FA039FF1FDC55FF1FAF
:1015E0007856FF1F9039FF1F746EFF1F6839FF1F69
:1015F000D053FF1FA839FF1F2457FF1F8874FF1FF8
:10160000DC39FF1F6C3FFF1F0C54FF1FBC56FF1F30
:10161000134C144F2368053323603B68DB07AFD4BA
:10162000384603F097FF104E104D70B933680F9392
:1016300095E806000F9B5B1A9342ABD333680E9379
:1016400023680E9A2A60013BA5E733680D930D9B32
:101650002B60C82338466B6003F082FFE6E700BFCB
:101660002457FF1FA839FF1F8874FF1FDC39FF1F95
:101670002DE9F041DFF8A080264E82B00327002537
:10168000FF24B8F800308DF8055003EB432203EB3C
:10169000820303F5585319339BB259025A1803EBCE
:1016A000820303F558531933090C9BB201EB410136
:1016B00003EB1322314401A88DF80640A8F800304E
:1016C0008DF8042001F038F8013FDAD11149481CA7
:1016D00001F5706610F8013CC3EB031203EB021333
:1016E0001B1200F8013C4A788B78C2EB0215C3EB61
:1016F000031402EB051203EB041312121B124A70BF
:101700008B7003318E4200F10300E3D102B0BDE8DB
:10171000F08100BF182AFF1F4E15FF1F70B5624CE5
:101720002378612B23D0622B49D0662B58D0692BAC
:1017300000F09F806D2B5AD06F2B00F09E80732B92
:101740002DD0742B6FD0782B69D0792B7BD07A2B4E
:1017500040F09F80554B60781870A178E2785970FE
:1017600018469A7007F0FEF8514B187070BD4F4B39
:101770006078A178E2781870184659709A7007F06E
:10178000F1F84C4A4C4B014611604C4803221A6058
:1017900003F0D4FB494803F081FB2378CCE7434BAB
:1017A0006178454AA5781970E4785D70184604217F
:1017B0009C70116007F0D6F8414B187070BD3B4B20
:1017C0003D4A61781970A678E5785E701846042164
:1017D0009D70116007F0C6F83A4A23781070ABE7A5
:1017E000354B394A1968116000221A6070BD2F4BC1
:1017F0006078A178E2781870184659709A7007F0EE
:10180000B1F8324B2C4A1860022319462B4813605A
:1018100003F094FB294803F041FB23788CE7264B27
:1018200001221A6070BD214B6178234AA578197096
:10183000E4785D70184604219C70116007F092F8FE
:10184000234B187070BD194B6078E278A17818703E
:1018500018469A70597007F085F81E4B1E4C186098
:1018600006F0ECFC00221D4B06F078FEC4E90001F6
:1018700070BD1B4B00221A7070BD134C0F482168BD
:1018800003F05CFB0D4803F009FB0B4B22681A6068
:1018900070BD702B06D1054B6078A178E278187086
:1018A00059709A7070BD00BF703FFF1FA439FF1FB1
:1018B0003815FF1F706EFF1F3415FF1FE416FF1F42
:1018C000A739FF1F3915FF1FE839FF1F4815FF1FF4
:1018D0004C15FF1F1839FF1F4015FF1F000059400E
:1018E0003A15FF1F38B5084C251D14F8010B05F0FB
:1018F000ABF9AC42F9D1054803F0D0FAFFF70EFF7F
:10190000034B00221A7038BD703FFF1FE416FF1F03
:10191000D455FF1FF8B5124E124D134F04F0C2F804
:1019200000B9F8BD3478002CFBD104F0CBF82B784B
:10193000C0B23BB13E280D4B09D01A78511CB854A7
:101940001970EBE73C28E9D101232B70E6E7074B40
:101950002C7019781C7001227C543270DEE700BFB5
:10196000D455FF1F2057FF1F703FFF1F683FFF1F09
:10197000F8B5FFF7CFFF3C4B1B78002B41D13B4C18
:101980002378002B43D13A4D3A4E33782B703A48A6
:1019900001F042F818B1394A13680133136038482E
:1019A00001F03AF818B1374A13680133136036482A
:1019B00001F032F818B1237883F001032370FFF7A8
:1019C000BBFCFFF755FE314B03F5407493F8000361
:1019D00093F8011393F8022383F8000983F8000CAD
:1019E00083F8011983F8011C83F8022983F8022C7B
:1019F0000333A342EAD129781D48BDE8F84000F03E
:101A000049BD1A4CFFF76EFF2378002BBBD0162080
:101A100003F0ECFBC0F57F700330652303FB00F39C
:101A2000002BB8BF03F2FF33124E114D184FC3F312
:101A300087230F2033702B7003F0D8FB40F2E9337B
:101A400003FB00F00028B8BF00F2FF30801206F060
:101A5000F5FB104B002206F081FD2378C7E9000159
:101A6000002B94D191E700BFD455FF1F3A15FF1FFB
:101A7000A86EFF1F3815FF1FFC56FF1F3415FF1FF0
:101A80000857FF1F4815FF1F1457FF1F182AFF1F75
:101A90004015FF1F000059402DE9F043DFF86C901E
:101AA000DFF86CC0D9F800804FF0000E08F148074D
:101AB000A7F14000ACF1E00665462EF00604A0F167
:101AC000080332462946012C0CBF0B60136001331A
:101AD0008342A1F10401A2F10402F4D103F1080050
:101AE0008742A5F1200506F12006E8D10EF1010E8E
:101AF000BEF1080F03F148070CF5807CD8D108F53A
:101B00000073C9F80030BDE8F08300BF6439FF1FDF
:101B10008C22FF1F38B50F21434805F011F84348C8
:101B200003F0BCF9424800F04FFF424800F04CFF80
:101B3000414800F049FF4FF4FA6003F019FB11210E
:101B40003E4804F0FDFF394803F0A8F940F635405F
:101B500003F020FF642003F015FE1B21384804F039
:101B6000EFFF324803F09AF9FFF796FF0B21354853
:101B700004F0E6FF2D4803F091F9FEF7CFFF1521A1
:101B8000314804F0DDFF294803F088F92F48036845
:101B900013F0010424D04FF480722D492D482E4CAF
:101BA000002300F011FC2D4B1B782370642003F000
:101BB000E9FD2046012100F02FFDC82003F0E2FDE1
:101BC0000B21274804F0BCFF184803F067F90F21E8
:101BD000244804F0B5FF1548BDE8384003F05EB96D
:101BE00003F0B8FC0028D6D01F491A4B08685C6087
:101BF000FF2201255C619C609D741A735A739A736D
:101C0000DA731A745A7460B1184A116801B18B60A2
:101C1000174913600D48196000229A6103F0A0FC77
:101C2000B9E70B60F0E700BF7C950000E416FF1FEA
:101C3000FC56FF1F0857FF1F1457FF1F8C9500000D
:101C4000A0950000BC950000C89500006821FF1F0A
:101C5000182AFF1F6C21FF1FA86EFF1F3815FF1FDA
:101C6000E0950000EC950000B86EFF1FC86EFF1FE6
:101C7000309500002DE9F04385B003F035FB0321DA
:101C80008F48904F904CDFF8A08200F091FE042125
:101C90008E4800F08DFE0C218D4800F089FE3A68D8
:101CA000C4F800800023637223612372E3600AB9E1
:101CB000FFE01A465369002BFBD154610026854D85
:101CC000854B81486661A680E680A672236001F09C
:101CD0008BF9042005F12802334631462E72EE605E
:101CE000C5F8008068722A612E4600E0326942F829
:101CF00023106A7A774801339A42F7DC3A68714BCD
:101D00000AB9D8E01A465369002BFBD15561734ECE
:101D1000DFF818C2C6F8008000214FF480304FF081
:101D2000010E06F5A25286F809E00B4632616961A0
:101D3000A980E980A9723172F160B646C5F800C089
:101D4000A861E8612862686201E0DEF8102042F8CC
:101D50002310727A614801339A42F6DC3A68594B93
:101D60000AB9AAE01A465369002BFBD1566141F229
:101D70003C4241F23D430027DFF8B48158495948BD
:101D8000B754F7543A4601233160C6F818044FF4AB
:101D900080617761B780F780B7725348DFF894911C
:101DA00005F0ECFE404688E8300088F8087088F8B6
:101DB0000970C8F80C7088F8107002F0A3FD4B4A47
:101DC0004B49404606F0C8FDDFF86C81C9F80C703D
:101DD0000123484689F8083089F8093089E830003D
:101DE00089F8107002F08EFD404A4149414C484646
:101DF00006F0B2FD404688E8600088F8087088F870
:101E00000970C8F80C7088F8107002F07BFD374A32
:101E10003749404606F0A0FD374B384A1A6038482B
:101E20000A221A7200F03EFD04F5A0752046143413
:101E300000F038FDAC42F9D1324B334C03F1400194
:101E400022680392039A43F8042B8B422E4AF7D15F
:101E500013680193019E136802932C4D2C4B029A38
:101E60002C492D481A602E60FEF7FAFD2B4B0022FC
:101E700003F5B45003F5347103F8042C03F8032C74
:101E800024339942F8D188420B46F3D1244B0022E7
:101E900003F5A06103F8042C03F8032C40338B42B4
:101EA000F8D123680093009A1E4B1A6005B0BDE874
:101EB000F0833C6002E7186029E7186057E700BF2D
:101EC000FC56FF1FD873FF1F7839FF1F0857FF1FED
:101ED0001457FF1F2C3AFF1F4C9E00007C3FFF1F32
:101EE0002496000044960000C053FF1F3015FF1FCA
:101EF0007D0400009454FF1F9439FF1F30960000AA
:101F0000E055FF1F2857FF1F8874FF1F142AFF1F6B
:101F1000D855FF1F00960000AC39FF1F1458FF1F53
:101F2000A83AFF1F6039FF1F24950000589E00004B
:101F3000D829FF1FEC29FF1F002AFF1F08B5064AFA
:101F4000064B12791A7003F0F9FB054A054B106035
:101F500000221A7008BD00BF986EFF1F1F8000404E
:101F60007C6EFF1F946EFF1F10B5044602F0FCFD4F
:101F7000204610BDF0B4064F064E074D074C398081
:101F80009DF8101032602B602170F0BC704700BFCC
:101F9000846EFF1F806EFF1F906EFF1F786EFF1F05
:101FA000F8B5A24BA24E1C88306804EB4404E40050
:101FB0002246002106F0E8FF9E4B1868002800F03A
:101FC00003812246002106F0DFFF9B4B9B4F9C4D77
:101FD000FF221A600121022003F0AAFB01210E203A
:101FE00003F0A6FB0121072003F0A2FB012108203A
:101FF00003F09EFB0121062003F09AFB012114202F
:1020000003F096FB0121152003F092FB052001212E
:1020100003F08EFB8B4B8C4A1B788C49DFF858C23F
:1020200003F0F003102B4FF0080E4FF000030CBF2D
:1020300095204A2013603B600860C2F800E0A1F5DB
:10204000DD210CBF4FF0230E4FF0110E4FF069024F
:10205000CCF800207E482A60A1F5FC61C7F80CE0AE
:10206000DFF808E27B4A0CBF6725332505600A606C
:10207000DEF80020784DD371022191717748D18824
:1020800010601561D58B938021F4E06121F0070188
:10209000D360938293612F044FF001039360D1804A
:1020A00000F19580B4F5004FA1B2C0F28A80958B03
:1020B0006B4FD6F800C03B686A4EADB245F00805DC
:1020C000958300250222DD719A71C3F800C0DA8879
:1020D000D983D9821E616642DE60DE8B9D8222F446
:1020E000E0629D61012522F007029D809D6035041C
:1020F000DA8000F18980B4F5004F5FDB9A8B5A4D8E
:1021000092B242F008029A832B684B4A1860022070
:1021100098710020D8711A61DA88988022F4E06200
:1021200022F00702D86098829861D88BDA80012269
:102130009A6002045AD4B4F5004F3CDB9E8B9EF8A3
:1021400004404A4A46494848B6B246F008069E83CB
:102150009E8B04F18044B6B204F5043446F00206C6
:102160009E830026B123267023703B7903F18043C0
:1021700003F504339E241E701C702B7903F18043F9
:1021800003F504339F241E701C7002F009FD2A79A8
:102190003748384D53119B0003F1604302F110049E
:1021A00003F5614302F01F02012101FA02F240F837
:1021B00024501A60F8BDD983D982BFE7D983D98268
:1021C0009CE7D183D18272E732681A60FDE6B4F5EC
:1021D000007F28DAD38BA1B203F47E430B43D38371
:1021E000D38A03F47E430B43D38260E7B4F5007FC8
:1021F000A4DADA8B02F47E420A43DA83DA8A02F442
:102200007E421143D98299E7B4F5007FBFF676AFDD
:10221000DA8B02F47E420A43DA83DA8A02F47E42DF
:102220000A43DA826AE7A1B241E700BF846EFF1F6A
:10223000806EFF1F906EFF1FC8F00F4004800B40A0
:1022400014800B40786EFF1F00800B4008800B400D
:1022500018800B4000030100C4F00F404D15FF1F14
:10226000A06EFF1FC0F00F40986EFF1F886EFF1F0B
:102270000010FF1F3D1F00000C800B40F8B52C4CD8
:102280002378002BFCD12B4A2B4B11681868814214
:1022900006D02A4B1A8802EB4202D20003F078F8EB
:1022A000274D03F04BFA2B68C01AB0F5967FF8D390
:1022B00024482549254A282303600B60136872B619
:1022C00010390A689342FCD221490A689342FCD330
:1022D0001F4802681E499342FBD81E4E1E4D1F48E0
:1022E00037792E79174BDFF87CE0174A0025056017
:1022F0000D60012121701A4D28244FF48061CEF821
:1023000000101C606921D3F800E02D7919606FF48A
:102310007F6EA3F52F23734414600824D2F800E0E5
:1023200011601F701E701D70046062B6F8BD00BFA2
:10233000946EFF1F906EFF1F806EFF1F846EFF1F45
:102340007C6EFF1F0C800B4014800B4018800B40EC
:1023500004800B40886EFF1FA06EFF1F00800B40A3
:10236000986EFF1FA09004402DE9F041DFF85480E3
:10237000104D114C114F124E4046002102F08EFBC1
:102380002A462146404606F0E7FA3846002102F088
:1023900085FB2A462146384606F0DEFA3046002103
:1023A00002F07CFB2A4621463046BDE8F04106F0AB
:1023B000D3BA00BF3015FF1F691F0000A06EFF1FBA
:1023C000986EFF1F886EFF1FF8B51E1E0368044637
:1023D000CCBF02EB420500250F469B68D8BF1646CE
:1023E00098477A19236862605B690A4A666193427A
:1023F00001D12046F8BD204698470028F9D0064A6A
:10240000064B516893FBF0F0884238BF0846506095
:102410002046F8BD6D040000A86EFF1F40420F006B
:10242000084B10B51C685CB163680021184623B1E5
:10243000626902EB420206F0A7FDA468002CF3D10A
:1024400010BD00BFB86EFF1F70B40F4C2268531C44
:102450008A4283B0236013DB0C4D0D4A2968019139
:1024600001992D6800951668009D15604FF47A72E9
:102470000025891B02FB03F32560B3FBF1F34380C6
:1024800003B070BC704700BFBC6EFF1F8874FF1F95
:10249000C46EFF1F2DE9F04F43682D4C83B00646F4
:1024A0008946002B4BD103F049F9F36820601BB13A
:1024B0004846B16898478146264B1C680025002C89
:1024C00036D07388A77C61686269632B236898BFE4
:1024D000A574D3F804808DF804508DF805508DF85C
:1024E0000650B9F1000F1CD004F10B030DF1040EDE
:1024F00004F10E0C13F801BFBBF1000F0DD093F8DF
:1025000003A00AF101000BFB0000BAF1000F04D098
:1025100009FB00F0000C8EF8000063450EF1010E7F
:10252000E8D1204601ABC047A774A468002CC8D1ED
:1025300030461921FFF788FF03B0BDE8F08F03F0A4
:10254000FDF822687368801A9842AAD3ABE700BFEF
:10255000C06EFF1FB86EFF1F2DE9F04F43682C4C73
:1025600083B006468A469146002B49D103F0E6F82F
:10257000F36820601BB14846B16898478146254BF7
:102580001C680025002C34D07388A77C6269632BFB
:10259000236898BFA574D3F800808DF804508DF897
:1025A00005508DF80650B9F1000F1AD004F10B0355
:1025B00001A804F10E0E13F801BFBBF1000F0CD0FF
:1025C00093F803C00CF101010BFB0111BCF1000FEA
:1025D00003D009FB01F1090C0170734500F1010002
:1025E000E9D1204601AB5146C047A774A468002C2E
:1025F000CAD130461921FFF727FF03B0BDE8F08F9D
:1026000003F09CF822687368801A9842ACD3ADE757
:10261000C06EFF1FB86EFF1F10B5044682B051B1E7
:1026200000231A4601A98DF804308DF805308DF885
:102630000630FFF791FF2046FFF7F2FE02B010BD13
:1026400000207047044B0022FF204FF0FF3118702C
:1026500099605A80DA607047A86EFF1F2DE9F04F2D
:102660008B42099E52D396F800E01578777896F859
:102670000280547892F802C0C1EB030BC5EB0E0E3A
:10268000C4EB070ACCEB08061FFA8BF24FEACE1E0A
:102690004FEACA1AF601B2B30FFA82FB9EFBFBFEA9
:1026A0009AFBFBFA4FEA4E0E4FEA4A0A96FBFBFBF7
:1026B00099424FEA4B0B1FFA8EFE1FFA8AFA1FFA55
:1026C0008BFB4FEA05254FEA04244FEA0C2218D869
:1026D00001EB41070131C61989B24FEA25294FEABA
:1026E00024284FEA222C754454445A448B4200F863
:1026F0000790ADB286F80180A4B286F802C092B20B
:10270000E6D2BDE8F08F4FF0010BC7E78946357878
:1027100092F800E07478577896F802C092F8028038
:102720001570194686F800E04B465470777082F8B1
:1027300002C086F802809FE7F0B404784678827879
:10274000E00000F0F80000EB800303EB0313034408
:102750002506C3F307235FD404F0400505F0FF0707
:1027600004F02004002D46D104F0FF00002C6CD0B2
:102770005533DDB2AB243B46FF2E1CD0002E79D062
:102780001CB106FB0444C4F307241DB106FB055528
:10279000C5F307251BB106FB0333C3F30723F0433F
:1027A000C0B200FB0000C0F307200444054403440A
:1027B000E4B2EDB2DBB2FF2A18D012FB02F0003215
:1027C00018BF012202EB102212F0FF0256D01CB1FA
:1027D00002FB0444C4F307241DB102FB0555C5F3F5
:1027E00007251BB102FB0333C3F307230C704D70A5
:1027F0008B70F0BC704704F0FF075CBB00EBC004BB
:1028000000EB440000EBC0000412563BC4F1AB04E3
:10281000DDB2E4B23B46AFE704F0400707F0FF0546
:10282000E7B904F0200707F0FF04002F36D100EBD2
:10283000C00300EB430000EBC000C0F30720C0F171
:10284000AB055530EDB2C3B296E7DC43E4B21D46AA
:10285000034691E70024DD43EDB28DE704F0200448
:1028600004F0FF0594B903F15504E4B2C3F1AB03DE
:10287000DBB281E7FF231D461C469CE71546144644
:1028800013460C704D708B70F0BC7047A3F156046A
:10289000E4B20025C3F15503DBB26DE7D8431C4613
:1028A000C3B269E700220021016042608260C26019
:1028B0000261704700230022026043608360C360AE
:1028C00003617047026862B9D0ED017A80ED020AB7
:1028D00077EE807A012380ED030AC0ED017A036070
:1028E0007047D0ED027AB4EEE70AF1EE10FA2BD47D
:1028F000D0ED037AB4EEE70AF1EE10FAC8BF80ED2E
:10290000030A90ED016A531C30EE066A012B80ED3C
:10291000016A036017D907EE903AF8EE677A07EE7E
:10292000102AC6EE276AB8EE477A36EEC00A90ED56
:10293000046A67EE807A67EE807AC7EE876A76EE81
:10294000267AC0ED047A704780ED020AD9E700BF0D
:10295000036843B107EE903A90ED017AF8EE677A9A
:1029600087EE270A70479FED010A70470000C07F7D
:1029700008B5036813B99FED0D0A08BD07EE903A3C
:1029800090ED047AF8EE677AC7EE276A16EE900AA1
:1029900005F066FC41EC100B05F0CCF951EC100B86
:1029A00005F08AFF00EE100A08BD00BF0000C07FDE
:1029B00030B4642501240022458004710170427105
:1029C000826030BC704700BF0078022102F0B0BEC8
:1029D00030B5104D82682B6883B00093009B9A42FB
:1029E00003D90379184603B030BD0446007802F0DD
:1029F00091FE23799842F5D02A6801926188019A64
:102A000083F001030A44184601212371A260617119
:102A100003B030BD8874FF1F10B50446FFF7D8FF20
:102A200020B9637903B16071184610BD00231846C0
:102A300010BD00BFF8B50021054601F035FF0028A4
:102A400000F0D08041F23C43EB5C072B00F2CA80DF
:102A5000DFE803F0C9D0D7DEE5ECF304D5F81C7449
:102A6000C5F8380405F587643B1D224607F58277D3
:102A700005F23C4133F8026B42F8046F9F42F9D1F2
:102A8000D5F8207405F5C7623B1D07F5827733F84A
:102A9000026B42F8046F9F42F9D1D5F8247405F611
:102AA00038023B1D07F5827733F8026B42F8046F5A
:102AB0009F42F9D1D5F8287405F638223B1D07F559
:102AC000827733F8026B42F8046F9F42F9D1D5F850
:102AD0002C7405F638423B1D07F5827733F8026BFC
:102AE00042F8046F9F42F9D1D5F8307405F6386288
:102AF0003B1D07F5827733F8026B42F8046F9F4263
:102B0000F9D1D5F8347405F581523B1D183207F51B
:102B1000827733F8026B42F8046F9F42F9D105F5D2
:102B20009152031D183200F5827033F8026B42F89F
:102B3000046F8342F9D1D5F8180480B105F5886295
:102B400000F5006732F9043C30F9026B03FB06F331
:102B5000DB13874222F8043C02F10402F2D105F5AE
:102B6000A2500430384E04F0EBFF05F2164705F191
:102B7000160054F8041F21FB01F1B1FA81F336F875
:102B80001320B1FBF2F31A445308B1FBF3F10B44E9
:102B90005B0820F8023FB842EBD141F23D430122ED
:102BA000EA54D5F81C0401F03BFED5F8200401F0EE
:102BB00037FED5F8240401F033FED5F8280401F0DF
:102BC0002FFE41F23C430422EA5405F586610EC90A
:102BD000D5F82C04C5F81C04C5F82014C5F8242425
:102BE000C5F82834F8BD41F23C430122C5F81C0465
:102BF000EA54F8BD41F23C430222C5F82004EA54ED
:102C0000F8BD41F23C430322C5F82404EA54F8BD60
:102C100041F23C430422C5F82804EA54F8BD41F2CD
:102C20003C430522C5F82C04EA54F8BD41F23C436C
:102C30000622C5F83004EA54F8BD41F23C430722AD
:102C4000C5F83404EA54F8BD5C9E000000207047CB
:102C500000207047F8B5144C037A242908BFC280BD
:102C60005B0001250E462046C1F30721174684F874
:102C70003B3084F85E5084F85D5001F03FFBF1B2C8
:102C8000204601F03BFBC7F30721204601F036FB4D
:102C9000F9B2204601F032FB2946204601F09AFCA9
:102CA000B0FA80F04009F8BD0016FF1F70B501268C
:102CB00004460671344801F035FB052002F062FD40
:102CC000204644F260023021FFF7C4FF0546002889
:102CD00058D06C2226212046FFF7BCFF4FF4F97232
:102CE00028212046FFF7B6FF40F622722C2120460D
:102CF000FFF7B0FF44F246423C212046FFF7AAFF0F
:102D000040F2371224212046FFF7A4FF44F2FF02CD
:102D100030212046FFF79EFF732202212046FFF755
:102D200099FF4FF4C87002F02DFD41F61D522E217F
:102D30002046FFF78FFF042211462046FFF78AFF47
:102D40004FF4987206212046FFF784FF10220A21D3
:102D50002046FFF77FFF00220E212046FFF77AFF73
:102D600043F63C4210212046FFF774FF47F67F727E
:102D700022212046FFF76EFF362224212046FFF74E
:102D800069FF6672284670BD0016FF1F10B5044625
:102D900019B1012911D0002010BD55222021FFF7C3
:102DA00059FF0028F7D0E28842F00402204692B290
:102DB0002421BDE81040FFF74DBF40F273122A21D5
:102DC000FFF748FF0028E6D0882220212046FFF7A1
:102DD00041FF0028DFD0E288204622F004022421AF
:102DE000BDE81040FFF736BF38B50546F1B1802980
:102DF00003799ABFC1F1800444EA0424002433B962
:102E0000224628462221BDE83840FFF723BFC2886A
:102E1000002322F0100203712421FFF71BFF22463A
:102E200028462221BDE83840FFF714BF0123037173
:102E300047F67F722221FFF70DFFEA8842F0100269
:102E4000284692B22421BDE83840FFF703BF00BFF7
:102E50009FED057ADFED057AE0EE077AFCEEE77A82
:102E600017EE901AFFF7C0BF00000143EE7CFF3E53
:102E7000024A0349034805F06FBD00BF3015FF1F2C
:102E8000691F0000CC6EFF1F38B5074D074C08487E
:102E90002A46214605F060FD2A4621460548BDE840
:102EA000384005F059BD00BF3015FF1F691F0000F5
:102EB000D46EFF1FDC6EFF1F1A4A1B4B11681B48A4
:102EC000096970B499421279027008D2184A1278CE
:102ED0002AB3184A0121116003F5807402E01C46F0
:102EE000A3F58073144A154912680D68AAB1A5B1FB
:102EF000134E3088402810D841000A4440302944FD
:102F000002320231308033F9040B22F8020F9C4266
:102F100033F9020C21F8020FF5D870BC704703F5A5
:102F20008074DFE7F070FF1FE86FFF1F1F80004015
:102F3000E870FF1F08E200E0F870FF1FEC70FF1F51
:102F4000E46EFF1FF8B5064601F016FC0446E8B132
:102F500001F012FC054600283AD072B61F4B1A88C1
:102F60007F2A19D8002C31D01D490A6842B162B6B7
:102F7000204601F055FC2846BDE8F84001F050BC61
:102F800018480C601A80056062B6F8BD054672B636
:102F9000124B1A887F2AE5D9114A12491768146022
:102FA00000220C681A800D6062B63946304601F086
:102FB00061FC384601F034FC30462146012201F024
:102FC00059FC2046BDE8F84001F02ABC62B6F8BDC5
:102FD000204601F025FC2C46BFE700BFE46EFF1F32
:102FE000F870FF1FEC70FF1FF8B5284C284E294FD2
:102FF000294D2046012101F051FD00F02BF9274B0E
:10300000274A28484FF480611960236800211A601C
:10301000998022791E6102F1804240F20116DE8021
:103020009F6102F504324FF480760627DE82DE834C
:103030009F8302268C27D9609E609E821170177034
:103040002B68194E43F0124343F001032B600368D1
:10305000164D43F01043036001F0C6FC2279144B77
:10306000144C187053119B0003F16043174602F192
:10307000100003F5614302F01F020121377001FACD
:1030800002F245F820401A60F8BD00BFF070FF1F43
:10309000E86EFF1F00FEFFFF80F0024014B0044006
:1030A000A2F0024000F002401B8000400010FF1F11
:1030B000E870FF1FB92E0000024A0349034805F0DB
:1030C0004BBC00BF3015FF1F691F0000F070FF1FD1
:1030D000024A0349034805F03FBC00BF3015FF1FFB
:1030E000691F0000FC70FF1F024A0349034805F0F6
:1030F00033BC00BF3015FF1F691F00000471FF1FA4
:10310000024A0349034805F027BC00BF3015FF1FE2
:10311000691F00000C71FF1F2DE9F8434FF00008F4
:10312000064600F11805474641463046002F4FD06D
:1031300001F0BAFBF0B12C68B4F5803F07F104014F
:1031400000F1040E07F5827C27D05EF8042B34FBD7
:1031500002F334FB12F903F30F0209F30F03C2EA7F
:1031600003430A6893FA12F341F8043B8C45ECD808
:1031700001F056FB08F10108B8F1040F05F1040550
:10318000D2D1002F40D030463946002201F072FBE8
:103190003846BDE8F84301F043BB07F10C0100F1EC
:1031A0000C0451F8083C54F8082C93FA12F341F837
:1031B000083C54F8042C51F8043C93FA12F38C4563
:1031C00041F8043C04F1080401F10801E9D8CFE713
:1031D00001F076FB07460028CCD02868B0F5803F88
:1031E000C8D0391D07F582740B6830FB03F230FB41
:1031F00013F302F30F0203F30F03C2EA034341F890
:10320000043B8C42F0D8B5E7BDE8F883024A034995
:10321000034805F0A1BB00BF3015FF1F691F000068
:103220001471FF1F024A0349034805F095BB00BF14
:103230003015FF1F691F00001C71FF1F024A034960
:10324000034805F089BB00BF3015FF1F691F000050
:103250002471FF1F284B29491A68294842F400426B
:103260001A600A6842F002020A601A6842F002021A
:103270001A600368002B3EDB224B1B68002B3ADBF5
:10328000214A4FF0804313601368002BFCDBF0B53C
:103290001E4C1F48DFF8A8E01E491F4B1F4A204F55
:1032A000204E214D4FF2FE0CC4F800C000240460F3
:1032B0000120CEF80000DFF88CE0C1F800E04FF408
:1032C00080311960194B1360DFF87CE0184A3A60CE
:1032D0003460286000F18E40CEF80000154CB967CC
:1032E0001548164946F8503C4FF4C0632A612360E4
:1032F00003600B60F0BD70473C8004404080044098
:1033000000F0024080F0024000F1024004F102406F
:1033100060F0024008F002400CF0024010F0024061
:1033200014F00240E0F0024084F002401B1F010054
:10333000001F1F1F08B004400CB0044018B0044028
:1033400004F002400100000788F00240024A0349ED
:10335000034805F001BB00BF3015FF1F691F0000C7
:103360002C71FF1F024A0349034805F0F5BA00BF5C
:103370003015FF1F691F00003471FF1F024A034907
:10338000034805F0E9BA00BF3015FF1F691F0000B0
:103390003C71FF1F024A0349034805F0DDBA00BF34
:1033A0003015FF1F691F00004471FF1F024A0349C7
:1033B000034805F0D1BA00BF3015FF1F691F000098
:1033C0004C71FF1F024A0349034805F0C5BA00BF0C
:1033D0003015FF1F691F00005471FF1F10B4047FD8
:1033E0004160022CC26003D05DF8044B01F054BC74
:1033F00083685DF8044B1847F0B4464B464A986B17
:103400005C6B01791170454922790A701A6B007959
:103410000870002A46D05968C9688A423ED8216897
:10342000CC8B240402F1FF3065D4C0F30E00C883B6
:10343000C88B80B2C882996B0968C88B000452D4CB
:10344000C2F30E00C883C88B002480B212F1FF3291
:10345000C88218BF01221C63596B2E4809680D6889
:1034600000F12C04A54236D00068C46814F0804FE7
:103470000C680D6815BF248824780235013544F0A6
:1034800000440D604463996B254B097919702149FB
:1034900012B14A6B12791A70F0BC7047521A1A6353
:1034A0000122D9E7D86B196805681E4C0A63CC6203
:1034B000CC682D681C4E24F080440327B542CC60B4
:1034C00083F82D701FD1037F4260022BC2601ED093
:1034D000F0BC01F0E1BB016890F82C00CC6840F032
:1034E00000404863CFE7CC8BC2F3080004F47E446D
:1034F0002043C883A7E7CC8BC0F3080004F47E44C4
:103500002043C88394E72B461146F0BC18478368D4
:10351000F0BC18475015FF1F1F8000401C80004062
:103520001B80004000000FFFDD33000000207047CB
:10353000704700BF064B074ADA6202210022596039
:103540009A7083F8242083F8302083F83220704763
:103550005C71FF1F3C9F00002049214A0B6843F02B
:1035600080030B6011461368DB07FCD40B689B07D4
:10357000F9D41C4B30B44FF08072184D186000E045
:10358000A2B12968184B154C0B40013A002BF7D01B
:1035900062B1012B0AD1236813F0800F23680FD08A
:1035A00043F001132360032030BC70470B4A1368BB
:1035B00043F4702343F001031360012030BC7047D3
:1035C00013F48030236804D043F0011323600520F6
:1035D000F4E743F001032360F0E700BF30100B4035
:1035E00024100B400C100B4001000E0070B50D4D67
:1035F0000D480E4E00232B60FFF7AEFF40F2E7347C
:1036000003463268520701D507480BB1184670BD12
:103610002B60FFF7A1FF013C0346F2D1002808BF51
:10362000052070BD08100B400000DB0C24100B407F
:10363000F8B5384B1A780AB10320F8BD5B78064616
:1036400003B94902344D354C354B36484FF6FF77B8
:103650004FF481322F6021601A60FFF77DFF002850
:10366000EBD1314B31491B681C3406F1400206F5A1
:1036700010702B68284F43F0200613F4E00F2E60E3
:103680003ED123681E05FCD50B6842F8403C0B6810
:1036900042F83C3C0B6842F8383C0B6842F8343C3A
:1036A0000B6842F8303C0B6842F82C3C0B6842F83F
:1036B000283C0B6842F8243C0B6842F8203C0B681D
:1036C00042F81C3C0B6842F8183C0B6842F8143C6A
:1036D0000B6842F8103C0B6842F80C3C0B6842F84F
:1036E000083C0B6842F8043C40328242C1D10020C1
:1036F00009490B68084A9B07FBD50D4B1360F8BDC1
:1037000043F4E00343F020033B60FFF76FFF012029
:10371000EEE700BFB071FF1F30100B4008100B40E8
:1037200004100B4010003A1110100B4020100B40F9
:1037300022000001F8B52B4B1A780AB10320F8BD1E
:103740005B78044603B94902274D28482A68284B6C
:103750002A604FF48132016026481A60FFF7FCFEB0
:103760000028ECD1244B254E1B68294604F5007730
:103770000B681D4AD806FBD52B6813F4E00F1AD14D
:1037800004F1400254F8043B3360A242FAD10B68C2
:10379000DFF854E043F010030B600B6813F4E00013
:1037A00013D19742E4D110490B680F4A9B07FBD510
:1037B000134B1360F8BD136843F4E00343F01003A8
:1037C0001360FFF713FF0120EDE7DEF8003043F44C
:1037D000E00343F01003CEF80030FFF707FF0120AD
:1037E000E1E700BFB071FF1F30100B4008100B4025
:1037F00004100B4000003A1810100B4020100B4032
:103800001200000110B50121007801F07DFF114A7E
:103810001378C3B11049CB7A00241846147093B1C1
:10382000DA0703D50D4AC869106018469C0703D50E
:103830000B4B0A6AC87A1A60420705D4030702D5FF
:10384000084B8A6A1A6010BD074B4A6AC87A1A6028
:10385000F4E700BFC471FF1F5015FF1F00E100E037
:1038600004E100E00CE100E008E100E0234B1A78FD
:103870001AB10078002101F047BF70B4204A2149F5
:10388000D47A096801251D70002C26D072B6D47A2E
:10389000E607234606D51C4DD3682E683340D36116
:1038A0002B602346A50706D5184D14692E68D37AD8
:1038B000344014622C605C0706D5154D54692E689F
:1038C000D37A344054622C601B0705D5114C9369A0
:1038D00025682B409362236062B61368DA688A42D7
:1038E00007D00D4C1C600D4AD96041F080441C612A
:1038F0001A600078002170BC01F006BFC471FF1F80
:103900005015FF1FC071FF1F80E100E084E100E05F
:1039100088E100E08CE100E001403F0000003F80D2
:10392000F0B41248124A036882B016460093009F12
:103930004FF00045FF24136843F480631360D562A1
:103940005463D36A002BFCDAB36BDBB2FF2B09D0D4
:1039500003680193019BDB1B8B42ECD3002002B078
:10396000F0BC7047012002B0F0BC70478874FF1FA4
:1039700000C00240F8B50D464FF496711646044655
:10398000FFF7CEFF284B1A684FF0004042F48062E8
:1039900045F040011A60D8621A465963D36A002B79
:1039A000FCDA214918204FF000470A6826FA00F394
:1039B00042F48062DBB20A60CF624B63CB6A002BB9
:1039C000FCDA083810F1080FEFD155B3082D0CBF01
:1039D0008721FF21144B1A684FF0004042F48062A7
:1039E0001A60D8621A465963D36A002BFCDA0E4A71
:1039F000002716464FF00045FF21136843F480630B
:103A00001360D5625163D36A002BFCDAB36BD8B272
:103A10001B06607000D4F8BD0137B7F5807FECD18C
:103A2000F8BD9521D6E700BF00C00240F0B41549AB
:103A3000154A0B6882B016460093009F4FF0004570
:103A4000FF24136843F480631360D5625463D36A20
:103A5000002BFCDAB36BDBB2FF2B43700AD10B688F
:103A60000193019BDB1BB3F5967FEAD9002002B0DE
:103A7000F0BC7047A3F1FE00B0FA80F0400902B03C
:103A8000F0BC70478874FF1F00C00240F8B583780F
:103A9000032B0E46044618BF4E021546FFF7E6FEFE
:103AA000324611212046FFF765FF18B92046FFF77F
:103AB000BDFF20B92046FFF7A5FE0020F8BD204B32
:103AC0002049214A1A608E4659631A4659631E4698
:103AD000596305F5FD70A91C05F5FE77D36A13F04F
:103AE000F00FFBD0C6F834E0B36B01F8013C1B12B9
:103AF00001F8023C02318F42F0D105F50075A84271
:103B00000DD20F4A1646D36A13F0F00FFBD0B36BF9
:103B1000191200F8021BA84200F8013CF3D3084B2D
:103B20000949084A196019465A63CB6A044A13F0D6
:103B3000F00FFAD02046936BFFF764FE0120F8BD2A
:103B400000C00240FFFF009000041F80F0B4314E1F
:103B500033684FF0004743F4806333603D46F762BB
:103B6000344671633346511C02F20127E26A002A8F
:103B7000FCDA1A6811F8016C42F480621A60DD62A6
:103B80005E63E26A002AFCDA1A6811F8026B42F4FA
:103B900080628F421A60DD625E63E7D11D49CA6AA6
:103BA0001C4B002AFBDA1A684FF0004542F4806291
:103BB000FF241A601946DD625C63CB6A154A002B4C
:103BC000FBDA13684FF0004543F48063FF24136071
:103BD0001146D5625463CB6A0E4A002BFBDA136898
:103BE0004FF0004543F48063FF2413601146D56213
:103BF0005463CB6A074A002BFBDA936BDBB203F00A
:103C00001F024370A2F10500B0FA80F04009F0BC39
:103C1000704700BF00C0024070B5044671B18378A0
:103C2000032B0D4618BF4D021646FFF71FFE2A460E
:103C300018212046FFF79EFE054620B12046FFF7DB
:103C4000E1FD002070BD3246FE212046FFF77EFFD9
:103C50000028F3D04FF416712046FFF761FE0028CC
:103C6000ECD02A460D212046FFF784FE0028E5D13E
:103C70000B4B1A684FF0004542F48062FF201A6037
:103C80001946DD625863CB6A054A002BFBDA936B59
:103C900013F0FF0FD2D12046FFF7B4FD012070BD15
:103CA00000C00240014B024A1A607047C071FF1FFA
:103CB0000320003838B590F90530002B03DBBDE850
:103CC000384000F079B904460121006900F0B4F9E8
:103CD000F8B1257D104B13EB45151AD0A3790F4A87
:103CE000012B9CBFA369EB61E36912686B831B0C1A
:103CF000AB8232B105F1160105F1180090472B8B0C
:103D00006B82637903F07F036371BDE8384000F094
:103D100053B9002038BD00BFD471FF1FC871FF1F09
:103D200010B500F1080204460121006A00F02CFAE7
:103D300050B1E3693BB96379A268E26163F07F0344
:103D40006371012010BD012010BD00BFF8B583795B
:103D500013B182698A4201D20020F8BD022B0F46BE
:103D600005461AD007B32B6AE9681C7C4A1E04F189
:103D700009037C1EDA40DC40A24211D9EB69AB603A
:103D800005F1080606E0A968286A00F0C5F9013CBB
:103D90000028E1D03246002CF5D1EF600120F8BDBB
:103DA0000029EBD0A41AEBE7AF60EF600120F8BD6B
:103DB0002DE9F04F8B46817985B0012907460192A4
:103DC00005D001233B71002005B0BDE8F08F42799A
:103DD0009107F6D5530708D5FC68B9698C4200F005
:103DE000B480FFF7B3FF0028EBD0019BFC68002BE9
:103DF0004AD0DFF8A491DFF8A4A1DDF80480386A86
:103E00000679013E06EA542616F0FF06C4F30804BC
:103E100043D1002C41D1B968002973D1FA69002A35
:103E200000F08380BA60C4F50075ADB245453AD95B
:103E3000057C4169023AAA400E4416441FFA88F5EF
:103E40001CB9F868BA6990424FD23046012100F09F
:103E5000F3F80028B5D04C4404EB050E74450DD0A2
:103E60000BF1FF31621E0EF1FF3611F8010F02F85F
:103E7000010F9642F9D1C4EB0E04A344FC68B8EBE1
:103E800005082C44FC60BAD1BB69A34262D27A799E
:103E9000BC6142F080027A7165E0C4F50075ADB294
:103EA0004545BA68C4D8017C4069023A8A40064454
:103EB000B5F5007F1644C3D1DAF80020964204BF5E
:103EC0004FF0FF32CAF800202F4A10680278FE2A0D
:103ED000314633D05A46FFF79FFE00283FF471AFBA
:103EE0000BF5007B4FF40075C8E700F065F800287B
:103EF0003FF467AF2549CAF800600A7842F0010232
:103F00000A70A8E703AA00F007F900283FF45CAFA5
:103F1000386A1F4B90F82050039A4FF6F871102D15
:103F200018BF19468A42FFF47DAF3846FFF7F8FE06
:103F300000283FF446AF386ABA6874E75846FFF77E
:103F4000F9FBB0FA80F04009C7E7019B002B7FF432
:103F500050AF08E00F4B7A791B6823B1019B13B176
:103F600042F080027A71120709D5BB79002B3FF429
:103F700028AF3846FFF79EFE00283FF422AF019895
:103F800005B0BDE8F08F00BFD071FF1FD473FF1FD5
:103F9000F8FFFF0FC871FF1FD471FF1F9015FF1F9F
:103FA00000B583B002AB012203F8011D1946FFF7EB
:103FB000FFFE03B05DF804FB70B51A4C23780BB913
:103FC000012070BD184D194B286819680378FE2B25
:103FD00017D0174AFFF720FE88B1164E316819B97D
:103FE00000232370012070BD28680378FE2B0FD0BA
:103FF0000F4AFFF711FE10B100233360F0E70020F5
:1040000070BD0B48FFF796FBB0FA80F04009E3E77C
:104010000748FFF78FFBB0FA80F040090028EBD18A
:10402000EDE700BFD473FF1FD071FF1F9015FF1F76
:10403000D471FF1FCC71FF1F70B5124D2B688342E6
:104040000E4611D00446FFF7B7FF08B9002070BD37
:104050000D4B18680378FE2B0CD00C4A2146FFF755
:1040600015FD0028F2D02C60094B197831431970E6
:10407000012070BD21460548FFF7DAFAB0FA80F05A
:104080004009EEE79015FF1FD071FF1FD471FF1F8D
:10409000D473FF1FF8B590F82030C469102B1A4B69
:1040A00005460E4617461B6816D004EBD1149C42F9
:1040B00016D106F07F06154A42F826701449287E6C
:1040C0000A78012842F001020A7018D9A968114A39
:1040D0000B4413600120F8BD04EB11249C4208D06E
:1040E00000212046FFF7A8FF50B195F82030102B93
:1040F00007D1F6B2054A234622F81670DEE7012002
:10410000F8BD2346D5E700BF9015FF1FD471FF1FF0
:10411000D473FF1FCC71FF1FC36801338B4218D3C8
:1041200070B590F82030102B154B044616460D46FE
:10413000C0691B680FD000EBD11098420FD105F079
:104140007F01104B53F8213023F07043336001207E
:1041500070BD0020704700EB1120984207D000216D
:10416000FFF76AFF50B194F82030102BE7D1E9B285
:10417000044B33F811303360012070BD002070BD56
:104180009015FF1FD471FF1F2DE9F04F176883B002
:104190006FB301374FF0000AC36803F1010813B38E
:1041A0008B46064691463C46002505E01C461F46C8
:1041B000F3680135AB4216D9A04538BF0224214629
:1041C00001AA304638BF2746FFF7A6FF631CD91B5C
:1041D00048B1019A002AE9D18B4510D01C46F368FA
:1041E0000135AB42E8D8002003B0BDE8F08FA1F163
:1041F000010ABAFA8AFA07684FEA5A1ACCE7012C80
:10420000F1D9F36801339C42EDD86FF0704221463A
:104210003046FFF73FFF0028E5D0A74214D2013C0B
:10422000012CE0D9F36801339C42DCD8621C2146A2
:104230003046FFF72FFF0028D5D0A74204F1FF3406
:1042400002D0012CEED1CEE7D9F8001059B10129E6
:10425000C9D9F36801339942C5D83A463046FFF7C9
:1042600019FF0028BFD0C9F80070BAF1000F01D0C3
:10427000013737600120B7E790F8392090F838000F
:10428000101A704790F8383090F839209A4205D9C2
:104290005A1C034480F83820187E70474FF0FF30D6
:1042A000704700BF90F8383090F839209A4286BFA6
:1042B0001B18187E4FF0FF30704700BF704700BFDB
:1042C00038B50546B0F85E0090B195F85D301446FB
:1042D000C3F1210294420CD805F13B001844224658
:1042E00001F056F895F85D30234485F85D3020469E
:1042F00038BD012014462871EEE700BFB0F85E30EB
:104300006BB190F85D30202B07D8C218013380F8CC
:104310005D30012082F83B107047012303710020BB
:10432000704700BF0023426980F8383080F8393088
:1043300080F85C3080F85D3080F85E3080F85F3067
:1043400006CA30B40D68046943662A4383660A606E
:10435000A370426990F861301649146813441D7ABD
:104360005B7B01EBC5051B026D6803F4E06343F062
:1043700064032B6090F8623013449D7CDB7D01EB7D
:10438000C5011B02496803F4E06343F064030B605A
:1043900021685368194205D003692C225A700369B9
:1043A00004229A71036920225A71036980229A704B
:1043B00030BC70472CA0000038B50269D478E4B254
:1043C000E106054624D51023D37063061FD504F0FB
:1043D000040404F0FF03002C5AD042496A6E002303
:1043E0000B7085F85D30002A66D0904795F85D30F7
:1043F000002B61D02B69D0229A702B6995F83B2055
:104400001A712B69012285F85C200222DA7038BD0E
:1044100004F0400303F0FF00002BD8D19379DBB206
:1044200003F0600160294ED0937803F0100303F08D
:10443000FF01B3B114F0010437D195F85C3095F861
:104440005D1099424BD9591C2B4485F85C1093F8A8
:104450003B3013712B69D0229A702B690222DA70DB
:10446000D5E785F86010937943F0200393712B69A9
:1044700095F839101A791F29D2B2C6D81948007890
:104480000028C2D06818013185F839100276BCE7DF
:104490002A6985F83930C02393702B69114A19793C
:1044A000012111700222DA70B1E7C02393702B69E9
:1044B0001A790222DA70AAE70122002385F85D202A
:1044C00085F83B3096E703F0DF039371AB6E23B1C1
:1044D00085F8380095F8390098472A69A4E71471DF
:1044E000B8E700BFD573FF1F2DE9F047374FDFF85E
:1044F000E0903B68026982B006460093DDF80080D8
:1045000000214FF49675D3789B065BD53B680193E9
:10451000019BC8EB03030F2BF5D949B1102BF2D047
:1045200000209070336980229A7002B0BDE8F08755
:10453000726996F8613013440521187A01F0F8F891
:10454000726996F861301344012193F812A0504625
:1045500001F0EEF809240021504601F0D5F82B4671
:10456000013BFDD10121504601F0CEF82B46013B25
:10457000FDD1013CEFD1706996F8611001444FF410
:1045800016720C7A4B7B09EBC4011B02496803F4D9
:10459000E06343F064030B6096F862300344997C57
:1045A000DB7D09EBC1011B02496803F4E06343F0C2
:1045B00064030B60013AFDD13269D3789B064FF05A
:1045C0000101A3D4012002B0BDE8F0878874FF1F69
:1045D0002CA00000F0B503691222DA70026993780A
:1045E00003F0200385B004460D46002B5ED0B423B3
:1045F00093703C4922690B680093009E05E00B68AC
:104600000193019B9B1B042B42D8D37803F020031A
:1046100003F0FF00002BF2D094F85D30002B31D076
:104620004FF0000E4FF0020C04EB0E0393F83B30FA
:1046300013710B680393039F206907E09B060DD558
:104640000B680293029BDB1B052B28D8C378DBB2D7
:1046500003F0020202F0FF06002AEFD080F803C048
:104660002669F378DBB2DF0632462DD49F062BD5C0
:10467000DB0731D40EF1010E94F85D305FFA8EFE47
:104680007345D1D800201DBB002384F85E3004E0C0
:104690009070236980229A70042005B0F0BD867066
:1046A0002369802204209A7005B0F0BD03F0FF0654
:1046B000FFF71AFF10B9042005B0F0BD236984F894
:1046C0005F60B0229A7094E78023B3700420DAE729
:1046D00026698023B370D7E7BEF1000F0CBF02201C
:1046E0000320F6E78874FF1F0148FFF765BE00BF8F
:1046F0000016FF1F0148FFF75FBE00BF6C16FF1FCB
:104700000148FFF759BE00BF9415FF1FB1F5607F48
:10471000F0B428BF4FF4607172B6134A134C144BB7
:1047200010600022228003F1700443F8042FA3429A
:10473000FBD1B1B10F4E002301275D0903F01F0427
:1047400056F8252007FA04F4013322438B4246F839
:104750002520F2D10023438001338B4200F5827083
:10476000F9D162B6F0BC7047E073FF1F5A74FF1FA7
:10477000E473FF1FE873FF1FF0B472B6234F244E9B
:104780003C8806F1700306EB8400984212D256F87A
:10479000241099B9021D06F17305631CAD1A03EBD1
:1047A000950503E052F8041B41B90133AB421C46A6
:1047B0001046F7D162B60020F0BC7047B1FA81F321
:1047C0004FF00042DA4021EA0201016001B90134F0
:1047D00010493C800A88013294B20C8062B6801B7A
:1047E0008010C3EB401000EB801083000A480B4997
:1047F000006803F5FB531C330125C5540D88AA42FC
:10480000184488BF0C80F0BC704700BF5A74FF1F6B
:10481000E873FF1F5C74FF1FE073FF1FDC73FF1F53
:10482000428872B60378012B03D9013B037062B64C
:104830007047531170B40C4C0C4D54F823102E8853
:10484000D2434FF0004002F01F0220FA02F211435F
:10485000074A44F82310B34238BF2B801388013B2A
:10486000138062B670BC7047E873FF1F5A74FF1F55
:104870005C74FF1FC368B3B130B401E0DB688BB177
:10488000187A9042FAD158685C7A006950F824503E
:10489000002DF3D140F82410087801300870DB684F
:1048A000002BEDD130BC7047437A8B4206D90369A7
:1048B000002253F8210043F8212070470020704760
:1048C00038B5437A8B421AD9036953F82140002244
:1048D00043F821209CB12378012B0ED9FFF74CFF20
:1048E000054628B14FF48072211D043000F050FDC0
:1048F0002378013B2370284638BD204638BD002070
:1049000038BD00BF037C23BB4368427A5B7A9A427E
:104910001FD830B472B60468E3682BB3DA6832B1DA
:1049200019688C4216D01346DA68002AF8D1D8608C
:104930000023C360A37A0133A37202684168012394
:1049400013728A7A1A448A7242681372037462B6C6
:1049500030BC70475D6841688D42E4D11989038994
:104960009942F4D01346DFE7E060E1E7037C10B53D
:10497000002B32D04368427A5B7A9A422DD872B6C5
:104980000268D36843B3984202D129E0984202D02A
:10499000DB68002BFAD14368417A1B69044653F85F
:1049A000210048B1FFF73CFF72B66368627A1B6969
:1049B000002143F822102268937A013B9372236806
:1049C0009A7A02B91A726268937A013B93726368A9
:1049D0009A7A1AB10023237462B610BD1A72F9E7ED
:1049E000C368D360D7E700BF084B1A785AB90848A4
:1049F000084910B4D0240470012210460A601A70CD
:104A00005DF8044B70470020704700BFE473FF1F40
:104A100040E400E008E100E01A491B4A1B48F8B5F1
:104A20000B681B4D046843F080730B60136843F000
:104A3000010313602E6814B915E064699CB1237AF0
:104A4000002BFAD023682F681B68204698472B68F4
:104A5000E188DB1B1B099AB28B42A28088BFE280EF
:104A60006469002CEBD10A4B0A4A1B6810880A4C77
:104A70009B1B1B0999B28342218001D91180F8BD8B
:104A8000F8BD00BFFCED00E0001000E0D873FF1F90
:104A9000041000E05874FF1F5E74FF1FF0B572B67B
:104AA00099B902688AB103790F2B0ED8284C218856
:104AB00041FA03F5ED070AD503F1007303F590639E
:104AC000B2EB431F03D162B6F0BD214C2188002315
:104AD00041FA03F212F0010207D00133102BF7D193
:104AE00062B6002203710260F0BD01259D4029439A
:104AF000218062B6174E184D184FDFF868E0D9B222
:104B00000171346844F0020434602C6844F00204FB
:104B10002C60A6F5802640F28244A5F5802503F19D
:104B200000733C6003F59063223E243D0C4C8EF8EC
:104B300000105B0131702970217003601A605A60A7
:104B40009A60DA601A615A619A61DA61F0BD00BF59
:104B50006074FF1F408004403C800440008000409F
:104B60001F8000401A80004003790F2B12D80A4A98
:104B700010B4137072B6094904790A880123A3405E
:104B800022EA03030B8062B6102200235DF8044B77
:104B900002710360704700BF1A8000406074FF1FFD
:104BA000F0B50E7992F804E006F0FC030EF0FC0478
:104BB00003F1804304F1804403F5014304F501440B
:104BC0001B682468F5004FEACE0C1FBA05F01803E5
:104BD00025BA0CF0180427FA03F325FA04F403F0BD
:104BE0000F0304F00F049C4215D981F804E01671FC
:104BF0000B6814680C6013600E7906F0FC0404F175
:104C0000804404F50144F300246803F0180523BA36
:104C1000EB4003F00F0390F804E00EF0FC0505F103
:104C2000804505F501454FEACE042D6804F01807CC
:104C30002CBAFC4004F00F049C4215D206710C689B
:104C400081F804E0036804600E790B6006F0FC0054
:104C500000F1804000F50140F300006803F0180403
:104C600003BAE34003F00F03177907F0FC0404F1E3
:104C7000804404F50144F800246800F0180520BAC7
:104C8000E84000F00F00984205D90F7116710B68CB
:104C9000106808601360F0BD10B4EFF3108272B6B4
:104CA000437F33B9017F012908D0032910D00123A4
:104CB000437702B962B65DF8044B7047114C216826
:104CC000A1B1114943610B68836108605861EEE747
:104CD0000E4C216881B10E4943610B688361086005
:104CE00058610C4B4FF080511960E0E7064B416171
:104CF000816120601860DAE7054B416181612060C5
:104D00001860EEE77474FF1F7074FF1F6474FF1F58
:104D10006874FF1F04ED00E070B5EFF3108272B607
:104D20000C4C206880B10C4E00254369236073B1A0
:104D30009D6102B962B6457783689847EFF31082A8
:104D400072B620680028F0D102B962B670BD336037
:104D5000EFE700BF6474FF1F6874FF1FFFF7DCBF3D
:104D6000184A30B41468002C27D0036821688B429D
:104D70000ED2CB1A00218460C1602360E060106015
:104D80000223037530BC704711688B42144608D368
:104D9000A2685B1A0360002AF6D18260C460A0603A
:104DA000EEE7D268C2608460E060C568CB1A022278
:104DB000A8602360027530BC70478460C4601060D6
:104DC000DEE700BF6C74FF1FF8B5224E34682CB3C9
:104DD0002368002B3AD1204F1D4604E03468ECB123
:104DE0002368002B32D1A36803B1DD6020693360F2
:104DF000036825751B68BB4221D1037F4560022BE8
:104E0000C46020D0FFF748FF6368002BE6D0236022
:104E10002046FFF7A5FF3468002CE1D1EFF31083A3
:104E200072B60E4A00211068116003B962B628B14B
:104E30008468FFF795FF20460028F9D1F8BD224687
:104E400000219847E0E783689847DDE7013B23604E
:104E5000E4E700BF6C74FF1FDD3300007C74FF1FAC
:104E6000024A136801331360FFF7AEBF8874FF1F57
:104E7000F8B50E4671B17AB10746144600253B6875
:104E800016F8011B1B6838469847013C0544F6D1CB
:104E90002846F8BD0846F8BD1046F8BD00B5064ADC
:104EA000036812885B6883B001A9ADF80420022270
:104EB000984703B05DF804FBD09F0000F0B50746AB
:104EC0008BB0002A33D0012A08BF0A2251B3212413
:104ED00000E0F4B2B1FBF2F502FB1511C8B20929EA
:104EE00000F1300198BFC8B20AA988BF3730214409
:104EF00088BFC0B201F8240C661E2946002DE8D1F7
:104F000033B1013CE4B20AAB23442D2203F8242C34
:104F10003B6801AA11195B683846C4F12202984720
:104F20000BB0F0BD30228DF825202124E8E703687E
:104F3000C9B21B6898470BB0F0BD00BF0029BABFCB
:104F400049422D2300230A22FFF7B8BF374A3849C8
:104F500013681B06FCD40B6813F08003F8D172B6FB
:104F600034490A78002A5FD0334A3448F0B4344CCC
:104F7000176806682568D4680C303E44143200680F
:104F80001268304F35442C4420440244C2F34E0290
:104F90002D4E2E482E4D2F4C42F400423A60376879
:104FA00006682D682C4A24680C303E44006812685C
:104FB0002A4F35442C4420440244C2F34E02284E6A
:104FC0002848294D294C42F400423A603768066867
:104FD0002D68274A24680C303E4400681268254F2B
:104FE00035442C4420440244C2F34E02224E23484E
:104FF000234D244C42F400423A60376806682D681D
:10500000214A24680C303E440068126835442C4420
:1050100020440244C2F34E021C4842F400420260A3
:105020000B7062B6F0BC704762B6704724B00340A4
:1050300024B00B408174FF1F38B003403CB00340E4
:1050400040B003402CB0034058B003405CB0034074
:1050500060B0034064B003406CB0034030B0034024
:1050600038B00B403CB00B4040B00B4044B00B405C
:105070004CB00B402CB00B4058B00B405CB00B4018
:1050800060B00B4064B00B406CB00B4030B00B40D4
:1050900030B42948294A2A4B2A4D6024E121047062
:1050A00011701B78284C082B30D00A2B2748284930
:1050B00037D00C2B0CBF35225D2212232A602360CF
:1050C00002600B60234B24491B78244ABBB10123A7
:1050D0000B601360224B23491B78234A012B26D9EE
:1050E000042B0FD9082B1ED9102B94BF862387239E
:1050F0000B6013601D4B01221A7030BC70470B60AF
:105100001360E7E784230B601360F3E700F58E205C
:105110000F490830212213232A60236002600B60AC
:10512000D0E73922F7E785230B601360E2E780239D
:105130000B601360DEE700BF0040074001400740FE
:10514000D816FF1F08B003400CB0034008B00B4056
:105150000CB00B408474FF1F20B0034020B00B4004
:10516000D916FF1F24B0034024B00B408174FF1FE9
:1051700010B51A4B1B780446BBB9012C19D9042C65
:10518000174B18490AD9082C20D9102C17D90722F7
:105190001A600A60144A2023137010BD04221A609A
:1051A00013460A60104A137010BDFFF7CFFE012CA2
:1051B000E5D80B4A002313600B4A137010BD06227A
:1051C0001A600A60084A1023137010BD05221A6085
:1051D0000A60054A0823137010BD00BF8174FF1FC9
:1051E00024B0034024B00B40D916FF1F47282FD806
:1051F000334B2DE9F0411E5CFF2E2BD0314B1B7839
:10520000002B2AD132062CD472B62F4D2F4C2F46AC
:10521000012326602B7062B672B623681B060CD47D
:105220003B781BB9F4E72B78002BF1D062B601F084
:105230008BFD72B623681806F5D5254B1B68002236
:105240002A7062B6234A107843FA00F0BDE8F08174
:10525000002070470020BDE8F081FFF777FE32069E
:10526000D2D572B61C4DDFF87C801C4C06F040078E
:10527000FFB206F03F06D8F80030DFB123F010038C
:10528000C8F8003001232660134A2B7062B672B64C
:10529000236819060CD413781BB9ECE72B78002B84
:1052A000E9D062B601F050FD72B623681B06F5D551
:1052B0000B4BC3E743F01003C8F80030E2E700BF30
:1052C000D49F00008174FF1F8374FF1F00B0034050
:1052D00010B003408074FF1F8274FF1F00B00B40AA
:1052E00010B00B400CB00B40F0B51D4B1D4E596873
:1052F00018689A68DB6885B06C460FC433789907E4
:1053000021D5194A194C137813F0700318BF137084
:1053100000F02AF9164A1749174B80271770002604
:105320001220052226706D4608701A7072B6043C71
:1053300045F001052046A84762B600F02FF9237812
:1053400013F0700309D10D4B064901E0013B02D077
:105350000A78D207FAD505B0F0BD237005B0F0BDCC
:105360001CA00000010002400000024004000240B6
:10537000070002400B0002400A000240410D0300FA
:1053800008B5FCF7C7FBFCF7F3FA01F0DDFCFAE720
:10539000844641EA000313F003036DD1403A41D340
:1053A00051F8043B40F8043B51F8043B40F8043BFF
:1053B00051F8043B40F8043B51F8043B40F8043BEF
:1053C00051F8043B40F8043B51F8043B40F8043BDF
:1053D00051F8043B40F8043B51F8043B40F8043BCF
:1053E00051F8043B40F8043B51F8043B40F8043BBF
:1053F00051F8043B40F8043B51F8043B40F8043BAF
:1054000051F8043B40F8043B51F8043B40F8043B9E
:1054100051F8043B40F8043B51F8043B40F8043B8E
:10542000403ABDD2303211D351F8043B40F8043B2E
:1054300051F8043B40F8043B51F8043B40F8043B6E
:1054400051F8043B40F8043B103AEDD20C3205D33E
:1054500051F8043B40F8043B043AF9D2043208D036
:10546000D2071CBF11F8013B00F8013B01D30B88A8
:1054700003806046704700BF082A13D38B078DD086
:1054800010F003038AD0C3F10403D21ADB071CBF58
:1054900011F8013B00F8013B80D331F8023B20F8C2
:1054A000023B7BE7043AD9D3013A11F8013B00F8FB
:1054B000013BF9D20B7803704B7843708B78837083
:1054C0006046704708B5104C08E0236859050DD4B4
:1054D00023681A050FD42368DB0411D4236858030A
:1054E000F3D500F083FC23685905F1D500F01EFBCD
:1054F00023681A05EFD501F0A5FC2368DB04EDD580
:1055000001F036FDEAE700BF3480044008B5FFF73C
:10551000D9FF00BF014B10221A80704700200540C0
:10552000704700BF094908B50B6830B16A46184496
:10553000A2F50052904202D20860184608BD03F05E
:105540001BFA0C2303604FF0FF3008BDDC16FF1F71
:10555000FEE700BF0078B0FA80F04009704700BF56
:1055600001230370704700BF084A1378802B01D0D5
:10557000002070470649074B074808600021197052
:105580001378802BFCD00120704700BF03E0074058
:105590004480044001E0074000002822094A1378B3
:1055A000012B01D00020704703F1804303F5FC2359
:1055B000602119701378802BFCD1034B034A1A60C9
:1055C0000120704703E007404480044000000602C9
:1055D00003F004BAF0B44D1E2E46002400E001345E
:1055E000B0FBF2F302FB1300092800F130078ABF79
:1055F0003730F8B2C0B206F8010F1846002BEED1D2
:105600000A1953704CB1107815F8016F28700133E6
:10561000E01A834202F80169F5DB0846F0BC7047E6
:1056200010B4114B53F8302092F8804234B101236A
:1056300079B182F880305DF8044B704703EBC0030A
:105640005B681A6851B922F002021A605DF8044BD7
:10565000704782F800315DF8044B704742F0030256
:105660001A605DF8044B70472CA000001C4A02EB46
:10567000C00301295B6811D004291BD052F8300007
:10568000002280F8802229B1022920D0032922D0CB
:105690001A6070474FF480721A60704752F83000F9
:1056A0004FF4A27280F880121A601A6822F0200269
:1056B0001A60704752F830104FF4A272012081F83E
:1056C00080021A601A6842F020021A60704740F2A5
:1056D00003121A6070474FF481721A60704700BF5E
:1056E0002CA0000030B4054B054D064C00221021C3
:1056F0001A602A602060196030BC704714D00340E3
:1057000004D0034000D003403F2801D8FFF788BFF2
:10571000704700BF3F2806D8044B53F8303093F849
:105720000002C0B270470020704700BF2CA00000EC
:105730003F2801D8FFF79ABF704700BF72B60D49E6
:105740000D4B0E4A1B680868126862B6520102D5FA
:10575000322B88BF0130C3F52F33094903F21F33C1
:105760004FF47A729B08A1FB031302FB00F000EBDD
:10577000930070478874FF1F18E000E004ED00E01C
:10578000176CC1162DE9F843054672B6224F234B1C
:10579000234A1B683C68126862B6520102D5322B5C
:1057A00088BF0134B5B3C3F52F3303F21F331D4E49
:1057B000DFF86890DFF868809B084FF47A72A6FBE8
:1057C000031302FB04F404EB930472B6D9F800103F
:1057D0003A68D8F800E062B6C1F52F3303F21F3300
:1057E0009B08A6FB03031EF0806FC4EB93034FF4EA
:1057F0007A7002D0322988BF013200FB0233B3F540
:105800007A7F04D3013D05D004F57A74DDE701F019
:105810009BFADAE7BDE8F8838874FF1F18E000E020
:1058200004ED00E0176CC116F8B54E4B4E48DFF89A
:105830005CC14E4C4E49DFF858E14E4E4E4D4F4F35
:105840004FF000621A604FF080521A604FF0005221
:105850001A604FF080421A604FF000421A60002236
:10586000026028234EF6FF70CCF80000CEF800301E
:1058700023600EF5012E0B6033602B6006F50026C9
:105880003B6005F50025A36207F500278B6204F550
:10589000012401F5012106F6E87605F6E87507F51D
:1058A0007F6710310EF1100E203433602B60CEF87C
:1058B00000303B600B602360314CBB618B61092180
:1058C0002160A7F5002704F58054203F08343A6092
:1058D0002060BB60E36047F8041C04F5FD2407F575
:1058E000FE27043704F2FC7422603860A360FB607A
:1058F00044F8041C083404F6FC74C7F8FC2F20603C
:10590000A4F5E124A4F2DC7433602B60C7F8F81F1F
:1059100021681C4841F40071216001681A4C0EF5A1
:105920007F4E0EF1E80E07F5883706F5803605F54F
:10593000803541F000710160CEF8002047F6FF711C
:105940000822396033602B602260FFF7A1FB192029
:10595000FFF718FF00F0B2FF40F21310BDE8F84067
:10596000FFF710BF04E100E004800340148003400F
:105970001C800340248003402C800340348003407B
:10598000008003400480044000900C4008800340E5
:105990000C800340324A33491368F0B543F4806306
:1059A00013600A78304F314E314D324C324900236A
:1059B000152A3B7033702B7023700B7045D01B2A57
:1059C0003ED082B32D4B1B78052B34D01A2B41D0FF
:1059D000012B1BD01F281FD8002002460125284B71
:1059E000284C1A7028495D7004224FF0020E882757
:1059F0003C26402598729A704FF0004083F813E0DF
:105A00005A751F74DE7025700860F0BD1F4B4FF48F
:105A100051721F281A60DFD9C0F34432C0F3471512
:105A200000F01F00DBE71A4B40F213321A60134BF1
:105A30001B78052BCAD1174B4FF451721A60C9E776
:105A4000154B40F213321A60BCE7144B40F213328C
:105A50001A60B7E7124B4FF451721A60BAE700BFF1
:105A600034800440D474FF1F9074FF1F9174FF1F93
:105A70002075FF1F1975FF1F1875FF1FE016FF1F08
:105A800000A006401FE400E000E100E044A0044064
:105A900040A004401CC004403C90044018C0044096
:105AA00038900440054A064B10781B78C0B2DBB230
:105AB000984238BF4030C01A704700BF9074FF1F33
:105AC0009174FF1F30B4154B154C1A782378D2B25D
:105AD000DBB29A421ED001333F2B0ED91149124B33
