:1000000000000320D1010000717F0000297F000063
:10001000297F0000297F0000297F0000297F000040
:10002000297F0000297F0000297F0000717F0000E8
:10003000717F0000297F0000A1760000A5770000F5
:10004000717F0000717F0000717F0000717F0000F0
:10005000717F0000717F0000717F0000717F0000E0
:10006000717F0000717F0000717F0000717F0000D0
:10007000717F0000717F0000717F0000717F0000C0
:10008000717F0000717F0000717F0000717F0000B0
:10009000717F0000717F0000717F0000717F0000A0
:1000A0002D70000039700000717F0000717F00002A
:1000B000717F0000717F0000717F0000918500005A
:1000C000717F0000A9980000717F0000D5990000A1
:1000D000717F0000CD9A0000717F0000717F0000E9
:1000E000717F0000717F0000717F0000717F000050
:1000F000717F0000717F0000717F0000717F000040
:10010000717F0000717F0000717F0000717F00002F
:10011000717F000051880000717F0000717F000036
:10012000717F0000717F0000717F0000717F00000F
:10013000717F0000717F0000717F0000717F0000FF
:100140005D730000717F0000C59B0000717F00009F
:10015000717F0000717F0000717F0000717F0000DF
:10016000717F0000717F000045700000717F00000A
:10017000717F0000717F0000717F0000717F0000BF
:10018000717F0000717F0000717F0000717F0000AF
:10019000717F0000717F0000BD9C0000717F000036
:1001A000717F0000717F0000717F0000717F00008F
:1001B000717F0000717F0000717F0000717F00007F
:1001C000717F0000717F0000717F0000717F00006F
:1001D0005C4B4CF2205210B51A804DF628121A8052
:1001E00000BF00BF07F0C8FE574B4FF030621A60E7
:1001F000564A9A60564ADA60564B4FF470021A60BB
:10020000554B564A1A60564B1A78110703D51A787F
:1002100042F008021A70534B5349AA221A70534AEB
:10022000534B8B4204D252F8040F43F8040BF8E707
:10023000504B514900228B4202D243F8042BFAE77B
:100240004E494F4A002352F8230041F8230001335E
:10025000742BF8D14B4B4C4A802103F8011B93427D
:10026000FBD14A4B454A1A60494B8A221A70A3F5C2
:10027000805324225A70A0221A709A799207FCD5D2
:100280009A79D406FCD4434A937903F00C03082BE3
:10029000FAD1414B60221A7002331A78802AFCD1BD
:1002A0003C4B01221A715D225A719A799006FCD555
:1002B0009979384A4906FBD5384B394919600021EC
:1002C000596020231370937903F00C030C2BFAD19F
:1002D000344B354A1A60354A354C136813F4807331
:1002E00003D123604FF4A8531360324B324A1A6093
:1002F00000225A60072243F8042C304AC3F80C2D20
:1003000062B607F0C3FF2368DA0705D52C4807F06B
:100310001BFF2C4B2C4A1A602C4B1B785B0609D513
:10032000284C294B22689A4204D1254807F00CFF3B
:10033000002323600BF008F907F024FE07F052FDBC
:10034000FEE700BF0E20054030800440823F0400DD
:100350000100002B88ED00E0002008E0030000858C
:1003600002D0074000E00740B821FF1F74CA010017
:100370003015FF1FB821FF1F18B1FF1F0010FF1F0E
:100380000000000000E400E064E400E008ED00E0AC
:10039000005006400040064001E007404480044011
:1003A0000000060204800440C010070010D0034083
:1003B00014D0034014E000E01FBF02000000202022
:1003C0008B4A18601CE00340A5C3945A00F0074014
:1003D000FFFFFFFFFFFFFFFFFFFFFFFFFFFFFFFF2D
:1003E000FFFFFFFFFFFFFFFFFFFFFFFFFFFFFFFF1D
:1003F000FFFFFFFFFFFFFFFFFFFFFFFFFFFFFFFF0D
:10040000FFFFFFFFFFFFFFFFFFFFFFFFDEF9FFFF23
:1004100010B5054C237833B9044B13B10448AFF33E
:1004200000800123237010BDB821FF1F00000000D1
:1004300078CA0100084B10B51BB108490848AFF352
:1004400000800848036803B910BD074B002BFBD0A0
:10045000BDE81040184700BF00000000BC21FF1F8E
:1004600078CA0100B821FF1F00000000002070477B
:10047000704700BF4069C000704700BF2DE9F04FD2
:10048000DFF8A4A0DFF8A4B09AF80030244F87B0BA
:100490000133DBB200228AF8003003924FF00109E9
:1004A0000BF58072DDF80C8002925E46002401E0BC
:1004B0009AF8003056F8045F1A49CDF8009004EB22
:1004C00008021A44D2B2FF2305A805EB45050A34F9
:1004D00004F074FDE4B27B199DF814009DF815102A
:1004E0009DF816207855502C59709A70E0D1029BD7
:1004F0000BF1200B08F105085B455FFA88F802D084
:100500009AF80030D1E7039B0533DBB2282B039325
:1005100002D09AF80030C3E707B0BDE8F08F00BF03
:10052000942AFF1F3C3AFF1FE075FF1F0022FF1FA8
:100530002DE9F04F002585B0744EDFF80082DFF81A
:10054000F4B1DFF8FC912C4607E0642B00F3DB806C
:100550000134082C05F1DC0540D056F8043F58F86A
:100560002320002AF4DB130289FB0301B2F5167F76
:100570004FEAE373C3EB2123E7DD4FF0FF0A644B3F
:10058000D3E900010AF032FF00EBC4000BEB40118D
:10059000EA10CF695F490120143A53460090D2B265
:1005A00003A804F00BFD07EB47035B4F9DF80C001D
:1005B000FA5CF91882FA50F2FA549DF80D304A7834
:1005C00082FA53F24A708B789DF80E2083FA52F328
:1005D0000134082C8B7005F1DC05BED14F4B504A1D
:1005E0001B68504EB3F57A7FA8BF4FF47A7323EAA5
:1005F000E37303EB830103EBC10382FB0312DB17FD
:10060000C3EB22233268C3F12E03934273DA464CC4
:100610003F4D23780022002B5DD0444BD5E90001EB
:100620000AF082FA0022424BC5E900010AF096FE68
:10063000002865D1DFF80C81374FDFF80CE108F5B1
:100640000069A8F5807C614651F81C3D51F8042FE3
:1006500002EB420503EB43030EEB0504F8181EF80A
:1006600005A06578A47807F803A08C45134645706B
:100670008470EBD10CF1200CE045E4D108F58078D2
:10068000C145DED12B4800F5006500F58074C269D4
:1006900002EB4202B918BB5C03EBC30303EBC303D9
:1006A0001B12BB544A788B7802EBC20203EBC303E4
:1006B00002EBC20203EBC303203012121B1284426E
:1006C0004A708B70E3D1AC422046DED10122326009
:1006D00005B0BDE8F08F184BD5E900010AF022FA09
:1006E00000220023C5E900010AF038FE0028A1D04D
:1006F000012323709EE70132326005B0BDE8F08F20
:100700000023237096E75FFA83FA38E73815FF1F56
:100710000040FF1F3C3AFF1FC456FF1F9839FF1FC0
:100720009F747841EC39FF1F3815FF1F0000E03F30
:1007300000001C400422FF1F0000F03FAC54FF1FCC
:1007400037800B6D2023FF1F942AFF1F844B854A9F
:10075000196840F6B8338B42A8BF0B4623EAE3730F
:1007600003EB830103EBC10382FB0312DB17C3EB33
:10077000A2237D4A1268C3F12A03934280F2EC80DF
:100780002DE9F04F2DED028BDFF8FCA1774A9AF8A6
:100790000030774D774C89B001338AF80030724BC6
:1007A0000492002203951A600292059513E0724AA2
:1007B0001B0282FB0328DB17C3EB2828B8F1320F9A
:1007C00017DC029B039ADC3302F58072B3F5DC6F11
:1007D0000293039264D0049A52F8043F0492674A49
:1007E00052F82330002BECDBB3F5167FDFDD4FF042
:1007F000FF08029B039FC3F3C70B0026B0EE0C8AD1
:100800004FF0010932E007EE906AF8EEE77A9AF8C5
:100810000020FD69CDF8009077EEC87A05EB45051C
:10082000FDEEE77A5A4417EE903A002BB8BF5B42D0
:10083000D2B298FBF3F3DBB204F0C0FB6119635D45
:100840009DF81C2083FA52F363554A789DF81D30B9
:1008500082FA53F24A708B789DF81E2083FA52F385
:100860000136082E8B7007F12007AAD0F31E012B4A
:10087000434907A8C7D89AF80020FD69CDF8009031
:100880005A445FFA88F3D2B204F098FB05EB4503B3
:10089000E118E25C9DF81C0082FA50F2E254D4E7C1
:1008A000DFF8E880059D374E08F50069A8F5807CE3
:1008B000614651F81C3D51F8042F02EB420E03EB48
:1008C000430306EB0E07E01816F80EA097F801E0B8
:1008D000BF7804F803A06145134680F801E08770F3
:1008E000E9D101F1200CE045E2D101F59078C14554
:1008F000DCD1DFF89CE005F58070EA6902EB42028A
:10090000A118A35C03EB8306C6EB061603EB4603B4
:100910001B12A3544A788B7802EB820703EB830601
:10092000C7EB0717C6EB061602EB470203EB4603BD
:10093000203512121B12A8424A708B70DDD170450F
:100940000546D8D1084B1A68074B01321A6009B026
:10095000BDEC028BBDE8F08F034B01321A6070478B
:100960009839FF1FD32A5A57ACA6FF1F3815FF1F0F
:100970000422FF1FC456FF1F37800B6DAC54FF1FAE
:100980003C3AFF1F942AFF1FE075FF1F2023FF1F23
:10099000042AFF1F10B5044606F08AFC204610BD4D
:1009A00030B585B001EBC0019DF8205002EBC102CB
:1009B0000C49012051F8224000901A4603A82B460A
:1009C000094904F0FBFA094A9DF80C509DF80D0006
:1009D0009DF80E1004EB44041319155558709970C6
:1009E00005B030BD0422FF1F3C3AFF1FC456FF1F55
:1009F0002DE9F04F866985B005460C46002E00F0C3
:100A00007181A368EA69002B40F36681274618329A
:100A100057F8148B04F1340094F813900DF1070685
:100A2000394609F10109B446BE465EF8043F434425
:100A30005B7843B194F80DA083FA5AF3DBB209FB5B
:100A400003F3C3F3072386450CF8013FEDD1DDF82E
:100A50000880039B88EAD81C83EAD31E0CF0AA1CEA
:100A60000EF0AA1E88EA0C0883EA0E0388EACC1C62
:100A700083EACE1E4CF6CC488CEA9C3A8EEA9E392C
:100A8000434609EA03030AEA08088CEA080C8EEADE
:100A9000030E8CEA883C8EEA833E4FEA0E184FEA3A
:100AA0001C130EF0F03E0CF00F3C08F0F03803F091
:100AB0000F3343EA0E0348EA0C0E4FEA1E494FEA91
:100AC0001E684FEA132C02F811EC02F8153C4FEAAD
:100AD0001E2A4FEA134E1B0E02F816CC02F817EC32
:100AE00002F812AC02F8139C02F8148C02F8183CBD
:100AF00094F81290D4F8008009F101090DF1070C67
:100B0000BE465EF8043F18F8033043B194F80CA0D9
:100B100083FA5AF3DBB209FB03F3C3F307238645D9
:100B20000CF8013FEDD1DDF80880039B88EAD81C62
:100B300083EAD31E0CF0AA1C0EF0AA1E88EA0C0849
:100B400083EA0E0388EACC1C83EACE1E4CF6CC481E
:100B50008CEA9C3A8EEA9E39434609EA03030AEA84
:100B600008088CEA080C8EEA030E8CEA883C8EEAB0
:100B7000833E4FEA0E184FEA1C130EF0F03E0CF0C5
:100B80000F3C08F0F03803F00F3343EA0E0348EA55
:100B90000C0E02F809EC4FEA132C02F80D3C4FEA58
:100BA0001E2A4FEA1E494FEA1E684FEA134E1B0EDB
:100BB00002F80AAC02F80B9C02F80C8C02F80ECC7E
:100BC00002F80FEC02F8103C94F814C0D4F800E0DE
:100BD0000CF1010C51F8043F73449B7843B194F835
:100BE0000E8083FA58F3DBB20CFB03F3C3F3072345
:100BF000884206F8013FEDD1029B039E83EAD311A0
:100C000086EAD61E0EF0AA1E01F0AA114B4086EA13
:100C10000E0683EAC11186EACE164CF6CC4381EA71
:100C2000913886EA963C9E460CEA0E0E08EA0303CB
:100C3000594086EA0E0681EA833186EA8E36330110
:100C40004FEA111E0EF00F3E01F00F3106F0F036A4
:100C500003F0F0330B434EEA06064FEA132A4FEA3D
:100C600013494FEA13684FEA162C4FEA164E310E1D
:100C700002F8013C02F8056C02F802AC02F8039C91
:100C800002F8048C02F806CC02F807EC02F8081C03
:100C9000A36894F80CC094F80DE094F80E902668C0
:100CA00094F80FB094F810A0617C94F91580013B82
:100CB000CCEB0B0CCEEB0A0EC9EB0101B044002BC0
:100CC00002F1180284F80CC084F80DE0A173C4F896
:100CD0000080A3603FF7A0AEA86905B0BDE8F04F63
:100CE00003F0E0BED1F8048008EB4807FF00384667
:100CF0000AF056FCE86138460AF052FC28620120EE
:100D000007F098F9EB692A6A00960746414603F016
:100D100045FDAF61384603F057FD72E6F0B591B07E
:100D2000002305688DF800308DF801308DF8023011
:100D30002E683A4A8DF8043096428DF805308DF8C9
:100D4000063064D1827C0391012A044604918DF817
:100D50001A308DF81B308DF81C30CDF808D01AD021
:100D60008DF819308DF818308DF817308DF8163051
:100D70008DF815308DF8143000228DF81D2007AB4A
:100D80000FA943F8042F9942FBD1AB69204602A971
:100D9000984711B0F0BD224A1378013303F00703DE
:100DA00013F0010F14BF8021002113709A0744BF74
:100DB00041F04001C9B25B0748BF41F0200110314A
:100DC0000022C9B20DF117030DF11A074FF4807E0E
:100DD000AAB19EFBF2F2D2B2501CC0B200FB0115C8
:100DE0002D121870EEB205B1013E03F8036C00B18C
:100DF0001A7001339F4208D0DA78002AE9D11A70BC
:100E000003F8032C01339F42F6D12568B4E70A4664
:100E100001AB6946B04711B0F0BD00BF250E000020
:100E2000D421FF1FF0B5857C1C785E789B788FB04D
:100E3000012D8DE8060002928DF812408DF81360A6
:100E40008DF814301BD000238DF811308DF8103040
:100E50008DF80F308DF80E308DF80D308DF80C3088
:100E600000228DF8152005AB0DA943F8042F8B4205
:100E7000FBD1036869469B6998470FB0F0BD1B4AD8
:100E80001378013303F0070313F0010F137014BF3D
:100E900080220022990744BF42F04002D2B25B0791
:100EA00048BF42F020021032D2B20DF10F030DF113
:100EB00012074FF4807EACB19EFBF4F4E4B2611CE7
:100EC000C9B201FB02252D121970EEB205B1013E27
:100ED00003F8036C01B11C7001339F42C0D0DC7871
:100EE000002CE9D11C7003F8034CF5E7D421FF1F57
:100EF000F0B5857C1C785E789B788FB0012D8DE8ED
:100F0000060002928DF812408DF813608DF81430AF
:100F100020D000238DF811308DF810308DF80F306F
:100F20008DF80E308DF80D308DF80C300321002334
:100F30008DF8151002EB4202194605AC0131082963
:100F400044F8043F1344F9D1036869469B69984704
:100F50000FB0F0BD1B490B78013303F0070313F00A
:100F6000010F0B7014BF802100219D0744BF41F089
:100F70004001C9B25B0748BF41F020011031C9B23E
:100F80000DF10F030DF1120E4FF4807CACB19CFB00
:100F9000F4F4E4B2651CEDB205FB011636121D70C7
:100FA000F7B206B1013F03F8037C05B11C700133B1
:100FB0007345BBD0DC78002CE9D11C7003F8034CDE
:100FC000F5E700BFD421FF1F2DE9F04F8BB00027BC
:100FD000069051F82730DBB20137FF2BBFB2F8D1B2
:100FE0000B6807974FEA1368C3F3072BC3F307494E
:100FF0004FF0FF33C64600240593884658F8045F37
:101000000698C5F307274FEA241CC5F30746ECB240
:10101000F9B2C5F307650391E9B204915FFA8CF167
:10102000029107990F2908AA4FEA14135FFA86FA6A
:101030000CD805998C4507DC0F2905D00131C9B2C0
:101040008B42029138BF0B4659B2059109A9009114
:1010500002998DF820B08DF821908DF822E08DF85E
:1010600024708DF825608DF8265003F00BFFFF2CBF
:10107000DDF810E0DDF80CB0D146BFD106980BB01A
:10108000BDE8F08F38B52A4804F068F9D8B1294C8A
:10109000012323600C21284808F084FA274806F031
:1010A0009FFB274D27480C2105F0D2FF284604F06E
:1010B0009FFA2368ABB1012B23D0234B4FF400429E
:1010C0009A61DA6138BD1B4C03460C211F4823602E
:1010D00008F068FA194806F083FB2368012BE0D179
:1010E000D8E755222021284604F056FA0028E4D0FB
:1010F000EA8842F0040292B22846242104F04CFA15
:10110000DBE740F273122A21284604F045FA002852
:10111000D3D088222021284604F03EFA0028CCD0E3
:10112000EA88284622F00402242104F035FAC4E7B4
:101130002476FF1FDC75FF1F48C100005817FF1FF2
:10114000203AFF1F0002FF1FC03AFF1F38C10000F6
:101150002DE9F84F104C114F114EDFF848B0DFF871
:1011600048A0DFF8489004F58C780025204604F06C
:1011700043F8143402230C21CBF8003044454FF0DF
:10118000080347F8045F46F8045FCAF80030C9F85E
:101190000010EBD1BDE8F88F6855FF1F7C3AFF1FA8
:1011A0009475FF1F082AFF1F783AFF1F2C3AFF1F74
:1011B00070B5224B86B0002453F8042F092A04F19D
:1011C000010120DCCCB20E2CF6D11D4D1D4E2B683A
:1011D0000193019B31681C4A5B1A93421DD82B680E
:1011E00003931A4B039A1B6832602A680592059A8A
:1011F000D31AB3F57A7F04D9FFF7AAFF144B012263
:101200001A7006B070BD0E4D0E4E2B680193019BF7
:1012100031680D4A5B1A934205D92B680293029BF1
:101220003360FFF795FF0B2CD9D82B68074904933F
:10123000049B074A0B6000211170D6E7A854FF1FDA
:10124000C8ACFF1FC474FF1FE0930400902AFF1F67
:10125000F074FF1FE64BE74A03F1380053F8041F10
:1012600042F8041F9842F9D12DE9F047DFF8C09306
:10127000DFF8C083B9F8183007EE903A2DED028BF5
:10128000DD4BDFEDDE8AF8EE677AD3E9006767EEC3
:10129000A87A4C4617EE900A09F0A4FD32463B4668
:1012A00009F0F4FD0022D64B09F0F0FD0AF09EF89B
:1012B000B9F81A30C8F8000007EE903AF8EE677AED
:1012C00008EE100A67EEA87A09F1360517EE900AC3
:1012D00009F088FD32463B4609F0D8FD0022C84B94
:1012E00009F0D4FD0AF082F8B9F81E20B9F81C30D4
:1012F000C8F80400134407EE903AF8EEE77A67EE78
:10130000A87A17EE900A09F06DFD32463B4609F0C7
:10131000BDFD0022BA4B09F0B9FD0AF067F8B9F833
:101320002010B9F82230B9F82420C8F808000B447E
:10133000134407EE903AF8EEE77A67EEA87A17EED4
:10134000900A09F04FFD32463B4609F09FFD00220E
:10135000AB4B09F09BFD0AF049F8B9F828E0B9F861
:101360002630B9F82A1034F82C2FC8F80C00734432
:101370000B44134407EE903AF8EEE77A67EEA87A4A
:1013800017EE900A09F02EFD32463B4609F07EFD2D
:101390009B4B002209F07AFD0AF028F80023C8F8D8
:1013A000100034F8022FA5421344FAD107EE903A08
:1013B000FBEEC97A934C17EE900A09F013FD324602
:1013C0003B4609F063FD00228D4B09F05FFD0AF0FA
:1013D0000DF8C8F81400002035F8023FAC4218445C
:1013E000FAD107EE900AFBEEC97A874D17EE900A04
:1013F00009F0F8FC32463B4609F048FD0022804BDC
:1014000009F044FD09F0F2FFC8F81800002034F894
:10141000023FA5421844FAD107EE900AFBEEC97AC2
:101420007A4C17EE900A09F0DDFC32463B4609F093
:101430002DFD0022724B09F029FD09F0D7FFC8F8F5
:101440001C00002035F8023FAC421844FAD107EEE8
:10145000900AFBEEC97A6E4D17EE900A09F0C2FCB5
:1014600032463B4609F012FD0022654B09F00EFDA5
:1014700009F0BCFFC8F82000002034F8023FA54264
:101480001844FAD107EE900AFBEEC97A614C17EEC8
:10149000900A09F0A7FC32463B4609F0F7FC00220F
:1014A000574B09F0F3FC09F0A1FFC8F82400002015
:1014B00035F8023FAC421844FAD107EE900AFBEE31
:1014C000C97A554D17EE900A09F08CFC32463B461E
:1014D00009F0DCFC00224A4B09F0D8FC09F086FF39
:1014E000C8F82800002034F8023FA5421844FAD179
:1014F00007EE900AFBEEC97A484C17EE900A09F005
:1015000071FC32463B4609F0C1FC00223C4B09F01D
:10151000BDFC09F06BFFC8F82C00002035F8023F35
:10152000AC421844FAD107EE900AFBEEC97A3C4D62
:1015300017EE900A09F056FC32463B4609F0A6FC2D
:1015400000222F4B09F0A2FC09F050FFC8F8300030
:10155000002034F8023FA5421844FAD107EE900A61
:10156000FBEEC97A2F4C17EE900A09F03BFC32468D
:101570003B4609F08BFC0022214B09F087FC09F067
:1015800035FFC8F83400002035F8023FAC4218445B
:10159000FAD107EE900AFBEEC97A17EE900A09F02D
:1015A00021FC32463B4609F071FC0022144B09F045
:1015B0006DFC09F01BFF1C4AC8F83800002034F805
:1015C000023FA2421844FAD107EE900AFBEEC97A14
:1015D000DFF86490154CDFF864A017EE900A09F06C
:1015E00001FC32463B4609F051FC0022044B27E047
:1015F000A854FF1F9839FF1F9015FF1F0000803867
:1016000000408F405840FF1F6C40FF1F8840FF1F65
:10161000B040FF1FE640FF1F3241FF1F9C41FF1FEC
:101620002E42FF1FFA42FF1F2A44FF1F6855FF1F6B
:101630001440FF1FAC54FF1F9839FF1FF874FF1FA1
:101640001B4F1C4E09F022FC09F0D0FE0025C8F803
:101650003C00C9F8005001E096ED008A2046B8EE43
:10166000C80A03F0D1FD204603F014FE10EE100A64
:1016700009F0B8FBE7E80201204603F01BFE10EE7C
:10168000100A09F0AFFBD9F8003056F8042B0135E9
:101690001344102D04F11404EAE80201C9F80030E3
:1016A000DAD1BDEC028BBDE8F047FFF781BD00BF8A
:1016B000A88FFF1FAC54FF1FF0B530490B5C022B05
:1016C00085B02ED02E4B53F82020002A0DDD2D4A58
:1016D0002D4C12682D490392039A54F8204051F87A
:1016E0002010121B323191420BD303280EDD284B00
:1016F0001B680A2B274BCCBF012200221A7005B0B1
:10170000F0BD0022032843F82020F0DC204953F8E4
:1017100020200B689A42ECDD1F4C0A6013462070B3
:10172000E7E7184C184D23680093009B55F820609C
:101730009B1BF92B05D8124B012453F820200C5485
:10174000C3E723680193154F019B57F820202468B5
:10175000DFF838E00294991B521A094B029C4EF8AC
:1017600020101D323A2A53F8202047F820109CBF41
:10177000013243F8202045F82040A6E7F039FF1F4A
:101780006854FF1FC8ACFF1F4476FF1F102AFF1FBD
:10179000A08FFF1F3055FF1F042AFF1FF054FF1FAB
:1017A0002DE9F843284B53F820908046484609F02D
:1017B00007FB264A4FEAC8031A440D462449D2E9DA
:1017C00000670B440446D3E900011DA3D3E90023BD
:1017D00009F05CFB32463B4609F0A6F902460B468F
:1017E0002046294609F0E2FD68B1B9F5967F0ADD89
:1017F000184B13F80820022A1AD052B9022203F813
:101800000820BDE8F883DFF84C9019F80830012B68
:1018100001D0BDE8F88332463B462046294609F010
:10182000B1FD0028F5D0002309F80830BDE8F883A1
:10183000012203F80820BDE8F88300BFAFF3008061
:101840000000006066660240AC54FF1FA88FFF1FB7
:10185000F874FF1FF039FF1F10B40E4B0E4A53F8F7
:1018600020100E4C52F82030245C0529C4BF0233EE
:1018700042F82030022C04BF013342F82030B3F587
:10188000967F04DD0129DCBF023B42F820305DF881
:10189000044B70476854FF1F9875FF1FF039FF1FF6
:1018A0002DE9F04F91B0FFF7D5FCA04BA04A029371
:1018B00019460023DFF8B892DFF8B8B213609A46F1
:1018C000884622E0DBF8000009F07AFA3246CDE9DA
:1018D00000013B462046294609F024F90022954B99
:1018E00009F0D4FA02460B46DDE9000109F01CF9C3
:1018F00009F07CFDCBF800000AF1010A80F3080032
:10190000BAF10E0F4BF8040B31D05046FFF748FFE9
:101910005046FFF7D1FE5046FFF79EFF59F8040FDF
:1019200009F04EFAF8E8026732463B4604460D4697
:1019300009F03CFD0028C5D1DBF8000009F040FAB1
:101940002246CDE900012B463046394609F0EAF837
:101950000022784B09F09AFA02460B46DDE90001B5
:1019600009F0E0F809F042FDCBF80000C4E7724A44
:10197000724B1768724A1B68D2F80090714A724D18
:10198000D2F80080714A0B9312680592704A09934D
:101990004FF0000ACDF818A0CDF81CA0CDF820A07B
:1019A000CDF828A0CDF80CA05446CDF810A0D2F860
:1019B00000B00095BA46029F5C4B634903EBC80E2A
:1019C00004F109030293009B1A68099B51F8233024
:1019D0009A4203DD01230B9409940A9300995A4B10
:1019E000594D4A6953F82A30486A55F82910029D22
:1019F0009A4204F10503C8BF9A46089BC8BF012359
:101A00008842C8BFA946D7E90001079D0893C8BF0F
:101A10000125DEE90023079509F0C8FC059D434A2E
:101A2000069E002802EBC50318BF0126D3E9002358
:101A3000D7E90A0118BFA046069609F0B7FC3B4A51
:101A4000002804F1050602EBCB0308BF2E46D3E9BC
:101A50000023D7E912010596049E18BF01260496BB
:101A600009F0A4FC009B029D002803F1040304F18B
:101A70000104009318BFAB46039B18BF0123042C3D
:101A8000039307F1080797D15746DDF810A0002B04
:101A900047D10A9B13B1294B0B9A1A60089B0BB1D3
:101AA000254B1F60079B13B1254BC3F80090069B85
:101AB00013B1244BC3F80080BAF1000F02D0234BBE
:101AC000059A1A60234B09995A5C022A54D0224A7B
:101AD00052F82120082A4FDC9B78022B4CD01F4F54
:101AE0001F4C3B68DB074FD51E4E1F4D33680F93CD
:101AF00095E806000F9B5B1A9A4253D923681B494D
:101B00000A2BA8BF0A236FF009000A688342B8BFF6
:101B100003461A4482F3080223600A6011B0BDE84C
:101B2000F08F0B4BC3F800B0B3E700BFA88FFF1FC7
:101B3000A08FFF1F0000E03F783AFF1F082AFF1F19
:101B40002C3AFF1FCC74FF1F9875FF1F183AFF1F18
:101B5000FC3FFF1FF039FF1F6854FF1F383AFF1F7B
:101B60004076FF1FC8ACFF1F6C3AFF1F9C8FFF1F02
:101B7000A854FF1FE475FF1F134C144F236805334F
:101B800023603B68DB07AFD4384606F015FA104EE9
:101B9000104D70B933680F9395E806000F9B5B1AE0
:101BA0009342ABD333680E9323680E9A2A60013BAD
:101BB000A5E733680D930D9B2B60C82338466B60F7
:101BC00006F000FAE6E700BF4076FF1F383AFF1F35
:101BD000C8ACFF1F6C3AFF1F2DE9F04F89B0234CB2
:101BE000DFF894B002941F460023059003919046BD
:101BF0000493029BDDF810A0A3F5807404F1200685
:101C0000554602E00434B4421ED0AF424544F9D1F7
:101C1000D4F800909DF8482015490123009307A8A7
:101C2000FF2309EB490903F0C9F904340BEB09035D
:101C30009DF81C009DF81D109DF81E200BF8090052
:101C4000B44259709A70E0D1039B9A44029BA3421C
:101C5000D4D1049A05990A440492064A03F5807384
:101C60009A420293C5D109B0BDE8F08F0423FF1F4B
:101C70003C3AFF1F042BFF1FC465FF1F2DE9F04FE7
:101C800099B04A4B11938DED120B8DED0E1B8DED1E
:101C9000042B8DED063B8DED084B0023444D109336
:101CA00014901591109809F08BF8DDE9122308F0D3
:101CB00039FF0B46024609F0E9F8119B0A93CDE97A
:101CC0000C010023DDF850A0DDF854B00B930B9805
:101CD00009F076F8DDE90E2308F024FF02460B46F2
:101CE00009F0D4F8DDE90C2308F01EFF0024CDE94B
:101CF000020121E0B946DDE908234946404609F0E2
:101D000037FB01275B4652462A4990B10A9850F8A2
:101D10002460009717A806EB460603F04FF9AB19AD
:101D20009DF85C009DF85D109DF85E20A8555970E7
:101D30009A700134082C24D0204609F041F8DDE9DE
:101D4000042308F0EFFE02460B4609F09FF8DDE998
:101D5000022308F0E9FE41EC100B08F0ADFDDDE9CF
:101D6000062351EC100B08F0DDFE0022002306468E
:101D70000F4609F01BFBB0460028BBD107F1004914
:101D8000B9E70B9B0A9A01332032082B0B930A9276
:101D90009DD1109B119A013302F58072082B10938C
:101DA00011927FF47FAF19B0BDE8F08F0422FF1FBE
:101DB000C465FF1F3C3AFF1F2DE9F04F91B08DED38
:101DC0000C0B8DED021B8DED082B8DED043B8DED85
:101DD000064B0B904FF0000B584608F0F1FFDDE981
:101DE0000C2308F09FFE02460B4609F04FF84FF017
:101DF000000ACDF828B080468946DDF82CB004E012
:101E00000AF1010ABAF1080F5AD0504608F0D8FF7B
:101E1000DDE9022308F086FE02460B4609F036F89B
:101E200042464B4608F080FE41EC100B08F044FDA2
:101E3000DDE9042351EC100B08F074FE00220023AE
:101E400006460F4609F0B2FA3446002842D03D4615
:101E5000DDE906232046294609F08AFA0028CFD07A
:101E6000DDE9080109F0C2FA0A9B1C4A1C490AEB89
:101E7000C30300EBC300012352F8206000935FFA14
:101E80008BF20FA8FF2303F099F806EB4606154ADC
:101E90009DF83C00935D911983FA50F393559DF89A
:101EA0003D304A7882FA53F24A708B789DF83E2092
:101EB00083FA52F30AF1010ABAF1080F8B70A4D128
:101EC000DDF828B00BF1010BBBF1080F84D111B084
:101ED000BDE8F08F07F10045BAE700BF0422FF1FFD
:101EE0003C3AFF1FC456FF1F674B684A196840F60B
:101EF000B8338B42A8BF0B4623EAE37303EB83019D
:101F000003EBC1032DE9F047614D82FB0312DB17A0
:101F1000C3EBA2232A68C3F12A0393426FDA5D4917
:101F2000DFF87CA10B78DFF87C91DFF87C81002260
:101F3000013317460B702A60144659F824305AF8BA
:101F40002330002B4FEA840607DBB3F5167F47F2F8
:101F5000BA7258DCB2EB032F55DB0234082C07F5BC
:101F6000DC77EAD1DFF844E14B490EF5006CAEF5C1
:101F700080773C4654F81C3D54F8040F00EB4002B7
:101F800003EB43038E5CCE540A440B4456785E70D8
:101F900092789A70A7420346EED12037BE45E8D129
:101FA0000EF5807EF445E2D13C4C04F5006704F563
:101FB0008076E26902EB420288188B5C03EB830EA9
:101FC000CEEB0E1E03EB4E031B128B54427883782C
:101FD00002EB820C03EB830ECCEB0C1CCEEB0E1E43
:101FE00002EB4C0203EB4E03203412121B12A642EA
:101FF00042708370DDD1BE423446D8D12A680132A6
:102000002A60BDE8F087C4B1264488FB0630F61785
:10201000C6EB6000023008F0D3FE9FED111B41ECCF
:10202000130BB0EE410AF0EE610A9FED0F4B9FEDEE
:10203000102BF810FFF7C0FE8FE79FED091B9FEDF7
:102040000E4BB0EE410AF0EE610A9FED0D3B9FEDA5
:10205000082B2046FFF7B0FED6E700BFAFF30080A5
:102060000000000000000C40000000000000E03F05
:102070000000000000001C400000000000000040C4
:1020800000000000000000009839FF1FD32A5A57B3
:10209000A854FF1FE075FF1FC456FF1F0422FF1F37
:1020A000AC54FF1F3C15FF1F398EE3382023FF1F60
:1020B0002DE9F04FDFF8E8B189B04FF0000A08E0F1
:1020C000642C1C601EDC0AF1010ABAF1080F00F052
:1020D000B0805BF8043F6A4A52F82320002AC0F21D
:1020E000CB80C923674903FB02F381FB0314B2F5DC
:1020F000167F4FEAE373C3EB2424634BE0DDC82271
:102100001A6014466149624A0B8803EB432503EBCE
:10211000850505F558551935ADB205EB452805EB94
:10212000880808F5585808F119081FFA88F808EBCC
:10213000482308EB830303F5585319339BB203EB91
:10214000132905EB152508EB1828C5F34215C9F32B
:102150004219C8F342180B8082E82003284608F091
:102160002FFECDE90201404608F02AFE0646484609
:102170000F4608F025FE3246CDE904013B463046C5
:10218000394608F083FEDDE9022306460F46104675
:10219000194608F07BFE02460B463046394608F0E9
:1021A000C3FCDDE9042306460F461046194608F035
:1021B0006DFE02460B463046394608F0B5FC41EC50
:1021C000100B08F079FB50468DED020B08F0F8FD7E
:1021D0009DED020B02460B4651EC100B09F0C8F8BE
:1021E00000283FF470AF08EBC5052A4B2A4909EBDC
:1021F000C509CAEB0A22012053F829500090E3B226
:10220000C2F3C70207A802F0D9FE244B234C9DF865
:102210001C009DF81D109DF81E2005EB45052B4464
:102220000AF1010ABAF1080F605559709A707FF4EB
:1022300050AF1A49481C01F5706410F8013CC3EB1B
:10224000C30303EB43131B1200F8013C4A788B785D
:10225000C2EBC202C3EBC30302EB421203EB431314
:1022600012121B124A708B7003318C4200F1030072
:10227000E3D109B0BDE8F08F034A0023136022E7E1
:10228000AC54FF1F37800B6DA8A6FF1FC215FF1FA0
:10229000AC56FF1F0422FF1F3C3AFF1F942AFF1F6A
:1022A0003815FF1F2DE9F04F854D2B68DA078FB0E9
:1022B00038D5844B844C06931B680A9394E8060037
:1022C0000A9B5B1A9A423FD8069BDFF828C21B681C
:1022D0000993099B23607D4C0CF500680CF1E00725
:1022E000A7F1200E71463E4651F8042F56F8043FE0
:1022F00002EB4202A51803EB4303E01814F802A016
:1023000095F80190AA7804F803A08F4280F8019014
:102310008270E9D1F4457746E2D10CF5807CE04546
:10232000DCD112E0284605F047FE664B0693664C6A
:10233000002840F0AF80069B1B680A9394E80600D3
:102340000A9B5B1A9342BFD2604C614B6148624F5B
:10235000624E0793194650F8043F51F8042F57F87E
:102360002330B3F5167FA8BF4FF4167323EAE37347
:1023700003EBC30386FB03E5DB17C3EB25239A427C
:10238000B8BF0B60564B8B42E5D14FF0000B554B5D
:10239000DFF864A10593CDF810B0534B049A059E65
:1023A000039683FB0B375F444FEAEB73C3EBA7073E
:1023B000FFB24FEA820900255FFA82F8039A5AF8C1
:1023C000091052F8043B039203EB430304EB030CA4
:1023D000E25CC2EBC20202EB42121212E2549CF81F
:1023E00001009CF80220C0EBC000C2EBC20200EB6F
:1023F000401002EB42125FFA85FE00121212A9424F
:102400008CF801008CF802203B4605F1010572466C
:102410004FF00001404606DDBEF1070F03D8FF264E
:102420000096FEF7BDFA082DC8D1049B0133049332
:10243000059B0BF1DC0B03F58073BBF5DC6F05939B
:10244000ABD12A4D2B68DB071CD5069B284C1B689B
:102450000D9394E806000D9B5B1A93420FD3069BE5
:10246000079A1B680C930C9B236052F8043F012BC6
:10247000C4BF03F1FF331360194B9342F5D10FB082
:10248000BDE8F08F284605F097FD68B9184C069B0B
:102490001B68DDE71B680893089B236078232846A8
:1024A000636005F08FFD46E7069B114C1B680B939C
:1024B0000B9B236032232846636005F083FDE6E72B
:1024C000B4A6FF1FC8ACFF1F5855FF1FC456FF1FFF
:1024D0006815FF1F3815FF1FAC54FF1F37800B6DA9
:1024E0008815FF1F0422FF1F93244992C056FF1F27
:1024F0006055FF1F0022FF1F6C15FF1F2DE9F04FD5
:10250000564989B0481C01F5706410F8013CC3EBD2
:10251000C30303EB43131B1200F8013C4A788B788A
:10252000C2EBC202C3EBC30302EB421203EB431341
:1025300012121B124A708B7003318C4200F103009F
:10254000E3D1474B4748484E484D0393194650F84E
:10255000043F51F8042F56F823304B3BB3F5167F58
:10256000A8BF4FF4167323EAE373DB0085FB037403
:10257000DB17C3EB242301339A42B8BF0B603C4BFB
:102580008B42E4D14FF0000BA3F11C07CDF808B04B
:102590004FF0FF0A3B689DF80880CBF3C709002580
:1025A000002B13DDEEB2002401E0A3420EDDE2B207
:1025B000072A04F10104F8D84B46CDF800A03146B3
:1025C0004046FEF7EDF93B68A342F0DC0135082DEB
:1025D000E6D1029B0BF1DC0B0133BBF5DC6F029300
:1025E00007F10407D6D1234E3368DB071BD5224DF4
:1025F000224C2B68079394E80600079B5B1A9A42CB
:102600000ED82B680693069B039A236052F8043F6A
:10261000012BC4BF03F1FF331360154B9342F5D177
:1026200009B0BDE8F08F304605F0C6FC124D134CE2
:1026300050B92B68079394E80600079B5B1A9342F6
:10264000DFD209B0BDE8F08F2B680593059B2360AE
:1026500032233046636005F0B5FCEAE7C456FF1F3D
:102660003055FF1F3815FF1FAC54FF1F37800B6D0F
:102670005055FF1FDC39FF1FC8ACFF1F8476FF1FBA
:102680000138F0B4112824D8DFE810F012003B0024
:102690004700560062006900750084009000A500A4
:1026A000AD00BC00C700D900E200EA00F10025003F
:1026B000734B744A1B68744D744C75491360012048
:1026C0000022072B2A602260086015DD714B002272
:1026D0001A70F0BC70476A4B6A4E1B686A4D6B4CAF
:1026E0006B49C3F10E0701224FF0FF30152B376005
:1026F0002A6022600860E9DC664B01221A70F0BC97
:1027000070475F4B5F4E1B685F4D604C6049C3F183
:102710000807002201203760D3E7594B594A1B684C
:10272000594C5A485A49136001250022072B25604D
:1027300002600A60CADCDFE7514B524E1B68524C04
:1027400052485349C3F10807012500223760EDE7DD
:102750004B4B4C4A1B684C4D4D4C4C49AEE7484BDB
:10276000484E1B68484D4A4C4849C3F108070022AF
:1027700001203760A5E7424B424A1B68424D434C5B
:1027800043491360002001220E2B2A60226008605A
:102790009CDCB1E73A4B3B4E1B683B4D3B4C3C4904
:1027A000C3F10F07012200203760EDE7344B3549B4
:1027B0001B68354D3548364AC3F107074FF0FF36E1
:1027C00001240F600E2B4FF000012E600460116099
:1027D0003FF77CAF90E72A4B2A491B682A4D2B48CC
:1027E0002B4ADF1FEAE7264A264B1268264C274869
:1027F00027491A600123152A236003600B603FF705
:1028000065AF79E71E4B1F4D1A681F4C1F482049C2
:10281000C2F1150601232E60EDE7194B194E1B6816
:10282000194C1A481A49DF1F01224FF0FF35152BAA
:102830003760256002600A603FF748AF5CE7104BE5
:10284000104E1B68104C11481149C3F10E07EBE7FD
:102850000B4B0C4E1B680C4D0D4C0C49DF1F42E717
:10286000074B084E1B68084D094C084939E7044BD3
:10287000044E1B68044D054C0549DF1F33E700BFBC
:10288000F474FF1FD074FF1F1C3AFF1F5455FF1F25
:10289000EC54FF1FC874FF1F3A493B4A0B7810687D
:1028A00083F00103421E0B70092A5AD8DFE802F0B8
:1028B0001B21282F363D444B5205344934480B88A0
:1028C00003EB432203EB820303F5585319339BB206
:1028D00003EB1322D2B202EBC202D2110132D2B206
:1028E0000B8002607047002B294B08BF0220186044
:1028F0007047002B264B14BF032204221A60704736
:10290000002B234B14BF052206221A607047002BB0
:102910001F4B14BF072208221A607047002B1C4B64
:1029200014BF09220A221A607047002B184B14BFEB
:102930000B220C221A607047002B154B14BF0D227E
:102940000E221A607047002B114B14BF0F22102269
:102950001A607047002B0E4B14BF112212221A600E
:1029600070470A490A480B8803EB432203EB8203B2
:1029700003F5585319339BB203EB1322D2B202EB87
:102980008202AAE7743AFF1F0022FF1FC215FF1F31
:10299000A815FF1FFFFFFFFF2DE9F041664B674AB7
:1029A0001B68674FD35C674E022B84B07CD0664BAC
:1029B0001868FFF765FE337864498DF80C3003A87A
:1029C000FF238DF80D308DF80E3002F057FB347870
:1029D0005F4B604A604961481B681268096800687B
:1029E0000134E4B200943470FFF7F6F84EA3D3E953
:1029F0000023D7E9000108F097F8002200230446DD
:102A00000D4608F0B5FC002840F08B800022544BA6
:102A10002046294608F0CAFC00283CD15149C7E9A4
:102A20000045481C01F5706710F8013CC3EBC30377
:102A300003EB43131B1200F8013C4A788B78C2EB7E
:102A4000C202C3EBC30302EB421203EB43131212A5
:102A50001B124A708B7003318F4200F10300E3D1E7
:102A6000DFF81481D8F80070384608F0A9F902465A
:102A70000B462046294608F07BFC78B13A4933786A
:102A80000A680333013201270A603370C8F8007006
:102A900004B0BDE8F0810024314DBFE70137C8F82C
:102AA000007004B0BDE8F081D7E9004520A3D3E968
:102AB00000232046294608F0E9F9024620462B4C1F
:102AC0000B46294608F02EF82388294DDFF898E0B8
:102AD0002A7803EB432C03EB8C0303F5585319338B
:102AE0009BB2C7E9000103EB132182F001023170B0
:102AF000002123802A70CEF800107AB103EB432224
:102B000003EB820303F5585319339BB203EB1322F3
:102B1000C2F3811217492380931D0B60FFF7BCFE9F
:102B200045E70024002579E7000000E051B8BE3FEA
:102B3000000000403333EB3F082AFF1FF039FF1F2E
:102B40006015FF1FE075FF1FA815FF1FB0A6FF1F30
:102B5000D074FF1FEC54FF1F5455FF1F1C3AFF1F7A
:102B600000005440C465FF1FF474FF1FC215FF1F0F
:102B7000F93FFF1F0022FF1F988FFF1FF0B5564E31
:102B80003368DB0787B040F19380544C544D236881
:102B9000059395E80600059B5B1A934255D2514C6C
:102BA000514B1868FFF76CFD237850498DF80830B9
:102BB00002A8FF238DF809308DF80A3002F05EFA82
:102BC00025784B4B4B4A4C494C48096800681B68B8
:102BD00012680135EDB200952570FEF7FDFF4849FA
:102BE000481C01F5706610F8013CC3EB8312C3EB7F
:102BF00082031B1200F8013C4A788B78C2EB8217E3
:102C0000C3EB8315C2EB8702C3EB850312121B12C1
:102C10004A708B7003318E4200F10300E3D1394ECC
:102C20003568284608F0CCF80022374B08F0BEFB88
:102C3000002839D0354923780A6803330132012549
:102C40000A602370356007B0F0BD314924680B88F5
:102C5000049403EB432403EB840303F558532D48FA
:102C6000204C0278294E19339BB203EB13272770AF
:102C7000049F2F6082F0010200250B8002703560F6
:102C80007AB103EB432203EB820303F55853193364
:102C90009BB203EB1322C2F381121F480B80931DDA
:102CA0000360FFF7F9FD7BE70135356007B0F0BD44
:102CB000304605F081F9094C094D00283FF467AF13
:102CC00023680393039B2B604FF47A7330466B6049
:102CD00005F078F95BE700BFE874FF1FC8ACFF1F81
:102CE0008C76FF1FE075FF1FA815FF1FB0A6FF1F02
:102CF000D074FF1FEC54FF1F5455FF1F1C3AFF1FD9
:102D0000C465FF1FE439FF1F00001440F474FF1F67
:102D1000C215FF1F9476FF1F0022FF1F2DE9F0410F
:102D20002B4E2C4D84B00324012733882A49009769
:102D300003EB432203EB820303F5585319339BB291
:102D40004FEA432803EB080003EB800000F55850DE
:102D5000193080B200EB10224FEA1848D2B2FF239C
:102D6000308008EB480803A802F028F905EB0803B7
:102D70009DF80C009DF80D109DF80E2005F8080038
:102D8000013C59709A70D0D11249481C01F5706607
:102D900010F8013CC3EB031203EB02131B1200F803
:102DA000013C4A788B78C2EB0215C3EB031402EBAB
:102DB000051203EB041312121B124A708B700331BD
:102DC0008E4200F10300E3D104B0BDE8F08100BF02
:102DD000C215FF1F942AFF1F3C3AFF1FFFFFFFFF92
:102DE0002DE9F0414A4B84B01B68039303984FF4DC
:102DF000AF1303FB00F0000EC3B259067AD5DB43D4
:102E0000D9B201F00F035A1C01F03F010B114149E7
:102E1000414E424D5B00CC18CB5C6178404C11FBBD
:102E200002F203EB2213DBB2020648BF5B425BB245
:102E3000803BDBB203EB830203EBC200C0F307204D
:102E400007F0AEFF0022374B08F04AF90022364B5C
:102E5000C4E90001CDE9000108F018F808F0EEFA25
:102E60009FED272BC0B29DED003BB0EE421AF0EE75
:102E7000621AB0EE420AF0EE620AFF219FED224B89
:102E8000FEF7FCFE06F570682F4639463046FF22F5
:102E9000033602F065F8B04507F10307F5D1234981
:102EA00001F6FF6011F8013CC3EBC30303EB4313CE
:102EB0001B1201F8013C6A78AB78C2EBC202C3EB8B
:102EC000C30302EB421203EB431312121B126A708C
:102ED000AB700335A84201F10301E3D1022194ED67
:102EE000000B134804F0D4FC114804F079FC04B042
:102EF000BDE8F08103F03F0103F00F0286E700BF59
:102F00000000000000000840000000000000E03F5A
:102F1000C8ACFF1F34C20000942AFF1FC465FF1F06
:102F20008075FF1F0000244000004E40C565FF1F54
:102F30005817FF1F84B0F0B583B0DDE9104508AE27
:102F400086E80F00204629460022002308F024FAD4
:102F5000002871D0294600223C4B204607F0E4FDB2
:102F600008F044FA0546DDE91267002200233046E6
:102F7000394608F011FA002854D00022334B30466D
:102F8000394607F0D1FD08F031FA0446DDE914674F
:102F9000002200233046394608F0FEF9002838D0D8
:102FA00000222A4B3046394607F0BEFD08F01EFAD3
:102FB00004EBC50400EBC404254A9DF8583052F8D0
:102FC00024408DF802309DF85C208DF80020FF230E
:102FD00001A968468DF8013002F050F804EB440373
:102FE0001C489DF80440C25CC11882FA54F2C254D5
:102FF0009DF805304A7882FA53F24A708B789DF832
:10300000062083FA52F38B7003B0BDE8F04004B0A1
:10301000704700220D4B3046394607F083FD08F01B
:10302000E5F9C5E70022094B3046394607F07AFD3D
:1030300008F0DCF90446A9E729460022034B2046A4
:1030400007F070FD08F0D2F905468CE70000E03F7C
:103050000422FF1FC456FF1F2DE9F04F2DED068BF4
:1030600095B09B4B0D939FED969B9FED97AB0023E7
:10307000984FDFF88882DFF88892974C9FED978A07
:103080004FF0030B9A460D9AD8F86C5352F8043B54
:103090000D92934A934952F82330934AB3F5167F21
:1030A000A8BF4FF4167323EAE3731B0282FB0320CD
:1030B000DB17C3EB20200126CAF3870EC0B20096AF
:1030C0000346724689F8000087F800E013A801F073
:1030D00075FF05EB450160189DF84CE004F801E030
:1030E000D8F88C539DF84D109DF84EE099F80030BB
:1030F0003A780096417080F802E07A4913A801F00E
:103100005DFF05EB450160189DF84CE004F801E017
:10311000D8F86C549DF84D109DF84EE099F80030A9
:103120003A780096417080F802E06E4913A801F0E9
:1031300045FF05EB450199F800303A78D8F88C54F2
:103140009DF84CE00096661804F801E09DF84D00EB
:103150009DF84EE07070634986F802E013A801F014
:103160002DFF99F800200F9205EB450563191646CF
:103170009DF84C009DF84D109DF84E206055642E32
:1031800059709A7040F28A80584B58491B88584EA3
:1031900003EB432203EB820303F5585319339BB22D
:1031A00003EB13220B80D3B20E93002301E0642BB8
:1031B00074D09D014E49725D0133002AF7D14B193D
:1031C000012283ED089B83ED0A9B58464A551093D4
:1031D00007F0F6FD0E9B03F1400E5FFA8EFE109B8A
:1031E0001EF0400FC3E90C0100F049816FEA0E02A6
:1031F000D2B202F00F01013102F03F023D4B1193B8
:103200001211520098189A5C407810FB01F102EB01
:1032100021121EF0800FD2B218BF524252B207EEF6
:10322000902AF8EEE77A721987EE887A109217EEF4
:10323000100A07F0D7FD109A119BC2E902010E9AFD
:1032400012F0400F00F01581D243D2B202F00F010C
:10325000013102F03F021211520098189B5C427833
:1032600012FB01F10E9A03EB21131206DBB248BFE9
:103270005B425BB207EE903AF8EEE77A354487EEB0
:10328000887A17EE100A07F0ADFD85ED06ABC5E9AB
:1032900004013B780F9AAA6385F83C300BF1FF3BA1
:1032A000BBF1FF3F0AF1FF0A07F10107A8F104088B
:1032B0007FF4E9AE104D0026A5F1280AB14628E0BA
:1032C0000000000000000C400000000000000000B2
:1032D000B015FF1FEC74FF1FC456FF1F00007A4497
:1032E000AC54FF1F3C3AFF1F37800B6DC215FF1F08
:1032F0009876FF1F34C20000C076FF1F0422FF1F14
:103300007875FF1F05F8289C0136642E05F14005ED
:103310003FD015F8283C002BF6D015ED020B07F036
:103320003BFA51EC100B08F061F8071EEADB95ED53
:10333000000B07F031FA51EC100B08F057F8B0F120
:103340000008DFDB95ED020B07F026FA062FD9DC2B
:10335000B8F1060F51EC100BD4DC08F047F8062842
:10336000D0D80AEB861C0CF1100EBEE80F006F4699
:103370000FC7BEE80F000FC79EE80F0087E80F00D9
:1033800001369CE80F00FFF7D5FD642E05F14005DE
:10339000BFD14C4B4C4A1B684C4DB3F57A7FA8BF4C
:1033A0004FF47A7323EAE37303EB830103EB4103E6
:1033B00082FB0312DB17C3EB22232A68C3F10A0343
:1033C000934261DB02F10108DFF80CE10EF5006CBD
:1033D000AEF5807606F11C0006F11007314651F873
:1033E000042B50F8043902EB420203EB430314F8B8
:1033F000029004F803902244234492F8019083F849
:10340000019092789A708F42E9D12036B645E1D189
:103410000EF5807EF445DBD12D4CC5F8008004F517
:103420007066651C15F8013C03EB430203EB820355
:1034300003EB03131B1205F8013C6278A37802EB3F
:10344000420003EB430102EB800203EB810302EB3A
:10345000021203EB031312121B126270A3700334E7
:10346000A64205F10305DDD115B0BDEC068BBDE824
:10347000F08F0E9901F03F0201F00F01EBE60EF024
:103480003F020EF00F01B9E6124F07F5C85817F8C2
:10349000203C8BB107F118093E4656E90623D6E9D0
:1034A000000107F041FBE6E802014E45F5D13B7E05
:1034B000053B23EAE373BB614037B845E7D14FF0E2
:1034C000010881E79839FF1F9F747841B856FF1FA4
:1034D000C456FF1FB876FF1F0423FF1FFFFFFFFF27
:1034E0002DE9F04FDFF858A185010AEB050487B0FC
:1034F00094F83DB0BBF1000F11D1A06807F060FC5B
:10350000D4E906678046894602460B46304639466E
:1035100007F02EFF002856D107B0BDE8F08F636B8F
:10352000226B934204DA0133636307B0BDE8F08F86
:10353000002641A3D3E90023D4E90A01666307F01A
:10354000F3FA06460F46206A94F80CB0C4E90A67FD
:1035500007F036FC002280468946334B3046394618
:1035600007F094FC0B4602464946404607F0DCFA59
:1035700007F064FF5FFA80F8A06807F021FCCDE94E
:103580000201606807F01CFCCDE900015AF8050053
:1035900007F016FC47EC136B41EC100B9DED022B72
:1035A000594640469DED001B9FED1D4BFEF766FB07
:1035B000E368012BB0DDA26B9B1A83F30803E36081
:1035C00007B0BDE8F08F32463B464046494607F01B
:1035D000A9FA0022154B07F083FD32463B4607F05F
:1035E000A3FA5AF805206368114E124DC4E906018A
:1035F00003EBC20407F0FAFE00EBC400FF2356F809
:1036000020108DF814B001EB4101294405A88DF874
:1036100015B08DF8163001F031FD07B0BDE8F08F20
:10362000000000000000F03F00002440000059406E
:103630000422FF1FC465FF1F000000A09999C93F25
:10364000F83AFF1F2DE9F04FAE4BAF4A1B68D35C31
:10365000022B87B000F0C8800025AC4C2E4606E057
:1036600084F83C600135142D04F1400413D094F823
:103670003C10A74B00220029F4D0D4E90A0107F03E
:1036800095FE0028ECD128460135FFF729FF142DBF
:1036900004F14004EBD19F4B0293DFF894929E4FCC
:1036A00000230393029B9D4A1B6AB3F5617FA8BF69
:1036B0004FF4617323EAE37303EB43035B0082FB84
:1036C00003201844DB17C3EB6020C9F80000002872
:1036D0005ED0039B924EDFF85CB24FEAE30808F13C
:1036E000A0085FFA88F800254FF0640A33888D49F6
:1036F00003EB432203EB820202F55852193292B2D5
:1037000002EB422302EB830303F5585319339BB2B8
:1037100003EB432E03EB8E0E0EF5585E0EF1190EE1
:1037200002EB122203EB13231FFA8EFEC3F34213A4
:10373000C2F342120EEB1E2403EBC2027A4BA6F830
:1037400000E0C4F3C0140AFB00F004EBC20283FBE8
:103750000043C017C0EB63035BF8224064330122CF
:10376000DBB2009205A8424601F028FC04EB4404B9
:10377000D9F800009DF814E09DF815109DF816206A
:1037800007F804E03B190135A84259709A70ADDC86
:10379000039B029A8C330832B3F50C7F0393029299
:1037A00080D15D4C651C04F5706615F8013CC3EBD7
:1037B0008312C3EB82031B1205F8013C6278A378E5
:1037C000C2EB8210C3EB8311C2EB8002C3EB810317
:1037D00012121B126270A3700334A64205F1030596
:1037E000E3D107B0BDE8F08FDFF84CA1DFF84C91D2
:1037F000DFF8188115260027CAF80060C9F80060B4
:1038000044463D460FE094F83D10484B002229B94C
:10381000D4E9060107F0C0FD002863D10135142D5D
:1038200004F140040BD094F83C30002BEBD12E4631
:103830000135142D4FF0010704F14004F3D1002F9E
:103840005CD13749D9F800400B8803EB432203EBE6
:10385000820303F5585319339BB203EB432203EB66
:10386000820202F55852193292B202EB422002EB68
:10387000800000F5585002EB1222A4011930C2F367
:10388000811280B2023248F8042003EB1323A044D3
:1038900000EB102200260027DBB2C2F38112C8E938
:1038A0000667C8E90A670232C82706260925C8F84C
:1038B00020300524012308800021C8F80C70C8F8C6
:1038C0000420C8F80860C8F81450C8F8384088F8D0
:1038D0003C30C8F83030C8F83430C8F8101088F8D8
:1038E0003D10B9E63FB908EB85180123CAF800502E
:1038F00088F83D30B0E6C9F80060F4E7C9F8006028
:103900009FE700BF082AFF1FF039FF1FF83AFF1F8B
:1039100000002440AC54FF1FC465FF1FAF527991D3
:10392000C215FF1F3C3AFF1F67666666000008402D
:103930009475FF1F0422FF1F0C2AFF1F343AFF1F3C
:103940002DE9F04F9A4C2378612B8BB024D0622B59
:103950004CD0662B5BD0692B00F0A8806D2B5FD01C
:103960006F2B00F0A980732B2ED0742B74D0782B82
:103970006ED0792B00F082807A2B40F0A9808D4B9D
:1039800060781870A178E278597018469A7007F03C
:10399000CBFD894B187026E0864B6078A178E278E1
:1039A0001870184659709A7007F0BEFD834A844B10
:1039B00001461160834803221A6003F061FF8148C9
:1039C00003F00EFF2378CBE77A4B61787C4AA57829
:1039D0001970E4785D70184604219C70116007F03E
:1039E000A3FD794B18700BB0BDE8F08F714B744A92
:1039F00061781970A678E5785E70184604219D708C
:103A0000116007F091FD714A23781070A8E76C4BA4
:103A10006F4A1968116000221A600BB0BDE8F08F80
:103A2000644B6078A178E2781870184659709A70E3
:103A300007F07AFD674B624A186002231946614815
:103A4000136003F01DFF5F4803F0CAFE237887E789
:103A50005B4B01221A60C6E7564B6178584AA5783D
:103A60001970E4785D70042118469C70116007F0AD
:103A70005BFD594B18700BB0BDE8F08F4D4B607873
:103A8000E278A178187018469A70597007F04CFDCA
:103A9000524B534C186007F093F90022514B07F03A
:103AA0001FFBC4E900010BB0BDE8F08F4E4B0022B4
:103AB0001A700BB0BDE8F08F454C4248216803F006
:103AC000DFFE404803F08CFE3D4B22681A608AE717
:103AD000702B88D1374B60781870A178E2785970D4
:103AE00018469A7007F020FD404BC0B20F2818709E
:103AF00059D83F4B53F82080002758F82730DBB2C5
:103B00000137FF2BBFB2F8D1D8F8003007974FF03C
:103B1000FF324FEA13690692C3F3072BC3F3074A38
:103B20000024CE4658F8045F3248C5F30727C5F392
:103B30000746F9B24FEA241C0491F1B205915FFAED
:103B40008CF103910799ECB20F29C5F3076508AA18
:103B50004FEA14135FFA85F90CD806998C4507DCF7
:103B60000F2905D00131C9B28B42039138BF0B46F2
:103B700059B2069109A9009103998DF820B08DF8EA
:103B800021A08DF822E08DF824708DF825608DF845
:103B9000265001F077F9FF2CDDF810B0DDF814A005
:103BA000CE46BFD11FE70022DFF84C801A70A3E792
:103BB0000840FF1F303AFF1F6815FF1FA015FF1FA9
:103BC0003415FF1F5817FF1F333AFF1F6915FF1FDA
:103BD0007C3AFF1F9815FF1FA415FF1F9439FF1F84
:103BE0009015FF1F000059408C15FF1FC974FF1F5F
:103BF00098C200003C3AFF1F64C2000038B5084C70
:103C0000251D14F8010B05F051FDAC42F9D1054812
:103C100003F0E6FDFFF794FE034B00221A7038BD57
:103C20000840FF1F5817FF1FA856FF1FF8B5124E78
:103C3000124D134F04F068FC00B9F8BD3478002C25
:103C4000FBD104F071FC2B78C0B23BB13E280D4B88
:103C500009D01A78511CB8541970EBE73C28E9D107
:103C600001232B70E6E7074B2C7019781C7001229A
:103C70007C543270DEE700BFA856FF1F3C76FF1F62
:103C80000840FF1FF83FFF1F2DE9F043DFF86C905D
:103C9000DFF86CC0D9F800804FF0000E08F148073B
:103CA000A7F14000ACF1E00665462EF00604A0F155
:103CB000080332462946012C0CBF0B601360013308
:103CC0008342A1F10401A2F10402F4D103F108003E
:103CD0008742A5F1200506F12006E8D10EF1010E7C
:103CE000BEF1080F03F148070CF5807CD8D108F528
:103CF0000073C9F80030BDE8F08300BFE839FF1F4A
:103D00000023FF1F2DE9F04F0F2197B0804805F0E9
:103D100049FC804803F064FD7F4801F0F7FA7F48D2
:103D200001F0F4FA7E4801F0F1FA4FF4FA6003F082
:103D30009DFF11217B4805F035FC764803F050FDCE
:103D400040F6354004F058FB642004F04DFA1B2186
:103D5000754805F027FC6F4803F042FDFFF794FF1C
:103D60000B21724805F01EFC6A4803F039FDFDF78F
:103D700089F915216E4805F015FC664803F030FD01
:103D80006C48036813F0010400F09E806A496B4898
:103D9000DFF8B0914FF4807200230C4600F028FF4A
:103DA000674B1B7889F800304846012101F048F83C
:103DB0004FF47A7004F018FA04F570680027FF26B3
:103DC000642521460AA803348DF828708DF82960EF
:103DD0008DF82A5001F052F94445F2D199F80010BB
:103DE000584800F06BFF41F2883004F0FDF90121E2
:103DF000544801F025F80B21534805F0D3FB454802
:103E000003F0EEFC5149002751F827304F4ADBB24E
:103E10000137FF2BBFB2F7D113680797C3F30749E8
:103E2000C3F3072B4FEA13684FF0FF339246069314
:103E30000024CE465AF8045FC5F30727C5F30746AA
:103E4000F9B24FEA241C0491F1B205915FFA8CF1AA
:103E500003910799ECB20F29C5F3076508AA0AA8D0
:103E60004FEA14135FFA85F90CD806998C4507DCE4
:103E70000F2905D00131C9B28B42039138BF0B46DF
:103E800059B2069109A9009103998DF820B08DF8D7
:103E900021E08DF822808DF824708DF825608DF852
:103EA000265000F0EFFFFF2CDDF810B0DDF814E035
:103EB000C846BFD10F21264805F074FB154803F012
:103EC0008FFC17B0BDE8F08F04F076F800283FF4BF
:103ED0005DAF2049194B08685C60FF2201255C61D9
:103EE0009C609D741A735A739A73DA731A745A74B5
:103EF00060B1194A116801B18B60184913600D480F
:103F0000196000229A6104F05DF83FE70B60F0E76A
:103F1000A0C100005817FF1F2476FF1F3076FF1F37
:103F20008875FF1FB0C10000C4C10000E0C10000DF
:103F3000ECC10000D821FF1F942AFF1FDC21FF1FC6
:103F40006815FF1FE8A6FF1F04C2000010C1000093
:103F500010C20000F8A6FF1F08A7FF1FF4C0000052
:103F60002DE9F04F0026DFF8E0A0354FDFF8D480D0
:103F700083B03546FF24AAF5807B0BF12009032E80
:103F8000DBF800108DF8045011DD01F5007101EB34
:103F90004101394401A88DF805408DF8064001F033
:103FA0006DF8DBF800108DF8045001F5407101EB5D
:103FB0004101394401A88DF805408DF8064001F013
:103FC0005DF898F800101F4800F078FE3C2004F0DF
:103FD0000BF91B4A511C02F5706011F8013C03EB10
:103FE000431E03EB4E03C3EB83031B1201F8013C9A
:103FF00092F801E093780EEB4E1C0EEB4C0E03EBA7
:10400000431C03EB4C03CEEB8E0EC3EB83034FEA52
:104010002E2E1B1282F801E093700332904201F1C0
:104020000301DAD10BF1040BCB45A8D1DA45A4D1B9
:104030000136082E0AF5807A9DD103B0BDE8F08FD5
:10404000942AFF1FE8A6FF1F0423FF1F2DE9F04756
:10405000DFF8B480DFF8B490D8F80030FF2B3AD006
:1040600013B9D9F8002092BB204B214D1B78214A6F
:10407000214C52F82330214E98472A78204B53F890
:104080002230984798F800A004F57067254631461D
:1040900028465246033500F063FFBD4206F1030691
:1040A000F5D1D8F80030174DC3F1FF03DEB2294631
:1040B00020463246033400F053FFBC4205F10305AD
:1040C000F5D1D8F80030C9F80030BDE8F087074ACC
:1040D000074D1370CBE7D9F80030054DFF2B01D009
:1040E00000232B70014B1B78C1E700BF8C2AFF1FF8
:1040F000D875FF1FAC15FF1F942AFF1FC465FF1F53
:104100009C15FF1FC456FF1F9C8FFF1FBC56FF1F2F
:104110002DE9F0410D4CDFF840800D4F0D4E82B07F
:1041200004F5706598F800103A7833788DF805102A
:1041300001A8214603348DF806208DF8043000F0E4
:104140009DFFAC42EED102B0BDE8F081942AFF1F82
:104150006915FF1F333AFF1FA415FF1F124B1B6881
:10416000013B042B1ED8DFE803F00507091B030001
:10417000FFF7F6BEFCF782B9FEF7D0BD70B5FEF7CB
:10418000FDFC0A4C0A4D04F5706629462046FF22C4
:10419000033400F0E5FEB44205F10305F5D170BD2E
:1041A000FEF71EBE704700BFA015FF1F942AFF1F19
:1041B000C465FF1F4C4B1B68013B70B5082B06D82C
:1041C000DFE803F00A1B2C3D4E705F81060070BDD6
:1041D000BDE87040FDF76CBF444C454DFDF784FED3
:1041E00004F5706629462046FF22033400F0B8FE2D
:1041F000A64205F10305F5D170BD3C4C3C4DFCF7E2
:10420000A5FA04F5706629462046FF22033400F023
:10421000A7FEA64205F10305F5D170BD334C344D20
:10422000FCF786F904F5706629462046FF22033420
:1042300000F096FEB44205F10305F5D170BD2B4C9C
:104240002B4DFEF75BF904F5706629462046FF22E8
:10425000033400F085FEB44205F10305F5D170BDCD
:10426000224C234DFEF71EF804F5706629462046C1
:10427000FF22033400F074FEB44205F10305F5D1CA
:1042800070BD1A4C1B4DFEF787FB04F5706629467E
:104290002046FF22033400F063FEB44205F103051B
:1042A000F5D170BD114C134DFFF7CCF904F57066D4
:1042B00029462046FF22033400F052FEB44205F1A5
:1042C0000305F5D170BD094C094DFEF7C5FE04F597
:1042D000706629462046FF22033400F041FEB442B6
:1042E00005F10305F5D170BD9815FF1F942AFF1F36
:1042F000C456FF1FC465FF1F70B51A4B1B6882B000
:10430000042B06D8DFE803F0072125290300FFF777
:10431000FFFE02B070BD144C002504F57066214606
:1043200001A803348DF804508DF805508DF806501F
:1043300000F0A4FEB442F2D103210C4805F032F99A
:104340000B4803F04DFA02B070BDFFF77FFE02B0DC
:1043500070BDFFF72FFF02B070BDFFF7FFFE02B088
:1043600070BD00BF3415FF1F942AFF1F20C200003C
:104370005817FF1FF8B5FFF759FC3D4B1B78002B72
:1043800044D13C4C2378002B46D13B4D3B4E3378F7
:104390002B703B4800F0E2FF18B13A4A1368013332
:1043A0001360394800F0DAFF18B1384A1368013356
:1043B0001360374800F0D2FF18B1237883F001036F
:1043C0002370FDF76DFAFFF797FF324B03F540744A
:1043D00093F8000393F8011393F8022383F800097C
:1043E00083F8000C83F8011983F8011C83F8022973
:1043F00083F8022C0333A342EAD1052003F0F4FE34
:1044000029781D48BDE8F84000F058BC194CFFF76A
:10441000F5FB2378002BB8D0162003F065FCC0F51F
:104420007F700330652303FB00F3002BB8BF03F25A
:10443000FF33124E104D184FC3F387230F203370F4
:104440002B7003F051FC40F2E93303FB00F000282D
:10445000B8BF00F2FF30801206F0B2FC0F4B002212
:1044600006F03EFE2378C7E90001002B91D18EE7CC
:10447000A856FF1F8C15FF1FE8A6FF1F6815FF1F1A
:104480002476FF1F3415FF1F3076FF1F9815FF1F7E
:104490008875FF1F942AFF1F9015FF1F00005940C9
:1044A0002DE9F043032185B08F48904F904CDFF801
:1044B000A08200F01FFF04218E4800F01BFF0C219A
:1044C0008D4800F017FF3A68C4F80080002363723B
:1044D00023612372E3600AB9FFE01A465369002B97
:1044E000FBD154610026854D854B81486661A680CD
:1044F000E680A672236001F019FA042005F1280273
:10450000334631462E72EE60C5F8008068722A612B
:104510002E4600E0326942F823106A7A7748013368
:104520009A42F7DC3A68714B0AB9D8E01A465369E7
:10453000002BFBD15561734EDFF818C2C6F800801E
:1045400000214FF480304FF0010E06F5A25286F89C
:1045500009E00B4632616961A980E980A972317274
:10456000F160B646C5F800C0A861E86128626862DB
:1045700001E0DEF8102042F82310727A614801331E
:104580009A42F6DC3A68594B0AB9AAE01A465369CE
:10459000002BFBD1566141F23C4241F23D430027E2
:1045A000DFF8B48158495948B754F7543A460123C3
:1045B0003160C6F818044FF480617761B780F780E6
:1045C000B7725348DFF8949106F00AF8404688E83D
:1045D000300088F8087088F80970C8F80C7088F8FE
:1045E000107002F031FE4B4A4B49404606F096FFF0
:1045F000DFF86C81C9F80C700123484689F808304F
:1046000089F8093089E8300089F8107002F01CFE42
:10461000404A4149414C484606F080FF404688E800
:10462000600088F8087088F80970C8F80C7088F87D
:10463000107002F009FE374A3749404606F06EFF17
:10464000374B384A1A6038480A221A7200F0CCFDFB
:1046500004F5A0752046143400F0C6FDAC42F9D133
:10466000324B334C03F1400122680392039A43F822
:10467000042B8B422E4AF7D113680193019E1368D5
:1046800002932C4D2C4B029A2C492D481A602E6017
:10469000FCF79AFC2B4B002203F5B45003F5347160
:1046A00003F8042C03F8032C24339942F8D18842F0
:1046B0000B46F3D1244B002203F5A06103F8042C30
:1046C00003F8032C40338B42F8D123680093009AFF
:1046D0001E4B1A6005B0BDE8F0833C6002E718602D
:1046E00029E7186057E700BF2476FF1F18ACFF1FAB
:1046F000003AFF1F3076FF1F8875FF1FC03AFF1F6B
:1047000018CB00001440FF1FF0C2000010C30000CF
:104710005854FF1F3015FF1F950900006855FF1FF3
:10472000203AFF1FFCC20000D474FF1F4476FF1F15
:10473000C8ACFF1F902AFF1FC474FF1F10C10000E8
:104740003C3AFF1F4C90FF1F383BFF1FE039FF1F13
:10475000E8C0000024CB0000502AFF1F642AFF1F7E
:10476000782AFF1F08B5064A064B12791A7003F023
:1047700017FD054A054B106000221A7008BD00BFE6
:10478000D8A6FF1F1F800040BCA6FF1FD4A6FF1F96
:1047900010B5044602F08AFE204610BDF0B4064F64
:1047A000064E074D074C39809DF8101032602B6083
:1047B0002170F0BC704700BFC4A6FF1FC0A6FF1F3A
:1047C000D0A6FF1FB8A6FF1FF8B5A24BA24E1C88AB
:1047D000306804EB4404E4002246002107F0B6F9F7
:1047E0009E4B1868002800F003812246002107F044
:1047F000ADF99B4B9B4F9C4DFF221A60012102207B
:1048000003F0C8FC01210E2003F0C4FC01210720A5
:1048100003F0C0FC0121082003F0BCFC01210620AC
:1048200003F0B8FC0121142003F0B4FC0121152091
:1048300003F0B0FC0520012103F0ACFC8B4B8C4A4B
:104840001B788C49DFF858C203F0F003102B4FF0AF
:10485000080E4FF000030CBF95204A2013603B6008
:104860000860C2F800E0A1F5DD210CBF4FF0230E77
:104870004FF0110E4FF06902CCF800207E482A60FC
:10488000A1F5FC61C7F80CE0DFF808E27B4A0CBF39
:104890006725332505600A60DEF80020784DD37166
:1048A000022191717748D18810601561D58B938072
:1048B00021F4E06121F00701D360938293612F041A
:1048C0004FF001039360D18000F19580B4F5004F63
:1048D000A1B2C0F28A80958B6B4FD6F800C03B68BE
:1048E0006A4EADB245F00805958300250222DD71C0
:1048F0009A71C3F800C0DA88D983D9821E616642F2
:10490000DE60DE8B9D8222F4E0629D61012522F053
:1049100007029D809D603504DA8000F18980B4F53E
:10492000004F5FDB9A8B5A4D92B242F008029A8395
:104930002B684B4A1860022098710020D8711A61C8
:10494000DA88988022F4E06222F00702D860988228
:104950009861D88BDA8001229A6002045AD4B4F5A7
:10496000004F3CDB9E8B9EF804404A4A464948482B
:10497000B6B246F008069E839E8B04F18044B6B220
:1049800004F5043446F002069E830026B123267007
:1049900023703B7903F1804303F504339E241E709A
:1049A0001C702B7903F1804303F504339F241E70A0
:1049B0001C7002F097FD2A793748384D53119B003F
:1049C00003F1604302F1100403F5614302F01F029A
:1049D000012101FA02F240F824501A60F8BDD9838F
:1049E000D982BFE7D983D9829CE7D183D18272E78C
:1049F00032681A60FDE6B4F5007F28DAD38BA1B2E5
:104A000003F47E430B43D383D38A03F47E430B43E7
:104A1000D38260E7B4F5007FA4DADA8B02F47E4239
:104A20000A43DA83DA8A02F47E421143D98299E793
:104A3000B4F5007FBFF676AFDA8B02F47E420A430C
:104A4000DA83DA8A02F47E420A43DA826AE7A1B2A2
:104A500041E700BFC4A6FF1FC0A6FF1FD0A6FF1FCF
:104A6000C8F00F4004800B4014800B40B8A6FF1F15
:104A700000800B4008800B4018800B4000030100B1
:104A8000C4F00F40C015FF1FE0A6FF1FC0F00F408D
:104A9000D8A6FF1FC8A6FF1F0010FF1F6547000014
:104AA0000C800B40F8B52C4C2378002BFCD12B4A02
:104AB0002B4B11681868814206D02A4B1A8802EBEA
:104AC0004202D20003F096F9274D03F069FB2B68F0
:104AD000C01AB0F5967FF8D324482549254A2823E3
:104AE00003600B60136872B610390A689342FCD2F7
:104AF00021490A689342FCD31F4802681E49934229
:104B0000FBD81E4E1E4D1F4837792E79174BDFF804
:104B10007CE0174A002505600D60012121701A4DC7
:104B200028244FF48061CEF800101C606921D3F86E
:104B300000E02D7919606FF47F6EA3F52F23734485
:104B400014600824D2F800E011601F701E701D7000
:104B5000046062B6F8BD00BFD4A6FF1FD0A6FF1F39
:104B6000C0A6FF1FC4A6FF1FBCA6FF1F0C800B40E2
:104B700014800B4018800B4004800B40C8A6FF1F18
:104B8000E0A6FF1F00800B40D8A6FF1FA0900440A6
:104B90002DE9F041DFF85480104D114C114F124EA9
:104BA0004046002102F01CFC2A462146404606F001
:104BB000B5FC3846002102F013FC2A46214638464F
:104BC00006F0ACFC3046002102F00AFC2A462146E1
:104BD0003046BDE8F04106F0A1BC00BF3015FF1F14
:104BE00091470000E0A6FF1FD8A6FF1FC8A6FF1F21
:104BF000F8B51E1E03680446CCBF02EB4205002533
:104C00000F469B68D8BF164698477A19236862609A
:104C10005B690A4A6661934201D12046F8BD20468D
:104C200098470028F9D0064A064B516893FBF0F0EC
:104C3000884238BF084650602046F8BD6D04000029
:104C4000E8A6FF1F40420F00084B10B51C685CB17E
:104C500063680021184623B1626902EB420206F044
:104C600075FFA468002CF3D110BD00BFF8A6FF1F8C
:104C700070B40F4C2268531C8A4283B0236013DB4C
:104C80000C4D0D4A2968019101992D68009516680F
:104C9000009D15604FF47A720025891B02FB03F317
:104CA0002560B3FBF1F3438003B070BC704700BFD5
:104CB000FCA6FF1FC8ACFF1F04A7FF1F2DE9F04F84
:104CC00043682D4C83B006468946002B4BD103F038
:104CD00067FAF36820601BB14846B168984781467F
:104CE000264B1C680025002C36D07388A77C616891
:104CF0006269632B236898BFA574D3F804808DF88C
:104D000004508DF805508DF80650B9F1000F1CD0F5
:104D100004F10B030DF1040E04F10E0C13F801BFA6
:104D2000BBF1000F0DD093F803A00AF101000BFBBB
:104D30000000BAF1000F04D009FB00F0000C8EF85F
:104D4000000063450EF1010EE8D1204601ABC047DB
:104D5000A774A468002CC8D130461921FFF788FF3A
:104D600003B0BDE8F08F03F01BFA22687368801A65
:104D70009842AAD3ABE700BF00A7FF1FF8A6FF1F0A
:104D80002DE9F04F43682C4C83B006468A46914685
:104D9000002B49D103F004FAF36820601BB14846A8
:104DA000B16898478146254B1C680025002C34D0FB
:104DB0007388A77C6269632B236898BFA574D3F8B6
:104DC00000808DF804508DF805508DF80650B9F12B
:104DD000000F1AD004F10B0301A804F10E0E13F812
:104DE00001BFBBF1000F0CD093F803C00CF101011F
:104DF0000BFB0111BCF1000F03D009FB01F1090C01
:104E00000170734500F10100E9D1204601AB514624
:104E1000C047A774A468002CCAD130461921FFF7F7
:104E200027FF03B0BDE8F08F03F0BAF9226873687A
:104E3000801A9842ACD3ADE700A7FF1FF8A6FF1F6A
:104E400010B5044682B051B100231A4601A98DF86D
:104E500004308DF805308DF80630FFF791FF2046BD
:104E6000FFF7F2FE02B010BD00207047044B002295
:104E7000FF204FF0FF31187099605A80DA60704758
:104E8000E8A6FF1F2DE9F04F8B42099E52D396F8FA
:104E900000E01578777896F80280547892F802C08E
:104EA000C1EB030BC5EB0E0EC4EB070ACCEB0806F7
:104EB0001FFA8BF24FEACE1E4FEACA1AF601B2B3BE
:104EC0000FFA82FB9EFBFBFE9AFBFBFA4FEA4E0EAB
:104ED0004FEA4A0A96FBFBFB99424FEA4B0B1FFA3B
:104EE0008EFE1FFA8AFA1FFA8BFB4FEA05254FEA5E
:104EF00004244FEA0C2218D801EB41070131C619EE
:104F000089B24FEA25294FEA24284FEA222C75441A
:104F100054445A448B4200F80790ADB286F80180A1
:104F2000A4B286F802C092B2E6D2BDE8F08F4FF08C
:104F3000010BC7E78946357892F800E07478577816
:104F400096F802C092F802801570194686F800E0C3
:104F50004B465470777082F802C086F802809FE753
:104F600022B3FF2A23D0F0B404780E78437895B2A8
:104F7000A719D24306FB0576D2B204FB0264C4F340
:104F8000072404704C7886781F1904FB057403FB12
:104F90000243C3F3072343708B78F11803FB051515
:104FA00006FB0252F0BCC2F30722827070470B78F6
:104FB00003704B7843708B78837070472DE9F04312
:104FC000141104EB440512F00F020D449DF81C600F
:104FD00000D0E6B92C786978AA78FF2B12D0002B84
:104FE00043D00133DBB21CB103FB0444C4F30724F8
:104FF00019B103FB0111C1F307211AB103FB02220E
:10500000C2F30722047041708270BDE8F0830F2C58
:105010002E7895F80190AF7800D0E91C120182F04B
:10502000FF056C1C91F800C091F801E091F8028036
:1050300004FB06F6511C04FB09F504FB07F4C4F35A
:105040000724C6F3072701FB08F201FB0CF6C5F3A2
:10505000072501FB0EFE04EB222207EB262605EBBB
:105060002E21F4B2C9B2D2B2B7E71A4619461C468D
:10507000047041708270BDE8F08300BFF0B4047822
:1050800046788278E00000F0F80000EB800303EB44
:10509000031303442506C3F307235FD404F040053C
:1050A00005F0FF0704F02004002D46D104F0FF00B6
:1050B000002C6CD05533DDB2AB243B46FF2E1CD008
:1050C000002E79D01CB106FB0444C4F307241DB1A3
:1050D00006FB0555C5F307251BB106FB0333C3F3D8
:1050E0000723F043C0B200FB0000C0F307200444D4
:1050F00005440344E4B2EDB2DBB2FF2A18D012FB40
:1051000002F0003218BF012202EB102212F0FF025F
:1051100056D01CB102FB0444C4F307241DB102FBAA
:105120000555C5F307251BB102FB0333C3F3072362
:105130000C704D708B70F0BC704704F0FF075CBBC7
:1051400000EBC00400EB440000EBC0000412563B2F
:10515000C4F1AB04DDB2E4B23B46AFE704F0400774
:1051600007F0FF05E7B904F0200707F0FF04002F60
:1051700036D100EBC00300EB430000EBC000C0F3EE
:105180000720C0F1AB055530EDB2C3B296E7DC4362
:10519000E4B21D46034691E70024DD43EDB28DE7FE
:1051A00004F0200404F0FF0594B903F15504E4B2BF
:1051B000C3F1AB03DBB281E7FF231D461C469CE72E
:1051C0001546144613460C704D708B70F0BC70473A
:1051D000A3F15604E4B20025C3F15503DBB26DE739
:1051E000D8431C46C3B269E7002200210160426037
:1051F0008260C26002617047002300220260436047
:105200008360C36003617047026862B9D0ED017AC0
:1052100080ED020A77EE807A012380ED030AC0ED6B
:10522000017A03607047D0ED027AB4EEE70AF1EE3E
:1052300010FA2BD4D0ED037AB4EEE70AF1EE10FAAF
:10524000C8BF80ED030A90ED016A531C30EE066A78
:10525000012B80ED016A036017D907EE903AF8EE52
:10526000677A07EE102AC6EE276AB8EE477A36EE5E
:10527000C00A90ED046A67EE807A67EE807AC7EE26
:10528000876A76EE267AC0ED047A704780ED020ACE
:10529000D9E700BF036843B107EE903A90ED017A79
:1052A000F8EE677A87EE270A70479FED010A70478C
:1052B0000000C07F08B5036813B99FED0D0A08BD53
:1052C00007EE903A90ED047AF8EE677AC7EE276A17
:1052D00016EE900A05F086FD41EC100B05F0ECFA95
:1052E00051EC100B06F0CAF800EE100A08BD00BF22
:1052F0000000C07F30B46425012400224580047181
:1053000001704271826030BC704700BF007802219A
:1053100002F040BF30B5104D82682B6883B0009317
:10532000009B9A4203D90379184603B030BD044666
:10533000007802F021FF23799842F5D02A68019283
:105340006188019A83F001030A4418460121237100
:10535000A260617103B030BDC8ACFF1F10B5044638
:10536000FFF7D8FF20B9637903B16071184610BD0B
:105370000023184610BD00BFF8B50021054601F016
:1053800035FF002800F0D08041F23C43EB5C072B56
:1053900000F2CA80DFE803F0C9D0D7DEE5ECF30401
:1053A000D5F81C74C5F8380405F587643B1D224602
:1053B00007F5827705F23C4133F8026B42F8046F3F
:1053C0009F42F9D1D5F8207405F5C7623B1D07F55A
:1053D000827733F8026B42F8046F9F42F9D1D5F817
:1053E000247405F638023B1D07F5827733F8026B0B
:1053F00042F8046F9F42F9D1D5F8287405F6382297
:105400003B1D07F5827733F8026B42F8046F9F4229
:10541000F9D1D5F82C7405F638423B1D07F5827793
:1054200033F8026B42F8046F9F42F9D1D5F830741B
:1054300005F638623B1D07F5827733F8026B42F8B8
:10544000046F9F42F9D1D5F8347405F581523B1DA4
:10545000183207F5827733F8026B42F8046F9F42E7
:10546000F9D105F59152031D183200F5827033F819
:10547000026B42F8046F8342F9D1D5F8180480B169
:1054800005F5886200F5006732F9043C30F9026BDB
:1054900003FB06F3DB13874222F8043C02F104020B
:1054A000F2D105F5A2500430384E05F07BF805F234
:1054B000164705F1160054F8041F21FB01F1B1FA5B
:1054C00081F336F81320B1FBF2F31A445308B1FB11
:1054D000F3F10B445B0820F8023FB842EBD141F2F4
:1054E0003D430122EA54D5F81C0401F03BFED5F8F7
:1054F000200401F037FED5F8240401F033FED5F87E
:10550000280401F02FFE41F23C430422EA5405F541
:1055100086610EC9D5F82C04C5F81C04C5F8201402
:10552000C5F82424C5F82834F8BD41F23C430122D3
:10553000C5F81C04EA54F8BD41F23C430222C5F808
:105540002004EA54F8BD41F23C430322C5F8240488
:10555000EA54F8BD41F23C430422C5F82804EA5459
:10556000F8BD41F23C430522C5F82C04EA54F8BDCD
:1055700041F23C430622C5F83004EA54F8BD41F23A
:105580003C430722C5F83404EA54F8BD28CB000098
:105590000020704700207047F8B5144C037A242986
:1055A00008BFC2805B0001250E462046C1F30721DB
:1055B000174684F83B3084F85E5084F85D5001F063
:1055C0003FFBF1B2204601F03BFBC7F30721204629
:1055D00001F036FBF9B2204601F032FB29462046A5
:1055E00001F09AFCB0FA80F04009F8BD7416FF1F74
:1055F00070B5012604460671344801F035FB0520DC
:1056000002F0F2FD204644F260023021FFF7C4FFB1
:105610000546002858D06C2226212046FFF7BCFF03
:105620004FF4F97228212046FFF7B6FF40F62272A8
:105630002C212046FFF7B0FF44F246423C21204691
:10564000FFF7AAFF40F2371224212046FFF7A4FFFC
:1056500044F2FF0230212046FFF79EFF7322022111
:105660002046FFF799FF4FF4C87002F0BDFD41F6E8
:105670001D522E212046FFF78FFF0422114620469F
:10568000FFF78AFF4FF4987206212046FFF784FF48
:1056900010220A212046FFF77FFF00220E2120461C
:1056A000FFF77AFF43F63C4210212046FFF774FFD4
:1056B00047F67F7222212046FFF76EFF3622242113
:1056C0002046FFF769FF6672284670BD7416FF1FFB
:1056D00010B5044619B1012911D0002010BD552282
:1056E0002021FFF759FF0028F7D0E28842F004029A
:1056F000204692B22421BDE81040FFF74DBF40F292
:1057000073122A21FFF748FF0028E6D088222021C3
:105710002046FFF741FF0028DFD0E288204622F034
:1057200004022421BDE81040FFF736BF38B5054616
:10573000F1B1802903799ABFC1F1800444EA0424BD
:10574000002433B9224628462221BDE83840FFF71D
:1057500023BFC288002322F0100203712421FFF727
:105760001BFF224628462221BDE83840FFF714BF20
:105770000123037147F67F722221FFF70DFFEA88AC
:1057800042F01002284692B22421BDE83840FFF7CB
:1057900003BF00BF9FED057ADFED057AE0EE077AE3
:1057A000FCEEE77A17EE901AFFF7C0BF0000014346
:1057B000EE7CFF3E024A0349034805F0AFBE00BF3E
:1057C0003015FF1F914700000CA7FF1F38B5074D8C
:1057D000074C08482A46214605F0A0FE2A462146E5
:1057E0000548BDE8384005F099BE00BF3015FF1FE1
:1057F0009147000014A7FF1F1CA7FF1F1A4A1B4B4D
:1058000011681B48096970B499421279027008D274
:10581000184A12782AB3184A0121116003F58074DE
:1058200002E01C46A3F58073144A154912680D68FE
:10583000AAB1A5B1134E3088402810D841000A44BF
:105840004030294402320231308033F9040B22F80F
:10585000020F9C4233F9020C21F8020FF5D870BCFC
:10586000704703F58074DFE730A9FF1F28A8FF1FEA
:105870001F80004028A9FF1F08E200E038A9FF1F91
:105880002CA9FF1F24A7FF1FF8B5064601F016FC40
:105890000446E8B101F012FC054600283AD072B681
:1058A0001F4B1A887F2A19D8002C31D01D490A684D
:1058B00042B162B6204601F055FC2846BDE8F840EA
:1058C00001F050BC18480C601A80056062B6F8BD43
:1058D000054672B6124B1A887F2AE5D9114A124939
:1058E0001768146000220C681A800D6062B6394691
:1058F000304601F061FC384601F034FC3046214668
:10590000012201F059FC2046BDE8F84001F02ABC14
:1059100062B6F8BD204601F025FC2C46BFE700BF6B
:1059200024A7FF1F38A9FF1F2CA9FF1FF8B5284C7B
:10593000284E294F294D2046012101F051FD00F04C
:105940002BF9274B274A28484FF4806119602368B8
:1059500000211A60998022791E6102F1804240F292
:105960000116DE809F6102F504324FF4807606272F
:10597000DE82DE839F8302268C27D9609E609E8212
:10598000117017702B68194E43F0124343F0010356
:105990002B600368164D43F01043036001F0C6FC12
:1059A0002279144B144C187053119B0003F160437F
:1059B000174602F1100003F5614302F01F020121B6
:1059C000377001FA02F245F820401A60F8BD00BFB6
:1059D00030A9FF1F28A7FF1F00FEFFFF80F0024035
:1059E00014B00440A2F0024000F002401B800040CE
:1059F0000010FF1F28A9FF1FFD570000024A03499E
:105A0000034805F08BBD00BF3015FF1F9147000014
:105A100030A9FF1F024A0349034805F07FBD00BFBC
:105A20003015FF1F914700003CA9FF1F024A0349A0
:105A3000034805F073BD00BF3015FF1F91470000FC
:105A400044A9FF1F024A0349034805F067BD00BF90
:105A50003015FF1F914700004CA9FF1F2DE9F843A7
:105A60004FF00008064600F118054746414630460B
:105A7000002F4FD001F0BAFBF0B12C68B4F5803F95
:105A800007F1040100F1040E07F5827C27D05EF8CF
:105A9000042B34FB02F334FB12F903F30F0209F376
:105AA0000F03C2EA03430A6893FA12F341F8043B76
:105AB0008C45ECD801F056FB08F10108B8F1040F51
:105AC00005F10405D2D1002F40D0304639460022DE
:105AD00001F072FB3846BDE8F84301F043BB07F123
