:1000000000000320D1010000297E0000E17D0000F6
:10001000E17D0000E17D0000E17D0000E17D000068
:10002000E17D0000E17D0000E17D0000297E00000F
:10003000297E0000E17D0000557500005976000022
:10004000297E0000297E0000297E0000297E000014
:10005000297E0000297E0000297E0000297E000004
:10006000297E0000297E0000297E0000297E0000F4
:10007000297E0000297E0000297E0000297E0000E4
:10008000297E0000297E0000297E0000297E0000D4
:10009000297E0000297E0000297E0000297E0000C4
:1000A000E16E0000ED6E0000297E0000297E000058
:1000B000297E0000297E0000297E0000498400007E
:1000C000297E000061970000297E00008D980000C5
:1000D000297E000085990000297E0000297E00000D
:1000E000297E0000297E0000297E0000297E000074
:1000F000297E0000297E0000297E0000297E000064
:10010000297E0000297E0000297E0000297E000053
:10011000297E000009870000297E0000297E00005A
:10012000297E0000297E0000297E0000297E000033
:10013000297E0000297E0000297E0000297E000023
:1001400011720000297E00007D9A0000297E0000C7
:10015000297E0000297E0000297E0000297E000003
:10016000297E0000297E0000F96E0000297E000033
:10017000297E0000297E0000297E0000297E0000E3
:10018000297E0000297E0000297E0000297E0000D3
:10019000297E0000297E0000759B0000297E00005A
:1001A000297E0000297E0000297E0000297E0000B3
:1001B000297E0000297E0000297E0000297E0000A3
:1001C000297E0000297E0000297E0000297E000093
:1001D0005C4B4CF2205210B51A804DF628121A8052
:1001E00000BF00BF07F024FE574B4FF030621A608B
:1001F000564A9A60564ADA60564B4FF470021A60BB
:10020000554B564A1A60564B1A78110703D51A787F
:1002100042F008021A70534B5349AA221A70534AEB
:10022000534B8B4204D252F8040F43F8040BF8E707
:10023000504B514900228B4202D243F8042BFAE77B
:100240004E494F4A002352F8230041F8230001335E
:10025000742BF8D14B4B4C4A802103F8011B93427D
:10026000FBD14A4B454A1A60494B8A221A70A3F5C2
:10027000805324225A70A0221A709A799207FCD5D2
:100280009A79D406FCD4434A937903F00C03082BE3
:10029000FAD1414B60221A7002331A78802AFCD1BD
:1002A0003C4B01221A715D225A719A799006FCD555
:1002B0009979384A4906FBD5384B394919600021EC
:1002C000596020231370937903F00C030C2BFAD19F
:1002D000344B354A1A60354A354C136813F4807331
:1002E00003D123604FF4A8531360324B324A1A6093
:1002F00000225A60072243F8042C304AC3F80C2D20
:1003000062B607F01FFF2368DA0705D52C4807F00F
:1003100077FE2C4B2C4A1A602C4B1B785B0609D5B8
:10032000284C294B22689A4204D1254807F068FEE0
:10033000002323600BF064F807F080FD07F0AEFCAB
:10034000FEE700BF0E20054030800440823F0400DD
:100350000100002B88ED00E0002008E0030000858C
:1003600002D0074000E00740B821FF1F58C8010035
:100370003015FF1FB821FF1F0CB1FF1F0010FF1F1A
:100380000000000000E400E064E400E008ED00E0AC
:10039000005006400040064001E007404480044011
:1003A0000000060204800440C010070010D0034083
:1003B00014D0034014E000E01FBF02000000202022
:1003C000641218601CE00340A5C3945A00F0074073
:1003D000FFFFFFFFFFFFFFFFFFFFFFFFFFFFFFFF2D
:1003E000FFFFFFFFFFFFFFFFFFFFFFFFFFFFFFFF1D
:1003F000FFFFFFFFFFFFFFFFFFFFFFFFFFFFFFFF0D
:10040000FFFFFFFFFFFFFFFFFFFFFFFFDEF9FFFF23
:1004100010B5054C237833B9044B13B10448AFF33E
:1004200000800123237010BDB821FF1F00000000D1
:100430005CC80100084B10B51BB108490848AFF370
:1004400000800848036803B910BD074B002BFBD0A0
:10045000BDE81040184700BF00000000BC21FF1F8E
:100460005CC80100B821FF1F000000000020704799
:10047000704700BF4069C000704700BF2DE9F04FD2
:10048000002585B0744EDFF80082DFF8F4B1DFF8A4
:10049000FC912C4607E0642B00F3DB800134082C30
:1004A00005F1DC0540D056F8043F58F82320002A17
:1004B000F4DB130289FB0301B2F5167F4FEAE37305
:1004C000C3EB2123E7DD4FF0FF0A644BD3E90001C2
:1004D0000AF0E8FE00EBC4000BEB4011EA10CF6914
:1004E0005F490120143A53460090D2B203A804F0A9
:1004F000BFFC07EB47035B4F9DF80C00FA5CF91853
:1005000082FA50F2FA549DF80D304A7882FA53F28A
:100510004A708B789DF80E2083FA52F30134082C30
:100520008B7005F1DC05BED14F4B504A1B68504E15
:10053000B3F57A7FA8BF4FF47A7323EAE37303EB32
:10054000830103EBC10382FB0312DB17C3EB2223FE
:100550003268C3F12E03934273DA464C3F4D237841
:100560000022002B5DD0444BD5E900010AF038FA97
:100570000022424BC5E900010AF04CFE002865D17B
:10058000DFF80C81374FDFF80CE108F50069A8F5BA
:10059000807C614651F81C3D51F8042F02EB420566
:1005A00003EB43030EEB0504F8181EF805A065786D
:1005B000A47807F803A08C45134645708470EBD1EE
:1005C0000CF1200CE045E4D108F58078C145DED17E
:1005D0002B4800F5006500F58074C26902EB420209
:1005E000B918BB5C03EBC30303EBC3031B12BB547F
:1005F0004A788B7802EBC20203EBC30302EBC20220
:1006000003EBC303203012121B1284424A708B701A
:10061000E3D1AC422046DED10122326005B0BDE814
:10062000F08F184BD5E900010AF0D8F90022002319
:10063000C5E900010AF0EEFD0028A1D001232370D6
:100640009EE70132326005B0BDE8F08F00232370D1
:1006500096E75FFA83FA38E73815FF1F0040FF1F5F
:100660003C3AFF1FB856FF1F9839FF1F9F7478410F
:10067000EC39FF1F3815FF1F0000E03F00001C4051
:100680000422FF1F0000F03FAC54FF1F37800B6DAA
:100690002023FF1F942AFF1F844B854A196840F6C8
:1006A000B8338B42A8BF0B4623EAE37303EB830105
:1006B00003EBC10382FB0312DB17C3EBA2237D4ACA
:1006C0001268C3F12A03934280F2EC802DE9F04FC7
:1006D0002DED028BDFF8FCA1774A9AF80030774DB8
:1006E000774C89B001338AF80030724B04920022B3
:1006F00003951A600292059513E0724A1B0282FB71
:100700000328DB17C3EB2828B8F1320F17DC029B54
:10071000039ADC3302F58072B3F5DC6F0293039227
:1007200064D0049A52F8043F0492674A52F8233086
:10073000002BECDBB3F5167FDFDD4FF0FF08029BEB
:10074000039FC3F3C70B0026B0EE0C8A4FF00109DC
:1007500032E007EE906AF8EEE77A9AF80020FD6939
:10076000CDF8009077EEC87A05EB4505FDEEE77A07
:100770005A4417EE903A002BB8BF5B42D2B298FBB6
:10078000F3F3DBB204F074FB6119635D9DF81C2088
:1007900083FA52F363554A789DF81D3082FA53F27A
:1007A0004A708B789DF81E2083FA52F30136082E8A
:1007B0008B7007F12007AAD0F31E012B434907A82D
:1007C000C7D89AF80020FD69CDF800905A445FFA26
:1007D00088F3D2B204F04CFB05EB4503E118E25C70
:1007E0009DF81C0082FA50F2E254D4E7DFF8E8806A
:1007F000059D374E08F50069A8F5807C614651F8E3
:100800001C3D51F8042F02EB420E03EB430306EBB1
:100810000E07E01816F80EA097F801E0BF7804F86C
:1008200003A06145134680F801E08770E9D101F12A
:10083000200CE045E2D101F59078C145DCD1DFF82C
:100840009CE005F58070EA6902EB4202A118A35C06
:1008500003EB8306C6EB061603EB46031B12A354F9
:100860004A788B7802EB820703EB8306C7EB071706
:10087000C6EB061602EB470203EB460320351212C5
:100880001B12A8424A708B70DDD170450546D8D145
:10089000084B1A68074B01321A6009B0BDEC028B95
:1008A000BDE8F08F034B01321A6070479839FF1F83
:1008B000D32A5A57A0A6FF1F3815FF1F0422FF1F77
:1008C000B856FF1F37800B6DAC54FF1F3C3AFF1F1B
:1008D000942AFF1FCC75FF1F2023FF1F042AFF1F30
:1008E0002DE9F04F1D4EDFF87C8032781C4F85B02B
:1008F0000132D0B20023307001934FF0FF0A019D06
:1009000008F58079C346002400E030785BF8041FC6
:100910008DF80DA02A1901EB41010A340244394433
:1009200003A8E4B28DF80EA08DF80C2004F000FBB3
:10093000502CEAD108F120080535C145EDB201D0AF
:100940003078DFE7019B0533DBB2282B019301D020
:100950003078D4E705B0BDE8F08F00BFCC75FF1F3D
:10096000942AFF1F0022FF1F10B5044606F0FAFB71
:10097000204610BD072901D8072A00D9704701EB8E
:10098000C00102EBC101064A52F8212010B4054C07
:1009900002EB4201214418465DF8044B04F0C8BA4A
:1009A0000422FF1F942AFF1F072901D8072A00D914
:1009B000704701EBC00102EBC101064A52F8212049
:1009C00010B4054C02EB4201214418465DF8044B7B
:1009D00004F0AEBA0422FF1FB865FF1F2DE9F04FE7
:1009E000866985B005460C46002E00F07181A3682B
:1009F000EA69002B40F366812746183257F8148BBA
:100A000004F1340094F813900DF10706394609F10A
:100A10000109B446BE465EF8043F43445B7843B1E7
:100A200094F80DA083FA5AF3DBB209FB03F3C3F386
:100A3000072386450CF8013FEDD1DDF80880039BC4
:100A400088EAD81C83EAD31E0CF0AA1C0EF0AA1E5A
:100A500088EA0C0883EA0E0388EACC1C83EACE1EDF
:100A60004CF6CC488CEA9C3A8EEA9E39434609EA19
:100A700003030AEA08088CEA080C8EEA030E8CEAE3
:100A8000883C8EEA833E4FEA0E184FEA1C130EF0A4
:100A9000F03E0CF00F3C08F0F03803F00F3343EA5F
:100AA0000E0348EA0C0E4FEA1E494FEA1E684FEA51
:100AB000132C02F811EC02F8153C4FEA1E2A4FEAFB
:100AC000134E1B0E02F816CC02F817EC02F812AC0B
:100AD00002F8139C02F8148C02F8183C94F8129057
:100AE000D4F8008009F101090DF1070CBE465EF84B
:100AF000043F18F8033043B194F80CA083FA5AF37A
:100B0000DBB209FB03F3C3F3072386450CF8013F6F
:100B1000EDD1DDF80880039B88EAD81C83EAD31E58
:100B20000CF0AA1C0EF0AA1E88EA0C0883EA0E0339
:100B300088EACC1C83EACE1E4CF6CC488CEA9C3A60
:100B40008EEA9E39434609EA03030AEA08088CEA5A
:100B5000080C8EEA030E8CEA883C8EEA833E4FEA4C
:100B60000E184FEA1C130EF0F03E0CF00F3C08F08C
:100B7000F03803F00F3343EA0E0348EA0C0E02F894
:100B800009EC4FEA132C02F80D3C4FEA1E2A4FEAFB
:100B90001E494FEA1E684FEA134E1B0E02F80AACBC
:100BA00002F80B9C02F80C8C02F80ECC02F80FEC49
:100BB00002F8103C94F814C0D4F800E00CF1010CD9
:100BC00051F8043F73449B7843B194F80E8083FA44
:100BD00058F3DBB20CFB03F3C3F30723884206F898
:100BE000013FEDD1029B039E83EAD31186EAD61E14
:100BF0000EF0AA1E01F0AA114B4086EA0E0683EA07
:100C0000C11186EACE164CF6CC4381EA913886EAC9
:100C1000963C9E460CEA0E0E08EA0303594086EA0B
:100C20000E0681EA833186EA8E3633014FEA111EC1
:100C30000EF00F3E01F00F3106F0F03603F0F03306
:100C40000B434EEA06064FEA132A4FEA13494FEACE
:100C500013684FEA162C4FEA164E310E02F8013C8B
:100C600002F8056C02F802AC02F8039C02F8048C4E
:100C700002F806CC02F807EC02F8081CA36894F806
:100C80000CC094F80DE094F80E90266894F80FB01C
:100C900094F810A0617C94F91580013BCCEB0B0C0F
:100CA000CEEB0A0EC9EB0101B044002B02F1180291
:100CB00084F80CC084F80DE0A173C4F80080A36030
:100CC0003FF7A0AEA86905B0BDE8F04F03F044BE01
:100CD000D1F8048008EB4807FF0038460AF0BCFB57
:100CE000E86138460AF0B8FB2862012007F0FEF8F8
:100CF000EB692A6A00960746414603F0A9FCAF61FA
:100D0000384603F0BBFC72E6F0B591B000230568ED
:100D10008DF800308DF801308DF802302E683A4A97
:100D20008DF8043096428DF805308DF8063064D188
:100D3000827C0391012A044604918DF81A308DF8C3
:100D40001B308DF81C30CDF808D01AD08DF8193032
:100D50008DF818308DF817308DF816308DF8153065
:100D60008DF8143000228DF81D2007AB0FA943F831
:100D7000042F9942FBD1AB69204602A9984711B0D4
:100D8000F0BD224A1378013303F0070313F0010F7B
:100D900014BF8021002113709A0744BF41F0400125
:100DA000C9B25B0748BF41F0200110310022C9B22F
:100DB0000DF117030DF11A074FF4807EAAB19EFBC7
:100DC000F2F2D2B2501CC0B200FB01152D12187005
:100DD000EEB205B1013E03F8036C00B11A700133A5
:100DE0009F4208D0DA78002AE9D11A7003F8032C60
:100DF00001339F42F6D12568B4E70A4601AB694644
:100E0000B04711B0F0BD00BFE90E0000D421FF1FB4
:100E1000F0B5857C1C785E789B788FB0012D8DE8CD
:100E2000060002928DF812408DF813608DF8143090
:100E300020D000238DF811308DF810308DF80F3050
:100E40008DF80E308DF80D308DF80C300321002315
:100E50008DF8151002EB4202194605AC0131082944
:100E600044F8043F1344F9D1036869469B699847E5
:100E70000FB0F0BD1B490B78013303F0070313F0EB
:100E8000010F0B7014BF802100219D0744BF41F06A
:100E90004001C9B25B0748BF41F020011031C9B21F
:100EA0000DF10F030DF1120E4FF4807CACB19CFBE1
:100EB000F4F4E4B2651CEDB205FB011636121D70A8
:100EC000F7B206B1013F03F8037C05B11C70013392
:100ED0007345BBD0DC78002CE9D11C7003F8034CBF
:100EE000F5E700BFD421FF1FF0B5857C1C785E7844
:100EF0009B788FB0012D8DE8060002928DF812408C
:100F00008DF813608DF814301BD000238DF811304C
:100F10008DF810308DF80F308DF80E308DF80D30C3
:100F20008DF80C3000228DF8152005AB0DA943F883
:100F3000042F8B42FBD1036869469B6998470FB029
:100F4000F0BD1B4A1378013303F0070313F0010FC0
:100F5000137014BF80220022990744BF42F0400260
:100F6000D2B25B0748BF42F020021032D2B20DF17C
:100F70000F030DF112074FF4807EACB19EFBF4F429
:100F8000E4B2611CC9B201FB02252D121970EEB248
:100F900005B1013E03F8036C01B11C7001339F429F
:100FA000C0D0DC78002CE9D11C7003F8034CF5E7C5
:100FB000D421FF1F2DE9F04F8BB00027069051F888
:100FC0002730DBB20137FF2BBFB2F8D10B68079790
:100FD0004FEA1368C3F3072BC3F307494FF0FF33FE
:100FE000C64600240593884658F8045F0698C5F362
:100FF00007274FEA241CC5F30746ECB2F9B2C5F344
:1010000007650391E9B204915FFA8CF102910799A7
:101010000F2908AA4FEA14135FFA86FA0CD805992B
:101020008C4507DC0F2905D00131C9B28B420291F2
:1010300038BF0B4659B2059109A9009102998DF864
:1010400020B08DF821908DF822E08DF824708DF875
:1010500025608DF8265003F06FFEFF2CDDF810E0C0
:10106000DDF80CB0D146BFD106980BB0BDE8F08FCB
:1010700038B52A4804F0CCF8D8B1294C01232360B4
:101080000C21284808F0EAF9274806F003FB274D11
:1010900027480C2105F036FF284604F003FA2368A0
:1010A000ABB1012B23D0234B4FF400429A61DA619C
:1010B00038BD1B4C03460C211F48236008F0CEF9B5
:1010C000194806F0E7FA2368012BE0D1D8E755224A
:1010D0002021284604F0BAF90028E4D0EA8842F03A
:1010E000040292B22846242104F0B0F9DBE740F272
:1010F00073122A21284604F0A9F90028D3D08822A7
:101100002021284604F0A2F90028CCD0EA882846FD
:1011100022F00402242104F099F9C4E71076FF1F9D
:10112000C875FF1FE8BF00005817FF1F203AFF1FB8
:101130000002FF1FC03AFF1FD8BF00002DE9F84F83
:10114000104C114F114EDFF848B0DFF848A0DFF81F
:10115000489004F58C780025204603F0A7FF14344E
:1011600002230C21CBF8003044454FF0080347F828
:10117000045F46F8045FCAF80030C9F80010EBD1EC
:10118000BDE8F88F6855FF1F7C3AFF1F8075FF1F71
:10119000082AFF1F783AFF1F2C3AFF1F70B5224B19
:1011A00086B0002453F8042F092A04F1010120DC41
:1011B000CCB20E2CF6D11D4D1D4E2B680193019B18
:1011C00031681C4A5B1A93421DD82B6803931A4B53
:1011D000039A1B6832602A680592059AD31AB3F500
:1011E0007A7F04D9FFF7AAFF144B01221A7006B0C8
:1011F00070BD0E4D0E4E2B680193019B31680D4A58
:101200005B1A934205D92B680293029B3360FFF768
:1012100095FF0B2CD9D82B6807490493049B074AE8
:101220000B6000211170D6E7A854FF1FBCACFF1F54
:10123000B874FF1FE0930400902AFF1FE474FF1F9F
:10124000E64BE74A03F1380053F8041F42F8041F45
:101250009842F9D12DE9F047DFF8C093DFF8C08359
:10126000B9F8183007EE903A2DED028BDD4BDFED2B
:10127000DE8AF8EE677AD3E9006767EEA87A4C4613
:1012800017EE900A09F00AFD32463B4609F05AFD76
:101290000022D64B09F056FD0AF004F8B9F81A30CE
:1012A000C8F8000007EE903AF8EE677A08EE100AE8
:1012B00067EEA87A09F1360517EE900A09F0EEFC00
:1012C00032463B4609F03EFD0022C84B09F03AFD8C
:1012D00009F0E8FFB9F81E20B9F81C30C8F804007E
:1012E000134407EE903AF8EEE77A67EEA87A17EE25
:1012F000900A09F0D3FC32463B4609F023FD002258
:10130000BA4B09F01FFD09F0CDFFB9F82010B9F86C
:101310002230B9F82420C8F808000B44134407EE23
:10132000903AF8EEE77A67EEA87A17EE900A09F09D
:10133000B5FC32463B4609F005FD0022AB4B09F0F7
:1013400001FD09F0AFFFB9F828E0B9F82630B9F887
:101350002A1034F82C2FC8F80C0073440B441344A3
:1013600007EE903AF8EEE77A67EEA87A17EE900A61
:1013700009F094FC32463B4609F0E4FC9B4B00220A
:1013800009F0E0FC09F08EFF0023C8F8100034F8E3
:10139000022FA5421344FAD107EE903AFBEEC97A28
:1013A000934C17EE900A09F079FC32463B4609F05F
:1013B000C9FC00228D4B09F0C5FC09F073FFC8F889
:1013C0001400002035F8023FAC421844FAD107EE71
:1013D000900AFBEEC97A874D17EE900A09F05EFC81
:1013E00032463B4609F0AEFC0022804B09F0AAFCD5
:1013F00009F058FFC8F81800002034F8023FA54251
:101400001844FAD107EE900AFBEEC97A7A4C17EE2F
:10141000900A09F043FC32463B4609F093FC002257
:10142000724B09F08FFC09F03DFFC8F81C0000204A
:1014300035F8023FAC421844FAD107EE900AFBEEB1
:10144000C97A6E4D17EE900A09F028FC32463B46E9
:1014500009F078FC0022654B09F074FC09F022FFCA
:10146000C8F82000002034F8023FA5421844FAD101
:1014700007EE900AFBEEC97A614C17EE900A09F06C
:101480000DFC32463B4609F05DFC0022574B09F04B
:1014900059FC09F007FFC8F82400002035F8023F86
:1014A000AC421844FAD107EE900AFBEEC97A554DCA
:1014B00017EE900A09F0F2FB32463B4609F042FC77
:1014C00000224A4B09F03EFC09F0ECFEC8F8280067
:1014D000002034F8023FA5421844FAD107EE900AE2
:1014E000FBEEC97A484C17EE900A09F0D7FB32465A
:1014F0003B4609F027FC00223C4B09F023FC09F095
:10150000D1FEC8F82C00002035F8023FAC42184448
:10151000FAD107EE900AFBEEC97A3C4D17EE900A1D
:1015200009F0BCFB32463B4609F00CFC00222F4B75
:1015300009F008FC09F0B6FEC8F83000002034F8C5
:10154000023FA5421844FAD107EE900AFBEEC97A91
:101550002F4C17EE900A09F0A1FB32463B4609F0EA
:10156000F1FB0022214B09F0EDFB09F09BFEC8F8CE
:101570003400002035F8023FAC421844FAD107EE9F
:10158000900AFBEEC97A17EE900A09F087FB324603
:101590003B4609F0D7FB0022144B09F0D3FB09F0BE
:1015A00081FE1C4AC8F83800002034F8023FA242ED
:1015B0001844FAD107EE900AFBEEC97ADFF864907E
:1015C000154CDFF864A017EE900A09F067FB32466D
:1015D0003B4609F0B7FB0022044B27E0A854FF1F4D
:1015E0009839FF1F9015FF1F0000803800408F4082
:1015F0005840FF1F6C40FF1F8840FF1FB040FF1F77
:10160000E640FF1F3241FF1F9C41FF1F2E42FF1F7C
:10161000FA42FF1F2A44FF1F6855FF1F1440FF1F97
:10162000AC54FF1F9839FF1FF074FF1F1B4F1C4E57
:1016300009F088FB09F036FE0025C8F83C00C9F81F
:10164000005001E096ED008A2046B8EEC80A03F08B
:1016500035FD204603F078FD10EE100A09F01EFB60
:10166000E7E80201204603F07FFD10EE100A09F0C2
:1016700015FBD9F8003056F8042B01351344102D12
:1016800004F11404EAE80201C9F80030DAD1BDEC33
:10169000028BBDE8F047FFF781BD00BFA08FFF1FA1
:1016A000AC54FF1FF0B530490B5C022B85B02ED037
:1016B0002E4B53F82020002A0DDD2D4A2D4C1268A8
:1016C0002D490392039A54F8204051F82010121B20
:1016D000323191420BD303280EDD284B1B680A2BB5
:1016E000274BCCBF012200221A7005B0F0BD0022AA
:1016F000032843F82020F0DC204953F820200B6811
:101700009A42ECDD1F4C0A6013462070E7E7184C44
:10171000184D23680093009B55F820609B1BF92B04
:1017200005D8124B012453F820200C54C3E723683A
:101730000193154F019B57F820202468DFF838E00B
:101740000294991B521A094B029C4EF820101D322C
:101750003A2A53F8202047F820109CBF013243F862
:10176000202045F82040A6E7F039FF1F6854FF1FEE
:10177000BCACFF1F3C76FF1F102AFF1F988FFF1F76
:101780003055FF1F042AFF1FF054FF1FFFFFFFFF0C
:101790002DE9F843284B53F820908046484609F03D
:1017A0006BFA264A4FEAC8031A440D462449D2E987
:1017B00000670B440446D3E900011DA3D3E90023CD
:1017C00009F0C0FA32463B4609F00AF902460B46D8
:1017D0002046294609F046FD68B1B9F5967F0ADD35
:1017E000184B13F80820022A1AD052B9022203F823
:1017F0000820BDE8F883DFF84C9019F80830012B79
:1018000001D0BDE8F88332463B462046294609F020
:1018100015FD0028F5D0002309F80830BDE8F8834D
:10182000012203F80820BDE8F88300BFAFF3008071
:101830000000006066660240AC54FF1FA08FFF1FCF
:10184000F074FF1FF039FF1F10B40E4B0E4A53F80F
:1018500020100E4C52F82030245C0529C4BF0233FE
:1018600042F82030022C04BF013342F82030B3F597
:10187000967F04DD0129DCBF023B42F820305DF891
:10188000044B70476854FF1F8475FF1FF039FF1F1A
:101890002DE9F04F91B0FFF7D3FCA04BA04A029383
:1018A00019460023DFF8B892DFF8B8B213609A4601
:1018B000884622E0DBF8000009F0DEF93246CDE987
:1018C00000013B462046294609F088F80022954B46
:1018D00009F038FA02460B46DDE9000109F080F80C
:1018E00009F0E0FCCBF800000AF1010A80F30800DF
:1018F000BAF10E0F4BF8040B31D05046FFF748FFFA
:101900005046FFF7CFFE5046FFF79EFF59F8040FF1
:1019100009F0B2F9F8E8026732463B4604460D4644
:1019200009F0A0FC0028C5D1DBF8000009F0A4F9FB
:101930002246CDE900012B463046394609F04EF8E3
:101940000022784B09F0FEF902460B46DDE9000162
:1019500009F044F809F0A6FCCBF80000C4E7724A8D
:10196000724B1768724A1B68D2F80090714A724D28
:10197000D2F80080714A0B9312680592704A09935D
:101980004FF0000ACDF818A0CDF81CA0CDF820A08B
:10199000CDF828A0CDF80CA05446CDF810A0D2F870
:1019A00000B00095BA46029F5C4B634903EBC80E3A
:1019B00004F109030293009B1A68099B51F8233034
:1019C0009A4203DD01230B9409940A9300995A4B20
:1019D000594D4A6953F82A30486A55F82910029D32
:1019E0009A4204F10503C8BF9A46089BC8BF012369
:1019F0008842C8BFA946D7E90001079D0893C8BF20
:101A00000125DEE90023079509F02CFC059D434ADA
:101A1000069E002802EBC50318BF0126D3E9002368
:101A2000D7E90A0118BFA046069609F01BFC3B4AFD
:101A3000002804F1050602EBCB0308BF2E46D3E9CC
:101A40000023D7E912010596049E18BF01260496CB
:101A500009F008FC009B029D002803F1040304F137
:101A60000104009318BFAB46039B18BF0123042C4D
:101A7000039307F1080797D15746DDF810A0002B14
:101A800047D10A9B13B1294B0B9A1A60089B0BB1E3
:101A9000254B1F60079B13B1254BC3F80090069B95
:101AA00013B1244BC3F80080BAF1000F02D0234BCE
:101AB000059A1A60234B09995A5C022A54D0224A8B
:101AC00052F82120082A4FDC9B78022B4CD01F4F64
:101AD0001F4C3B68DB074FD51E4E1F4D33680F93DD
:101AE00095E806000F9B5B1A9A4253D923681B495D
:101AF0000A2BA8BF0A236FF009000A688342B8BF07
:101B000003461A4482F3080223600A6011B0BDE85C
:101B1000F08F0B4BC3F800B0B3E700BFA08FFF1FDF
:101B2000988FFF1F0000E03F783AFF1F082AFF1F31
:101B30002C3AFF1FC074FF1F8475FF1F183AFF1F48
:101B4000FC3FFF1FF039FF1F6854FF1F383AFF1F8B
:101B50003876FF1FBCACFF1F6C3AFF1F948FFF1F2E
:101B6000A854FF1FD075FF1F134C144F2368053373
:101B700023603B68DB07AFD4384606F079F9104E96
:101B8000104D70B933680F9395E806000F9B5B1AF0
:101B90009342ABD333680E9323680E9A2A60013BBD
:101BA000A5E733680D930D9B2B60C82338466B6007
:101BB00006F064F9E6E700BF3876FF1F383AFF1FEA
:101BC000BCACFF1F6C3AFF1F2DE9F04F87B01F46DA
:101BD000DFF88090039000230191904602934FF02C
:101BE000FF0BDDF808A03B46A9F5807457469A46DE
:101BF00004F120063D4602E00434B44215D0AA4563
:101C00004544F9D121689DF840308DF814300F4BD0
:101C10008DF815B001EB4101194405A804348DF885
:101C200016B003F085F9B442E9D1019BA1451F44E8
:101C3000DED1029B039A13440293054B09F5807988
:101C40004B455746CDD107B0BDE8F08FB865FF1FB3
:101C5000042BFF1F0423FF1F2DE9F04F93B08DEDE0
:101C60000E0B8DED0C1B8DED022B8DED043B8DEDE0
:101C7000064B002383460993099808F0FDFFDDE930
:101C80000E2308F0ABFE0B46024609F05BF8CDE9E7
:101C90000A0100239A46504608F0EEFFDDE90C23C6
:101CA00008F09CFE02460B4609F04CF8DDE90A23D9
:101CB00008F096FE0024CDE900015FFA8AF51DE0E8
:101CC000B946DDE906234946404609F0ADFAE2B2DD
:101CD00011AB0134294678B19BF800609BF80100F4
:101CE0008DF844608DF845009BF802609DF8240053
:101CF0008DF84660FEF73EFE082C24D0204608F002
:101D0000BBFFDDE9022308F069FE02460B4609F03D
:101D100019F8DDE9002308F063FE41EC100B08F030
:101D200027FDDDE9042351EC100B08F057FE0022DB
:101D3000002306460F4609F095FAB0460028BFD1A9
:101D400007F10049BDE70AF1010ABAF1080FA2D173
:101D5000099B0133082B09938ED113B0BDE8F08F96
:101D60002DE9F04F93B08DED0E0B8DED0C1B8DED2D
:101D7000022B8DED043B8DED064B0023834609932A
:101D8000099808F079FFDDE90E2308F027FE0B46DD
:101D9000024608F0D7FFCDE90A0100239A465046D3
:101DA00008F06AFFDDE90C2308F018FE02460B4636
:101DB00008F0C8FFDDE90A2308F012FE0024CDE98F
:101DC00000015FFA8AF51DE0B946DDE906234946C0
:101DD000404609F029FAE2B211AB0134294678B144
:101DE0009BF800609BF801008DF844608DF8450079
:101DF0009BF802609DF824008DF84660FEF7D4FD44
:101E0000082C24D0204608F037FFDDE9022308F033
:101E1000E5FD02460B4608F095FFDDE9002308F0DA
:101E2000DFFD41EC100B08F0A3FCDDE9042351ECCD
:101E3000100B08F0D3FD0022002306460F4609F0E0
:101E400011FAB0460028BFD107F10049BDE70AF1F9
:101E5000010ABAF1080FA2D1099B0133082B09939B
:101E60008ED113B0BDE8F08F2DE9F04F91B08DED1C
:101E70000C0B8DED021B8DED082B8DED043B8DEDD4
:101E8000064B0B904FF0000B584608F0F5FEDDE9CD
:101E90000C2308F0A3FD02460B4608F053FF4FF059
:101EA000000ACDF828B080468946DDF82CB004E061
:101EB0000AF1010ABAF1080F5AD0504608F0DCFEC8
:101EC000DDE9022308F08AFD02460B4608F03AFFDE
:101ED00042464B4608F084FD41EC100B08F048FCEC
:101EE000DDE9042351EC100B08F078FD00220023FB
:101EF00006460F4609F0B6F93446002842D03D4662
:101F0000DDE906232046294609F08EF90028CFD0C6
:101F1000DDE9080109F0C6F90A9B1C4A1C490AEBD5
:101F2000C30300EBC300012352F8206000935FFA63
:101F30008BF20FA8FF2302F09BFF06EB4606154A23
:101F40009DF83C00935D911983FA50F393559DF8E9
:101F50003D304A7882FA53F24A708B789DF83E20E1
:101F600083FA52F30AF1010ABAF1080F8B70A4D177
:101F7000DDF828B00BF1010BBBF1080F84D111B0D3
:101F8000BDE8F08F07F10045BAE700BF0422FF1F4C
:101F90003C3AFF1FB856FF1F674B684A196840F666
:101FA000B8338B42A8BF0B4623EAE37303EB8301EC
:101FB00003EBC1032DE9F047614D82FB0312DB17F0
:101FC000C3EBA2232A68C3F12A0393426FDA5D4967
:101FD000DFF87CA10B78DFF87C91DFF87C810022B0
:101FE000013317460B702A60144659F824305AF80A
:101FF0002330002B4FEA840607DBB3F5167F47F248
:10200000BA7258DCB2EB032F55DB0234082C07F50B
:10201000DC77EAD1DFF844E14B490EF5006CAEF510
:1020200080773C4654F81C3D54F8040F00EB400206
:1020300003EB43038E5CCE540A440B4456785E7027
:1020400092789A70A7420346EED12037BE45E8D178
:102050000EF5807EF445E2D13C4C04F5006704F5B2
:102060008076E26902EB420288188B5C03EB830EF8
:10207000CEEB0E1E03EB4E031B128B54427883787B
:1020800002EB820C03EB830ECCEB0C1CCEEB0E1E92
:1020900002EB4C0203EB4E03203412121B12A64239
:1020A00042708370DDD1BE423446D8D12A680132F5
:1020B0002A60BDE8F087C4B1264488FB0630F617D5
:1020C000C6EB6000023008F0D7FD9FED111B41EC1C
:1020D000130BB0EE410AF0EE610A9FED0F4B9FED3E
:1020E000102BF810FFF7C0FE8FE79FED091B9FED47
:1020F0000E4BB0EE410AF0EE610A9FED0D3B9FEDF5
:10210000082B2046FFF7B0FED6E700BFAFF30080F4
:102110000000000000000C40000000000000E03F54
:102120000000000000001C40000000000000004013
:1021300000000000000000009839FF1FD32A5A5702
:10214000A854FF1FCC75FF1FB856FF1F0422FF1FA6
:10215000AC54FF1F3C15FF1F398EE3382023FF1FAF
:102160002DE9F04F894D2B68DA078DB038D5884BB3
:10217000884C04931B68089394E80600089B5B1A3C
:102180009A423FD8049BDFF838C21B680793079B2D
:102190002360814C0CF500680CF1E007A7F1200EDC
:1021A00071463E4651F8042F56F8043F02EB4202B6
:1021B000A51803EB4303E01814F802A095F801906A
:1021C000AA7804F803A08F4280F801908270E9D1C8
:1021D000F4457746E2D10CF5807CE045DCD112E095
:1021E000284605F045FE6A4B04936A4C002840F0EF
:1021F000B780049B1B68089394E80600089B5B1A51
:102200009342BFD2644C654B6548664F664E05935A
:10221000194650F8043F51F8042F57F82330B3F50E
:10222000167FA8BF4FF4167323EAE37303EBC303CF
:1022300086FB03E5DB17C3EB25239A42B8BF0B608F
:102240005A4B8B42E5D1A3F11C0B0022584B019352
:102250009246584B019E039283FB0A39D1444FEAC0
:10226000EA73C3EBA9094FEA820893015FFA89F97F
:10227000029343460025C846FF27994656F8043B7B
:102280005BF8091003EB4303A942E05CC0EBC0001C
:1022900000EB40104FEA2020E05423445FFA85FC15
:1022A00093F801E09878CEEBCE0EC0EBC0000EEBB9
:1022B0004E1E00EB40104FEA2E2E4FEA202083F8EE
:1022C00001E0987014DDBCF1070F8DF82C808DF8BB
:1022D0002D708DF82E700BD8029B354A2B440BA81D
:1022E00052F823102C4B01EB4101194402F020FE5F
:1022F0000135082DC2D1019B039A0AF1DC0A03F5CE
:102300008073BAF5DC6F02F101020193A1D12A4D6D
:102310002B68DB071CD5049B284C1B680B9394E8A7
:1023200006000B9B5B1A93420FD3049B059A1B6814
:102330000A930A9B236052F8043F012BC4BF03F1A8
:10234000FF331360194B9342F5D10DB0BDE8F08F08
:10235000284605F08DFD68B9184C049B1B68DDE725
:102360001B680693069B236078232846636005F06C
:1023700085FD3EE7049B114C1B680993099B236074
:1023800032232846636005F079FDE6E7A8A6FF1F23
:10239000BCACFF1F5855FF1FB856FF1F6815FF1F25
:1023A0003815FF1FAC54FF1F37800B6D8815FF1FBA
:1023B0000422FF1F93244992B456FF1F6055FF1F4C
:1023C0000022FF1F2DE9F04FDFF8888189B04146D8
:1023D00008F1010008F5706410F8013CC3EBC30379
:1023E00003EB43131B1200F8013C4A788B78C2EBD5
:1023F000C202C3EBC30302EB421203EB43131212FC
:102400001B124A708B7003318C4200F10300E3D140
:10241000474B4848484E494D0393194650F8043FEE
:1024200051F8042F56F823304B3BB3F5167FA8BF65
:102430004FF4167323EAE373DB0085FB0374DB17A9
:10244000C3EB242301339A42B8BF0B603C4B8B4251
:10245000E4D100233B4FDFF80091019302934FF04A
:10246000FF0B019B3868C3F3C70A029BDB00002502
:10247000009300281DDD009B5E19F600002401E09A
:10248000A04216DDE3B2072B04F101048DF81CA075
:102490008DF81DB08DF81EB0F2D8334407A859F856
:1024A000231001EB4101414402F042FD3868A04293
:1024B000E8DC0135082DDCD1019B029ADC330132C6
:1024C000B3F5DC6F0193029207F10407C9D11E4EE8
:1024D0003368DB071BD51D4D1D4C2B68079394E813
:1024E0000600079B5B1A93420ED32B680693069B4C
:1024F000039A236052F8043F012BC4BF03F1FF335A
:1025000013600F4B9342F5D109B0BDE8F08F304610
:1025100005F0AEFC0D4D0E4C0028DED02B68059367
:10252000059B236032233046636005F0A7FCD4E7A7
:102530003055FF1F3815FF1FAC54FF1F37800B6D40
:102540005055FF1F3455FF1FDC39FF1FBCACFF1F68
:102550007C76FF1FB856FF1F0422FF1F0138F0B41E
:10256000112824D8DFE810F012003B004700560085
:1025700062006900750084009000A500AD00BC00F9
:10258000C700D900E200EA00F1002500734B744A4D
:102590001B68744D744C7549136001200022072B91
:1025A0002A602260086015DD714B00221A70F0BCB1
:1025B00070476A4B6A4E1B686A4D6B4C6B49C3F19E
:1025C0000E0701224FF0FF30152B37602A60226082
:1025D0000860E9DC664B01221A70F0BC70475F4B63
:1025E0005F4E1B685F4D604C6049C3F108070022D5
:1025F00001203760D3E7594B594A1B68594C5A4858
:102600005A49136001250022072B256002600A60E9
:10261000CADCDFE7514B524E1B68524C52485349BB
:10262000C3F10807012500223760EDE74B4B4C4A08
:102630001B684C4D4D4C4C49AEE7484B484E1B680F
:10264000484D4A4C4849C3F1080700220120376031
:10265000A5E7424B424A1B68424D434C4349136035
:10266000002001220E2B2A60226008609CDCB1E76A
:102670003A4B3B4E1B683B4D3B4C3C49C3F10F076B
:10268000012200203760EDE7344B35491B68354D9A
:102690003548364AC3F107074FF0FF3601240F6073
:1026A0000E2B4FF000012E60046011603FF77CAFED
:1026B00090E72A4B2A491B682A4D2B482B4ADF1FDB
:1026C000EAE7264A264B1268264C274827491A6013
:1026D0000123152A236003600B603FF765AF79E79C
:1026E0001E4B1F4D1A681F4C1F482049C2F115068A
:1026F00001232E60EDE7194B194E1B68194C1A483F
:102700001A49DF1F01224FF0FF35152B3760256076
:1027100002600A603FF748AF5CE7104B104E1B6841
:10272000104C11481149C3F10E07EBE70B4B0C4E4F
:102730001B680C4D0D4C0C49DF1F42E7074B084E40
:102740001B68084D094C084939E7044B044E1B68C7
:10275000044D054C0549DF1F33E700BFE874FF1F38
:10276000C474FF1F1C3AFF1F5455FF1FEC54FF1F7A
:10277000BC74FF1F3A493B4A0B78106883F0010391
:10278000421E0B70092A5AD8DFE802F01B21282FBD
:10279000363D444B5205344934480B8803EB432201
:1027A00003EB820303F5585319339BB203EB132257
:1027B000D2B202EBC202D2110132D2B20B8002605D
:1027C0007047002B294B08BF022018607047002B70
:1027D000264B14BF032204221A607047002B234BA0
:1027E00014BF052206221A607047002B1F4B14BF2E
:1027F000072208221A607047002B1C4B14BF0922C5
:102800000A221A607047002B184B14BF0B220C22AF
:102810001A607047002B154B14BF0D220E221A6050
:102820007047002B114B14BF0F2210221A60704703
:10283000002B0E4B14BF112212221A6070470A4956
:102840000A480B8803EB432203EB820303F558533A
:1028500019339BB203EB1322D2B202EB8202AAE736
:10286000743AFF1F0022FF1FC215FF1FA815FF1F8C
:102870002DE9F041664B674A1B68674FD35C674E92
:10288000022B84B07CD0664B1868FFF767FE337864
:1028900064498DF80C3003A8FF238DF80D308DF8B6
:1028A0000E3002F045FB34785F4B604A6049614866
:1028B0001B681268096800680134E4B2009434703F
:1028C000FFF782F94EA3D3E90023D7E9000108F00E
:1028D00087F80022002304460D4608F0A5FC0028D6
:1028E00040F08B800022544B2046294608F0BAFC69
:1028F00000283CD15149C7E90045481C01F57067E3
:1029000010F8013CC3EBC30303EB43131B1200F8A5
:10291000013C4A788B78C2EBC202C3EBC30302EBE3
:10292000421203EB431312121B124A708B700331D5
:102930008F4200F10300E3D1DFF81481D8F8007072
:10294000384608F099F902460B462046294608F019
:102950006BFC78B13A4933780A68033301320127B6
:102960000A603370C8F8007004B0BDE8F08100243C
:10297000314DBFE70137C8F8007004B0BDE8F08101
:10298000D7E9004520A3D3E900232046294608F0D3
:10299000D9F9024620462B4C0B46294608F01EF872
:1029A0002388294DDFF898E02A7803EB432C03EBCA
:1029B0008C0303F5585319339BB2C7E9000103EBAD
:1029C000132182F001023170002123802A70CEF899
:1029D00000107AB103EB432203EB820303F5585353
:1029E00019339BB203EB1322C2F3811217492380E0
:1029F000931D0B60FFF7BEFE45E70024002579E735
:102A0000000000E051B8BE3F000000403333EB3F10
:102A1000082AFF1FF039FF1F6015FF1FCC75FF1F2D
:102A2000A815FF1FA4A6FF1FC474FF1FEC54FF1FAF
:102A30005455FF1F1C3AFF1F00005440B865FF1F8C
:102A4000E874FF1FC215FF1FF93FFF1F0022FF1F81
:102A5000908FFF1FF0B5564E3368DB0787B040F10B
:102A60009380544C544D2368059395E80600059BCC
:102A70005B1A934255D2514C514B1868FFF76EFDCB
:102A8000237850498DF8083002A8FF238DF80930CB
:102A90008DF80A3002F04CFA25784B4B4B4A4C49E2
:102AA0004C48096800681B6812680135EDB2009552
:102AB0002570FFF789F84849481C01F5706610F841
:102AC000013CC3EB8312C3EB82031B1200F8013CF1
:102AD0004A788B78C2EB8217C3EB8315C2EB87026F
:102AE000C3EB850312121B124A708B7003318E42A6
:102AF00000F10300E3D1394E3568284608F0BCF8F0
:102B00000022374B08F0AEFB002839D03549237836
:102B10000A680333013201250A602370356007B06B
:102B2000F0BD314924680B88049403EB432403EB84
:102B3000840303F558532D48204C0278294E19334D
:102B40009BB203EB13272770049F2F6082F00102D2
:102B500000250B80027035607AB103EB432203EB52
:102B6000820303F5585319339BB203EB1322C2F3CC
:102B700081121F480B80931D0360FFF7FBFD7BE76D
:102B80000135356007B0F0BD304605F071F9094CEC
:102B9000094D00283FF467AF23680393039B2B6024
:102BA0004FF47A7330466B6005F068F95BE700BF5D
:102BB000DC74FF1FBCACFF1F8476FF1FCC75FF1FAA
:102BC000A815FF1FA4A6FF1FC474FF1FEC54FF1F0E
:102BD0005455FF1F1C3AFF1FB865FF1FE439FF1F44
:102BE00000001440E874FF1FC215FF1F8C76FF1F02
:102BF0000022FF1FF0B5254F254D83B00324FF268B
:102C00003B888DF8056003EB432203EB820303F559
:102C1000585319339BB259025A1803EB820303F538
:102C200058531933090C9BB201EB410103EB1322FA
:102C3000294401A88DF806603B808DF8042002F03D
:102C400077F9013CDCD11249481C01F5706610F897
:102C5000013CC3EB031203EB02131B1200F8013C0F
:102C60004A788B78C2EB0215C3EB031402EB051212
:102C700003EB041312121B124A708B7003318E4245
:102C800000F10300E3D103B0F0BD00BFC215FF1F88
:102C9000942AFF1FFFFFFFFF30B5474B85B01B682D
:102CA000039303984FF4AF1303FB00F0000EC3B27D
:102CB000590671D5DB43D9B201F00F035A1C01F05C
:102CC0003F010B113D495B00CC18CB5C61783C4C5B
:102CD00011FB02F203EB2213DBB2020648BF5B4298
:102CE0005BB2803BDBB203EB830203EBC200C0F3B9
:102CF000072007F0B1FF0022324B08F04DF9002207
:102D0000314BC4E90001CDE9000108F01BF808F0DF
:102D1000F1FA9FED252BFF238DF808009DED003B78
:102D2000B0EE421AF0EE621AB0EE420AF0EE620A1B
:102D300002A89FED1F4B8DF809308DF80A30FEF781
:102D40008BFF2249481C01F5706510F8013CC3EB6C
:102D5000C30303EB43131B1200F8013C4A788B7842
:102D6000C2EBC202C3EBC30302EB421203EB4313F9
:102D700012121B124A708B7003318D4200F1030056
:102D8000E3D1022194ED000B114804F0DDFC104862
:102D900004F080FC05B030BD03F03F0103F00F02EA
:102DA0008FE700BFAFF30080000000000000084084
:102DB000000000000000E03FBCACFF1FC4C00000EA
:102DC0007875FF1F0000244000004E40942AFF1F2A
:102DD0005817FF1F70B5374C374D384E384808210B
:102DE00006F03CFB2978204604F0A4FC3046012183
:102DF00006F034FB0A21334806F030FB95ED080B52
:102E00002046022104F0A0FC3046012106F026FBFA
:102E100095ED0A0B2046022104F096FC3046012174
:102E200006F01CFB95ED0C0B2046022104F08CFCF7
:102E30003046012106F012FB0B21234806F00EFB61
:102E400095ED020B2046022104F07EFC3046012164
:102E500006F004FB95ED040B2046022104F074FCFF
:102E60003046012106F0FAFA95ED060B20460221C4
:102E700004F06AFC3046012106F0F0FA05211348FF
:102E800006F0ECFA00230A2295F83C10204604F0E4
:102E900011FC3046012106F0E1FA0C210C4806F045
:102EA000DDFAA96B204604F045FC2046BDE87040E1
:102EB00004F0F0BB5817FF1F9076FF1FF8BF00000B
:102EC00004C0000010C000001CC0000028C00000AA
:102ED00030C0000084B0F0B583B0DDE9104508AE25
:102EE00086E80F00204629460022002308F0B0F9AA
:102EF000002871D0294600223C4B204607F070FD87
:102F000008F0D0F90546DDE91267002200233046BB
:102F1000394608F09DF9002854D00022334B304642
:102F2000394607F05DFD08F0BDF90446DDE9146798
:102F3000002200233046394608F08AF9002838D0AC
:102F400000222A4B3046394607F04AFD08F0AAF91C
:102F500004EBC50400EBC404254A9DF8583052F830
:102F600024408DF802309DF85C208DF80020FF236E
:102F700001A968468DF8013001F0DAFF04EB440343
:102F80001C489DF80440C25CC11882FA54F2C25435
:102F90009DF805304A7882FA53F24A708B789DF892
:102FA000062083FA52F38B7003B0BDE8F04004B002
:102FB000704700220D4B3046394607F00FFD08F0F0
:102FC00071F9C5E70022094B3046394607F006FD86
:102FD00008F068F90446A9E729460022034B204679
:102FE00007F0FCFC08F05EF905468CE70000E03FC6
:102FF0000422FF1FB856FF1F2DE9F04F2DED068B61
:1030000095B09B4B0D939FED969B9FED97AB002347
:10301000984FDFF88882DFF88892974C9FED978A67
:103020004FF0030B9A460D9AD8F86C5352F8043BB4
:103030000D92934A934952F82330934AB3F5167F81
:10304000A8BF4FF4167323EAE3731B0282FB03202D
:10305000DB17C3EB20200126CAF3870EC0B200960F
:103060000346724689F8000087F800E013A801F0D3
:10307000FFFE05EB450160189DF84CE004F801E007
:10308000D8F88C539DF84D109DF84EE099F800301B
:103090003A780096417080F802E07A4913A801F06E
:1030A000E7FE05EB450160189DF84CE004F801E0EF
:1030B000D8F86C549DF84D109DF84EE099F800300A
:1030C0003A780096417080F802E06E4913A801F04A
:1030D000CFFE05EB450199F800303A78D8F88C54CA
:1030E0009DF84CE00096661804F801E09DF84D004C
:1030F0009DF84EE07070634986F802E013A801F075
:10310000B7FE99F800200F9205EB450563191646A6
:103110009DF84C009DF84D109DF84E206055642E92
:1031200059709A7040F28A80584B58491B88584E03
:1031300003EB432203EB820303F5585319339BB28D
:1031400003EB13220B80D3B20E93002301E0642B18
:1031500074D09D014E49725D0133002AF7D14B199D
:10316000012283ED089B83ED0A9B58464A55109334
:1031700007F082FD0E9B03F1400E5FFA8EFE109B5E
:103180001EF0400FC3E90C0100F067816FEA0E02E8
:10319000D2B202F00F01013102F03F023D4B119318
:1031A0001211520098189A5C407810FB01F102EB62
:1031B00021121EF0800FD2B218BF524252B207EE57
:1031C000902AF8EEE77A721987EE887A109217EE55
:1031D000100A07F063FD109A119BC2E902010E9AD2
:1031E00012F0400F00F03381D243D2B202F00F014F
:1031F000013102F03F021211520098189B5C427894
:1032000012FB01F10E9A03EB21131206DBB248BF49
:103210005B425BB207EE903AF8EEE77A354487EE10
:10322000887A17EE100A07F039FD85ED06ABC5E97F
:1032300004013B780F9AAA6385F83C300BF1FF3B01
:10324000BBF1FF3F0AF1FF0A07F10107A8F10408EB
:103250007FF4E9AE104D0026A5F1280AB14628E01A
:103260000000000000000C40000000000000000012
:10327000B015FF1FE074FF1FB856FF1F00007A440F
:10328000AC54FF1F3C3AFF1F37800B6DC215FF1F68
:103290009076FF1FC4C00000B876FF1F0422FF1FF6
:1032A0007075FF1F05F8289C0136642E05F1400556
:1032B0003FD015F8283C002BF6D015ED020B07F097
:1032C000C7F951EC100B07F0EDFF071EEADB95ED97
:1032D000000B07F0BDF951EC100B07F0E3FFB0F164
:1032E0000008DFDB95ED020B07F0B2F9062FD9DC01
:1032F000B8F1060F51EC100BD4DC07F0D3FF062811
:10330000D0D80AEB861C0CF1100EBEE80F006F46F9
:103310000FC7BEE80F000FC79EE80F0087E80F0039
:1033200001369CE80F00FFF7D5FD642E05F140053E
:10333000BFD14C4B4C4A1B684C4DB3F57A7FA8BFAC
:103340004FF47A7323EAE37303EB830103EB410346
:1033500082FB0312DB17C3EB22232A68C3F10A03A3
:1033600093421CDA424F002307F5C8582B6017F828
:10337000203C8BB107F118093E4656E90623D6E9F1
:10338000000107F02DFBE6E802014E45F5D13B7E3A
:10339000053B23EAE373BB614037B845E7D1DFF86B
:1033A000D8E00EF5006CAEF5807606F11C0006F153
:1033B0001007314651F8042B50F8043902EB420251
:1033C00003EB430314F8028004F8038022442344EF
:1033D00092F8018083F8018092789A708F42E9D147
:1033E0002036B645E1D10EF5807EF445DBD1FFF7FE
:1033F000F1FC2B681F4C01332B6004F57066651CD3
:1034000015F8013C03EB430203EB820303EB0313C8
:103410001B1205F8013C6278A37802EB420003EB33
:10342000430102EB800203EB810302EB021203EB88
:10343000031312121B126270A3700334A64205F12B
:103440000305DDD115B0BDEC068BBDE8F08F0E99FC
:1034500001F03F0201F00F01CDE60EF03F020EF049
:103460000F019BE69839FF1F9F747841AC56FF1FF0
:10347000B076FF1FB856FF1F0423FF1FFFFFFFFF9B
:103480002DE9F047DFF868A185010AEB050488B053
:1034900094F83D308BB9A06807F0EEFBD4E90667DD
:1034A0008046894602460B463046394607F0BCFE48
:1034B00000285BD108B0BDE8F087636B226B9342B4
:1034C00004DA0133636308B0BDE8F087002646A341
:1034D000D3E90023D4E90A01666307F081FA0646BE
:1034E0000F465AF80500C4E90A6707F0C5FBCDE9A5
:1034F0000401606807F0C0FBCDE90201A06807F095
:10350000BBFBCDE90001206A257B07F0B5FB00225B
:1035100080468946304B3046394607F013FC024658
:103520000B464046494607F05BFA07F0E3FEFF23EF
:103530008DF81C0047EC136B9DED002B9DED021BDD
:103540009DED040B07A89FED224B8DF81D308DF8E3
:103550001E50FEF705FCE368012BABDDA26B9B1A46
:1035600083F30803E36008B0BDE8F08732463B46CA
:103570004046494607F032FA0022184B07F00CFD8E
:1035800032463B4607F02CFA63685AF80550144F50
:10359000144EC4E9060103EBC50507F083FE00EBFA
:1035A000C500226A57F820108DF81C2001EB41015C
:1035B0003222FF23314407A88DF81D208DF81E30DC
:1035C00001F0B6FC08B0BDE8F08700BFAFF30080A3
:1035D000000000000000F03F0000244000005940BF
:1035E0000422FF1FB865FF1F000000A09999C93F82
:1035F000F83AFF1F2DE9F04FAA4BAB4A1B68D35C8A
:10360000022B85B000F0BF800025A84C2E4606E0B6
:1036100084F83C600135142D04F1400413D094F873
:103620003C10A34B00220029F4D0D4E90A0107F092
:1036300019FE0028ECD128460135FFF721FF142D93
:1036400004F14004EBD19B4B00939B4DDFF874A237
:1036500000230193009B994A1B6AB3F5617FA8BFC1
:103660004FF4617323EAE37303EB43035B0082FBD4
:10367000032C9C44DB17C3EB6C232B60002B56D030
:10368000019ADFF84892DFF84882D410A0341A4635
:10369000E4B24FF0000BFF276426B9F800308DF834
:1036A0000C4003EB432103EB810101F55851193123
:1036B00089B201EB412301EB830303F5585319331E
:1036C0009BB203EB432E03EB8E0E0EF5585E0EF10C
:1036D000190E1FFA8EFE01EB112103EB13230EEBE3
:1036E0001E20C1F34211C3F3421303EBC103C0F325
:1036F000C01101EBC30306FB02F258F82310704B14
:103700008DF80D7083FB0203D217C2EB630201EB4D
:1037100041016432514403A88DF80E20A9F800E05D
:1037200001F006FC2A680BF1010B5A45B5DC019B40
:10373000009A8C330832B3F50C7F0193009289D143
:10374000604C651C04F5706615F8013CC3EB8312F0
:10375000C3EB82031B1205F8013C6278A378C2EB2D
:103760008210C3EB8311C2EB8002C3EB8103121200
:103770001B126270A3700334A64205F10305E3D166
:1037800005B0BDE8F08FDFF84CA1DFF84C91474E53
:1037900015274FF00008CAF80070C9F800703446C9
:1037A00045460FE094F83D10474B002229B9D4E973
:1037B000060107F04DFD002863D10135142D04F1F9
:1037C00040040BD094F83C30002BEBD12F46013550
:1037D000142D4FF0010804F14004F3D1B8F1000FAB
:1037E0005DD13A49D9F800000B8803EB432203EB83
:1037F000820303F5585319339BB203EB432203EBC7
:10380000820202F55852193292B202EB422402EBC4
:10381000840404F5585403EB132302EB12228001B5
:103820001934DBB2C2F38112A4B2023203EB830378
:10383000325003EB8303064404EB14229B11C2F3C2
:1038400081124FF000084FF000094FF0C80E02320D
:10385000062709253362052001230C800021C6E9D3
:103860000689C6E90A89C6F80CE07260B76075611E
:10387000B06386F83C3033637363316186F83D1082
:10388000C2E6B8F1000F07D106EB85160123CAF88E
:10389000005086F83D30B7E6C9F80070F4E7C9F883
:1038A00000709EE7082AFF1FF039FF1FF83AFF1F3C
:1038B00000002440AC54FF1F8075FF1FAF52799168
:1038C00067666666B865FF1F00000840C215FF1FE7
:1038D0000422FF1F0C2AFF1F343AFF1F70B5624CF1
:1038E0002378612B23D0622B49D0662B58D0692BCB
:1038F00000F09F806D2B5AD06F2B00F09E80732BB1
:103900002DD0742B6FD0782B69D0792B7BD07A2B6C
:1039100040F09F80554B60781870A178E27859701C
:1039200018469A7007F05CFD514B187070BD4F4BF4
:103930006078A178E2781870184659709A7007F08C
:103940004FFD4C4A4C4B014611604C4803221A6013
:1039500003F0F0FE494803F09DFE2378CCE7434B8B
:103960006178454AA5781970E4785D70184604219D
:103970009C70116007F034FD414B187070BD3B4BDB
:103980003D4A61781970A678E5785E701846042182
:103990009D70116007F024FD3A4A23781070ABE760
:1039A000354B394A1968116000221A6070BD2F4BDF
:1039B0006078A178E2781870184659709A7007F00C
:1039C0000FFD324B2C4A1860022319462B48136016
:1039D00003F0B0FE294803F05DFE23788CE7264B08
:1039E00001221A6070BD214B6178234AA5781970B5
:1039F000E4785D70184604219C70116007F0F0FCBB
:103A0000234B187070BD194B6078E278A17818705C
:103A100018469A70597007F0E3FC1E4B1E4C186054
:103A200007F02AF900221D4B07F0B6FAC4E900019D
:103A300070BD1B4B00221A7070BD134C0F482168DB
:103A400003F078FE0D4803F025FE0B4B22681A6048
:103A500070BD702B06D1054B6078A178E2781870A4
:103A600059709A7070BD00BF0840FF1F303AFF1FA9
:103A70006815FF1FA015FF1F3415FF1F5817FF1FE4
:103A8000333AFF1F6915FF1F7C3AFF1F9815FF1F70
:103A9000A415FF1F9439FF1F9015FF1F0000594008
:103AA0008C15FF1F38B5084C251D14F8010B05F0C7
:103AB00059FDAC42F9D1054803F0ECFDFFF70EFFCC
:103AC000034B00221A7038BD0840FF1F5817FF1F14
:103AD000A856FF1FF8B5124E124D134F04F070FC9C
:103AE00000B9F8BD3478002CFBD104F079FC2B78B8
:103AF000C0B23BB13E280D4B09D01A78511CB854C6
:103B00001970EBE73C28E9D101232B70E6E7074B5E
:103B10002C7019781C7001227C543270DEE700BFD3
:103B2000A856FF1F3476FF1F0840FF1FF83FFF1FF6
:103B30002DE9F043DFF86C90DFF86CC0D9F8008015
:103B40004FF0000E08F14807A7F14000ACF1E00685
:103B500065462EF00604A0F1080332462946012CE2
:103B60000CBF0B60136001338342A1F10401A2F189
:103B70000402F4D103F108008742A5F1200506F103
:103B80002006E8D10EF1010EBEF1080F03F148073F
:103B90000CF5807CD8D108F50073C9F80030BDE879
:103BA000F08300BFE839FF1F0023FF1F2DE9F04F0E
:103BB0000F2197B0814805F051FC814803F06AFD60
:103BC000804801F0FDFA804801F0FAFA7F4801F0E0
:103BD000F7FA4FF4FA6003F0A5FF11217C4805F0D5
:103BE0003DFC774803F056FD40F6354004F060FB9D
:103BF000642004F055FA1B21764805F02FFC70482C
:103C000003F048FDFFF794FF0B21734805F026FCF5
:103C10006B4803F03FFDFDF72BFA15216F4805F0C7
:103C20001DFC674803F036FD6D48036813F001047E
:103C300000F0A0806B496C48DFF8B4914FF48072BB
:103C400000230C4600F02EFF684B1B7889F80030EB
:103C5000642004F025FA4846012101F04BF8C82001
:103C600004F01EFA04F570680027FF26642521463B
:103C70000AA803348DF828708DF829608DF82A5031
:103C800001F056F94445F2D199F80010584800F077
:103C90006FFF41F2883004F003FA0121544801F02B
:103CA00029F80B21534805F0D9FB454803F0F2FCF5
:103CB0005149002751F827304F4ADBB20137FF2B1B
:103CC000BFB2F7D113680797C3F30749C3F3072BB4
:103CD0004FEA13684FF0FF33924606930024CE4616
:103CE0005AF8045FC5F30727C5F30746F9B24FEA50
:103CF000241C0491F1B205915FFA8CF103910799AC
:103D0000ECB20F29C5F3076508AA0AA84FEA1413F5
:103D10005FFA85F90CD806998C4507DC0F2905D088
:103D20000131C9B28B42039138BF0B4659B206919B
:103D300009A9009103998DF820B08DF821E08DF844
:103D400022808DF824708DF825608DF8265000F0C3
:103D5000F3FFFF2CDDF810B0DDF814E0C846BFD14A
:103D60000F21264805F07AFB154803F093FC17B0A5
:103D7000BDE8F08F04F07CF800283FF45BAF2049E9
:103D8000194B08685C60FF2201255C619C609D7492
:103D90001A735A739A73DA731A745A7460B1194A9F
:103DA000116801B18B60184913600D481960002239
:103DB0009A6104F063F83DE70B60F0E740C0000053
:103DC0005817FF1F1076FF1F1C76FF1F2876FF1F56
:103DD00050C0000064C0000080C000008CC0000023
:103DE000D821FF1F942AFF1FDC21FF1F6815FF1F2A
:103DF000DCA6FF1FA4C00000C8BF0000B0C00000C8
:103E0000ECA6FF1FFCA6FF1FACBF00002DE9F04F82
:103E10000026DFF8E0A0354FDFF8D48083B03546C8
:103E2000FF24AAF5807B0BF12009032EDBF800109C
:103E30008DF8045011DD01F5007101EB41013944A9
:103E400001A88DF805408DF8064001F071F8DBF807
:103E500000108DF8045001F5407101EB4101394427
:103E600001A88DF805408DF8064001F061F898F83A
:103E700000101F4800F07CFE3C2004F011F91B4AA2
:103E8000511C02F5706011F8013C03EB431E03EB7B
:103E90004E03C3EB83031B1201F8013C92F801E0CF
:103EA00093780EEB4E1C0EEB4C0E03EB431C03EB16
:103EB0004C03CEEB8E0EC3EB83034FEA2E2E1B1268
:103EC00082F801E093700332904201F10301DAD1EC
:103ED0000BF1040BCB45A8D1DA45A4D10136082E4D
:103EE0000AF5807A9DD103B0BDE8F08F942AFF1FB8
:103EF000DCA6FF1F0423FF1F2DE9F047DFF8B48085
:103F0000DFF8B490D8F80030FF2B3AD013B9D9F8C5
:103F1000002092BB204B214D1B78214A214C52F8A6
:103F20002330214E98472A78204B53F82230984767
:103F300098F800A004F57067254631462846524699
:103F4000033500F067FFBD4206F10306F5D1D8F84E
:103F50000030174DC3F1FF03DEB22946204632463A
:103F6000033400F057FFBC4205F10305F5D1D8F842
:103F70000030C9F80030BDE8F087074A074D1370DC
:103F8000CBE7D9F80030054DFF2B01D000232B7073
:103F9000014B1B78C1E700BF8C2AFF1FC475FF1FB0
:103FA000AC15FF1F942AFF1FB865FF1F9C15FF1F4C
:103FB000B856FF1F948FFF1FB056FF1F2DE9F04129
:103FC0000D4CDFF840800D4F0D4E82B004F570654A
:103FD00098F800103A7833788DF8051001A821463A
:103FE00003348DF806208DF8043000F0A1FFAC42B8
:103FF000EED102B0BDE8F081942AFF1F6915FF1FC2
:10400000333AFF1FA415FF1F124B1B68013B042B03
:104010001ED8DFE803F00507091B0300FFF7F6BE13
:10402000FCF75EBCFEF7E6BD70B5FEF713FD0A4C6B
:104030000A4D04F5706629462046FF22033400F03D
:10404000E9FEB44205F10305F5D170BDFEF724BECB
:10405000704700BFA015FF1F942AFF1FB865FF1F00
:104060004E4B1B68013B70B5092B06D8DFE803F007
:104070000A1B5F3D812C704E920670BDBDE87040FA
:10408000FFF7C4BE464C474DFDF786FF04F570664A
:1040900029462046FF22033400F0BCFEA64205F16B
:1040A0000305F5D170BD3E4C3E4DFCF7F5FA04F525
:1040B000706629462046FF22033400F0ABFEA6427C
:1040C00005F10305F5D170BD354C374DFFF792FA78
:1040D00004F5706629462046FF22033400F09AFE5C
:1040E000B44205F10305F5D170BD2D4C2D4DFEF701
:1040F00069F904F5706629462046FF22033400F072
:1041000089FEB44205F10305F5D170BD244C254D5F
:10411000FEF772FF04F5706629462046FF2203343D
:1041200000F078FEB44205F10305F5D170BD1C4CDA
:104130001C4DFCF7A3F904F5706629462046FF22C2
:10414000033400F067FEB44205F10305F5D170BDFC
:10415000134C154DFEF78CFB04F57066294620467E
:10416000FF22033400F056FEB44205F10305F5D1F9
:1041700070BD0B4C0B4DFDF7F3FF04F5706629463F
:104180002046FF22033400F045FEB44205F103054A
:10419000F5D170BDBDE87040FCF7A2BB9815FF1FBC
:1041A000942AFF1FB856FF1FB865FF1F70B51A4B42
:1041B0001B6882B0042B06D8DFE803F0072125290D
:1041C0000300FFF7FBFE02B070BD144C002504F5A0
:1041D0007066214601A803348DF804508DF805500F
:1041E0008DF8065000F0A4FEB442F2D103210C4831
:1041F00005F034F90B4803F04DFA02B070BDFFF73B
:104200007BFE02B070BDFFF72BFF02B070BDFFF761
:10421000FBFE02B070BD00BF3415FF1F942AFF1FC4
:10422000C0C000005817FF1FF8B5FFF753FC3D4B07
:104230001B78002B44D13C4C2378002B46D13B4DBE
:104240003B4E33782B703B4800F0E2FF18B13A4AFE
:10425000136801331360394800F0DAFF18B1384AA7
:10426000136801331360374800F0D2FF18B1237888
:1042700083F001032370FDF70BFBFFF797FF324B31
:1042800003F5407493F8000393F8011393F80223A5
:1042900083F8000983F8000C83F8011983F8011CE6
:1042A00083F8022983F8022C0333A342EAD10520C4
:1042B00003F0F6FE29781D48BDE8F84000F058BC30
:1042C000194CFFF7EFFB2378002BB8D0162003F032
:1042D00067FCC0F57F700330652303FB00F3002B00
:1042E000B8BF03F2FF33124E104D184FC3F38723AC
:1042F0000F2033702B7003F053FC40F2E93303FBC3
:1043000000F00028B8BF00F2FF30801206F0B4FCC5
:104310000F4B002206F040FE2378C7E90001002B76
:1043200091D18EE7A856FF1F8C15FF1FDCA6FF1F3B
:104330006815FF1F1076FF1F3415FF1F1C76FF1F27
:104340009815FF1F2876FF1F942AFF1F9015FF1F47
:10435000000059402DE9F043032185B08F48904F6C
:10436000904CDFF8A08200F01FFF04218E4800F07F
:104370001BFF0C218D4800F017FF3A68C4F800803D
:104380000023637223612372E3600AB9FFE01A46D7
:104390005369002BFBD154610026854D854B814824
:1043A0006661A680E680A672236001F019FA0420F7
:1043B00005F12802334631462E72EE60C5F80080C2
:1043C00068722A612E4600E0326942F823106A7A48
:1043D000774801339A42F7DC3A68714B0AB9D8E062
:1043E0001A465369002BFBD15561734EDFF818C292
:1043F000C6F8008000214FF480304FF0010E06F522
:10440000A25286F809E00B4632616961A980E98011
:10441000A9723172F160B646C5F800C0A861E861C2
:104420002862686201E0DEF8102042F82310727AF8
:10443000614801339A42F6DC3A68594B0AB9AAE05E
:104440001A465369002BFBD1566141F23C4241F2BE
:104450003D430027DFF8B48158495948B754F75411
:104460003A4601233160C6F818044FF48061776141
:10447000B780F780B7725348DFF8949106F00CF8D4
:10448000404688E8300088F8087088F80970C8F855
:104490000C7088F8107002F031FE4B4A4B494046D0
:1044A00006F098FFDFF86C81C9F80C7001234846CC
:1044B00089F8083089F8093089E8300089F81070E7
:1044C00002F01CFE404A4149414C484606F082FF3A
:1044D000404688E8600088F8087088F80970C8F8D5
:1044E0000C7088F8107002F009FE374A37494046D0
:1044F00006F070FF374B384A1A6038480A221A72A1
:1045000000F0CCFD04F5A0752046143400F0C6FD83
:10451000AC42F9D1324B334C03F140012268039293
:10452000039A43F8042B8B422E4AF7D11368019368
:10453000019E136802932C4D2C4B029A2C492D4856
:104540001A602E60FCF736FD2B4B002203F5B450A9
:1045500003F5347103F8042C03F8032C2433994237
:10456000F8D188420B46F3D1244B002203F5A06119
:1045700003F8042C03F8032C40338B42F8D1236852
:104580000093009A1E4B1A6005B0BDE8F0833C60B2
:1045900002E7186029E7186057E700BF1076FF1F91
:1045A0000CACFF1F003AFF1F1C76FF1F2876FF1F71
:1045B000C03AFF1FFCC800001440FF1FD4C0000019
:1045C000F4C000005854FF1F3015FF1F6909000098
:1045D0006855FF1F203AFF1FE0C00000C874FF1F8E
:1045E0003C76FF1FBCACFF1F902AFF1FB874FF1F53
:1045F000C8BF00003C3AFF1F4490FF1F383BFF1F1D
:10460000E039FF1FA0BF000008C90000502AFF1FAB
:10461000642AFF1F782AFF1F08B5064A064B127945
:104620001A7003F019FD054A054B106000221A703C
:1046300008BD00BFCCA6FF1F1F800040B0A6FF1F13
:10464000C8A6FF1F10B5044602F08AFE204610BD22
:10465000F0B4064F064E074D074C39809DF81010F8
:1046600032602B602170F0BC704700BFB8A6FF1FFE
:10467000B4A6FF1FC4A6FF1FACA6FF1FF8B5A24B30
:10468000A24E1C88306804EB4404E400224600215A
:1046900007F0B8F99E4B1868002800F00381224605
:1046A000002107F0AFF99B4B9B4F9C4DFF221A60F6
:1046B0000121022003F0CAFC01210E2003F0C6FCF8
:1046C0000121072003F0C2FC0121082003F0BEFCF9
:1046D0000121062003F0BAFC0121142003F0B6FCEE
:1046E0000121152003F0B2FC0520012103F0AEFCEE
:1046F0008B4B8C4A1B788C49DFF858C203F0F003CF
:10470000102B4FF0080E4FF000030CBF95204A20ED
:1047100013603B600860C2F800E0A1F5DD210CBF2A
:104720004FF0230E4FF0110E4FF06902CCF800202D
:104730007E482A60A1F5FC61C7F80CE0DFF808E2CA
:104740007B4A0CBF6725332505600A60DEF8002030
:10475000784DD371022191717748D188106015612D
:10476000D58B938021F4E06121F00701D36093821F
:1047700093612F044FF001039360D18000F1958085
:10478000B4F5004FA1B2C0F28A80958B6B4FD6F87A
:1047900000C03B686A4EADB245F008059583002520
:1047A0000222DD719A71C3F800C0DA88D983D982F8
:1047B0001E616642DE60DE8B9D8222F4E0629D61B6
:1047C000012522F007029D809D603504DA8000F10A
:1047D0008980B4F5004F5FDB9A8B5A4D92B242F05C
:1047E00008029A832B684B4A1860022098710020B7
:1047F000D8711A61DA88988022F4E06222F0070208
:10480000D86098829861D88BDA8001229A6002047D
:104810005AD4B4F5004F3CDB9E8B9EF804404A4AC4
:1048200046494848B6B246F008069E839E8B04F17E
:104830008044B6B204F5043446F002069E83002696
:10484000B123267023703B7903F1804303F50433D1
:104850009E241E701C702B7903F1804303F50433F2
:104860009F241E701C7002F097FD2A793748384D3E
:1048700053119B0003F1604302F1100403F56143FF
:1048800002F01F02012101FA02F240F824501A60DE
:10489000F8BDD983D982BFE7D983D9829CE7D18378
:1048A000D18272E732681A60FDE6B4F5007F28DA3B
:1048B000D38BA1B203F47E430B43D383D38A03F497
:1048C0007E430B43D38260E7B4F5007FA4DADA8B32
:1048D00002F47E420A43DA83DA8A02F47E4211430A
:1048E000D98299E7B4F5007FBFF676AFDA8B02F490
:1048F0007E420A43DA83DA8A02F47E420A43DA828B
:104900006AE7A1B241E700BFB8A6FF1FB4A6FF1F28
:10491000C4A6FF1FC8F00F4004800B4014800B405A
:10492000ACA6FF1F00800B4008800B4018800B4096
:1049300000030100C4F00F40C015FF1FD4A6FF1FE5
:10494000C0F00F40CCA6FF1FBCA6FF1F0010FF1F2A
:10495000194600000C800B40F8B52C4C2378002B36
:10496000FCD12B4A2B4B11681868814206D02A4B88
:104970001A8802EB4202D20003F098F9274D03F0A7
:104980006BFB2B68C01AB0F5967FF8D324482549F5
:10499000254A282303600B60136872B610390A6831
:1049A0009342FCD221490A689342FCD31F48026813
:1049B0001E499342FBD81E4E1E4D1F4837792E7953
:1049C000174BDFF87CE0174A002505600D600121D8
:1049D00021701A4D28244FF48061CEF800101C601D
:1049E0006921D3F800E02D7919606FF47F6EA3F58B
:1049F0002F23734414600824D2F800E011601F7064
:104A00001E701D70046062B6F8BD00BFC8A6FF1F0F
:104A1000C4A6FF1FB4A6FF1FB8A6FF1FB0A6FF1FA6
:104A20000C800B4014800B4018800B4004800B401E
:104A3000BCA6FF1FD4A6FF1F00800B40CCA6FF1F03
:104A4000A09004402DE9F041DFF85480104D114C46
:104A5000114F124E4046002102F01CFC2A4621460E
:104A6000404606F0B7FC3846002102F013FC2A4607
:104A70002146384606F0AEFC3046002102F00AFC22
:104A80002A4621463046BDE8F04106F0A3BC00BFEF
:104A90003015FF1F45460000D4A6FF1FCCA6FF1F00
:104AA000BCA6FF1FF8B51E1E03680446CCBF02EB70
:104AB000420500250F469B68D8BF164698477A19CD
:104AC000236862605B690A4A6661934201D12046AD
:104AD000F8BD204698470028F9D0064A064B516891
:104AE00093FBF0F0884238BF084650602046F8BD7E
:104AF0006D040000DCA6FF1F40420F00084B10B5FC
:104B00001C685CB163680021184623B1626902EB3E
:104B1000420206F077FFA468002CF3D110BD00BF5D
:104B2000ECA6FF1F70B40F4C2268531C8A4283B05E
:104B3000236013DB0C4D0D4A2968019101992D6802
:104B400000951668009D15604FF47A720025891B48
:104B500002FB03F32560B3FBF1F3438003B070BCA9
:104B6000704700BFF0A6FF1FBCACFF1FF8A6FF1FD9
:104B70002DE9F04F43682D4C83B006468946002B43
:104B80004BD103F069FAF36820601BB14846B16865
:104B900098478146264B1C680025002C36D0738828
:104BA000A77C61686269632B236898BFA574D3F8FA
:104BB00004808DF804508DF805508DF80650B9F139
:104BC000000F1CD004F10B030DF1040E04F10E0CC8
:104BD00013F801BFBBF1000F0DD093F803A00AF149
:104BE00001000BFB0000BAF1000F04D009FB00F03C
:104BF000000C8EF8000063450EF1010EE8D120464E
:104C000001ABC047A774A468002CC8D13046192155
:104C1000FFF788FF03B0BDE8F08F03F01DFA2268AC
:104C20007368801A9842AAD3ABE700BFF4A6FF1FAF
:104C3000ECA6FF1F2DE9F04F43682C4C83B00646CD
:104C40008A469146002B49D103F006FAF3682060AA
:104C50001BB14846B16898478146254B1C68002522
:104C6000002C34D07388A77C6269632B236898BFBB
:104C7000A574D3F800808DF804508DF805508DF898
:104C80000650B9F1000F1AD004F10B0301A804F18A
:104C90000E0E13F801BFBBF1000F0CD093F803C048
:104CA0000CF101010BFB0111BCF1000F03D009FB5A
:104CB00001F1090C0170734500F10100E9D12046B2
:104CC00001AB5146C047A774A468002CCAD1304636
:104CD0001921FFF727FF03B0BDE8F08F03F0BCF9FF
:104CE00022687368801A9842ACD3ADE7F4A6FF1F20
:104CF000ECA6FF1F10B5044682B051B100231A463E
:104D000001A98DF804308DF805308DF80630FFF7D5
:104D100091FF2046FFF7F2FE02B010BD0020704761
:104D2000044B0022FF204FF0FF31187099605A8029
:104D3000DA607047DCA6FF1F2DE9F04F8B42099E19
:104D400052D396F800E01578777896F80280547878
:104D500092F802C0C1EB030BC5EB0E0EC4EB070AC1
:104D6000CCEB08061FFA8BF24FEACE1E4FEACA1AA6
:104D7000F601B2B30FFA82FB9EFBFBFE9AFBFBFA35
:104D80004FEA4E0E4FEA4A0A96FBFBFB99424FEA66
:104D90004B0B1FFA8EFE1FFA8AFA1FFA8BFB4FEAA3
:104DA00005254FEA04244FEA0C2218D801EB4107ED
:104DB0000131C61989B24FEA25294FEA24284FEA62
:104DC000222C754454445A448B4200F80790ADB2EB
:104DD00086F80180A4B286F802C092B2E6D2BDE89D
:104DE000F08F4FF0010BC7E78946357892F800E065
:104DF0007478577896F802C092F8028015701946B8
:104E000086F800E04B465470777082F802C086F84E
:104E100002809FE722B3FF2A23D0F0B404780E78F3
:104E2000437895B2A719D24306FB0576D2B204FBAC
:104E30000264C4F3072404704C7886781F1904FBBD
:104E4000057403FB0243C3F3072343708B78F11807
:104E500003FB051506FB0252F0BCC2F30722827069
:104E600070470B7803704B7843708B788370704772
:104E70002DE9F043141104EB440512F00F020D4428
:104E80009DF81C6000D0E6B92C786978AA78FF2BD1
:104E900012D0002B43D00133DBB21CB103FB04441E
:104EA000C4F3072419B103FB0111C1F307211AB19F
:104EB00003FB0222C2F30722047041708270BDE836
:104EC000F0830F2C2E7895F80190AF7800D0E91C74
:104ED000120182F0FF056C1C91F800C091F801E00E
:104EE00091F8028004FB06F6511C04FB09F504FB53
:104EF00007F4C4F30724C6F3072701FB08F201FBFC
:104F00000CF6C5F3072501FB0EFE04EB222207EB8E
:104F1000262605EB2E21F4B2C9B2D2B2B7E71A4663
:104F200019461C46047041708270BDE8F08300BFD2
:104F3000F0B4047846788278E00000F0F80000EBE6
:104F4000800303EB031303442506C3F307235FD455
:104F500004F0400505F0FF0704F02004002D46D1C1
:104F600004F0FF00002C6CD05533DDB2AB243B467F
:104F7000FF2E1CD0002E79D01CB106FB0444C4F3D4
:104F800007241DB106FB0555C5F307251BB106FB1C
:104F90000333C3F30723F043C0B200FB0000C0F3A8
:104FA0000720044405440344E4B2EDB2DBB2FF2A17
:104FB00018D012FB02F0003218BF012202EB1022BF
:104FC00012F0FF0256D01CB102FB0444C4F30724C4
:104FD0001DB102FB0555C5F307251BB102FB0333C9
:104FE000C3F307230C704D708B70F0BC704704F056
:104FF000FF075CBB00EBC00400EB440000EBC0000B
:105000000412563BC4F1AB04DDB2E4B23B46AFE759
:1050100004F0400707F0FF05E7B904F0200707F0A8
:10502000FF04002F36D100EBC00300EB430000EB80
:10503000C000C0F30720C0F1AB055530EDB2C3B2DC
:1050400096E7DC43E4B21D46034691E70024DD43C6
:10505000EDB28DE704F0200404F0FF0594B903F1EC
:105060005504E4B2C3F1AB03DBB281E7FF231D4675
:105070001C469CE71546144613460C704D708B7009
:10508000F0BC7047A3F15604E4B20025C3F1550308
:10509000DBB26DE7D8431C46C3B269E700220021AA
:1050A000016042608260C26002617047002300229A
:1050B000026043608360C36003617047026862B945
:1050C000D0ED017A80ED020A77EE807A012380ED3F
:1050D000030AC0ED017A03607047D0ED027AB4EEA6
:1050E000E70AF1EE10FA2BD4D0ED037AB4EEE70A1A
:1050F000F1EE10FAC8BF80ED030A90ED016A531C6F
:1051000030EE066A012B80ED016A036017D907EEC5
:10511000903AF8EE677A07EE102AC6EE276AB8EEE4
:10512000477A36EEC00A90ED046A67EE807A67EE41
:10513000807AC7EE876A76EE267AC0ED047A7047E9
:1051400080ED020AD9E700BF036843B107EE903A49
:1051500090ED017AF8EE677A87EE270A70479FEDA7
:10516000010A70470000C07F08B5036813B99FEDBE
:105170000D0A08BD07EE903A90ED047AF8EE677AD2
:10518000C7EE276A16EE900A05F088FD41EC100B79
:1051900005F0EEFA51EC100B06F0CCF800EE100A18
:1051A00008BD00BF0000C07F30B464250124002288
:1051B0004580047101704271826030BC704700BF4D
:1051C0000078022102F042BF30B5104D82682B6892
:1051D00083B00093009B9A4203D90379184603B029
:1051E00030BD0446007802F023FF23799842F5D0C1
:1051F0002A6801926188019A83F001030A441846E3
:1052000001212371A260617103B030BDBCACFF1FEE
:1052100010B50446FFF7D8FF20B9637903B1607178
:10522000184610BD0023184610BD00BFF8B5002178
:10523000054601F035FF002800F0D08041F23C43E4
:10524000EB5C072B00F2CA80DFE803F0C9D0D7DEA1
:10525000E5ECF304D5F81C74C5F8380405F587644B
:105260003B1D224607F5827705F23C4133F8026B7D
:1052700042F8046F9F42F9D1D5F8207405F5C76252
:105280003B1D07F5827733F8026B42F8046F9F42AB
:10529000F9D1D5F8247405F638023B1D07F582775D
:1052A00033F8026B42F8046F9F42F9D1D5F82874A5
:1052B00005F638223B1D07F5827733F8026B42F87A
:1052C000046F9F42F9D1D5F82C7405F638423B1D86
:1052D00007F5827733F8026B42F8046F9F42F9D1E9
:1052E000D5F8307405F638623B1D07F5827733F840
:1052F000026B42F8046F9F42F9D1D5F8347405F57A
:1053000081523B1D183207F5827733F8026B42F861
:10531000046F9F42F9D105F59152031D183200F533
:10532000827033F8026B42F8046F8342F9D1D5F8EA
:10533000180480B105F5886200F5006732F9043C75
:1053400030F9026B03FB06F3DB13874222F8043CBF
:1053500002F10402F2D105F5A2500430384E05F0F6
:105360007DF805F2164705F1160054F8041F21FBDD
:1053700001F1B1FA81F336F81320B1FBF2F31A44CC
:105380005308B1FBF3F10B445B0820F8023FB8422D
:10539000EBD141F23D430122EA54D5F81C0401F05F
:1053A0003BFED5F8200401F037FED5F8240401F0C7
:1053B00033FED5F8280401F02FFE41F23C430422CD
:1053C000EA5405F586610EC9D5F82C04C5F81C040D
:1053D000C5F82014C5F82424C5F82834F8BD41F2D6
:1053E0003C430122C5F81C04EA54F8BD41F23C4399
:1053F0000222C5F82004EA54F8BD41F23C430322DE
:10540000C5F82404EA54F8BD41F23C430422C5F82F
:105410002804EA54F8BD41F23C430522C5F82C04A7
:10542000EA54F8BD41F23C430622C5F83004EA5480
:10543000F8BD41F23C430722C5F83404EA54F8BDF4
:105440000CC900000020704700207047F8B5144CCC
:10545000037A242908BFC2805B0001250E4620463E
:10546000C1F30721174684F83B3084F85E5084F876
:105470005D5001F03FFBF1B2204601F03BFBC7F36A
:105480000721204601F036FBF9B2204601F032FB3D
:105490002946204601F09AFCB0FA80F04009F8BD98
:1054A0007416FF1F70B5012604460671344801F0DA
:1054B00035FB052002F0F4FD204644F26002302165
:1054C000FFF7C4FF0546002858D06C22262120464D
:1054D000FFF7BCFF4FF4F97228212046FFF7B6FF13
:1054E00040F622722C212046FFF7B0FF44F24642DC
:1054F0003C212046FFF7AAFF40F237122421204624
:10550000FFF7A4FF44F2FF0230212046FFF79EFF81
:10551000732202212046FFF799FF4FF4C87002F072
:10552000BFFD41F61D522E212046FFF78FFF0422BA
:1055300011462046FFF78AFF4FF498720621204655
:10554000FFF784FF10220A212046FFF77FFF002289
:105550000E212046FFF77AFF43F63C4210212046F9
:10556000FFF774FF47F67F7222212046FFF76EFF98
:10557000362224212046FFF769FF6672284670BD57
:105580007416FF1F10B5044619B1012911D000206F
:1055900010BD55222021FFF759FF0028F7D0E288DF
:1055A00042F00402204692B22421BDE81040FFF7E9
:1055B0004DBF40F273122A21FFF748FF0028E6D0C2
:1055C000882220212046FFF741FF0028DFD0E28813
:1055D000204622F004022421BDE81040FFF736BF28
:1055E00038B50546F1B1802903799ABFC1F180042D
:1055F00044EA0424002433B9224628462221BDE887
:105600003840FFF723BFC288002322F01002037145
:105610002421FFF71BFF224628462221BDE83840FF
:10562000FFF714BF0123037147F67F722221FFF7B2
:105630000DFFEA8842F01002284692B22421BDE80C
:105640003840FFF703BF00BF9FED057ADFED057A15
:10565000E0EE077AFCEEE77A17EE901AFFF7C0BF8C
:1056600000000143EE7CFF3E024A0349034805F077
:10567000B1BE00BF3015FF1F4546000000A7FF1F49
:1056800038B5074D074C08482A46214605F0A2FECA
:105690002A4621460548BDE8384005F09BBE00BFBC
:1056A0003015FF1F4546000008A7FF1F10A7FF1F6A
:1056B0001A4A1B4B11681B48096970B49942127948
:1056C000027008D2184A12782AB3184A01211160D0
:1056D00003F5807402E01C46A3F58073144A154953
:1056E00012680D68AAB1A5B1134E3088402810D8B1
:1056F00041000A444030294402320231308033F9FB
:10570000040B22F8020F9C4233F9020C21F8020F1D
:10571000F5D870BC704703F58074DFE724A9FF1F3C
:105720001CA8FF1F1F8000401CA9FF1F08E200E00B
:105730002CA9FF1F20A9FF1F18A7FF1FF8B50646B9
:1057400001F016FC0446E8B101F012FC0546002801
:105750003AD072B61F4B1A887F2A19D8002C31D044
:105760001D490A6842B162B6204601F055FC284640
:10577000BDE8F84001F050BC18480C601A80056084
:1057800062B6F8BD054672B6124B1A887F2AE5D973
:10579000114A12491768146000220C681A800D60C3
:1057A00062B63946304601F061FC384601F034FCFF
:1057B00030462146012201F059FC2046BDE8F84060
:1057C00001F02ABC62B6F8BD204601F025FC2C464B
:1057D000BFE700BF18A7FF1F2CA9FF1F20A9FF1FAD
:1057E000F8B5284C284E294F294D2046012101F0BB
:1057F00051FD00F02BF9274B274A28484FF48061D0
:105800001960236800211A60998022791E6102F1D3
:10581000804240F20116DE809F6102F504324FF4AF
:1058200080760627DE82DE839F8302268C27D9605E
:105830009E609E82117017702B68194E43F01243C0
:1058400043F001032B600368164D43F010430360DF
:1058500001F0C6FC2279144B144C187053119B00B4
:1058600003F16043174602F1100003F5614302F0B3
:105870001F020121377001FA02F245F820401A6038
:10588000F8BD00BF24A9FF1F1CA7FF1F00FEFFFFDC
:1058900080F0024014B00440A2F0024000F0024048
:1058A0001B8000400010FF1F1CA9FF1FB156000005
:1058B000024A0349034805F08DBD00BF3015FF1FA4
:1058C0004546000024A9FF1F024A0349034805F08A
:1058D00081BD00BF3015FF1F4546000030A9FF1FE6
:1058E000024A0349034805F075BD00BF3015FF1F8C
:1058F0004546000038A9FF1F024A0349034805F046
:1059000069BD00BF3015FF1F4546000040A9FF1FBD
:105910002DE9F8434FF00008064600F11805474608
:1059200041463046002F4FD001F0BAFBF0B12C6851
:10593000B4F5803F07F1040100F1040E07F5827C05
:1059400027D05EF8042B34FB02F334FB12F903F387
:105950000F0209F30F03C2EA03430A6893FA12F332
:1059600041F8043B8C45ECD801F056FB08F10108E6
:10597000B8F1040F05F10405D2D1002F40D0304614
:105980003946002201F072FB3846BDE8F84301F0C9
:1059900043BB07F10C0100F10C0451F8083C54F82A
:1059A000082C93FA12F341F8083C54F8042C51F8EF
:1059B000043C93FA12F38C4541F8043C04F10804CA
:1059C00001F10801E9D8CFE701F076FB074600288E
:1059D000CCD02868B0F5803FC8D0391D07F5827457
:1059E0000B6830FB03F230FB13F302F30F0203F3F7
:1059F0000F03C2EA034341F8043B8C42F0D8B5E7F9
:105A0000BDE8F883024A0349034805F0E3BC00BF40
:105A10003015FF1F4546000048A9FF1F024A0349F1
:105A2000034805F0D7BC00BF3015FF1F45460000F6
:105A300050A9FF1F024A0349034805F0CBBC00BF31
:105A40003015FF1F4546000058A9FF1F284B294964
:105A50001A68294842F400421A600A6842F00202B9
:105A60000A601A6842F002021A600368002B3EDBEB
:105A7000224B1B68002B3ADB214A4FF08043136016
:105A80001368002BFCDBF0B51E4C1F48DFF8A8E0C4
:105A90001E491F4B1F4A204F204E214D4FF2FE0C36
:105AA000C4F800C0002404600120CEF80000DFF834
:105AB0008CE0C1F800E04FF480311960194B13609D
:105AC000DFF87CE0184A3A603460286000F18E40CC
:105AD000CEF80000154CB9671548164946F8503CF9
