:1000000000000320D1010000316F0000E96E000004
:10001000E96E0000E96E0000E96E0000E96E000084
:10002000E96E0000E96E0000E96E0000316F00002B
:10003000316F0000E96E0000196800001D690000C2
:10004000316F0000316F0000316F0000316F000030
:10005000316F0000316F0000316F0000316F000020
:10006000316F0000316F0000316F0000316F000010
:10007000316F0000316F0000316F0000316F000000
:10008000316F0000316F0000316F0000316F0000F0
:10009000316F0000316F0000316F0000316F0000E0
:1000A000A5610000B1610000316F0000316F0000F8
:1000B000316F0000316F0000316F0000517500009A
:1000C000316F000069880000316F000095890000E1
:1000D000316F00008D8A0000316F0000316F000029
:1000E000316F0000316F0000316F0000316F000090
:1000F000316F0000316F0000316F0000316F000080
:10010000316F0000316F0000316F0000316F00006F
:10011000316F000011780000316F0000316F000076
:10012000316F0000316F0000316F0000316F00004F
:10013000316F0000316F0000316F0000316F00003F
:10014000D5640000316F0000858B0000316F000026
:10015000316F0000316F0000316F0000316F00001F
:10016000316F0000316F0000BD610000316F000091
:10017000316F0000316F0000316F0000316F0000FF
:10018000316F0000316F0000316F0000316F0000EF
:10019000316F0000316F00007D8C0000316F000076
:1001A000316F0000316F0000316F0000316F0000CF
:1001B000316F0000316F0000316F0000316F0000BF
:1001C000316F0000316F0000316F0000316F0000AF
:1001D0005C4B4CF2205210B51A804DF628121A8052
:1001E00000BF00BF06F0A8FE574B4FF030621A6008
:1001F000564A9A60564ADA60564B4FF470021A60BB
:10020000554B564A1A60564B1A78110703D51A787F
:1002100042F008021A70534B5349AA221A70534AEB
:10022000534B8B4204D252F8040F43F8040BF8E707
:10023000504B514900228B4202D243F8042BFAE77B
:100240004E494F4A002352F8230041F8230001335E
:10025000742BF8D14B4B4C4A802103F8011B93427D
:10026000FBD14A4B454A1A60494B8A221A70A3F5C2
:10027000805324225A70A0221A709A799207FCD5D2
:100280009A79D406FCD4434A937903F00C03082BE3
:10029000FAD1414B60221A7002331A78802AFCD1BD
:1002A0003C4B01221A715D225A719A799006FCD555
:1002B0009979384A4906FBD5384B394919600021EC
:1002C000596020231370937903F00C030C2BFAD19F
:1002D000344B354A1A60354A354C136813F4807331
:1002E00003D123604FF4A8531360324B324A1A6093
:1002F00000225A60072243F8042C304AC3F80C2D20
:1003000062B606F0A3FF2368DA0705D52C4806F08D
:10031000FBFE2C4B2C4A1A602C4B1B785B0609D534
:10032000284C294B22689A4204D1254806F0ECFE5D
:10033000002323600AF058F806F004FE06F032FDB0
:10034000FEE700BF0E20054030800440823F0400DD
:100350000100002B88ED00E0002008E0030000858C
:1003600002D0074000E00740A821FF1F00B80100AD
:100370003015FF1FA821FF1FD497FF1F0010FF1F7C
:100380000000000000E400E064E400E008ED00E0AC
:10039000005006400040064001E007404480044011
:1003A0000000060204800440C010070010D0034083
:1003B00014D0034014E000E01FBF02000000202022
:1003C0004CEE0E601CE00340A5C3945A00F00740B9
:1003D000FFFFFFFFFFFFFFFFFFFFFFFFFFFFFFFF2D
:1003E000FFFFFFFFFFFFFFFFFFFFFFFFFFFFFFFF1D
:1003F000FFFFFFFFFFFFFFFFFFFFFFFFFFFFFFFF0D
:10040000FFFFFFFFFFFFFFFFFFFFFFFFDEF9FFFF23
:1004100010B5054C237833B9044B13B10448AFF33E
:1004200000800123237010BDA821FF1F00000000E1
:1004300004B80100084B10B51BB108490848AFF3D8
:1004400000800848036803B910BD074B002BFBD0A0
:10045000BDE81040184700BF00000000AC21FF1F9E
:1004600004B80100A821FF1F000000000020704711
:10047000704700BF4069C000704700BF2DE9F04FD2
:100480001D4EDFF87C8032781C4F85B00132D0B22F
:100490000023307001934FF0FF0A019D08F5807929
:1004A000C346002400E030785BF8041F8DF80DA0EF
:1004B0002A1901EB41010A340244394403A8E4B289
:1004C0008DF80EA08DF80C2003F094FE502CEAD18C
:1004D00008F120080535C145EDB201D03078DFE7DD
:1004E000019B0533DBB2282B019301D03078D4E790
:1004F00005B0BDE8F08F00BFA075FF1F882AFF1F61
:10050000F021FF1F2DE9F04F002583B0754EDFF875
:1005100000A2DFF8F491DFF8FCB12C4607E0642B71
:1005200000F3DE800134082C05F1DC0543D056F8D9
:10053000043F5AF82320002AF4DB13028BFB03014B
:10054000B2F5167F4FEAE373C3EB2123E7DDFF2704
:10055000654BD3E9000109F099FE00EBC40009EBFB
:100560004013EA10D3F81C808DF80270143A01A9E8
:100570006846FF278DF800208DF8017003F03AFEE1
:100580005A4F9DF8040008EB4803F918FA5C82FA08
:1005900050F2FA549DF805304A7882FA53F24A70C4
:1005A0008B789DF8062083FA52F30134082C8B7067
:1005B00005F1DC05BBD14E4B4E4A1B684E4EB3F5E0
:1005C0007A7FA8BF4FF47A7323EAE37303EB8301C6
:1005D00003EBC10382FB0312DB17C3EB2223326858
:1005E000C3F12E03934273DA444C3F4D237800222B
:1005F000002B5DD0424BD5E9000109F0E5F900225E
:10060000404BC5E9000109F0F9FD002865D1DFF88C
:100610000881364FDFF804E108F50069A8F5807C11
:10062000614651F81C3D51F8042F02EB420503EBE3
:1006300043030EEB0504F8181EF805A06578A478AE
:1006400007F803A08C45134645708470EBD10CF17C
:10065000200CE045E4D108F58078C145DED12A4878
:1006600000F5006500F58074C26902EB4202B9181A
:10067000BB5C03EBC30303EBC3031B12BB544A78FD
:100680008B7802EBC20203EBC30302EBC20203EB63
:10069000C303203012121B1284424A708B70E3D1C4
:1006A000AC422046DED10122326003B0BDE8F08FBB
:1006B000164BD5E9000109F085F900220023C5E9B0
:1006C000000109F09BFD0028A1D0012323709EE7C3
:1006D0000132326003B0BDE8F08F0023237096E74B
:1006E000DFB235E73815FF1FF83FFF1FAC56FF1F7D
:1006F0008C39FF1F9F747841DC39FF1F3815FF1FAD
:100700000000E03F00001C40F421FF1F0000F03F0C
:10071000A454FF1F37800B6D1023FF1F882AFF1F73
:10072000884B894A196840F6B8338B42A8BF0B46FC
:1007300023EAE37303EB830103EBC10382FB0312A0
:10074000DB17C3EBA223814A1268C3F12A03934249
:1007500080F2F4802DE9F04F2DED028BDFF8089246
:100760007B4A99F800307B4D7B4C87B0013389F888
:100770000030764B0292002201951A609046039554
:1007800011E0764A1B0282FB0326DB17C3EB262609
:10079000322E15DC019B08F1DC0803F58073B8F5F7
:1007A000DC6F01936ED0029A52F8043F02926C4AB9
:1007B00052F82330002BEDDBB3F5167FE1DDFF2689
:1007C000C8F3C707DDF804A04FF0000BB0EE0C8AA9
:1007D00039E007EE90BAF8EEE77ADAF81C5099F8AB
:1007E000002077EEC87A4FF0FF33FDEEE77A8DF800
:1007F000113017EE903A05EB45053A44002BB8BF8F
:100800005B428DF8102096FBF3F38DF8123003F065
:10081000F1FC6119635D9DF8142083FA52F363556E
:100820004A789DF8153082FA53F24A708B789DF819
:10083000162083FA52F30BF1010BBBF1080F8B70FA
:100840000AF1200AA6D0ABF10303012B05A904A8E5
:10085000BFD899F80030DAF81C508DF812603B448C
:100860004FF0FF328DF811208DF8103003F0C2FCEC
:1008700005EB4503E118E25C9DF8140082FA50F2A2
:10088000E254CDE7DFF8E480039D364E08F50069B9
:10089000A8F5807C614651F81C3D51F8042F02EB0D
:1008A000420E03EB430306EB0E07E01816F80EA00A
:1008B00097F801E0BF7804F803A06145134680F87B
:1008C00001E08770E9D101F1200CE045E2D101F5AA
:1008D0009078C145DCD1DFF898E005F58070EA69D1
:1008E00002EB4202A118A35C03EB8306C6EB0616DB
:1008F00003EB46031B12A3544A788B7802EB820762
:1009000003EB8306C7EB0717C6EB061602EB47029D
:1009100003EB4603203512121B12A8424A708B705B
:10092000DDD170450546D8D1084B1A68074B013216
:100930001A6007B0BDEC028BBDE8F08F034B0132AB
:100940001A6070478C39FF1FD32A5A57688DFF1FD2
:100950003815FF1FF421FF1FAC56FF1F37800B6DAA
:10096000A454FF1F882AFF1FA075FF1F1023FF1F1D
:10097000F429FF1F10B5044605F056FD204610BDB2
:10098000072901D8072A00D9704701EBC00102EB03
:10099000C101064A52F8212010B4054C02EB420175
:1009A000214418465DF8044B03F024BCF421FF1FDA
:1009B000AC65FF1F2DE9F04F866985B005460C46F2
:1009C000002E00F07181A368EA69002B40F3668174
:1009D0002746183257F8148B04F1340094F813901A
:1009E0000DF10706394609F10109B446BE465EF825
:1009F000043F43445B7843B194F80DA083FA5AF363
:100A0000DBB209FB03F3C3F3072386450CF8013F70
:100A1000EDD1DDF80880039B88EAD81C83EAD31E59
:100A20000CF0AA1C0EF0AA1E88EA0C0883EA0E033A
:100A300088EACC1C83EACE1E4CF6CC488CEA9C3A61
:100A40008EEA9E39434609EA03030AEA08088CEA5B
:100A5000080C8EEA030E8CEA883C8EEA833E4FEA4D
:100A60000E184FEA1C130EF0F03E0CF00F3C08F08D
:100A7000F03803F00F3343EA0E0348EA0C0E4FEA56
:100A80001E494FEA1E684FEA132C02F811EC02F8D7
:100A9000153C4FEA1E2A4FEA134E1B0E02F816CCE5
:100AA00002F817EC02F812AC02F8139C02F8148C4E
:100AB00002F8183C94F81290D4F8008009F101096A
:100AC0000DF1070CBE465EF8043F18F8033043B141
:100AD00094F80CA083FA5AF3DBB209FB03F3C3F3D7
:100AE000072386450CF8013FEDD1DDF80880039B14
:100AF00088EAD81C83EAD31E0CF0AA1C0EF0AA1EAA
:100B000088EA0C0883EA0E0388EACC1C83EACE1E2E
:100B10004CF6CC488CEA9C3A8EEA9E39434609EA68
:100B200003030AEA08088CEA080C8EEA030E8CEA32
:100B3000883C8EEA833E4FEA0E184FEA1C130EF0F3
:100B4000F03E0CF00F3C08F0F03803F00F3343EAAE
:100B50000E0348EA0C0E02F809EC4FEA132C02F8D7
:100B60000D3C4FEA1E2A4FEA1E494FEA1E684FEA23
:100B7000134E1B0E02F80AAC02F80B9C02F80C8C08
:100B800002F80ECC02F80FEC02F8103C94F814C0F6
:100B9000D4F800E00CF1010C51F8043F73449B7849
:100BA00043B194F80E8083FA58F3DBB20CFB03F3E5
:100BB000C3F30723884206F8013FEDD1029B039E51
:100BC00083EAD31186EAD61E0EF0AA1E01F0AA11FE
:100BD0004B4086EA0E0683EAC11186EACE164CF631
:100BE000CC4381EA913886EA963C9E460CEA0E0E8A
:100BF00008EA0303594086EA0E0681EA833186EA51
:100C00008E3633014FEA111E0EF00F3E01F00F3108
:100C100006F0F03603F0F0330B434EEA06064FEAD7
:100C2000132A4FEA13494FEA13684FEA162C4FEA8A
:100C3000164E310E02F8013C02F8056C02F802ACC7
:100C400002F8039C02F8048C02F806CC02F807ECC8
:100C500002F8081CA36894F80CC094F80DE094F80E
:100C60000E90266894F80FB094F810A0617C94F967
:100C70001580013BCCEB0B0CCEEB0A0EC9EB01014E
:100C8000B044002B02F1180284F80CC084F80DE087
:100C9000A173C4F80080A3603FF7A0AEA86905B0B7
:100CA000BDE8F04F03F01AB8D1F8048008EB48070C
:100CB000FF00384609F0C4FBE861384609F0C0FB84
:100CC0002862012006F096F9EB692A6A0096074629
:100CD000414602F07FFEAF61384602F091FE72E6B7
:100CE000F0B591B0002305688DF800308DF8013023
:100CF0008DF802302E683A4A8DF8043096428DF80D
:100D000005308DF8063064D1827C0391012A0446B7
:100D100004918DF81A308DF81B308DF81C30CDF809
:100D200008D01AD08DF819308DF818308DF817309A
:100D30008DF816308DF815308DF8143000228DF8AE
:100D40001D2007AB0FA943F8042F9942FBD1AB69D3
:100D5000204602A9984711B0F0BD224A137801330A
:100D600003F0070313F0010F14BF8021002113705B
:100D70009A0744BF41F04001C9B25B0748BF41F048
:100D8000200110310022C9B20DF117030DF11A072D
:100D90004FF4807EAAB19EFBF2F2D2B2501CC0B2D8
:100DA00000FB01152D121870EEB205B1013E03F8DB
:100DB000036C00B11A7001339F4208D0DA78002A20
:100DC000E9D11A7003F8032C01339F42F6D125684C
:100DD000B4E70A4601AB6946B04711B0F0BD00BFA9
:100DE000C10E0000C421FF1FF0B5857C1C785E7821
:100DF0009B788FB0012D8DE8060002928DF812408D
:100E00008DF813608DF8143020D000238DF8113048
:100E10008DF810308DF80F308DF80E308DF80D30C4
:100E20008DF80C30032100238DF8151002EB4202DF
:100E3000194605AC0131082944F8043F1344F9D19F
:100E4000036869469B6998470FB0F0BD1B490B7852
:100E5000013303F0070313F0010F0B7014BF80215F
:100E600000219D0744BF41F04001C9B25B0748BF64
:100E700041F020011031C9B20DF10F030DF1120E36
:100E80004FF4807CACB19CFBF4F4E4B2651CEDB291
:100E900005FB011636121D70F7B206B1013F03F8CB
:100EA000037C05B11C7001337345BBD0DC78002C8A
:100EB000E9D11C7003F8034CF5E700BFC421FF1F04
:100EC000F0B5857C1C785E789B788FB0012D8DE81D
:100ED000060002928DF812408DF813608DF81430E0
:100EE0001BD000238DF811308DF810308DF80F30A5
:100EF0008DF80E308DF80D308DF80C3000228DF805
:100F0000152005AB0DA943F8042F8B42FBD10368D4
:100F100069469B6998470FB0F0BD1B4A13780133AF
:100F200003F0070313F0010F137014BF8022002297
:100F3000990744BF42F04002D2B25B0748BF42F07B
:100F400020021032D2B20DF10F030DF112074FF44F
:100F5000807EACB19EFBF4F4E4B2611CC9B201FB2B
:100F600002252D121970EEB205B1013E03F8036C93
:100F700001B11C7001339F42C0D0DC78002CE9D154
:100F80001C7003F8034CF5E7C421FF1F2DE9F04F57
:100F90008BB00027069051F82730DBB20137FF2BCA
:100FA000BFB2F8D10B6807974FEA1368C3F3072B5A
:100FB000C3F307494FF0FF33C64600240593884624
:100FC00058F8045F0698C5F307274FEA241CC5F3B9
:100FD0000746ECB2F9B2C5F307650391E9B2049193
:100FE0005FFA8CF1029107990F2908AA4FEA1413AE
:100FF0005FFA86FA0CD805998C4507DC0F2905D0D5
:101000000131C9B28B42029138BF0B4659B20591EA
:1010100009A9009102998DF820B08DF821908DF8E2
:1010200022E08DF824708DF825608DF8265003F0AD
:1010300045F8FF2CDDF810E0DDF80CB0D146BFD14B
:1010400006980BB0BDE8F08F38B52A4803F042FA95
:10105000D8B1294C012323600C21284807F082FADB
:10106000274805F079FC274D27480C2105F0ACF8FE
:10107000284603F079FB2368ABB1012B23D0234B27
:101080004FF400429A61DA6138BD1B4C03460C21D3
:101090001F48236007F066FA194805F05DFC2368D5
:1010A000012BE0D1D8E755222021284603F030FB60
:1010B0000028E4D0EA8842F0040292B228462421B3
:1010C00003F026FBDBE740F273122A21284603F0E7
:1010D0001FFB0028D3D088222021284603F018FBCC
:1010E0000028CCD0EA88284622F00402242103F00C
:1010F0000FFBC4E7E475FF1F9C75FF1FC0AF000026
:101100004417FF1F103AFF1F0002FF1FB03AFF1FD6
:10111000B0AF00002DE9F84F104C114F114EDFF821
:1011200048B0DFF848A0DFF8489004F58C78002537
:10113000204603F01DF9143402230C21CBF80030B3
:1011400044454FF0080347F8045F46F8045FCAF8C7
:101150000030C9F80010EBD1BDE8F88F6055FF1FD3
:101160006C3AFF1F5475FF1FF829FF1F683AFF1FD5
:101170001C3AFF1F70B5224B86B0002453F8042F91
:10118000092A04F1010120DCCCB20E2CF6D11D4D50
:101190001D4E2B680193019B31681C4A5B1A9342D8
:1011A0001DD82B6803931A4B039A1B6832602A6878
:1011B0000592059AD31AB3F57A7F04D9FFF7AAFFEF
:1011C000144B01221A7006B070BD0E4D0E4E2B68E6
:1011D0000193019B31680D4A5B1A934205D92B6834
:1011E0000293029B3360FFF795FF0B2CD9D82B6835
:1011F00007490493049B074A0B6000211170D6E74E
:10120000A054FF1F8493FF1FAC74FF1FE0930400E2
:10121000842AFF1FD074FF1FE64BE74A03F1380012
:1012200053F8041F42F8041F9842F9D12DE9F04702
:10123000DFF8C093DFF8C083B9F8183007EE903AB2
:101240002DED028BDD4BDFEDDE8AF8EE677AD3E918
:10125000006767EEA87A4C4617EE900A08F012FD78
:1012600032463B4608F062FD0022D64B08F05EFD98
:1012700009F00CF8B9F81A30C8F8000007EE903AF7
:10128000F8EE677A08EE100A67EEA87A09F13605DB
:1012900017EE900A08F0F6FC32463B4608F046FD91
:1012A0000022C84B08F042FD08F0F0FFB9F81E20FC
:1012B000B9F81C30C8F80400134407EE903AF8EE71
:1012C000E77A67EEA87A17EE900A08F0DBFC324660
:1012D0003B4608F02BFD0022BA4B08F027FD08F032
:1012E000D5FFB9F82010B9F82230B9F82420C8F891
:1012F00008000B44134407EE903AF8EEE77A67EEE5
:10130000A87A17EE900A08F0BDFC32463B4608F07A
:101310000DFD0022AB4B08F009FD08F0B7FFB9F84E
:1013200028E0B9F82630B9F82A1034F82C2FC8F87C
:101330000C0073440B44134407EE903AF8EEE77A3E
:1013400067EEA87A17EE900A08F09CFC32463B46FE
:1013500008F0ECFC9B4B002208F0E8FC08F096FF3C
:101360000023C8F8100034F8022FA5421344FAD124
:1013700007EE903AFBEEC97A934C17EE900A08F00C
:1013800081FC32463B4608F0D1FC00228D4B08F030
:10139000CDFC08F07BFFC8F81400002035F8023FB0
:1013A000AC421844FAD107EE900AFBEEC97A874D99
:1013B00017EE900A08F066FC32463B4608F0B6FC91
:1013C0000022804B08F0B2FC08F060FFC8F818005B
:1013D000002034F8023FA5421844FAD107EE900AE3
:1013E000FBEEC97A7A4C17EE900A08F04BFC3246B5
:1013F0003B4608F09BFC0022724B08F097FC08F07B
:1014000045FFC8F81C00002035F8023FAC421844E4
:10141000FAD107EE900AFBEEC97A6E4D17EE900AEC
:1014200008F030FC32463B4608F080FC0022654B59
:1014300008F07CFC08F02AFFC8F82000002034F8EF
:10144000023FA5421844FAD107EE900AFBEEC97A92
:10145000614C17EE900A08F015FC32463B4608F046
:1014600065FC0022574B08F061FC08F00FFFC8F83C
:101470002400002035F8023FAC421844FAD107EEB0
:10148000900AFBEEC97A554D17EE900A08F0FAFB68
:1014900032463B4608F04AFC00224A4B08F046FC24
:1014A00008F0F4FEC8F82800002034F8023FA542F6
:1014B0001844FAD107EE900AFBEEC97A484C17EEB1
:1014C000900A08F0DFFB32463B4608F02FFC002272
:1014D0003C4B08F02BFC08F0D9FEC8F82C0000208B
:1014E00035F8023FAC421844FAD107EE900AFBEE01
:1014F000C97A3C4D17EE900A08F0C4FB32463B46D1
:1015000008F014FC00222F4B08F010FC08F0BEFE7F
:10151000C8F83000002034F8023FA5421844FAD140
:1015200007EE900AFBEEC97A2F4C17EE900A08F0EE
:10153000A9FB32463B4608F0F9FB0022214B08F09C
:10154000F5FB08F0A3FEC8F83400002035F8023F90
:10155000AC421844FAD107EE900AFBEEC97A17EEB6
:10156000900A08F08FFB32463B4608F0DFFB002272
:10157000144B08F0DBFB08F089FE1C4AC8F8380061
:10158000002034F8023FA2421844FAD107EE900A34
:10159000FBEEC97ADFF86490154CDFF864A017EE13
:1015A000900A08F06FFB32463B4608F0BFFB002272
:1015B000044B27E0A054FF1F8C39FF1F9015FF1F1D
:1015C0000000803800408F405040FF1F6440FF1FE4
:1015D0008040FF1FA840FF1FDE40FF1F2A41FF1F62
:1015E0009441FF1F2642FF1FF242FF1F2244FF1FAC
:1015F0006055FF1F0C40FF1FA454FF1F8C39FF1FB5
:10160000D874FF1F1B4F1C4E08F090FB08F03EFEE5
:101610000025C8F83C00C9F8005001E096ED008AAA
:101620002046B8EEC80A02F0ABFE204602F0EEFEFD
:1016300010EE100A08F026FBE7E80201204602F04F
:10164000F5FE10EE100A08F01DFBD9F8003056F830
:10165000042B01351344102D04F11404EAE80201AF
:10166000C9F80030DAD1BDEC028BBDE8F047FFF7D6
:1016700081BD00BF6076FF1FA454FF1FF0B5304945
:101680000B5C022B85B02ED02E4B53F82020002A65
:101690000DDD2D4A2D4C12682D490392039A54F802
:1016A000204051F82010121B323191420BD30328F5
:1016B0000EDD284B1B680A2B274BCCBF01220022D2
:1016C0001A7005B0F0BD0022032843F82020F0DC9A
:1016D000204953F820200B689A42ECDD1F4C0A6029
:1016E00013462070E7E7184C184D23680093009BC1
:1016F00055F820609B1BF92B05D8124B012453F899
:1017000020200C54C3E723680193154F019B57F821
:1017100020202468DFF838E00294991B521A094B04
:10172000029C4EF820101D323A2A53F8202047F828
:1017300020109CBF013243F8202045F82040A6E746
:10174000E039FF1F6054FF1F8493FF1F1076FF1FB7
:10175000002AFF1F5C76FF1F2855FF1FF429FF1F7B
:10176000E854FF1FFFFFFFFF2DE9F843284B53F814
:1017700020908046484608F073FA264A4FEAC8038C
:101780001A440D462449D2E900670B440446D3E9C4
:1017900000011DA3D3E9002308F0C8FA32463B46F6
:1017A00008F012F902460B462046294608F04EFD85
:1017B00068B1B9F5967F0ADD184B13F80820022AA4
:1017C0001AD052B9022203F80820BDE8F883DFF8E6
:1017D0004C9019F80830012B01D0BDE8F88332464F
:1017E0003B462046294608F01DFD0028F5D0002381
:1017F00009F80830BDE8F883012203F80820BDE8A5
:10180000F88300BFAFF3008000000060666602400E
:10181000A454FF1F6076FF1FD874FF1FE039FF1F1D
:1018200010B40E4B0E4A53F820100E4C52F82030D4
:10183000245C0529C4BF023342F82030022C04BFC7
:10184000013342F82030B3F5967F04DD0129DCBF77
:10185000023B42F820305DF8044B70476054FF1F94
:101860005875FF1FE039FF1F2DE9F04F91B0FFF7CA
:10187000D3FCA04BA04A029319460023DFF8B8928C
:10188000DFF8B8B213609A46884622E0DBF8000021
:1018900008F0E6F93246CDE900013B4620462946EC
:1018A00008F090F80022954B08F040FA02460B46EB
:1018B000DDE9000108F088F808F0E8FCCBF800004A
:1018C0000AF1010A80F30800BAF10E0F4BF8040B7D
:1018D00031D05046FFF748FF5046FFF7CFFE504645
:1018E000FFF79EFF59F8040F08F0BAF9F8E802670D
:1018F00032463B4604460D4608F0A8FC0028C5D1F8
:10190000DBF8000008F0ACF92246CDE900012B46D7
:101910003046394608F056F80022784B08F006FAAF
:1019200002460B46DDE9000108F04CF808F0AEFC79
:10193000CBF80000C4E7724A724B1768724A1B6802
:10194000D2F80090714A724DD2F80080714A0B9320
:1019500012680592704A09934FF0000ACDF818A05A
:10196000CDF81CA0CDF820A0CDF828A0CDF80CA073
:101970005446CDF810A0D2F800B00095BA46029FA8
:101980005C4B634903EBC80E04F109030293009B0F
:101990001A68099B51F823309A4203DD01230B9406
:1019A00009940A9300995A4B594D4A6953F82A30C1
:1019B000486A55F82910029D9A4204F10503C8BFF0
:1019C0009A46089BC8BF01238842C8BFA946D7E9E9
:1019D0000001079D0893C8BF0125DEE90023079594
:1019E00008F034FC059D434A069E002802EBC5031F
:1019F00018BF0126D3E90023D7E90A0118BFA04682
:101A0000069608F023FC3B4A002804F1050602EB89
:101A1000CB0308BF2E46D3E90023D7E91201059670
:101A2000049E18BF0126049608F010FC009B029D3E
:101A3000002803F1040304F10104009318BFAB462E
:101A4000039B18BF0123042C039307F1080797D1C8
:101A50005746DDF810A0002B47D10A9B13B1294B44
:101A60000B9A1A60089B0BB1254B1F60079B13B1A3
:101A7000254BC3F80090069B13B1244BC3F800809C
:101A8000BAF1000F02D0234B059A1A60234B099933
:101A90005A5C022A54D0224A52F82120082A4FDCEC
:101AA0009B78022B4CD01F4F1F4C3B68DB074FD558
:101AB0001E4E1F4D33680F9395E806000F9B5B1A6F
:101AC0009A4253D923681B490A2BA8BF0A236FF0F7
:101AD00009000A688342B8BF03461A4482F3080229
:101AE00023600A6011B0BDE8F08F0B4BC3F800B063
:101AF000B3E700BF6076FF1F5C76FF1F0000E03F8A
:101B0000683AFF1FF829FF1F1C3AFF1FB474FF1F1C
:101B10005875FF1F083AFF1F648DFF1FE039FF1F34
:101B20006054FF1F283AFF1F0C76FF1F8493FF1F8E
:101B30005C3AFF1FEC3FFF1FA054FF1FA475FF1F5F
:101B4000134C144F2368053323603B68DB07AFD485
:101B5000384605F011FA104E104D70B933680F93E6
:101B600095E806000F9B5B1A9342ABD333680E9344
:101B700023680E9A2A60013BA5E733680D930D9BFD
:101B80002B60C82338466B6005F0FCF9E6E700BF20
:101B90000C76FF1F283AFF1F8493FF1F5C3AFF1F3C
:101BA0002DE9F04F87B01F46DFF8809003900023A7
:101BB0000191904602934FF0FF0BDDF808A03B46E1
:101BC000A9F5807457469A4604F120063D4602E086
:101BD0000434B44215D0AA454544F9D121689DF892
:101BE00040308DF814300F4B8DF815B001EB4101EA
:101BF000194405A804348DF816B002F0FBFAB4427B
:101C0000E9D1019BA1451F44DED1029B039A1344F5
:101C10000293054B09F580794B455746CDD107B066
:101C2000BDE8F08FAC65FF1FF42AFF1FF422FF1FF1
:101C30002DE9F04F93B08DED0E0B8DED0C1B8DED5E
:101C4000022B8DED043B8DED064B0023834609935B
:101C5000099808F005F8DDE90E2307F0B3FE0B46FE
:101C6000024608F063F8CDE90A0100239A4650467F
:101C700007F0F6FFDDE90C2307F0A4FE02460B4651
:101C800008F054F8DDE90A2307F09EFE0024CDE9B0
:101C900000015FFA8AF51DE0B946DDE906234946F1
:101CA000404608F0B5FAE2B211AB0134294678B1EA
:101CB0009BF800609BF801008DF844608DF84500AA
:101CC0009BF802609DF824008DF84660FEF758FEF0
:101CD000082C24D0204607F0C3FFDDE9022307F0DB
:101CE00071FE02460B4608F021F8DDE9002307F0FB
:101CF0006BFE41EC100B07F02FFDDDE9042351ECE6
:101D0000100B07F05FFE0022002306460F4608F086
:101D10009DFAB0460028BFD107F10049BDE70AF19E
:101D2000010ABAF1080FA2D1099B0133082B0993CC
:101D30008ED113B0BDE8F08F2DE9F04F8FB08DED4F
:101D40000A0B8DED001B8DED082B8DED023B8DED0B
:101D5000044B0023394D07900693069807F080FF47
:101D6000DDE90A2307F02EFE02460B4607F0DEFFF0
:101D700000248046894602E00134082C52D02046D7
:101D800007F06EFFDDE9002307F01CFE02460B465C
:101D900007F0CCFF42464B4607F016FE41EC100B15
:101DA00007F0DAFCDDE9022351EC100B07F00AFE24
:101DB0000022002306460F4608F048FAB2460028E3
:101DC00038D0BB46DDE904235046594608F020FAD6
:101DD0000028D1D0DDE9080108F058FA069B04EB91
:101DE000C30300EBC300164B53F8206007980DA9FE
:101DF00002F000FA06EB4603E918EA5C9DF83400AD
:101E000082FA50F2EA549DF835304A7882FA53F259
:101E10004A708B789DF8362083FA52F30134082CEF
:101E20008B70ACD1069B0133082B069395D10FB074
:101E3000BDE8F08F07F1004BC4E700BFAC56FF1FB1
:101E4000F421FF1FFFFFFFFF7B4B7C4A196840F620
:101E5000B8338B42A8BF0B4623EAE37303EB83013D
:101E60002DE9F04F03EBC103DFF8EC8182FB031295
:101E7000DB17C3EBA223D8F80020C3F12A03934257
:101E800085B079DA6E4EDFF8D4A13378DFF8D091DF
:101E90000022013315463370C8F80020144659F863
:101EA00024305AF82320002A4FEA840B0DDB6549C1
:101EB000130281FB0301B2F5167F4FEAE373C3EB14
:101EC00021235FDC322B00F385800234082C05F5DA
:101ED000DC75E4D1DFF88CC15B4E5C4F0CF500691A
:101EE000ACF5807E714651F81C3D51F8042F02EB91
:101EF000420503EB43037C19F01817F805A0657839
:101F0000A47806F803A08E45134645708470ECD182
:101F10000EF1200EF445E5D10CF5807CE145DFD1D2
:101F20004B4800F5006500F58074C26902EB42027F
:101F3000B118B35C03EB8307C7EB071703EB470349
:101F40001B12B3544A788B7802EB820E03EB8307A3
:101F5000CEEB0E1EC7EB071702EB4E0203EB470357
:101F6000203012121B1284424A708B70DDD1AC42B9
:101F70002046D8D1D8F800200132C8F8002005B09A
:101F8000BDE8F08FFF233CB303AF324A31788DF8C0
:101F90000E30A34482FB0B204FEAEB7BCBEB6000BF
:101FA00001EBE5030230FF218DF80C308DF80D10A8
:101FB00007F056FE9FED161B41EC130BB0EE410AE5
:101FC000F0EE610A38469FED144B9FED152BFFF79D
:101FD000B3FE7AE7DBB2D6E79FED0D1B03AF96F8B1
:101FE00000E0B0EE410AF0EE610AFF2138469FEDB5
:101FF0000E4B9FED0F3B9FED0A2B8DF80E3001939A
:102000008DF80CE08DF80D10FFF796FE019BBCE7F4
:102010000000000000000C40000000000000E03F55
:102020000000000000001C40000000000000004014
:1020300000000000000000008C39FF1FD32A5A570F
:10204000A075FF1F37800B6DAC56FF1F882AFF1F3E
:10205000F421FF1F398EE338A054FF1FA454FF1F43
:102060003C15FF1F1023FF1F2DE9F04F894D2B68F2
:10207000DA078DB038D5884B884C04931B680893D9
:1020800094E80600089B5B1A9A423FD8049BDFF84D
:1020900038C21B680793079B2360814C0CF50068CE
:1020A0000CF1E007A7F1200E71463E4651F8042FCF
:1020B00056F8043F02EB4202A51803EB4303E01875
:1020C00014F802A095F80190AA7804F803A08F42B2
:1020D00080F801908270E9D1F4457746E2D10CF5A1
:1020E000807CE045DCD112E0284604F045FF6A4BD5
:1020F00004936A4C002840F0B780049B1B68089347
:1021000094E80600089B5B1A9342BFD2644C654B6F
:102110006548664F664E0593194650F8043F51F8DE
:10212000042F57F82330B3F5167FA8BF4FF416736A
:1021300023EAE37303EBC30386FB03E5DB17C3EB7F
:1021400025239A42B8BF0B605A4B8B42E5D1A3F1CD
:102150001C0B0022584B01939246584B019E039250
:1021600083FB0A39D1444FEAEA73C3EBA9094FEA6A
:10217000820893015FFA89F9029343460025C84615
:10218000FF27994656F8043B5BF8091003EB43031D
:10219000A942E05CC0EBC00000EB40104FEA2020F9
:1021A000E05423445FFA85FC93F801E09878CEEB85
:1021B000CE0EC0EBC0000EEB4E1E00EB40104FEAFF
:1021C0002E2E4FEA202083F801E0987014DDBCF138
:1021D000070F8DF82C808DF82D708DF82E700BD890
:1021E000029B354A2B440BA852F823102C4B01EBD1
:1021F0004101194401F0FEFF0135082DC2D1019BB8
:10220000039A0AF1DC0A03F58073BAF5DC6F02F178
:1022100001020193A1D12A4D2B68DB071CD5049B39
:10222000284C1B680B9394E806000B9B5B1A9342A7
:102230000FD3049B059A1B680A930A9B236052F8EC
:10224000043F012BC4BF03F1FF331360194B9342CA
:10225000F5D10DB0BDE8F08F284604F08DFE68B9C9
:10226000184C049B1B68DDE71B680693069B2360E4
:1022700078232846636004F085FE3EE7049B114CFA
:102280001B680993099B236032232846636004F08E
:1022900079FEE6E7708DFF1F8493FF1F5055FF1FE7
:1022A000AC56FF1F6815FF1F3815FF1FA454FF1FF2
:1022B00037800B6D8815FF1FF421FF1F932449926F
:1022C000A856FF1F5855FF1FF021FF1F2DE9F04FA3
:1022D000DFF8888189B0414608F1010008F5706493
:1022E00010F8013CC3EBC30303EB43131B1200F8CC
:1022F000013C4A788B78C2EBC202C3EBC30302EB0A
:10230000421203EB431312121B124A708B700331FB
:102310008C4200F10300E3D1474B4848484E494DF9
:102320000393194650F8043F51F8042F56F8233010
:102330004B3BB3F5167FA8BF4FF4167323EAE37344
:10234000DB0085FB0374DB17C3EB242301339A42C4
:10235000B8BF0B603C4B8B42E4D100233B4FDFF80E
:102360000091019302934FF0FF0B019B3868C3F378
:10237000C70A029BDB000025009300281DDD009B9F
:102380005E19F600002401E0A04216DDE3B2072B3F
:1023900004F101048DF81CA08DF81DB08DF81EB05D
:1023A000F2D8334407A859F8231001EB4101414406
:1023B00001F020FF3868A042E8DC0135082DDCD1AF
:1023C000019B029ADC330132B3F5DC6F0193029278
:1023D00007F10407C9D11E4E3368DB071BD51D4D1D
:1023E0001D4C2B68079394E80600079B5B1A9342E9
:1023F0000ED32B680693069B039A236052F8043F82
:10240000012BC4BF03F1FF3313600F4B9342F5D18F
:1024100009B0BDE8F08F304604F0AEFD0D4D0E4C16
:102420000028DED02B680593059B236032233046BD
:10243000636004F0A7FDD4E72855FF1F3815FF1F80
:10244000A454FF1F37800B6D4855FF1F2C55FF1FED
:10245000D039FF1F8493FF1F5076FF1FAC56FF1F1C
:10246000F421FF1F0138F0B4112824D8DFE810F060
:1024700012003B00470056006200690075008400AE
:102480009000A500AD00BC00C700D900E200EA0042
:10249000F1002500734B744A1B68744D744C7549E8
:1024A000136001200022072B2A602260086015DDDE
:1024B000714B00221A70F0BC70476A4B6A4E1B6861
:1024C0006A4D6B4C6B49C3F10E0701224FF0FF3090
:1024D000152B37602A6022600860E9DC664B012218
:1024E0001A70F0BC70475F4B5F4E1B685F4D604CCD
:1024F0006049C3F10807002201203760D3E7594B38
:10250000594A1B68594C5A485A4913600125002200
:10251000072B256002600A60CADCDFE7514B524E90
:102520001B68524C52485349C3F108070125002249
:102530003760EDE74B4B4C4A1B684C4D4D4C4C49BA
:10254000AEE7484B484E1B68484D4A4C4849C3F1DA
:102550000807002201203760A5E7424B424A1B686A
:10256000424D434C43491360002001220E2B2A6048
:10257000226008609CDCB1E73A4B3B4E1B683B4D48
:102580003B4C3C49C3F10F07012200203760EDE7C7
:10259000344B35491B68354D3548364AC3F107077A
:1025A0004FF0FF3601240F600E2B4FF000012E601C
:1025B000046011603FF77CAF90E72A4B2A491B6803
:1025C0002A4D2B482B4ADF1FEAE7264A264B126882
:1025D000264C274827491A600123152A23600360E7
:1025E0000B603FF765AF79E71E4B1F4D1A681F4C14
:1025F0001F482049C2F1150601232E60EDE7194B53
:10260000194E1B68194C1A481A49DF1F01224FF056
:10261000FF35152B3760256002600A603FF748AF31
:102620005CE7104B104E1B68104C11481149C3F168
:102630000E07EBE70B4B0C4E1B680C4D0D4C0C4979
:10264000DF1F42E7074B084E1B68084D094C08493D
:1026500039E7044B044E1B68044D054C0549DF1F48
:1026600033E700BFD474FF1FB874FF1F0C3AFF1F7D
:102670004C55FF1FE454FF1FB074FF1F3A493B4AFB
:102680000B78106883F00103421E0B70092A5AD898
:10269000DFE802F01B21282F363D444B5205344918
:1026A00034480B8803EB432203EB820303F55853B2
:1026B00019339BB203EB1322D2B202EBC202D21146
:1026C0000132D2B20B8002607047002B294B08BF49
:1026D000022018607047002B264B14BF03220422EF
:1026E0001A607047002B234B14BF052206221A6084
:1026F0007047002B1F4B14BF072208221A60704737
:10270000002B1C4B14BF09220A221A607047002BB1
:10271000184B14BF0B220C221A607047002B154B6C
:1027200014BF0D220E221A607047002B114B14BFEC
:102730000F2210221A607047002B0E4B14BF11227B
:1027400012221A6070470A490A480B8803EB432299
:1027500003EB820303F5585319339BB203EB1322A7
:10276000D2B202EB8202AAE7643AFF1FF021FF1FF8
:10277000AE15FF1FA415FF1F2DE9F041664B674AF8
:102780001B68674FD35C674E022B84B07CD0664BCE
:102790001868FFF767FE337864498DF80C3003A89A
:1027A000FF238DF80D308DF80E3001F023FD3478C5
:1027B0005F4B604A604961481B681268096800689D
:1027C0000134E4B200943470FFF7EAF94EA3D3E980
:1027D0000023D7E9000107F0F7F8002200230446A0
:1027E0000D4607F015FD002840F08B800022544B69
:1027F0002046294607F02AFD00283CD15149C7E967
:102800000045481C01F5706710F8013CC3EBC30399
:1028100003EB43131B1200F8013C4A788B78C2EBA0
:10282000C202C3EBC30302EB421203EB43131212C7
:102830001B124A708B7003318F4200F10300E3D109
:10284000DFF81481D8F80070384607F009FA02461C
:102850000B462046294607F0DBFC78B13A4933782D
:102860000A680333013201270A603370C8F8007028
:1028700004B0BDE8F0810024314DBFE70137C8F84E
:10288000007004B0BDE8F081D7E9004520A3D3E98A
:1028900000232046294607F049FA024620462B4CE1
:1028A0000B46294607F08EF82388294DDFF898E07B
:1028B0002A7803EB432C03EB8C0303F558531933AD
:1028C0009BB2C7E9000103EB132182F001023170D2
:1028D000002123802A70CEF800107AB103EB432246
:1028E00003EB820303F5585319339BB203EB132216
:1028F000C2F3811217492380931D0B60FFF7BEFEC0
:1029000045E70024002579E7000000E051B8BE3F0C
:10291000000000403333EB3FF829FF1FE039FF1F71
:102920006015FF1FA075FF1FA415FF1F6C8DFF1FF3
:10293000B874FF1FE454FF1F4C55FF1F0C3AFF1FD4
:1029400000005440AC65FF1FD474FF1FAE15FF1F7D
:10295000F03FFF1FF021FF1F5876FF1FFFFFFFFF13
:102960002DE9F047DFF868A185010AEB050488B07E
:1029700094F83D308BB9A06807F072F9D4E9066786
:102980008046894602460B463046394607F040FCF1
:1029900000285BD108B0BDE8F087636B226B9342DF
:1029A00004DA0133636308B0BDE8F087002646A36C
:1029B000D3E90023D4E90A01666307F005F8064667
:1029C0000F465AF80500C4E90A6707F049F9CDE94E
:1029D0000401606807F044F9CDE90201A06807F03E
:1029E0003FF9CDE90001206A257B07F039F9002283
:1029F00080468946304B3046394607F097F9024603
:102A00000B464046494606F0DFFF07F067FCFF2310
:102A10008DF81C0047EC136B9DED002B9DED021B08
:102A20009DED040B07A89FED224B8DF81D308DF80E
:102A30001E50FFF7FDF8E368012BABDDA26B9B1A7C
:102A400083F30803E36008B0BDE8F08732463B46F5
:102A50004046494606F0B6FF0022184B07F090FAB0
:102A600032463B4606F0B0FF63685AF80550144FF3
:102A7000144EC4E9060103EBC50507F007FC00EBA3
:102A8000C500226A57F820108DF81C2001EB410187
:102A90003222FF23314407A88DF81D208DF81E3007
:102AA00001F0A8FB08B0BDE8F08700BFAFF30080DD
:102AB000000000000000F03F0000244000005940EA
:102AC000F421FF1FAC65FF1F000000A09999C93FCA
:102AD000E83AFF1F2DE9F04FAA4BAB4A1B68D35CC5
:102AE000022B85B000F0BF800025A84C2E4606E0E2
:102AF00084F83C600135142D04F1400413D094F89F
:102B00003C10A34B00220029F4D0D4E90A0107F0BD
:102B10009DFB0028ECD128460135FFF721FF142D3D
:102B200004F14004EBD19B4B00939B4DDFF874A262
:102B300000230193009B994A1B6AB3F5617FA8BFEC
:102B40004FF4617323EAE37303EB43035B0082FBFF
:102B5000032C9C44DB17C3EB6C232B60002B56D05B
:102B6000019ADFF84892DFF84882D410A0341A4660
:102B7000E4B24FF0000BFF276426B9F800308DF85F
:102B80000C4003EB432103EB810101F5585119314E
:102B900089B201EB412301EB830303F55853193349
:102BA0009BB203EB432E03EB8E0E0EF5585E0EF137
:102BB000190E1FFA8EFE01EB112103EB13230EEB0E
:102BC0001E20C1F34211C3F3421303EBC103C0F350
:102BD000C01101EBC30306FB02F258F82310704B3F
:102BE0008DF80D7083FB0203D217C2EB630201EB79
:102BF00041016432514403A88DF80E20A9F800E089
:102C000001F0F8FA2A680BF1010B5A45B5DC019B7B
:102C1000009A8C330832B3F50C7F0193009289D16E
:102C2000604C651C04F5706615F8013CC3EB83121B
:102C3000C3EB82031B1205F8013C6278A378C2EB58
:102C40008210C3EB8311C2EB8002C3EB810312122B
:102C50001B126270A3700334A64205F10305E3D191
:102C600005B0BDE8F08FDFF84CA1DFF84C91474E7E
:102C700015274FF00008CAF80070C9F800703446F4
:102C800045460FE094F83D10474B002229B9D4E99E
:102C9000060107F0D1FA002863D10135142D04F1A3
:102CA00040040BD094F83C30002BEBD12F4601357B
:102CB000142D4FF0010804F14004F3D1B8F1000FD6
:102CC0005DD13A49D9F800000B8803EB432203EBAE
:102CD000820303F5585319339BB203EB432203EBF2
:102CE000820202F55852193292B202EB422402EBF0
:102CF000840404F5585403EB132302EB12228001E1
:102D00001934DBB2C2F38112A4B2023203EB8303A3
:102D1000325003EB8303064404EB14229B11C2F3ED
:102D200081124FF000084FF000094FF0C80E023238
:102D3000062709253362052001230C800021C6E9FE
:102D40000689C6E90A89C6F80CE07260B760756149
:102D5000B06386F83C3033637363316186F83D10AD
:102D6000C2E6B8F1000F07D106EB85160123CAF8B9
:102D7000005086F83D30B7E6C9F80070F4E7C9F8AE
:102D800000709EE7F829FF1FE039FF1FE83AFF1F98
:102D900000002440A454FF1F802AFF1FAF527991E6
:102DA00067666666AC65FF1F00000840AE15FF1F32
:102DB000F421FF1FFC29FF1F243AFF1F70B5624C4E
:102DC0002378612B23D0622B49D0662B58D0692BF6
:102DD00000F09F806D2B5AD06F2B00F09E80732BDC
:102DE0002DD0742B6FD0782B69D0792B7BD07A2B98
:102DF00040F09F80554B60781870A178E278597048
:102E000018469A7007F0E0FA514B187070BD4F4B9E
:102E10006078A178E2781870184659709A7007F0B7
:102E2000D3FA4C4A4C4B014611604C4803221A60BD
:102E300003F0E2FD494803F08FFD2378CCE7434BD4
:102E40006178454AA5781970E4785D7018460421C8
:102E50009C70116007F0B8FA414B187070BD3B4B85
:102E60003D4A61781970A678E5785E7018460421AD
:102E70009D70116007F0A8FA3A4A23781070ABE70A
:102E8000354B394A1968116000221A6070BD2F4B0A
:102E90006078A178E2781870184659709A7007F037
:102EA00093FA324B2C4A1860022319462B481360C0
:102EB00003F0A2FD294803F04FFD23788CE7264B51
:102EC00001221A6070BD214B6178234AA5781970E0
:102ED000E4785D70184604219C70116007F074FA64
:102EE000234B187070BD194B6078E278A178187088
:102EF00018469A70597007F067FA1E4B1E4C1860FE
:102F000006F0AEFE00221D4B07F03AF8C4E90001BE
:102F100070BD1B4B00221A7070BD134C0F48216806
:102F200003F06AFD0D4803F017FD0B4B22681A6091
:102F300070BD702B06D1054B6078A178E2781870CF
:102F400059709A7070BD00BF0040FF1F203AFF1FEC
:102F50006815FF1F608DFF1F3415FF1F4417FF1FEB
:102F6000233AFF1F6915FF1F6C3AFF1F9815FF1FBB
:102F7000A015FF1F8839FF1F9015FF1F0000594043
:102F80008C15FF1F38B5084C251D14F8010B05F0F2
:102F90006DFBAC42F9D1054803F0DEFCFFF70EFFF4
:102FA000034B00221A7038BD0040FF1F4417FF1F5B
:102FB000A056FF1FF8B5124E124D134F04F084FABD
:102FC00000B9F8BD3478002CFBD104F08DFA2B78D1
:102FD000C0B23BB13E280D4B09D01A78511CB854F1
:102FE0001970EBE73C28E9D101232B70E6E7074B8A
:102FF0002C7019781C7001227C543270DEE700BFFF
:10300000A056FF1F0876FF1F0040FF1FE83FFF1F6D
:103010002DE9F043DFF86C90DFF86CC0D9F8008040
:103020004FF0000E08F14807A7F14000ACF1E006B0
:1030300065462EF00604A0F1080332462946012C0D
:103040000CBF0B60136001338342A1F10401A2F1B4
:103050000402F4D103F108008742A5F1200506F12E
:103060002006E8D10EF1010EBEF1080F03F148076A
:103070000CF5807CD8D108F50073C9F80030BDE8A4
:10308000F08300BFD839FF1FF022FF1F38B50F2192
:10309000434805F067FA434803F05EFC424801F0FC
:1030A000F1F9424801F0EEF9414801F0EBF94FF433
:1030B000FA6003F0BBFD11213E4805F053FA394890
:1030C00003F04AFC40F6354004F076F9642004F041
:1030D0006BF81B21384805F045FA324803F03CFCF8
:1030E000FFF796FF0B21354805F03CFA2D4803F019
:1030F00033FCFDF7A9FF1521314805F033FA2948C3
:1031000003F02AFC2F48036813F0010424D04FF485
:1031100080722D492D482E4C002300F085FE2D4B4A
:103120001B782370642004F03FF82046012100F052
:10313000A3FFC82004F038F80B21274805F012FA45
:10314000184803F009FC0F21244805F00BFA154834
:10315000BDE8384003F000BC03F00EFF0028D6D0D5
:103160001F491A4B08685C60FF2201255C619C6066
:103170009D741A735A739A73DA731A745A7460B11D
:10318000184A116801B18B60174913600D48196026
:1031900000229A6103F0F6FEB9E70B60F0E700BF8A
:1031A000E0AF00004417FF1FE475FF1FF075FF1F1D
:1031B000FC75FF1FF0AF000004B0000020B000005D
:1031C0002CB00000C821FF1F882AFF1FCC21FF1F41
:1031D000A48DFF1F6815FF1F44B0000050B0000011
:1031E000B48DFF1FC48DFF1F94AF00002DE9F04F79
:1031F0000026DFF8E0A0354FDFF8D48083B03546F5
:10320000FF24AAF5807B0BF12009032EDBF80010C8
:103210008DF8045011DD01F5007101EB41013944D5
:1032200001A88DF805408DF8064000F0E3FFDBF8BB
:1032300000108DF8045001F5407101EB4101394453
:1032400001A88DF805408DF8064000F0D3FF98F8EE
:1032500000101F4800F04EFE3C2003F0A5FF1B4A63
:10326000511C02F5706011F8013C03EB431E03EBA7
:103270004E03C3EB83031B1201F8013C92F801E0FB
:1032800093780EEB4E1C0EEB4C0E03EB431C03EB42
:103290004C03CEEB8E0EC3EB83034FEA2E2E1B1294
:1032A00082F801E093700332904201F10301DAD118
:1032B0000BF1040BCB45A8D1DA45A4D10136082E79
:1032C0000AF5807A9DD103B0BDE8F08F882AFF1FF0
:1032D000A48DFF1FF422FF1F2DE9F047DFF8B48013
:1032E000DFF8B490D8F80030FF2B3AD013B9D9F8F2
:1032F000002092BB204B214D1B78214A214C52F8D3
:103300002330214E98472A78204B53F82230984793
:1033100098F800A004F570672546314628465246C5
:10332000033500F039FFBD4206F10306F5D1D8F8A8
:103330000030174DC3F1FF03DEB229462046324666
:10334000033400F029FFBC4205F10305F5D1D8F89C
:103350000030C9F80030BDE8F087074A074D137008
:10336000CBE7D9F80030054DFF2B01D000232B709F
:10337000014B1B78C1E700BF7C2AFF1F9875FF1F18
:10338000A815FF1F882AFF1FAC65FF1F9C15FF1F94
:10339000AC56FF1FEC3FFF1FA456FF1F2DE9F04165
:1033A0000D4CDFF840800D4F0D4E82B004F5706576
:1033B00098F800103A7833788DF8051001A8214666
:1033C00003348DF806208DF8043000F013FFAC4272
:1033D000EED102B0BDE8F081882AFF1F6915FF1FFA
:1033E000233AFF1FA015FF1F054B1B68012B04D0BC
:1033F000022B01D1FFF7FABE7047FDF73FB800BFBF
:10340000608DFF1F464B1B68013B70B5082B06D82B
:10341000DFE803F00A1B2C3D4E705F81060070BD93
:10342000BDE87040FFF7E2BE3E4C3F4DFEF70CFD9D
:1034300004F5706629462046FF22033400F0ACFEF6
:10344000A64205F10305F5D170BD364C364DFDF7AA
:1034500067F904F5706629462046FF22033400F020
:103460009BFEA64205F10305F5D170BD2D4C2E4DF6
:10347000FDF748F804F5706629462046FF2203341C
:1034800000F08AFEB44205F10305F5D170BD254C6C
:10349000254DFEF71BFF04F5706629462046FF22E6
:1034A000033400F079FEB44205F10305F5D170BD97
:1034B0001C4C1D4DFEF7D8FD04F5706629462046CC
:1034C000FF22033400F068FEB44205F10305F5D194
:1034D00070BD144C154DFFF74FF904F57066294681
:1034E0002046FF22033400F057FEB44205F10305E5
:1034F000F5D170BD0B4C0D4DFFF7ECFA04F570667D
:1035000029462046FF22033400F046FEB44205F16E
:103510000305F5D170BDBDE87040FCF7AFBF00BF3B
:103520009815FF1F882AFF1FAC56FF1FAC65FF1FB1
:1035300070B51A4B1B6882B0042B06D8DFE803F085
:10354000072125290300FFF729FF02B070BD144CA5
:10355000002504F57066214601A803348DF8045057
:103560008DF805508DF8065000F044FEB442F2D1BB
:1035700003210C4804F0F6FF0B4803F0EDF902B00C
:1035800070BDFFF7A9FE02B070BDFFF73BFF02B0B0
:1035900070BDFFF729FF02B070BD00BF3415FF1FDB
:1035A000882AFF1F60B000004417FF1FF8B5FFF71F
:1035B00001FD3D4B1B78002B44D13C4C2378002B64
:1035C00046D13B4D3B4E33782B703B4800F082FF99
:1035D00018B13A4A136801331360394800F07AFF92
:1035E00018B1384A136801331360374800F072FF8E
:1035F00018B1237883F001032370FEF735F9FFF744
:1036000097FF324B03F5407493F8000393F80113CE
:1036100093F8022383F8000983F8000C83F801195A
:1036200083F8011C83F8022983F8022C0333A34298
:10363000EAD1052003F0B8FD29781D48BDE8F8401F
:1036400000F058BC194CFFF79DFC2378002BB8D034
:10365000162003F029FBC0F57F700330652303FBC0
:1036600000F3002BB8BF03F2FF33124E104D184F7A
:10367000C3F387230F2033702B7003F015FB40F248
:10368000E93303FB00F00028B8BF00F2FF308012DE
:1036900006F0E6FA0F4B002206F072FC2378C7E929
:1036A0000001002B91D18EE7A056FF1F8C15FF1F44
:1036B000A48DFF1F6815FF1FE475FF1F3415FF1F42
:1036C000F075FF1F9815FF1FFC75FF1F882AFF1F4D
:1036D0009015FF1F000059402DE9F043032185B0EC
:1036E0008F48904F904CDFF8A08200F0BFFE04217D
:1036F0008E4800F0BBFE0C218D4800F0B7FE3A6802
:10370000C4F800800023637223612372E3600AB966
:10371000FFE01A465369002BFBD154610026854D0A
:10372000854B81486661A680E680A672236001F021
:10373000B9F9042005F12802334631462E72EE60B5
:10374000C5F8008068722A612E4600E0326942F8AE
:1037500023106A7A774801339A42F7DC3A68714B52
:103760000AB9D8E01A465369002BFBD15561734E54
:10377000DFF818C2C6F8008000214FF480304FF007
:10378000010E06F5A25286F809E00B463261696126
:10379000A980E980A9723172F160B646C5F800C00F
:1037A000A861E8612862686201E0DEF8102042F852
:1037B0002310727A614801339A42F6DC3A68594B19
:1037C0000AB9AAE01A465369002BFBD1566141F2AF
:1037D0003C4241F23D430027DFF8B4815849594843
:1037E000B754F7543A4601233160C6F818044FF431
:1037F00080617761B780F780B7725348DFF89491A2
:1038000005F0CEFE404688E8300088F8087088F859
:103810000970C8F80C7088F8107002F0D1FD4B4A9E
:103820004B49404606F0CAFDDFF86C81C9F80C70C0
:103830000123484689F8083089F8093089E83000C2
:1038400089F8107002F0BCFD404A4149414C48469D
:1038500006F0B4FD404688E8600088F8087088F8F3
:103860000970C8F80C7088F8107002F0A9FD374A8A
:103870003749404606F0A2FD374B384A1A603848AF
:103880000A221A7200F06CFD04F5A075204614346B
:1038900000F066FDAC42F9D1324B334C03F14001EC
:1038A00022680392039A43F8042B8B422E4AF7D1E5
:1038B00013680193019E136802932C4D2C4B029ABE
:1038C0002C492D481A602E60FDF760FB2B4B00221F
:1038D00003F5B45003F5347103F8042C03F8032CFA
:1038E00024339942F8D188420B46F3D1244B00226D
:1038F00003F5A06103F8042C03F8032C40338B423A
:10390000F8D123680093009A1E4B1A6005B0BDE8F9
:10391000F0833C6002E7186029E7186057E700BFB2
:10392000E475FF1FD492FF1FF039FF1FF075FF1FD2
:10393000FC75FF1FB03AFF1FB0B800000C40FF1F1E
:1039400088B00000A8B000005054FF1F3015FF1FC2
:10395000750900006055FF1F103AFF1F94B000006A
:10396000BC74FF1F1076FF1F8493FF1F842AFF1F64
:10397000AC74FF1F64B000002C3AFF1F0477FF1FD8
:10398000283BFF1FD439FF1F88AF0000BCB80000E0
:10399000402AFF1F542AFF1F682AFF1F08B5064A46
:1039A000064B12791A7003F0DBFB054A054B1060D9
:1039B00000221A7008BD00BF948DFF1F1F800040B9
:1039C000788DFF1F908DFF1F10B5044602F02AFE70
:1039D000204610BDF0B4064F064E074D074C398007
:1039E0009DF8101032602B602170F0BC704700BF52
:1039F000808DFF1F7C8DFF1F8C8DFF1F748DFF1F1F
:103A0000F8B5A24BA24E1C88306804EB4404E400D5
:103A10002246002106F0EAFF9E4B1868002800F0BD
:103A200003812246002106F0E1FF9B4B9B4F9C4DFA
:103A3000FF221A600121022003F08CFB01210E20DD
:103A400003F088FB0121072003F084FB01210820FB
:103A500003F080FB0121062003F07CFB01211420F0
:103A600003F078FB0121152003F074FB05200121F0
:103A700003F070FB8B4B8C4A1B788C49DFF858C2E3
:103A800003F0F003102B4FF0080E4FF000030CBFB3
:103A900095204A2013603B600860C2F800E0A1F561
:103AA000DD210CBF4FF0230E4FF0110E4FF06902D5
:103AB000CCF800207E482A60A1F5FC61C7F80CE034
:103AC000DFF808E27B4A0CBF6725332505600A60F2
:103AD000DEF80020784DD371022191717748D188AA
:103AE00010601561D58B938021F4E06121F007010E
:103AF000D360938293612F044FF001039360D180D0
:103B000000F19580B4F5004FA1B2C0F28A80958B88
:103B10006B4FD6F800C03B686A4EADB245F0080561
:103B2000958300250222DD719A71C3F800C0DA88FE
:103B3000D983D9821E616642DE60DE8B9D8222F4CB
:103B4000E0629D61012522F007029D809D603504A1
:103B5000DA8000F18980B4F5004F5FDB9A8B5A4D13
:103B600092B242F008029A832B684B4A18600220F6
:103B700098710020D8711A61DA88988022F4E06286
:103B800022F00702D86098829861D88BDA800122EF
:103B90009A6002045AD4B4F5004F3CDB9E8B9EF829
:103BA00004404A4A46494848B6B246F008069E8351
:103BB0009E8B04F18044B6B204F5043446F002064C
:103BC0009E830026B123267023703B7903F1804346
:103BD00003F504339E241E701C702B7903F180437F
:103BE00003F504339F241E701C7002F037FD2A7900
:103BF0003748384D53119B0003F1604302F1100424
:103C000003F5614302F01F02012101FA02F240F8BC
:103C100024501A60F8BDD983D982BFE7D983D982ED
:103C20009CE7D183D18272E732681A60FDE6B4F571
:103C3000007F28DAD38BA1B203F47E430B43D383F6
:103C4000D38A03F47E430B43D38260E7B4F5007F4D
:103C5000A4DADA8B02F47E420A43DA83DA8A02F4C7
:103C60007E421143D98299E7B4F5007FBFF676AF63
:103C7000DA8B02F47E420A43DA83DA8A02F47E4265
:103C80000A43DA826AE7A1B241E700BF808DFF1FD5
:103C90007C8DFF1F8C8DFF1FC8F00F4004800B40F0
:103CA00014800B40748DFF1F00800B4008800B4078
:103CB00018800B4000030100C4F00F40AC15FF1F3B
:103CC0009C8DFF1FC0F00F40948DFF1F848DFF1F40
:103CD0000010FF1F9D3900000C800B40F8B52C4CE4
:103CE0002378002BFCD12B4A2B4B1168186881429A
:103CF00006D02A4B1A8802EB4202D20003F05AF88F
:103D0000274D03F02DFA2B68C01AB0F5967FF8D333
:103D100024482549254A282303600B60136872B69E
:103D200010390A689342FCD221490A689342FCD3B5
:103D30001F4802681E499342FBD81E4E1E4D1F4865
:103D400037792E79174BDFF87CE0174A002505609C
:103D50000D60012121701A4D28244FF48061CEF8A6
:103D600000101C606921D3F800E02D7919606FF410
:103D70007F6EA3F52F23734414600824D2F800E06B
:103D800011601F701E701D70046062B6F8BD00BF28
:103D9000908DFF1F8C8DFF1F7C8DFF1F808DFF1F5F
:103DA000788DFF1F0C800B4014800B4018800B4057
:103DB00004800B40848DFF1F9C8DFF1F00800B40F3
:103DC000948DFF1FA09004402DE9F041DFF854804E
:103DD000104D114C114F124E4046002102F0BCFB19
:103DE0002A462146404606F0E9FA3846002102F00C
:103DF000B3FB2A462146384606F0E0FA3046002159
:103E000002F0AAFB2A4621463046BDE8F04106F002
:103E1000D5BA00BF3015FF1FC93900009C8DFF1FA8
:103E2000948DFF1F848DFF1FF8B51E1E0368044686
:103E3000CCBF02EB420500250F469B68D8BF164653
:103E400098477A19236862605B690A4A66619342FF
:103E500001D12046F8BD204698470028F9D0064AEF
:103E6000064B516893FBF0F0884238BF084650601B
:103E70002046F8BD6D040000A48DFF1F40420F00D6
:103E8000084B10B51C685CB163680021184623B16B
:103E9000626902EB420206F0A9FDA468002CF3D18E
:103EA00010BD00BFB48DFF1F70B40F4C2268531CAF
:103EB0008A4283B0236013DB0C4D0D4A29680191BF
:103EC00001992D6800951668009D15604FF47A726F
:103ED0000025891B02FB03F32560B3FBF1F343804C
:103EE00003B070BC704700BFB88DFF1F8493FF1FE5
:103EF000C08DFF1F2DE9F04F43682D4C83B006465F
:103F00008946002B4BD103F02BF9F36820601BB1DD
:103F10004846B16898478146264B1C680025002C0E
:103F200036D07388A77C61686269632B236898BF69
:103F3000A574D3F804808DF804508DF805508DF8E1
:103F40000650B9F1000F1CD004F10B030DF1040E63
:103F500004F10E0C13F801BFBBF1000F0DD093F864
:103F600003A00AF101000BFB0000BAF1000F04D01E
:103F700009FB00F0000C8EF8000063450EF1010E05
:103F8000E8D1204601ABC047A774A468002CC8D173
:103F900030461921FFF788FF03B0BDE8F08F03F02A
:103FA000DFF822687368801A9842AAD3ABE700BF93
:103FB000BC8DFF1FB48DFF1F2DE9F04F43682C4CC3
:103FC00083B006468A469146002B49D103F0C8F8D3
:103FD000F36820601BB14846B16898478146254B7D
:103FE0001C680025002C34D07388A77C6269632B81
:103FF000236898BFA574D3F800808DF804508DF81D
:1040000005508DF80650B9F1000F1AD004F10B03DA
:1040100001A804F10E0E13F801BFBBF1000F0CD084
:1040200093F803C00CF101010BFB0111BCF1000F6F
:1040300003D009FB01F1090C0170734500F1010087
:10404000E9D1204601AB5146C047A774A468002CB3
:10405000CAD130461921FFF727FF03B0BDE8F08F22
:1040600003F07EF822687368801A9842ACD3ADE7FB
:10407000BC8DFF1FB48DFF1F10B5044682B051B137
:1040800000231A4601A98DF804308DF805308DF80B
:104090000630FFF791FF2046FFF7F2FE02B010BD99
:1040A00000207047044B0022FF204FF0FF311870B2
:1040B00099605A80DA607047A48DFF1F2DE9F04F98
:1040C0008B42099E52D396F800E01578777896F8DF
:1040D0000280547892F802C0C1EB030BC5EB0E0EC0
:1040E000C4EB070ACCEB08061FFA8BF24FEACE1E90
:1040F0004FEACA1AF601B2B30FFA82FB9EFBFBFE2F
:104100009AFBFBFA4FEA4E0E4FEA4A0A96FBFBFB7C
:1041100099424FEA4B0B1FFA8EFE1FFA8AFA1FFADA
:104120008BFB4FEA05254FEA04244FEA0C2218D8EE
:1041300001EB41070131C61989B24FEA25294FEA3F
:1041400024284FEA222C754454445A448B4200F8E8
:104150000790ADB286F80180A4B286F802C092B290
:10416000E6D2BDE8F08F4FF0010BC7E789463578FE
:1041700092F800E07478577896F802C092F80280BE
:104180001570194686F800E04B465470777082F837
:1041900002C086F802809FE722B3FF2A23D0F0B442
:1041A00004780E78437895B2A719D24306FB0576BA
:1041B000D2B204FB0264C4F3072404704C788678FE
:1041C0001F1904FB057403FB0243C3F30723437069
:1041D0008B78F11803FB051506FB0252F0BCC2F305
:1041E0000722827070470B7803704B7843708B788E
:1041F00083707047F0B4047846788278E00000F06D
:10420000F80000EB800303EB031303442506C3F31C
:1042100007235FD404F0400505F0FF0704F02004F5
:10422000002D46D104F0FF00002C6CD05533DDB2D8
:10423000AB243B46FF2E1CD0002E79D01CB106FBD0
:104240000444C4F307241DB106FB0555C5F3072537
:104250001BB106FB0333C3F30723F043C0B200FBDB
:104260000000C0F30720044405440344E4B2EDB267
:10427000DBB2FF2A18D012FB02F0003218BF012275
:1042800002EB102212F0FF0256D01CB102FB0444D4
:10429000C4F307241DB102FB0555C5F307251BB167
:1042A00002FB0333C3F307230C704D708B70F0BC1B
:1042B000704704F0FF075CBB00EBC00400EB440058
:1042C00000EBC0000412563BC4F1AB04DDB2E4B213
:1042D0003B46AFE704F0400707F0FF05E7B904F0FD
:1042E000200707F0FF04002F36D100EBC00300EBDE
:1042F000430000EBC000C0F30720C0F1AB05553010
:10430000EDB2C3B296E7DC43E4B21D46034691E743
:104310000024DD43EDB28DE704F0200404F0FF0536
:1043200094B903F15504E4B2C3F1AB03DBB281E706
:10433000FF231D461C469CE71546144613460C7089
:104340004D708B70F0BC7047A3F15604E4B20025A9
:10435000C3F15503DBB26DE7D8431C46C3B269E72E
:1043600000220021016042608260C26002617047E9
:1043700000230022026043608360C36003617047D2
:10438000026862B9D0ED017A80ED020A77EE807A98
:10439000012380ED030AC0ED017A03607047D0ED80
:1043A000027AB4EEE70AF1EE10FA2BD4D0ED037ADC
:1043B000B4EEE70AF1EE10FAC8BF80ED030A90ED03
:1043C000016A531C30EE066A012B80ED016A03601E
:1043D00017D907EE903AF8EE677A07EE102AC6EE84
:1043E000276AB8EE477A36EEC00A90ED046A67EEA7
:1043F000807A67EE807AC7EE876A76EE267AC0ED1D
:10440000047A704780ED020AD9E700BF036843B120
:1044100007EE903A90ED017AF8EE677A87EE270A78
:1044200070479FED010A70470000C07F08B5036820
:1044300013B99FED0D0A08BD07EE903A90ED047A8E
:10444000F8EE677AC7EE276A16EE900A05F01AFCB6
:1044500041EC100B05F080F951EC100B05F05EFFFC
:1044600000EE100A08BD00BF0000C07F30B4642514
:10447000012400224580047101704271826030BCC9
:10448000704700BF0078022102F064BE30B5104DC5
:1044900082682B6883B00093009B9A4203D903790A
:1044A000184603B030BD0446007802F045FE23797B
:1044B0009842F5D02A6801926188019A83F001033D
:1044C0000A44184601212371A260617103B030BD16
:1044D0008493FF1F10B50446FFF7D8FF20B9637916
:1044E00003B16071184610BD0023184610BD00BF0F
:1044F000F8B50021054601F035FF002800F0D08016
:1045000041F23C43EB5C072B00F2CA80DFE803F08A
:10451000C9D0D7DEE5ECF304D5F81C74C5F838042F
:1045200005F587643B1D224607F5827705F23C417D
:1045300033F8026B42F8046F9F42F9D1D5F820742A
:1045400005F5C7623B1D07F5827733F8026B42F829
:10455000046F9F42F9D1D5F8247405F638023B1D4B
:1045600007F5827733F8026B42F8046F9F42F9D166
:10457000D5F8287405F638223B1D07F5827733F805
:10458000026B42F8046F9F42F9D1D5F82C7405F6FE
:1045900038423B1D07F5827733F8026B42F8046F0F
:1045A0009F42F9D1D5F8307405F638623B1D07F506
:1045B000827733F8026B42F8046F9F42F9D1D5F845
:1045C000347405F581523B1D183207F5827733F8B4
:1045D000026B42F8046F9F42F9D105F59152031D19
:1045E000183200F5827033F8026B42F8046F834290
:1045F000F9D1D5F8180480B105F5886200F5006797
:1046000032F9043C30F9026B03FB06F3DB138742FB
:1046100022F8043C02F10402F2D105F5A250043064
:10462000384E04F09FFF05F2164705F1160054F8C6
:10463000041F21FB01F1B1FA81F336F81320B1FB1D
:10464000F2F31A445308B1FBF3F10B445B0820F872
:10465000023FB842EBD141F23D430122EA54D5F882
:104660001C0401F03BFED5F8200401F037FED5F81C
:10467000240401F033FED5F8280401F02FFE41F2A6
:104680003C430422EA5405F586610EC9D5F82C0492
:10469000C5F81C04C5F82014C5F82424C5F828342E
:1046A000F8BD41F23C430122C5F81C04EA54F8BDB0
:1046B00041F23C430222C5F82004EA54F8BD41F21D
:1046C0003C430322C5F82404EA54F8BD41F23C43BC
:1046D0000422C5F82804EA54F8BD41F23C430522FF
:1046E000C5F82C04EA54F8BD41F23C430622C5F853
:1046F0003004EA54F8BD41F23C430722C5F83404C3
:10470000EA54F8BDC0B80000002070470020704790
:10471000F8B5144C037A242908BFC2805B00012538
:104720000E462046C1F30721174684F83B3084F833
:104730005E5084F85D5001F03FFBF1B2204601F07D
:104740003BFBC7F30721204601F036FBF9B22046B8
:1047500001F032FB2946204601F09AFCB0FA80F0C5
:104760004009F8BD6016FF1F70B5012604460671AA
:10477000344801F035FB052002F016FD204644F2D6
:1047800060023021FFF7C4FF0546002858D06C2294
:1047900026212046FFF7BCFF4FF4F972282120465E
:1047A000FFF7B6FF40F622722C212046FFF7B0FF3C
:1047B00044F246423C212046FFF7AAFF40F237125E
:1047C00024212046FFF7A4FF44F2FF0230212046B7
:1047D000FFF79EFF732202212046FFF799FF4FF457
:1047E000C87002F0E1FC41F61D522E212046FFF771
:1047F0008FFF042211462046FFF78AFF4FF498727C
:1048000006212046FFF784FF10220A212046FFF7E9
:104810007FFF00220E212046FFF77AFF43F63C423D
:1048200010212046FFF774FF47F67F7222212046B1
:10483000FFF76EFF362224212046FFF769FF6672DC
:10484000284670BD6016FF1F10B5044619B1012936
:1048500011D0002010BD55222021FFF759FF00285C
:10486000F7D0E28842F00402204692B22421BDE84B
:104870001040FFF74DBF40F273122A21FFF748FFA7
:104880000028E6D0882220212046FFF741FF00289B
:10489000DFD0E288204622F004022421BDE8104047
:1048A000FFF736BF38B50546F1B1802903799ABFC5
:1048B000C1F1800444EA0424002433B92246284686
:1048C0002221BDE83840FFF723BFC288002322F031
:1048D000100203712421FFF71BFF224628462221E4
:1048E000BDE83840FFF714BF0123037147F67F721C
:1048F0002221FFF70DFFEA8842F01002284692B20B
:104900002421BDE83840FFF703BF00BF9FED057AC3
:10491000DFED057AE0EE077AFCEEE77A17EE901A03
:10492000FFF7C0BF00000143EE7CFF3E024A03498F
:10493000034805F043BD00BF3015FF1FC939000013
:10494000C88DFF1F38B5074D074C08482A46214639
:1049500005F034FD2A4621460548BDE8384005F0FB
:104960002DBD00BF3015FF1FC9390000D08DFF1FBE
:10497000D88DFF1F1A4A1B4B11681B48096970B478
:1049800099421279027008D2184A12782AB3184A4A
:104990000121116003F5807402E01C46A3F58073C9
:1049A000144A154912680D68AAB1A5B1134E308892
:1049B000402810D841000A444030294402320231D4
:1049C000308033F9040B22F8020F9C4233F9020CB9
:1049D00021F8020FF5D870BC704703F58074DFE74B
:1049E000EC8FFF1FE48EFF1F1F800040E48FFF1F2E
:1049F00008E200E0F48FFF1FE88FFF1FE08DFF1F2C
:104A0000F8B5064601F016FC0446E8B101F012FCC8
:104A1000054600283AD072B61F4B1A887F2A19D84B
:104A2000002C31D01D490A6842B162B6204601F01F
:104A300055FC2846BDE8F84001F050BC18480C6011
:104A40001A80056062B6F8BD054672B6124B1A8828
:104A50007F2AE5D9114A12491768146000220C68B0
:104A60001A800D6062B63946304601F061FC384666
:104A700001F034FC30462146012201F059FC204669
:104A8000BDE8F84001F02ABC62B6F8BD204601F04E
:104A900025FC2C46BFE700BFE08DFF1FF48FFF1FF2
:104AA000E88FFF1FF8B5284C284E294F294D204686
:104AB000012101F051FD00F02BF9274B274A28482E
:104AC0004FF480611960236800211A60998022796F
:104AD0001E6102F1804240F20116DE809F6102F504
:104AE00004324FF480760627DE82DE839F8302261F
:104AF0008C27D9609E609E82117017702B68194EAA
:104B000043F0124343F001032B600368164D43F05A
:104B10001043036001F0C6FC2279144B144C18704A
:104B200053119B0003F16043174602F1100003F597
:104B3000614302F01F020121377001FA02F245F8C9
:104B400020401A60F8BD00BFEC8FFF1FE48DFF1FEF
:104B500000FEFFFF80F0024014B00440A2F00240CB
:104B600000F002401B8000400010FF1FE48FFF1F79
:104B700075490000024A0349034805F01FBC00BF05
:104B80003015FF1FC9390000EC8FFF1F024A03498F
:104B9000034805F013BC00BF3015FF1FC9390000E2
:104BA000F88FFF1F024A0349034805F007BC00BF06
:104BB0003015FF1FC93900000090FF1F024A03494A
:104BC000034805F0FBBB00BF3015FF1FC9390000CB
:104BD0000890FF1F2DE9F8434FF00008064600F14A
:104BE0001805474641463046002F4FD001F0BAFB2A
:104BF000F0B12C68B4F5803F07F1040100F1040E18
:104C000007F5827C27D05EF8042B34FB02F334FBDB
:104C100012F903F30F0209F30F03C2EA03430A6810
:104C200093FA12F341F8043B8C45ECD801F056FBA3
:104C300008F10108B8F1040F05F10405D2D1002FE5
:104C400040D030463946002201F072FB3846BDE8BC
:104C5000F84301F043BB07F10C0100F10C0451F8DB
:104C6000083C54F8082C93FA12F341F8083C54F825
:104C7000042C51F8043C93FA12F38C4541F8043C9F
:104C800004F1080401F10801E9D8CFE701F076FB4F
:104C900007460028CCD02868B0F5803FC8D0391D21
:104CA00007F582740B6830FB03F230FB13F302F359
:104CB0000F0203F30F03C2EA034341F8043B8C42A3
:104CC000F0D8B5E7BDE8F883024A0349034805F088
:104CD00075BB00BF3015FF1FC93900001090FF1FC2
:104CE000024A0349034805F069BB00BF3015FF1FA6
:104CF000C93900001890FF1F024A0349034805F014
:104D00005DBB00BF3015FF1FC93900002090FF1F99
:104D1000284B29491A68294842F400421A600A6857
:104D200042F002020A601A6842F002021A60036846
:104D3000002B3EDB224B1B68002B3ADB214A4FF055
:104D4000804313601368002BFCDBF0B51E4C1F483A
:104D5000DFF8A8E01E491F4B1F4A204F204E214D6F
:104D60004FF2FE0CC4F800C0002404600120CEF80D
:104D70000000DFF88CE0C1F800E04FF480311960EA
:104D8000194B1360DFF87CE0184A3A603460286001
:104D900000F18E40CEF80000154CB9671548164951
:104DA00046F8503C4FF4C0632A61236003600B60F7
:104DB000F0BD70473C8004404080044000F0024059
:104DC00080F0024000F1024004F1024060F0024035
:104DD00008F002400CF0024010F0024014F00240D3
:104DE000E0F0024084F002401B1F0100001F1F1F63
:104DF00008B004400CB0044018B0044004F0024075
:104E00000100000788F00240024A0349034805F008
:104E1000D5BA00BF3015FF1FC93900002890FF1F09
:104E2000024A0349034805F0C9BA00BF3015FF1F05
:104E3000C93900003090FF1F024A0349034805F0BA
:104E4000BDBA00BF3015FF1FC93900003890FF1FE1
:104E5000024A0349034805F0B1BA00BF3015FF1FED
:104E6000C93900004090FF1F024A0349034805F07A
:104E7000A5BA00BF3015FF1FC93900004890FF1FB9
:104E8000024A0349034805F099BA00BF3015FF1FD5
:104E9000C93900005090FF1F10B4047F4160022CFC
:104EA000C26003D05DF8044B01F054BC83685DF828
:104EB000044B1847F0B4464B464A986B5C6B01793B
:104EC0001170454922790A701A6B00790870002A1E
:104ED00046D05968C9688A423ED82168CC8B2404E0
:104EE00002F1FF3065D4C0F30E00C883C88B80B2D6
:104EF000C882996B0968C88B000452D4C2F30E00B3
:104F0000C883C88B002480B212F1FF32C88218BF58
:104F100001221C63596B2E4809680D6800F12C04AE
:104F2000A54236D00068C46814F0804F0C680D6844
:104F300015BF248824780235013544F000440D6003
:104F40004463996B254B09791970214912B14A6B59
:104F500012791A70F0BC7047521A1A630122D9E70D
:104F6000D86B196805681E4C0A63CC62CC682D6842
:104F70001C4E24F080440327B542CC6083F82D708A
:104F80001FD1037F4260022BC2601ED0F0BC01F033
:104F9000E1BB016890F82C00CC6840F00040486309
:104FA000CFE7CC8BC2F3080004F47E442043C883CF
:104FB000A7E7CC8BC0F3080004F47E442043C883E9
:104FC00094E72B461146F0BC18478368F0BC18479D
:104FD000B015FF1F1F8000401C8000401B80004058
:104FE00000000FFF994E000000207047704700BF7F
:104FF000064B074ADA620221002259609A7083F850
:10500000242083F8302083F8322070475890FF1F07
:10501000A0B900002049214A0B6843F080030B60CF
:1050200011461368DB07FCD40B689B07F9D41C4BB3
:1050300030B44FF08072184D186000E0A2B12968BA
:10504000184B154C0B40013A002BF7D062B1012BE5
:105050000AD1236813F0800F23680FD043F00113A7
:105060002360032030BC70470B4A136843F470235D
:1050700043F001031360012030BC704713F480300B
:10508000236804D043F0011323600520F4E743F0C4
:1050900001032360F0E700BF30100B4024100B40E9
:1050A0000C100B4001000E0070B50D4D0D480E4E5A
:1050B00000232B60FFF7AEFF40F2E734034632686F
:1050C000520701D507480BB1184670BD2B60FFF79A
:1050D000A1FF013C0346F2D1002808BF052070BDA6
:1050E00008100B400000DB0C24100B40F8B5384BC7
:1050F0001A780AB10320F8BD5B78064603B9490265
:10510000344D354C354B36484FF6FF774FF48132EE
:105110002F6021601A60FFF77DFF0028EBD1314B33
:1051200031491B681C3406F1400206F510702B68EB
:10513000284F43F0200613F4E00F2E603ED1236881
:105140001E05FCD50B6842F8403C0B6842F83C3C1D
:105150000B6842F8383C0B6842F8343C0B6842F864
:10516000303C0B6842F82C3C0B6842F8283C0B683A
:1051700042F8243C0B6842F8203C0B6842F81C3C87
:105180000B6842F8183C0B6842F8143C0B6842F874
:10519000103C0B6842F80C3C0B6842F8083C0B686A
:1051A00042F8043C40328242C1D1002009490B68D8
:1051B000084A9B07FBD50D4B1360F8BD43F4E00391
:1051C00043F020033B60FFF76FFF0120EEE700BFD5
:1051D000AC90FF1F30100B4008100B4004100B4028
:1051E00010003A1110100B4020100B40220000015B
:1051F000F8B52B4B1A780AB10320F8BD5B7804464A
:1052000003B94902274D28482A68284B2A604FF4E1
:105210008132016026481A60FFF7FCFE0028ECD1BD
:10522000244B254E1B68294604F500770B681D4A60
:10523000D806FBD52B6813F4E00F1AD104F1400215
:1052400054F8043B3360A242FAD10B68DFF854E013
:1052500043F010030B600B6813F4E00013D1974286
:10526000E4D110490B680F4A9B07FBD5134B136021
:10527000F8BD136843F4E00343F010031360FFF735
:1052800013FF0120EDE7DEF8003043F4E00343F0C4
:105290001003CEF80030FFF707FF0120E1E700BF61
:1052A000AC90FF1F30100B4008100B4004100B4057
:1052B00000003A1810100B4020100B4012000001A3
:1052C00010B50121007801F031FF114A1378C3B104
:1052D0001049CB7A00241846147093B1DA0703D52D
:1052E0000D4AC869106018469C0703D50B4B0A6A23
:1052F000C87A1A60420705D4030702D5084B8A6AA8
:105300001A6010BD074B4A6AC87A1A60F4E700BFFA
:10531000C090FF1FB015FF1F00E100E004E100E0B6
:105320000CE100E008E100E0234B1A781AB10078A4
:10533000002101F0FBBE70B4204A2149D47A0968EB
:1053400001251D70002C26D072B6D47AE6072346BC
:1053500006D51C4DD3682E683340D3612B6023469D
:10536000A50706D5184D14692E68D37A3440146207
:105370002C605C0706D5154D54692E68D37A3440ED
:1053800054622C601B0705D5114C936925682B408E
:105390009362236062B61368DA688A4207D00D4CC4
:1053A0001C600D4AD96041F080441C611A6000788D
:1053B000002170BC01F0BABEC090FF1FB015FF1FE6
:1053C000BC90FF1F80E100E084E100E088E100E0A4
:1053D0008CE100E001403F0000003F80F0B4124843
:1053E000124A036882B016460093009F4FF00045B2
:1053F000FF24136843F480631360D5625463D36A57
:10540000002BFCDAB36BDBB2FF2B09D003680193EE
:10541000019BDB1B8B42ECD3002002B0F0BC704739
:10542000012002B0F0BC70478493FF1F00C002400F
:10543000F8B50D464FF4967116460446FFF7CEFFB9
:10544000284B1A684FF0004042F4806245F040015A
:105450001A60D8621A465963D36A002BFCDA2149D4
:1054600018204FF000470A6826FA00F342F48062E1
:10547000DBB20A60CF624B63CB6A002BFCDA0838E0
:1054800010F1080FEFD155B3082D0CBF8721FF2174
:10549000144B1A684FF0004042F480621A60D862E0
:1054A0001A465963D36A002BFCDA0E4A00271646C7
:1054B0004FF00045FF21136843F480631360D56209
:1054C0005163D36A002BFCDAB36BD8B21B06607051
:1054D00000D4F8BD0137B7F5807FECD1F8BD952138
:1054E000D6E700BF00C00240F0B41549154A0B686A
:1054F00082B016460093009F4FF00045FF241368CA
:1055000043F480631360D5625463D36A002BFCDAE2
:10551000B36BDBB2FF2B43700AD10B680193019B85
:10552000DB1BB3F5967FEAD9002002B0F0BC7047D0
:10553000A3F1FE00B0FA80F0400902B0F0BC704761
:105540008493FF1F00C00240F8B58378032B0E46FA
:10555000044618BF4E021546FFF7E6FE32461121FB
:105560002046FFF765FF18B92046FFF7BDFF20B9B9
:105570002046FFF7A5FE0020F8BD204B2049214A18
:105580001A608E4659631A4659631E46596305F5DB
:10559000FD70A91C05F5FE77D36A13F0F00FFBD060
:1055A000C6F834E0B36B01F8013C1B1201F8023C71
:1055B00002318F42F0D105F50075A8420DD20F4A95
:1055C0001646D36A13F0F00FFBD0B36B191200F834
:1055D000021BA84200F8013CF3D3084B0949084AD2
:1055E000196019465A63CB6A044A13F0F00FFAD0D7
:1055F0002046936BFFF764FE0120F8BD00C0024017
:10560000FFFF009000041F80F0B4314E33684FF06C
:10561000004743F4806333603D46F762344671636C
:105620003346511C02F20127E26A002AFCDA1A68AA
:1056300011F8016C42F480621A60DD625E63E26A16
:10564000002AFCDA1A6811F8026B42F480628F4279
:105650001A60DD625E63E7D11D49CA6A1C4B002AED
:10566000FBDA1A684FF0004542F48062FF241A60AA
:105670001946DD625C63CB6A154A002BFBDA1368BE
:105680004FF0004543F48063FF2413601146D56258
:105690005463CB6A0E4A002BFBDA13684FF00045C7
:1056A00043F48063FF2413601146D5625463CB6AD0
:1056B000074A002BFBDA936BDBB203F01F02437047
:1056C000A2F10500B0FA80F04009F0BC704700BFBD
:1056D00000C0024070B5044671B18378032B0D46BB
:1056E00018BF4D021646FFF71FFE2A461821204616
:1056F000FFF79EFE054620B12046FFF7E1FD0020A2
:1057000070BD3246FE212046FFF77EFF0028F3D011
:105710004FF416712046FFF761FE0028ECD02A46B0
:105720000D212046FFF784FE0028E5D10B4B1A68B7
:105730004FF0004542F48062FF201A601946DD6296
:105740005863CB6A054A002BFBDA936B13F0FF0F0B
:10575000D2D12046FFF7B4FD012070BD00C0024049
:10576000014B024A1A607047BC90FF1F03200038AB
:1057700038B590F90530002B03DBBDE8384000F068
:1057800079B904460121006900F0B4F9F8B1257D2A
:10579000104B13EB45151AD0A3790F4A012B9CBF70
:1057A000A369EB61E36912686B831B0CAB8232B1B6
:1057B00005F1160105F1180090472B8B6B82637978
:1057C00003F07F036371BDE8384000F053B9002057
:1057D00038BD00BFD090FF1FC490FF1F10B500F16F
:1057E000080204460121006A00F02CFA50B1E36976
:1057F0003BB96379A268E26163F07F0363710120C2
:1058000010BD012010BD00BFF8B5837913B18269C6
:105810008A4201D20020F8BD022B0F4605461AD05D
:1058200007B32B6AE9681C7C4A1E04F109037C1E3D
:10583000DA40DC40A24211D9EB69AB6005F1080601
:1058400006E0A968286A00F0C5F9013C0028E1D00B
:105850003246002CF5D1EF600120F8BD0029EBD0D5
:10586000A41AEBE7AF60EF600120F8BD2DE9F04F1F
:105870008B46817985B001290746019205D0012325
:105880003B71002005B0BDE8F08F42799107F6D555
:10589000530708D5FC68B9698C4200F0B480FFF763
:1058A000B3FF0028EBD0019BFC68002B4AD0DFF847
:1058B000A491DFF8A4A1DDF80480386A0679013EDE
:1058C00006EA542616F0FF06C4F3080443D1002C60
:1058D00041D1B968002973D1FA69002A00F08380A8
:1058E000BA60C4F50075ADB245453AD9057C416949
:1058F000023AAA400E4416441FFA88F51CB9F8680B
:10590000BA6990424FD23046012100F0F3F80028E6
:10591000B5D04C4404EB050E74450DD00BF1FF31AE
:10592000621E0EF1FF3611F8010F02F8010F9642C8
:10593000F9D1C4EB0E04A344FC68B8EB05082C4471
:10594000FC60BAD1BB69A34262D27A79BC6142F0F1
:1059500080027A7165E0C4F50075ADB24545BA685C
:10596000C4D8017C4069023A8A400644B5F5007FFC
:105970001644C3D1DAF80020964204BF4FF0FF323C
:10598000CAF800202F4A10680278FE2A314633D028
:105990005A46FFF79FFE00283FF471AF0BF5007BDE
:1059A0004FF40075C8E700F065F800283FF467AFD2
:1059B0002549CAF800600A7842F001020A70A8E797
:1059C00003AA00F007F900283FF45CAF386A1F4BC8
:1059D00090F82050039A4FF6F871102D18BF194611
:1059E0008A42FFF47DAF3846FFF7F8FE00283FF407
:1059F00046AF386ABA6874E75846FFF7F9FBB0FA61
:105A000080F04009C7E7019B002B7FF450AF08E00E
:105A10000F4B7A791B6823B1019B13B142F08002CE
:105A20007A71120709D5BB79002B3FF428AF3846AD
:105A3000FFF79EFE00283FF422AF019805B0BDE8B5
:105A4000F08F00BFCC90FF1FD092FF1FF8FFFF0F19
:105A5000C490FF1FD090FF1FF015FF1F00B583B04B
:105A600002AB012203F8011D1946FFF7FFFE03B048
:105A70005DF804FB70B51A4C23780BB9012070BD9A
:105A8000184D194B286819680378FE2B17D0174A50
:105A9000FFF720FE88B1164E316819B90023237034
:105AA000012070BD28680378FE2B0FD00F4AFFF746
:105AB00011FE10B100233360F0E7002070BD0B48E9
:105AC000FFF796FBB0FA80F04009E3E70748FFF7DD
:105AD0008FFBB0FA80F040090028EBD1EDE700BF62
