:1000000000000320D1010000717D0000297D000067
:10001000297D0000297D0000297D0000297D000048
:10002000297D0000297D0000297D0000717D0000F0
:10003000717D0000297D00009D740000A175000005
:10004000717D0000717D0000717D0000717D0000F8
:10005000717D0000717D0000717D0000717D0000E8
:10006000717D0000717D0000717D0000717D0000D8
:10007000717D0000717D0000717D0000717D0000C8
:10008000717D0000717D0000717D0000717D0000B8
:10009000717D0000717D0000717D0000717D0000A8
:1000A000296E0000356E0000717D0000717D00003A
:1000B000717D0000717D0000717D00009183000062
:1000C000717D0000A9960000717D0000D5970000A9
:1000D000717D0000CD980000717D0000717D0000F1
:1000E000717D0000717D0000717D0000717D000058
:1000F000717D0000717D0000717D0000717D000048
:10010000717D0000717D0000717D0000717D000037
:10011000717D000051860000717D0000717D00003E
:10012000717D0000717D0000717D0000717D000017
:10013000717D0000717D0000717D0000717D000007
:1001400059710000717D0000C5990000717D0000AB
:10015000717D0000717D0000717D0000717D0000E7
:10016000717D0000717D0000416E0000717D000016
:10017000717D0000717D0000717D0000717D0000C7
:10018000717D0000717D0000717D0000717D0000B7
:10019000717D0000717D0000BD9A0000717D00003E
:1001A000717D0000717D0000717D0000717D000097
:1001B000717D0000717D0000717D0000717D000087
:1001C000717D0000717D0000717D0000717D000077
:1001D0005C4B4CF2205210B51A804DF628121A8052
:1001E00000BF00BF07F0C8FD574B4FF030621A60E8
:1001F000564A9A60564ADA60564B4FF470021A60BB
:10020000554B564A1A60564B1A78110703D51A787F
:1002100042F008021A70534B5349AA221A70534AEB
:10022000534B8B4204D252F8040F43F8040BF8E707
:10023000504B514900228B4202D243F8042BFAE77B
:100240004E494F4A002352F8230041F8230001335E
:10025000742BF8D14B4B4C4A802103F8011B93427D
:10026000FBD14A4B454A1A60494B8A221A70A3F5C2
:10027000805324225A70A0221A709A799207FCD5D2
:100280009A79D406FCD4434A937903F00C03082BE3
:10029000FAD1414B60221A7002331A78802AFCD1BD
:1002A0003C4B01221A715D225A719A799006FCD555
:1002B0009979384A4906FBD5384B394919600021EC
:1002C000596020231370937903F00C030C2BFAD19F
:1002D000344B354A1A60354A354C136813F4807331
:1002E00003D123604FF4A8531360324B324A1A6093
:1002F00000225A60072243F8042C304AC3F80C2D20
:1003000062B607F0C3FE2368DA0705D52C4807F06C
:100310001BFE2C4B2C4A1A602C4B1B785B0609D514
:10032000284C294B22689A4204D1254807F00CFE3C
:10033000002323600BF008F807F024FD07F052FCBF
:10034000FEE700BF0E20054030800440823F0400DD
:100350000100002B88ED00E0002008E0030000858C
:1003600002D0074000E00740B821FF1F9CC70100F2
:100370003015FF1FB821FF1F0CB1FF1F0010FF1F1A
:100380000000000000E400E064E400E008ED00E0AC
:10039000005006400040064001E007404480044011
:1003A0000000060204800440C010070010D0034083
:1003B00014D0034014E000E01FBF02000000202022
:1003C000480F18601CE00340A5C3945A00F0074092
:1003D000FFFFFFFFFFFFFFFFFFFFFFFFFFFFFFFF2D
:1003E000FFFFFFFFFFFFFFFFFFFFFFFFFFFFFFFF1D
:1003F000FFFFFFFFFFFFFFFFFFFFFFFFFFFFFFFF0D
:10040000FFFFFFFFFFFFFFFFFFFFFFFFDEF9FFFF23
:1004100010B5054C237833B9044B13B10448AFF33E
:1004200000800123237010BDB821FF1F00000000D1
:10043000A0C70100084B10B51BB108490848AFF32D
:1004400000800848036803B910BD074B002BFBD0A0
:10045000BDE81040184700BF00000000BC21FF1F8E
:10046000A0C70100B821FF1F000000000020704756
:10047000704700BF4069C000704700BF2DE9F04FD2
:100480001D4EDFF87C8032781C4F85B00132D0B22F
:100490000023307001934FF0FF0A019D08F5807929
:1004A000C346002400E030785BF8041F8DF80DA0EF
:1004B0002A1901EB41010A340244394403A8E4B289
:1004C0008DF80EA08DF80C2004F0D6FC502CEAD14B
:1004D00008F120080535C145EDB201D03078DFE7DD
:1004E000019B0533DBB2282B019301D03078D4E790
:1004F00005B0BDE8F08F00BFCC75FF1F942AFF1F29
:100500000022FF1F2DE9F04F002583B0754EDFF864
:1005100000A2DFF8F491DFF8FCB12C4607E0642B71
:1005200000F3DE800134082C05F1DC0543D056F8D9
:10053000043F5AF82320002AF4DB13028BFB03014B
:10054000B2F5167F4FEAE373C3EB2123E7DDFF2704
:10055000654BD3E900010AF049FE00EBC40009EB4A
:100560004013EA10D3F81C808DF80270143A01A9E8
:100570006846FF278DF800208DF8017004F07CFCA0
:100580005A4F9DF8040008EB4803F918FA5C82FA08
:1005900050F2FA549DF805304A7882FA53F24A70C4
:1005A0008B789DF8062083FA52F30134082C8B7067
:1005B00005F1DC05BBD14E4B4E4A1B684E4EB3F5E0
:1005C0007A7FA8BF4FF47A7323EAE37303EB8301C6
:1005D00003EBC10382FB0312DB17C3EB2223326858
:1005E000C3F12E03934273DA444C3F4D237800222B
:1005F000002B5DD0424BD5E900010AF095F90022AD
:10060000404BC5E900010AF0A9FD002865D1DFF8DB
:100610000881364FDFF804E108F50069A8F5807C11
:10062000614651F81C3D51F8042F02EB420503EBE3
:1006300043030EEB0504F8181EF805A06578A478AE
:1006400007F803A08C45134645708470EBD10CF17C
:10065000200CE045E4D108F58078C145DED12A4878
:1006600000F5006500F58074C26902EB4202B9181A
:10067000BB5C03EBC30303EBC3031B12BB544A78FD
:100680008B7802EBC20203EBC30302EBC20203EB63
:10069000C303203012121B1284424A708B70E3D1C4
:1006A000AC422046DED10122326003B0BDE8F08FBB
:1006B000164BD5E900010AF035F900220023C5E9FF
:1006C00000010AF04BFD0028A1D0012323709EE712
:1006D0000132326003B0BDE8F08F0023237096E74B
:1006E000DFB235E73815FF1F0040FF1FB856FF1F68
:1006F0009839FF1F9F747841EC39FF1F3815FF1F91
:100700000000E03F00001C400422FF1F0000F03FFB
:10071000AC54FF1F37800B6D2023FF1F942AFF1F4F
:10072000884B894A196840F6B8338B42A8BF0B46FC
:1007300023EAE37303EB830103EBC10382FB0312A0
:10074000DB17C3EBA223814A1268C3F12A03934249
:1007500080F2F4802DE9F04F2DED028BDFF8089246
:100760007B4A99F800307B4D7B4C87B0013389F888
:100770000030764B0292002201951A609046039554
:1007800011E0764A1B0282FB0326DB17C3EB262609
:10079000322E15DC019B08F1DC0803F58073B8F5F7
:1007A000DC6F01936ED0029A52F8043F02926C4AB9
:1007B00052F82330002BEDDBB3F5167FE1DDFF2689
:1007C000C8F3C707DDF804A04FF0000BB0EE0C8AA9
:1007D00039E007EE90BAF8EEE77ADAF81C5099F8AB
:1007E000002077EEC87A4FF0FF33FDEEE77A8DF800
:1007F000113017EE903A05EB45053A44002BB8BF8F
:100800005B428DF8102096FBF3F38DF8123004F064
:1008100033FB6119635D9DF8142083FA52F363552D
:100820004A789DF8153082FA53F24A708B789DF819
:10083000162083FA52F30BF1010BBBF1080F8B70FA
:100840000AF1200AA6D0ABF10303012B05A904A8E5
:10085000BFD899F80030DAF81C508DF812603B448C
:100860004FF0FF328DF811208DF8103004F004FBAA
:1008700005EB4503E118E25C9DF8140082FA50F2A2
:10088000E254CDE7DFF8E480039D364E08F50069B9
:10089000A8F5807C614651F81C3D51F8042F02EB0D
:1008A000420E03EB430306EB0E07E01816F80EA00A
:1008B00097F801E0BF7804F803A06145134680F87B
:1008C00001E08770E9D101F1200CE045E2D101F5AA
:1008D0009078C145DCD1DFF898E005F58070EA69D1
:1008E00002EB4202A118A35C03EB8306C6EB0616DB
:1008F00003EB46031B12A3544A788B7802EB820762
:1009000003EB8306C7EB0717C6EB061602EB47029D
:1009100003EB4603203512121B12A8424A708B705B
:10092000DDD170450546D8D1084B1A68074B013216
:100930001A6007B0BDEC028BBDE8F08F034B0132AB
:100940001A6070479839FF1FD32A5A57A0A6FF1F75
:100950003815FF1F0422FF1FB856FF1F37800B6D8D
:10096000AC54FF1F942AFF1FCC75FF1F2023FF1FCD
:10097000042AFF1F10B5044606F098FB204610BD60
:10098000072901D8072A00D9704701EBC00102EB03
:10099000C101064A52F8212010B4054C02EB420175
:1009A000214418465DF8044B04F066BA0422FF1F88
:1009B000942AFF1F072901D8072A00D9704701EBA5
:1009C000C00102EBC101064A52F8212010B4054CC7
:1009D00002EB4201214418465DF8044B04F04CBA86
:1009E0000422FF1FB865FF1F2DE9F04F866985B00F
:1009F00005460C46002E00F07181A368EA69002BC1
:100A000040F366812746183257F8148B04F13400FE
:100A100094F813900DF10706394609F10109B4461F
:100A2000BE465EF8043F43445B7843B194F80DA0A2
:100A300083FA5AF3DBB209FB03F3C3F307238645BA
:100A40000CF8013FEDD1DDF80880039B88EAD81C43
:100A500083EAD31E0CF0AA1C0EF0AA1E88EA0C082A
:100A600083EA0E0388EACC1C83EACE1E4CF6CC48FF
:100A70008CEA9C3A8EEA9E39434609EA03030AEA65
:100A800008088CEA080C8EEA030E8CEA883C8EEA91
:100A9000833E4FEA0E184FEA1C130EF0F03E0CF0A6
:100AA0000F3C08F0F03803F00F3343EA0E0348EA36
:100AB0000C0E4FEA1E494FEA1E684FEA132C02F84B
:100AC00011EC02F8153C4FEA1E2A4FEA134E1B0E9A
:100AD00002F816CC02F817EC02F812AC02F8139CDC
:100AE00002F8148C02F8183C94F81290D4F80080A4
:100AF00009F101090DF1070CBE465EF8043F18F834
:100B0000033043B194F80CA083FA5AF3DBB209FB2B
:100B100003F3C3F3072386450CF8013FEDD1DDF85D
:100B20000880039B88EAD81C83EAD31E0CF0AA1C19
:100B30000EF0AA1E88EA0C0883EA0E0388EACC1C91
:100B400083EACE1E4CF6CC488CEA9C3A8EEA9E395B
:100B5000434609EA03030AEA08088CEA080C8EEA0D
:100B6000030E8CEA883C8EEA833E4FEA0E184FEA69
:100B70001C130EF0F03E0CF00F3C08F0F03803F0C0
:100B80000F3343EA0E0348EA0C0E02F809EC4FEA71
:100B9000132C02F80D3C4FEA1E2A4FEA1E494FEA79
:100BA0001E684FEA134E1B0E02F80AAC02F80B9CAB
:100BB00002F80C8C02F80ECC02F80FEC02F8103C94
:100BC00094F814C0D4F800E00CF1010C51F8043F83
:100BD00073449B7843B194F80E8083FA58F3DBB2E8
:100BE0000CFB03F3C3F30723884206F8013FEDD162
:100BF000029B039E83EAD31186EAD61E0EF0AA1E3C
:100C000001F0AA114B4086EA0E0683EAC11186EA7A
:100C1000CE164CF6CC4381EA913886EA963C9E4645
:100C20000CEA0E0E08EA0303594086EA0E0681EA32
:100C3000833186EA8E3633014FEA111E0EF00F3EE5
:100C400001F00F3106F0F03603F0F0330B434EEABB
:100C500006064FEA132A4FEA13494FEA13684FEA90
:100C6000162C4FEA164E310E02F8013C02F8056CC4
:100C700002F802AC02F8039C02F8048C02F806CCDD
:100C800002F807EC02F8081CA36894F80CC094F86A
:100C90000DE094F80E90266894F80FB094F810A028
:100CA000617C94F91580013BCCEB0B0CCEEB0A0E6A
:100CB000C9EB0101B044002B02F1180284F80CC00A
:100CC00084F80DE0A173C4F80080A3603FF7A0AEE4
:100CD000A86905B0BDE8F04F03F0E2BDD1F804808B
:100CE00008EB4807FF0038460AF05AFBE86138462F
:100CF0000AF056FB2862012007F09CF8EB692A6A8B
:100D000000960746414603F047FCAF61384603F0C2
:100D100059FC72E6F0B591B0002305688DF80030FB
:100D20008DF801308DF802302E683A4A8DF8043083
:100D300096428DF805308DF8063064D1827C03919F
:100D4000012A044604918DF81A308DF81B308DF875
:100D50001C30CDF808D01AD08DF819308DF8183025
:100D60008DF817308DF816308DF815308DF8143059
:100D700000228DF81D2007AB0FA943F8042F9942DC
:100D8000FBD1AB69204602A9984711B0F0BD224AB9
:100D90001378013303F0070313F0010F14BF802110
:100DA000002113709A0744BF41F04001C9B25B07AC
:100DB00048BF41F0200110310022C9B20DF11703E4
:100DC0000DF11A074FF4807EAAB19EFBF2F2D2B267
:100DD000501CC0B200FB01152D121870EEB205B107
:100DE000013E03F8036C00B11A7001339F4208D032
:100DF000DA78002AE9D11A7003F8032C01339F42F4
:100E0000F6D12568B4E70A4601AB6946B04711B090
:100E1000F0BD00BF1D0E0000D421FF1FF0B5857C82
:100E20001C785E789B788FB0012D8DE806000292C9
:100E30008DF812408DF813608DF814301BD000230C
:100E40008DF811308DF810308DF80F308DF80E3090
:100E50008DF80D308DF80C3000228DF8152005AB83
:100E60000DA943F8042F8B42FBD1036869469B69A7
:100E700098470FB0F0BD1B4A1378013303F0070306
:100E800013F0010F137014BF80220022990744BF92
:100E900042F04002D2B25B0748BF42F0200210325B
:100EA000D2B20DF10F030DF112074FF4807EACB1F9
:100EB0009EFBF4F4E4B2611CC9B201FB02252D12C1
:100EC0001970EEB205B1013E03F8036C01B11C705C
:100ED00001339F42C0D0DC78002CE9D11C7003F8AC
:100EE000034CF5E7D421FF1FF0B5857C1C785E78B4
:100EF0009B788FB0012D8DE8060002928DF812408C
:100F00008DF813608DF8143020D000238DF8113047
:100F10008DF810308DF80F308DF80E308DF80D30C3
:100F20008DF80C30032100238DF8151002EB4202DE
:100F3000194605AC0131082944F8043F1344F9D19E
:100F4000036869469B6998470FB0F0BD1B490B7851
:100F5000013303F0070313F0010F0B7014BF80215E
:100F600000219D0744BF41F04001C9B25B0748BF63
:100F700041F020011031C9B20DF10F030DF1120E35
:100F80004FF4807CACB19CFBF4F4E4B2651CEDB290
:100F900005FB011636121D70F7B206B1013F03F8CA
:100FA000037C05B11C7001337345BBD0DC78002C89
:100FB000E9D11C7003F8034CF5E700BFD421FF1FF3
:100FC0002DE9F04F8BB00027069051F82730DBB2A7
:100FD0000137FF2BBFB2F8D10B6807974FEA1368B0
:100FE000C3F3072BC3F307494FF0FF33C646002472
:100FF0000593884658F8045F0698C5F307274FEA1B
:10100000241CC5F30746ECB2F9B2C5F3076503919A
:10101000E9B204915FFA8CF1029107990F2908AAAD
:101020004FEA14135FFA86FA0CD805998C4507DC51
:101030000F2905D00131C9B28B42029138BF0B464E
:1010400059B2059109A9009102998DF820B08DF847
:1010500021908DF822E08DF824708DF825608DF8B0
:10106000265003F00DFEFF2CDDF810E0DDF80CB08B
:10107000D146BFD106980BB0BDE8F08F38B52A48ED
:1010800004F06AF8D8B1294C012323600C212848C8
:1010900008F088F9274806F0A1FA274D27480C21C7
:1010A00005F0D4FE284604F0A1F92368ABB1012B6A
:1010B00023D0234B4FF400429A61DA6138BD1B4CB8
:1010C00003460C211F48236008F06CF9194806F00C
:1010D00085FA2368012BE0D1D8E755222021284644
:1010E00004F058F90028E4D0EA8842F0040292B2F1
:1010F0002846242104F04EF9DBE740F273122A213E
:10110000284604F047F90028D3D088222021284619
:1011100004F040F90028CCD0EA88284622F00402E6
:10112000242104F037F9C4E71076FF1FC875FF1FAC
:101130002CBF00005817FF1F203AFF1F0002FF1F9F
:10114000C03AFF1F1CBF00002DE9F84F104C114F93
:10115000114EDFF848B0DFF848A0DFF8489004F5FA
:101160008C780025204603F045FF143402230C211F
:10117000CBF8003044454FF0080347F8045F46F8C9
:10118000045FCAF80030C9F80010EBD1BDE8F88F51
:101190006855FF1F7C3AFF1F8075FF1F082AFF1F3D
:1011A000783AFF1F2C3AFF1F70B5224B86B00024FF
:1011B00053F8042F092A04F1010120DCCCB20E2CD3
:1011C000F6D11D4D1D4E2B680193019B31681C4AC1
:1011D0005B1A93421DD82B6803931A4B039A1B6822
:1011E00032602A680592059AD31AB3F57A7F04D93A
:1011F000FFF7AAFF144B01221A7006B070BD0E4D06
:101200000E4E2B680193019B31680D4A5B1A934285
:1012100005D92B680293029B3360FFF795FF0B2CD7
:10122000D9D82B6807490493049B074A0B60002117
:101230001170D6E7A854FF1FBCACFF1FB874FF1F86
:10124000E0930400902AFF1FE474FF1FE64BE74A77
:1012500003F1380053F8041F42F8041F9842F9D1F3
:101260002DE9F047DFF8C093DFF8C083B9F81830F4
:1012700007EE903A2DED028BDD4BDFEDDE8AF8EEC6
:10128000677AD3E9006767EEA87A4C4617EE900AB2
:1012900009F0A8FC32463B4609F0F8FC0022D64B88
:1012A00009F0F4FC09F0A2FFB9F81A30C8F8000000
:1012B00007EE903AF8EE677A08EE100A67EEA87A21
:1012C00009F1360517EE900A09F08CFC32463B46D0
:1012D00009F0DCFC0022C84B09F0D8FC09F086FFBD
:1012E000B9F81E20B9F81C30C8F80400134407EE02
:1012F000903AF8EEE77A67EEA87A17EE900A09F0CE
:1013000071FC32463B4609F0C1FC0022BA4B09F0A1
:10131000BDFC09F06BFFB9F82010B9F82230B9F81C
:101320002420C8F808000B44134407EE903AF8EE66
:10133000E77A67EEA87A17EE900A09F053FC324676
:101340003B4609F0A3FC0022AB4B09F09FFC09F0DF
:101350004DFFB9F828E0B9F82630B9F82A1034F86A
:101360002C2FC8F80C0073440B44134407EE903A3A
:10137000F8EEE77A67EEA87A17EE900A09F032FCE9
:1013800032463B4609F082FC9B4B002209F07EFC72
:1013900009F02CFF0023C8F8100034F8022FA542F2
:1013A0001344FAD107EE903AFBEEC97A934C17EE4C
:1013B000900A09F017FC32463B4609F067FC002210
:1013C0008D4B09F063FC09F011FFC8F814000020F0
:1013D00035F8023FAC421844FAD107EE900AFBEE12
:1013E000C97A874D17EE900A09F0FCFB32463B465E
:1013F00009F04CFC0022804B09F048FC09F0F6FE95
:10140000C8F81800002034F8023FA5421844FAD169
:1014100007EE900AFBEEC97A7A4C17EE900A09F0B3
:10142000E1FB32463B4609F031FC0022724B09F0E9
:101430002DFC09F0DBFEC8F81C00002035F8023F47
:10144000AC421844FAD107EE900AFBEEC97A6E4D11
:1014500017EE900A09F0C6FB32463B4609F016FC2F
:101460000022654B09F012FC09F0C0FEC8F820000C
:10147000002034F8023FA5421844FAD107EE900A42
:10148000FBEEC97A614C17EE900A09F0ABFB3246CD
:101490003B4609F0FBFB0022574B09F0F7FB09F034
:1014A000A5FEC8F82400002035F8023FAC421844DD
:1014B000FAD107EE900AFBEEC97A554D17EE900A65
:1014C00009F090FB32463B4609F0E0FB00224A4B14
:1014D00009F0DCFB09F08AFEC8F82800002034F887
:1014E000023FA5421844FAD107EE900AFBEEC97AF2
:1014F000484C17EE900A09F075FB32463B4609F05E
:10150000C5FB00223C4B09F0C1FB09F06FFEC8F897
:101510002C00002035F8023FAC421844FAD107EE07
:10152000900AFBEEC97A3C4D17EE900A09F05AFB7F
:1015300032463B4609F0AAFB00222F4B09F0A6FBDE
:1015400009F054FEC8F83000002034F8023FA542EC
:101550001844FAD107EE900AFBEEC97A2F4C17EE29
:10156000900A09F03FFB32463B4609F08FFB002210
:10157000214B09F08BFB09F039FEC8F8340000203C
:1015800035F8023FAC421844FAD107EE900AFBEE60
:10159000C97A17EE900A09F025FB32463B4609F05E
:1015A00075FB0022144B09F071FB09F01FFE1C4A69
:1015B000C8F83800002034F8023FA2421844FAD19B
:1015C00007EE900AFBEEC97ADFF86490154CDFF85D
:1015D00064A017EE900A09F005FB32463B4609F07D
:1015E00055FB0022044B27E0A854FF1F9839FF1F2A
:1015F0009015FF1F0000803800408F405840FF1FAB
:101600006C40FF1F8840FF1FB040FF1FE640FF1FD8
:101610003241FF1F9C41FF1F2E42FF1FFA42FF1F56
:101620002A44FF1F6855FF1F1440FF1FAC54FF1FC3
:101630009839FF1FF074FF1F1B4F1C4E09F026FB4B
:1016400009F0D4FD0025C8F83C00C9F8005001E0BD
:1016500096ED008A2046B8EEC80A03F0D3FC204677
:1016600003F016FD10EE100A09F0BCFAE7E80201DB
:10167000204603F01DFD10EE100A09F0B3FAD9F868
:10168000003056F8042B01351344102D04F11404D6
:10169000EAE80201C9F80030DAD1BDEC028BBDE8FE
:1016A000F047FFF781BD00BFA08FFF1FAC54FF1FA5
:1016B000F0B530490B5C022B85B02ED02E4B53F881
:1016C0002020002A0DDD2D4A2D4C12682D49039251
:1016D000039A54F8204051F82010121B32319142E5
:1016E0000BD303280EDD284B1B680A2B274BCCBFDE
:1016F000012200221A7005B0F0BD0022032843F831
:101700002020F0DC204953F820200B689A42ECDDC1
:101710001F4C0A6013462070E7E7184C184D2368E9
:101720000093009B55F820609B1BF92B05D8124BAA
:10173000012453F820200C54C3E723680193154F6C
:10174000019B57F820202468DFF838E00294991BA9
:10175000521A094B029C4EF820101D323A2A53F8B7
:10176000202047F820109CBF013243F8202045F884
:101770002040A6E7F039FF1F6854FF1FBCACFF1FD5
:101780003C76FF1F102AFF1F988FFF1F3055FF1F49
:10179000042AFF1FF054FF1F2DE9F843284B53F88C
:1017A00020908046484609F00BFA264A4FEAC803C3
:1017B0001A440D462449D2E900670B440446D3E994
:1017C00000011DA3D3E9002309F060FA32463B462D
:1017D00009F0AAF802460B462046294609F0E6FC25
:1017E00068B1B9F5967F0ADD184B13F80820022A74
:1017F0001AD052B9022203F80820BDE8F883DFF8B6
:101800004C9019F80830012B01D0BDE8F88332461E
:101810003B462046294609F0B5FC0028F5D00023B8
:1018200009F80830BDE8F883012203F80820BDE874
:10183000F88300BFAFF300800000006066660240DE
:10184000AC54FF1FA08FFF1FF074FF1FF039FF1F64
:1018500010B40E4B0E4A53F820100E4C52F82030A4
:10186000245C0529C4BF023342F82030022C04BF97
:10187000013342F82030B3F5967F04DD0129DCBF47
:10188000023B42F820305DF8044B70476854FF1F5C
:101890008475FF1FF039FF1F2DE9F04F91B0FFF75E
:1018A000D5FCA04BA04A029319460023DFF8B8925A
:1018B000DFF8B8B213609A46884622E0DBF80000F1
:1018C00009F07EF93246CDE900013B462046294623
:1018D00009F028F80022954B09F0D8F902460B468A
:1018E000DDE9000109F020F809F080FCCBF80000E8
:1018F0000AF1010A80F30800BAF10E0F4BF8040B4D
:1019000031D05046FFF748FF5046FFF7D1FE504612
:10191000FFF79EFF59F8040F09F052F9F8E8026743
:1019200032463B4604460D4609F040FC0028C5D12E
:10193000DBF8000009F044F92246CDE900012B460E
:101940003046394608F0EEFF0022784B09F09EF948
:1019500002460B46DDE9000108F0E4FF09F046FC11
:10196000CBF80000C4E7724A724B1768724A1B68D2
:10197000D2F80090714A724DD2F80080714A0B93F0
:1019800012680592704A09934FF0000ACDF818A02A
:10199000CDF81CA0CDF820A0CDF828A0CDF80CA043
:1019A0005446CDF810A0D2F800B00095BA46029F78
:1019B0005C4B634903EBC80E04F109030293009BDF
:1019C0001A68099B51F823309A4203DD01230B94D6
:1019D00009940A9300995A4B594D4A6953F82A3091
:1019E000486A55F82910029D9A4204F10503C8BFC0
:1019F0009A46089BC8BF01238842C8BFA946D7E9B9
:101A00000001079D0893C8BF0125DEE90023079563
:101A100009F0CCFB059D434A069E002802EBC50356
:101A200018BF0126D3E90023D7E90A0118BFA04651
:101A3000069609F0BBFB3B4A002804F1050602EBC1
:101A4000CB0308BF2E46D3E90023D7E91201059640
:101A5000049E18BF0126049609F0A8FB009B029D76
:101A6000002803F1040304F10104009318BFAB46FE
:101A7000039B18BF0123042C039307F1080797D198
:101A80005746DDF810A0002B47D10A9B13B1294B14
:101A90000B9A1A60089B0BB1254B1F60079B13B173
:101AA000254BC3F80090069B13B1244BC3F800806C
:101AB000BAF1000F02D0234B059A1A60234B099903
:101AC0005A5C022A54D0224A52F82120082A4FDCBC
:101AD0009B78022B4CD01F4F1F4C3B68DB074FD528
:101AE0001E4E1F4D33680F9395E806000F9B5B1A3F
:101AF0009A4253D923681B490A2BA8BF0A236FF0C7
:101B000009000A688342B8BF03461A4482F30802F8
:101B100023600A6011B0BDE8F08F0B4BC3F800B032
:101B2000B3E700BFA08FFF1F988FFF1F0000E03FAB
:101B3000783AFF1F082AFF1F2C3AFF1FC074FF1FAF
:101B40008475FF1F183AFF1FFC3FFF1FF039FF1F6E
:101B50006854FF1F383AFF1F3876FF1FBCACFF1FC9
:101B60006C3AFF1F948FFF1FA854FF1FD075FF1FF3
:101B7000134C144F2368053323603B68DB07AFD455
:101B8000384606F019F9104E104D70B933680F93AE
:101B900095E806000F9B5B1A9342ABD333680E9314
:101BA00023680E9A2A60013BA5E733680D930D9BCD
:101BB0002B60C82338466B6006F004F9E6E700BFE7
:101BC0003876FF1F383AFF1FBCACFF1F6C3AFF1F6F
:101BD0002DE9F04F87B01F46DFF880900390002377
:101BE0000191904602934FF0FF0BDDF808A03B46B1
:101BF000A9F5807457469A4604F120063D4602E056
:101C00000434B44215D0AA454544F9D121689DF861
:101C100040308DF814300F4B8DF815B001EB4101B9
:101C2000194405A804348DF816B003F025F9B44220
:101C3000E9D1019BA1451F44DED1029B039A1344C5
:101C40000293054B09F580794B455746CDD107B036
:101C5000BDE8F08FB865FF1F042BFF1F0423FF1F93
:101C60002DE9F04F93B08DED0E0B8DED0C1B8DED2E
:101C7000022B8DED043B8DED064B0023834609932B
:101C8000099808F09DFFDDE90E2308F04BFE0B4696
:101C9000024608F0FBFFCDE90A0100239A465046B0
:101CA00008F08EFFDDE90C2308F03CFE02460B46EF
:101CB00008F0ECFFDDE90A2308F036FE0024CDE948
:101CC00000015FFA8AF51DE0B946DDE906234946C1
:101CD000404609F04DFAE2B211AB0134294678B121
:101CE0009BF800609BF801008DF844608DF845007A
:101CF0009BF802609DF824008DF84660FEF740FED8
:101D0000082C24D0204608F05BFFDDE9022308F010
:101D100009FE02460B4608F0B9FFDDE9002308F092
:101D200003FE41EC100B08F0C7FCDDE9042351EC85
:101D3000100B08F0F7FD0022002306460F4609F0BD
:101D400035FAB0460028BFD107F10049BDE70AF1D6
:101D5000010ABAF1080FA2D1099B0133082B09939C
:101D60008ED113B0BDE8F08F2DE9F04F93B08DED1B
:101D70000E0B8DED0C1B8DED022B8DED043B8DEDCF
:101D8000064B002383460993099808F019FFDDE903
:101D90000E2308F0C7FD0B46024608F077FFCDE999
:101DA0000A0100239A46504608F00AFFDDE90C2399
:101DB00008F0B8FD02460B4608F068FFDDE90A238B
:101DC00008F0B2FD0024CDE900015FFA8AF51DE0BC
:101DD000B946DDE906234946404609F0C9F9E2B2B1
:101DE00011AB0134294678B19BF800609BF80100E3
:101DF0008DF844608DF845009BF802609DF8240042
:101E00008DF84660FEF7D6FD082C24D0204608F059
:101E1000D7FEDDE9022308F085FD02460B4608F0F7
:101E200035FFDDE9002308F07FFD41EC100B08F0E1
:101E300043FCDDE9042351EC100B08F073FD002294
:101E4000002306460F4609F0B1F9B0460028BFD17D
:101E500007F10049BDE70AF1010ABAF1080FA2D162
:101E6000099B0133082B09938ED113B0BDE8F08F85
:101E70002DE9F04F91B08DED0C0B8DED021B8DED2A
:101E8000082B8DED043B8DED064B0B904FF0000BB6
:101E9000584608F095FEDDE90C2308F043FD0246A4
:101EA0000B4608F0F3FE4FF0000ACDF828B080464C
:101EB0008946DDF82CB004E00AF1010ABAF1080FF6
:101EC0005AD0504608F07CFEDDE9022308F02AFDD6
:101ED00002460B4608F0DAFE42464B4608F024FD67
:101EE00041EC100B08F0E8FBDDE9042351EC100B8A
:101EF00008F018FD0022002306460F4609F056F9A7
:101F00003446002842D03D46DDE9062320462946D6
:101F100009F02EF90028CFD0DDE9080109F066F9B3
:101F20000A9B1C4A1C490AEBC30300EBC3000123B4
:101F300052F8206000935FFA8BF20FA8FF2302F0A3
:101F40003BFF06EB4606154A9DF83C00935D911950
:101F500083FA50F393559DF83D304A7882FA53F254
:101F60004A708B789DF83E2083FA52F30AF1010AF9
:101F7000BAF1080F8B70A4D1DDF828B00BF1010B7A
:101F8000BBF1080F84D111B0BDE8F08F07F1004517
:101F9000BAE700BF0422FF1F3C3AFF1FB856FF1FDD
:101FA0002DE9F843644B654A1968654D40F6B8332E
:101FB0008B42A8BF0B4623EAE37303EB830103EBD9
:101FC000C10382FB0312DB17C3EBA2232A68C3F110
:101FD0002A0393426ADA5B4ADFF878911378DFF8D4
:101FE0007881594F0133002413702C6058F8243045
:101FF00059F82330002B4FEA840607DBB3F5167F30
:1020000047F2BA7256DCB2EB032F53DB0234082CD2
:10201000ECD1DFF848E14D490EF5006CAEF5807764
:102020003C4654F81C3D54F8040F00EB400203EB0F
:1020300043038E5CCE540A440B4456785E7092780B
:102040009A70A7420346EED12037BE45E8D10EF57F
:10205000807EF445E2D13E4C04F5006704F58076BD
:10206000E26902EB420288188B5C03EB830ECEEB35
:102070000E1E03EB4E031B128B544278837802EB47
:10208000820C03EB830ECCEB0C1CCEEB0E1E02EB92
:102090004C0203EB4E03203412121B12A642427074
:1020A0008370DDD1BE423446D8D12A6801322A601D
:1020B000BDE8F883D4B1264487FB0630F617C6EB9B
:1020C0006000023008F07CFD9FED111BC4EB04237F
:1020D00041EC130BB0EE410AF0EE610AD8109FED0F
:1020E0000E4B9FED0F2BFFF7C3FE8FE79FED081BF5
:1020F0009FED0D4BB0EE410AF0EE610A9FED0C3BF7
:102100009FED072B2046FFF7B3FED4E7AFF3008027
:102110000000000000000C40000000000000E03F54
:102120000000000000001C40000000000000004013
:1021300000000000000000009839FF1FD32A5A5702
:10214000A854FF1FCC75FF1F398EE338B856FF1F08
:102150000422FF1FAC54FF1F3C15FF1F2023FF1F4D
:102160002DE9F04F894D2B68DA078DB038D5884BB3
:10217000884C04931B68089394E80600089B5B1A3C
:102180009A423FD8049BDFF838C21B680793079B2D
:102190002360814C0CF500680CF1E007A7F1200EDC
:1021A00071463E4651F8042F56F8043F02EB4202B6
:1021B000A51803EB4303E01814F802A095F801906A
:1021C000AA7804F803A08F4280F801908270E9D1C8
:1021D000F4457746E2D10CF5807CE045DCD112E095
:1021E000284605F0E9FD6A4B04936A4C002840F04C
:1021F000B780049B1B68089394E80600089B5B1A51
:102200009342BFD2644C654B6548664F664E05935A
:10221000194650F8043F51F8042F57F82330B3F50E
:10222000167FA8BF4FF4167323EAE37303EBC303CF
:1022300086FB03E5DB17C3EB25239A42B8BF0B608F
:102240005A4B8B42E5D1A3F11C0B0022584B019352
:102250009246584B019E039283FB0A39D1444FEAC0
:10226000EA73C3EBA9094FEA820893015FFA89F97F
:10227000029343460025C846FF27994656F8043B7B
:102280005BF8091003EB4303A942E05CC0EBC0001C
:1022900000EB40104FEA2020E05423445FFA85FC15
:1022A00093F801E09878CEEBCE0EC0EBC0000EEBB9
:1022B0004E1E00EB40104FEA2E2E4FEA202083F8EE
:1022C00001E0987014DDBCF1070F8DF82C808DF8BB
:1022D0002D708DF82E700BD8029B354A2B440BA81D
:1022E00052F823102C4B01EB4101194402F0C4FDBC
:1022F0000135082DC2D1019B039A0AF1DC0A03F5CE
:102300008073BAF5DC6F02F101020193A1D12A4D6D
:102310002B68DB071CD5049B284C1B680B9394E8A7
:1023200006000B9B5B1A93420FD3049B059A1B6814
:102330000A930A9B236052F8043F012BC4BF03F1A8
:10234000FF331360194B9342F5D10DB0BDE8F08F08
:10235000284605F031FD68B9184C049B1B68DDE781
:102360001B680693069B236078232846636005F06C
:1023700029FD3EE7049B114C1B680993099B2360D0
:1023800032232846636005F01DFDE6E7A8A6FF1F7F
:10239000BCACFF1F5855FF1FB856FF1F6815FF1F25
:1023A0003815FF1FAC54FF1F37800B6D8815FF1FBA
:1023B0000422FF1F93244992B456FF1F6055FF1F4C
:1023C0000022FF1F2DE9F04FDFF8888189B04146D8
:1023D00008F1010008F5706410F8013CC3EBC30379
:1023E00003EB43131B1200F8013C4A788B78C2EBD5
:1023F000C202C3EBC30302EB421203EB43131212FC
:102400001B124A708B7003318C4200F10300E3D140
:10241000474B4848484E494D0393194650F8043FEE
:1024200051F8042F56F823304B3BB3F5167FA8BF65
:102430004FF4167323EAE373DB0085FB0374DB17A9
:10244000C3EB242301339A42B8BF0B603C4B8B4251
:10245000E4D100233B4FDFF80091019302934FF04A
:10246000FF0B019B3868C3F3C70A029BDB00002502
:10247000009300281DDD009B5E19F600002401E09A
:10248000A04216DDE3B2072B04F101048DF81CA075
:102490008DF81DB08DF81EB0F2D8334407A859F856
:1024A000231001EB4101414402F0E6FC3868A042F0
:1024B000E8DC0135082DDCD1019B029ADC330132C6
:1024C000B3F5DC6F0193029207F10407C9D11E4EE8
:1024D0003368DB071BD51D4D1D4C2B68079394E813
:1024E0000600079B5B1A93420ED32B680693069B4C
:1024F000039A236052F8043F012BC4BF03F1FF335A
:1025000013600F4B9342F5D109B0BDE8F08F304610
:1025100005F052FC0D4D0E4C0028DED02B680593C3
:10252000059B236032233046636005F04BFCD4E703
:102530003055FF1F3815FF1FAC54FF1F37800B6D40
:102540005055FF1F3455FF1FDC39FF1FBCACFF1F68
:102550007C76FF1FB856FF1F0422FF1F0138F0B41E
:10256000112824D8DFE810F012003B004700560085
:1025700062006900750084009000A500AD00BC00F9
:10258000C700D900E200EA00F1002500734B744A4D
:102590001B68744D744C7549136001200022072B91
:1025A0002A602260086015DD714B00221A70F0BCB1
:1025B00070476A4B6A4E1B686A4D6B4C6B49C3F19E
:1025C0000E0701224FF0FF30152B37602A60226082
:1025D0000860E9DC664B01221A70F0BC70475F4B63
:1025E0005F4E1B685F4D604C6049C3F108070022D5
:1025F00001203760D3E7594B594A1B68594C5A4858
:102600005A49136001250022072B256002600A60E9
:10261000CADCDFE7514B524E1B68524C52485349BB
:10262000C3F10807012500223760EDE74B4B4C4A08
:102630001B684C4D4D4C4C49AEE7484B484E1B680F
:10264000484D4A4C4849C3F1080700220120376031
:10265000A5E7424B424A1B68424D434C4349136035
:10266000002001220E2B2A60226008609CDCB1E76A
:102670003A4B3B4E1B683B4D3B4C3C49C3F10F076B
:10268000012200203760EDE7344B35491B68354D9A
:102690003548364AC3F107074FF0FF3601240F6073
:1026A0000E2B4FF000012E60046011603FF77CAFED
:1026B00090E72A4B2A491B682A4D2B482B4ADF1FDB
:1026C000EAE7264A264B1268264C274827491A6013
:1026D0000123152A236003600B603FF765AF79E79C
:1026E0001E4B1F4D1A681F4C1F482049C2F115068A
:1026F00001232E60EDE7194B194E1B68194C1A483F
:102700001A49DF1F01224FF0FF35152B3760256076
:1027100002600A603FF748AF5CE7104B104E1B6841
:10272000104C11481149C3F10E07EBE70B4B0C4E4F
:102730001B680C4D0D4C0C49DF1F42E7074B084E40
:102740001B68084D094C084939E7044B044E1B68C7
:10275000044D054C0549DF1F33E700BFE874FF1F38
:10276000C474FF1F1C3AFF1F5455FF1FEC54FF1F7A
:10277000BC74FF1F3A493B4A0B78106883F0010391
:10278000421E0B70092A5AD8DFE802F01B21282FBD
:10279000363D444B5205344934480B8803EB432201
:1027A00003EB820303F5585319339BB203EB132257
:1027B000D2B202EBC202D2110132D2B20B8002605D
:1027C0007047002B294B08BF022018607047002B70
:1027D000264B14BF032204221A607047002B234BA0
:1027E00014BF052206221A607047002B1F4B14BF2E
:1027F000072208221A607047002B1C4B14BF0922C5
:102800000A221A607047002B184B14BF0B220C22AF
:102810001A607047002B154B14BF0D220E221A6050
:102820007047002B114B14BF0F2210221A60704703
:10283000002B0E4B14BF112212221A6070470A4956
:102840000A480B8803EB432203EB820303F558533A
:1028500019339BB203EB1322D2B202EB8202AAE736
:10286000743AFF1F0022FF1FC215FF1FA815FF1F8C
:102870002DE9F041664B674A1B68674FD35C674E92
:10288000022B84B07CD0664B1868FFF767FE337864
:1028900064498DF80C3003A8FF238DF80D308DF8B6
:1028A0000E3002F0E9FA34785F4B604A60496148C3
:1028B0001B681268096800680134E4B2009434703F
:1028C000FFF786F94EA3D3E90023D7E9000108F00A
:1028D0002BF80022002304460D4608F049FC00288E
:1028E00040F08B800022544B2046294608F05EFCC5
:1028F00000283CD15149C7E90045481C01F57067E3
:1029000010F8013CC3EBC30303EB43131B1200F8A5
:10291000013C4A788B78C2EBC202C3EBC30302EBE3
:10292000421203EB431312121B124A708B700331D5
:102930008F4200F10300E3D1DFF81481D8F8007072
:10294000384608F03DF902460B462046294608F075
:102950000FFC78B13A4933780A6803330132012712
:102960000A603370C8F8007004B0BDE8F08100243C
:10297000314DBFE70137C8F8007004B0BDE8F08101
:10298000D7E9004520A3D3E900232046294608F0D3
:102990007DF9024620462B4C0B46294607F0C2FF24
:1029A0002388294DDFF898E02A7803EB432C03EBCA
:1029B0008C0303F5585319339BB2C7E9000103EBAD
:1029C000132182F001023170002123802A70CEF899
:1029D00000107AB103EB432203EB820303F5585353
:1029E00019339BB203EB1322C2F3811217492380E0
:1029F000931D0B60FFF7BEFE45E70024002579E735
:102A0000000000E051B8BE3F000000403333EB3F10
:102A1000082AFF1FF039FF1F6015FF1FCC75FF1F2D
:102A2000A815FF1FA4A6FF1FC474FF1FEC54FF1FAF
:102A30005455FF1F1C3AFF1F00005440B865FF1F8C
:102A4000E874FF1FC215FF1FF93FFF1F0022FF1F81
:102A5000908FFF1FF0B5564E3368DB0787B040F10B
:102A60009380544C544D2368059395E80600059BCC
:102A70005B1A934255D2514C514B1868FFF76EFDCB
:102A8000237850498DF8083002A8FF238DF80930CB
:102A90008DF80A3002F0F0F925784B4B4B4A4C493F
:102AA0004C48096800681B6812680135EDB2009552
:102AB0002570FFF78DF84849481C01F5706610F83D
:102AC000013CC3EB8312C3EB82031B1200F8013CF1
:102AD0004A788B78C2EB8217C3EB8315C2EB87026F
:102AE000C3EB850312121B124A708B7003318E42A6
:102AF00000F10300E3D1394E3568284608F060F84C
:102B00000022374B08F052FB002839D03549237892
:102B10000A680333013201250A602370356007B06B
:102B2000F0BD314924680B88049403EB432403EB84
:102B3000840303F558532D48204C0278294E19334D
:102B40009BB203EB13272770049F2F6082F00102D2
:102B500000250B80027035607AB103EB432203EB52
:102B6000820303F5585319339BB203EB1322C2F3CC
:102B700081121F480B80931D0360FFF7FBFD7BE76D
:102B80000135356007B0F0BD304605F015F9094C48
:102B9000094D00283FF467AF23680393039B2B6024
:102BA0004FF47A7330466B6005F00CF95BE700BFB9
:102BB000DC74FF1FBCACFF1F8476FF1FCC75FF1FAA
:102BC000A815FF1FA4A6FF1FC474FF1FEC54FF1F0E
:102BD0005455FF1F1C3AFF1FB865FF1FE439FF1F44
:102BE00000001440E874FF1FC215FF1F8C76FF1F02
:102BF0000022FF1FF0B5254F254D83B00324FF268B
:102C00003B888DF8056003EB432203EB820303F559
:102C1000585319339BB259025A1803EB820303F538
:102C200058531933090C9BB201EB410103EB1322FA
:102C3000294401A88DF806603B808DF8042002F03D
:102C40001BF9013CDCD11249481C01F5706610F8F3
:102C5000013CC3EB031203EB02131B1200F8013C0F
:102C60004A788B78C2EB0215C3EB031402EB051212
:102C700003EB041312121B124A708B7003318E4245
:102C800000F10300E3D103B0F0BD00BFC215FF1F88
:102C9000942AFF1FFFFFFFFF30B5474B85B01B682D
:102CA000039303984FF4AF1303FB00F0000EC3B27D
:102CB000590671D5DB43D9B201F00F035A1C01F05C
:102CC0003F010B113D495B00CC18CB5C61783C4C5B
:102CD00011FB02F203EB2213DBB2020648BF5B4298
:102CE0005BB2803BDBB203EB830203EBC200C0F3B9
:102CF000072007F055FF0022324B08F0F1F80022C0
:102D0000314BC4E90001CDE9000107F0BFFF08F035
:102D100095FA9FED252BFF238DF808009DED003BD4
:102D2000B0EE421AF0EE621AB0EE420AF0EE620A1B
:102D300002A89FED1F4B8DF809308DF80A30FEF781
:102D40008FFF2249481C01F5706510F8013CC3EB68
:102D5000C30303EB43131B1200F8013C4A788B7842
:102D6000C2EBC202C3EBC30302EB421203EB4313F9
:102D700012121B124A708B7003318D4200F1030056
:102D8000E3D1022194ED000B114804F081FC1048BE
:102D900004F024FC05B030BD03F03F0103F00F0246
:102DA0008FE700BFAFF30080000000000000084084
:102DB000000000000000E03FBCACFF1F08C00000A6
:102DC0007875FF1F0000244000004E40942AFF1F2A
:102DD0005817FF1F70B5374C374D384E384808210B
:102DE00006F0E0FA2978204604F048FC304601213C
:102DF00006F0D8FA0A21334806F0D4FA95ED080B0C
:102E00002046022104F044FC3046012106F0CAFAB3
:102E100095ED0A0B2046022104F03AFC30460121D0
:102E200006F0C0FA95ED0C0B2046022104F030FCB0
:102E30003046012106F0B6FA0B21234806F0B2FA1B
:102E400095ED020B2046022104F022FC30460121C0
:102E500006F0A8FA95ED040B2046022104F018FCB8
:102E60003046012106F09EFA95ED060B2046022120
:102E700004F00EFC3046012106F094FA05211348B7
:102E800006F090FA00230A2295F83C10204604F040
:102E9000B5FB3046012106F085FA0C210C4806F0FE
:102EA00081FAA96B204604F0E9FB2046BDE870409A
:102EB00004F094BB5817FF1F9076FF1F3CBF000023
:102EC00048BF000054BF000060BF00006CBF00009E
:102ED00074BF000084B0F0B583B0DDE9104508AEE2
:102EE00086E80F00204629460022002308F054F906
:102EF000002871D0294600223C4B204607F014FDE3
:102F000008F074F90546DDE9126700220023304617
:102F1000394608F041F9002854D00022334B30469E
:102F2000394607F001FD08F061F90446DDE9146750
:102F3000002200233046394608F02EF9002838D008
:102F400000222A4B3046394607F0EEFC08F04EF9D5
:102F500004EBC50400EBC404254A9DF8583052F830
:102F600024408DF802309DF85C208DF80020FF236E
:102F700001A968468DF8013001F07EFF04EB44039F
:102F80001C489DF80440C25CC11882FA54F2C25435
:102F90009DF805304A7882FA53F24A708B789DF892
:102FA000062083FA52F38B7003B0BDE8F04004B002
:102FB000704700220D4B3046394607F0B3FC08F04D
:102FC00015F9C5E70022094B3046394607F0AAFC3F
:102FD00008F00CF90446A9E729460022034B2046D5
:102FE00007F0A0FC08F002F905468CE70000E03F7E
:102FF0000422FF1FB856FF1F2DE9F04F2DED068B61
:1030000095B09B4B0D939FED969B9FED97AB002347
:10301000984FDFF88882DFF88892974C9FED978A67
:103020004FF0030B9A460D9AD8F86C5352F8043BB4
:103030000D92934A934952F82330934AB3F5167F81
:10304000A8BF4FF4167323EAE3731B0282FB03202D
:10305000DB17C3EB20200126CAF3870EC0B200960F
:103060000346724689F8000087F800E013A801F0D3
:10307000A3FE05EB450160189DF84CE004F801E063
:10308000D8F88C539DF84D109DF84EE099F800301B
:103090003A780096417080F802E07A4913A801F06E
:1030A0008BFE05EB450160189DF84CE004F801E04B
:1030B000D8F86C549DF84D109DF84EE099F800300A
:1030C0003A780096417080F802E06E4913A801F04A
:1030D00073FE05EB450199F800303A78D8F88C5426
:1030E0009DF84CE00096661804F801E09DF84D004C
:1030F0009DF84EE07070634986F802E013A801F075
:103100005BFE99F800200F9205EB45056319164602
:103110009DF84C009DF84D109DF84E206055642E92
:1031200059709A7040F28A80584B58491B88584E03
:1031300003EB432203EB820303F5585319339BB28D
:1031400003EB13220B80D3B20E93002301E0642B18
:1031500074D09D014E49725D0133002AF7D14B199D
:10316000012283ED089B83ED0A9B58464A55109334
:1031700007F026FD0E9B03F1400E5FFA8EFE109BBA
:103180001EF0400FC3E90C0100F067816FEA0E02E8
:10319000D2B202F00F01013102F03F023D4B119318
:1031A0001211520098189A5C407810FB01F102EB62
:1031B00021121EF0800FD2B218BF524252B207EE57
:1031C000902AF8EEE77A721987EE887A109217EE55
:1031D000100A07F007FD109A119BC2E902010E9A2E
:1031E00012F0400F00F03381D243D2B202F00F014F
:1031F000013102F03F021211520098189B5C427894
:1032000012FB01F10E9A03EB21131206DBB248BF49
:103210005B425BB207EE903AF8EEE77A354487EE10
:10322000887A17EE100A07F0DDFC85ED06ABC5E9DC
:1032300004013B780F9AAA6385F83C300BF1FF3B01
:10324000BBF1FF3F0AF1FF0A07F10107A8F10408EB
:103250007FF4E9AE104D0026A5F1280AB14628E01A
:103260000000000000000C40000000000000000012
:10327000B015FF1FE074FF1FB856FF1F00007A440F
:10328000AC54FF1F3C3AFF1F37800B6DC215FF1F68
:103290009076FF1F08C00000B876FF1F0422FF1FB2
:1032A0007075FF1F05F8289C0136642E05F1400556
:1032B0003FD015F8283C002BF6D015ED020B07F097
:1032C0006BF951EC100B07F091FF071EEADB95ED4F
:1032D000000B07F061F951EC100B07F087FFB0F11C
:1032E0000008DFDB95ED020B07F056F9062FD9DC5D
:1032F000B8F1060F51EC100BD4DC07F077FF06286D
:10330000D0D80AEB861C0CF1100EBEE80F006F46F9
:103310000FC7BEE80F000FC79EE80F0087E80F0039
:1033200001369CE80F00FFF7D5FD642E05F140053E
:10333000BFD14C4B4C4A1B684C4DB3F57A7FA8BFAC
:103340004FF47A7323EAE37303EB830103EB410346
:1033500082FB0312DB17C3EB22232A68C3F10A03A3
:1033600093421CDA424F002307F5C8582B6017F828
:10337000203C8BB107F118093E4656E90623D6E9F1
:10338000000107F0D1FAE6E802014E45F5D13B7E97
:10339000053B23EAE373BB614037B845E7D1DFF86B
:1033A000D8E00EF5006CAEF5807606F11C0006F153
:1033B0001007314651F8042B50F8043902EB420251
:1033C00003EB430314F8028004F8038022442344EF
:1033D00092F8018083F8018092789A708F42E9D147
:1033E0002036B645E1D10EF5807EF445DBD1FFF7FE
:1033F000F1FC2B681F4C01332B6004F57066651CD3
:1034000015F8013C03EB430203EB820303EB0313C8
:103410001B1205F8013C6278A37802EB420003EB33
:10342000430102EB800203EB810302EB021203EB88
:10343000031312121B126270A3700334A64205F12B
:103440000305DDD115B0BDEC068BBDE8F08F0E99FC
:1034500001F03F0201F00F01CDE60EF03F020EF049
:103460000F019BE69839FF1F9F747841AC56FF1FF0
:10347000B076FF1FB856FF1F0423FF1FFFFFFFFF9B
:103480002DE9F047DFF868A185010AEB050488B053
:1034900094F83D308BB9A06807F092FBD4E9066739
:1034A0008046894602460B463046394607F060FEA4
:1034B00000285BD108B0BDE8F087636B226B9342B4
:1034C00004DA0133636308B0BDE8F087002646A341
:1034D000D3E90023D4E90A01666307F025FA06461A
:1034E0000F465AF80500C4E90A6707F069FBCDE901
:1034F0000401606807F064FBCDE90201A06807F0F1
:103500005FFBCDE90001206A257B07F059FB002213
:1035100080468946304B3046394607F0B7FB0246B5
:103520000B464046494607F0FFF907F087FEFF23A8
:103530008DF81C0047EC136B9DED002B9DED021BDD
:103540009DED040B07A89FED224B8DF81D308DF8E3
:103550001E50FEF709FCE368012BABDDA26B9B1A42
:1035600083F30803E36008B0BDE8F08732463B46CA
:103570004046494607F0D6F90022184B07F0B0FC48
:1035800032463B4607F0D0F963685AF80550144FAD
:10359000144EC4E9060103EBC50507F027FE00EB56
:1035A000C500226A57F820108DF81C2001EB41015C
:1035B0003222FF23314407A88DF81D208DF81E30DC
:1035C00001F05AFC08B0BDE8F08700BFAFF30080FF
:1035D000000000000000F03F0000244000005940BF
:1035E0000422FF1FB865FF1F000000A09999C93F82
:1035F000F83AFF1F2DE9F04FAA4BAB4A1B68D35C8A
:10360000022B85B000F0BF800025A84C2E4606E0B6
:1036100084F83C600135142D04F1400413D094F873
:103620003C10A34B00220029F4D0D4E90A0107F092
:10363000BDFD0028ECD128460135FFF721FF142DF0
:1036400004F14004EBD19B4B00939B4DDFF874A237
:1036500000230193009B994A1B6AB3F5617FA8BFC1
:103660004FF4617323EAE37303EB43035B0082FBD4
:10367000032C9C44DB17C3EB6C232B60002B56D030
:10368000019ADFF84892DFF84882D410A0341A4635
:10369000E4B24FF0000BFF276426B9F800308DF834
:1036A0000C4003EB432103EB810101F55851193123
:1036B00089B201EB412301EB830303F5585319331E
:1036C0009BB203EB432E03EB8E0E0EF5585E0EF10C
:1036D000190E1FFA8EFE01EB112103EB13230EEBE3
:1036E0001E20C1F34211C3F3421303EBC103C0F325
:1036F000C01101EBC30306FB02F258F82310704B14
:103700008DF80D7083FB0203D217C2EB630201EB4D
:1037100041016432514403A88DF80E20A9F800E05D
:1037200001F0AAFB2A680BF1010B5A45B5DC019B9D
:10373000009A8C330832B3F50C7F0193009289D143
:10374000604C651C04F5706615F8013CC3EB8312F0
:10375000C3EB82031B1205F8013C6278A378C2EB2D
:103760008210C3EB8311C2EB8002C3EB8103121200
:103770001B126270A3700334A64205F10305E3D166
:1037800005B0BDE8F08FDFF84CA1DFF84C91474E53
:1037900015274FF00008CAF80070C9F800703446C9
:1037A00045460FE094F83D10474B002229B9D4E973
:1037B000060107F0F1FC002863D10135142D04F156
:1037C00040040BD094F83C30002BEBD12F46013550
:1037D000142D4FF0010804F14004F3D1B8F1000FAB
:1037E0005DD13A49D9F800000B8803EB432203EB83
:1037F000820303F5585319339BB203EB432203EBC7
:10380000820202F55852193292B202EB422402EBC4
:10381000840404F5585403EB132302EB12228001B5
:103820001934DBB2C2F38112A4B2023203EB830378
:10383000325003EB8303064404EB14229B11C2F3C2
:1038400081124FF000084FF000094FF0C80E02320D
:10385000062709253362052001230C800021C6E9D3
:103860000689C6E90A89C6F80CE07260B76075611E
:10387000B06386F83C3033637363316186F83D1082
:10388000C2E6B8F1000F07D106EB85160123CAF88E
:10389000005086F83D30B7E6C9F80070F4E7C9F883
:1038A00000709EE7082AFF1FF039FF1FF83AFF1F3C
:1038B00000002440AC54FF1F8075FF1FAF52799168
:1038C00067666666B865FF1F00000840C215FF1FE7
:1038D0000422FF1F0C2AFF1F343AFF1F70B5624CF1
:1038E0002378612B23D0622B49D0662B58D0692BCB
:1038F00000F09F806D2B5AD06F2B00F09E80732BB1
:103900002DD0742B6FD0782B69D0792B7BD07A2B6C
:1039100040F09F80554B60781870A178E27859701C
:1039200018469A7007F000FD514B187070BD4F4B50
:103930006078A178E2781870184659709A7007F08C
:10394000F3FC4C4A4C4B014611604C4803221A6070
:1039500003F094FE494803F041FE2378CCE7434B43
:103960006178454AA5781970E4785D70184604219D
:103970009C70116007F0D8FC414B187070BD3B4B38
:103980003D4A61781970A678E5785E701846042182
:103990009D70116007F0C8FC3A4A23781070ABE7BD
:1039A000354B394A1968116000221A6070BD2F4BDF
:1039B0006078A178E2781870184659709A7007F00C
:1039C000B3FC324B2C4A1860022319462B48136073
:1039D00003F054FE294803F001FE23788CE7264BC0
:1039E00001221A6070BD214B6178234AA5781970B5
:1039F000E4785D70184604219C70116007F094FC17
:103A0000234B187070BD194B6078E278A17818705C
:103A100018469A70597007F087FC1E4B1E4C1860B0
:103A200007F0CEF800221D4B07F05AFAC4E9000156
:103A300070BD1B4B00221A7070BD134C0F482168DB
:103A400003F01CFE0D4803F0C9FD0B4B22681A6001
:103A500070BD702B06D1054B6078A178E2781870A4
:103A600059709A7070BD00BF0840FF1F303AFF1FA9
:103A70006815FF1FA015FF1F3415FF1F5817FF1FE4
:103A8000333AFF1F6915FF1F7C3AFF1F9815FF1F70
:103A9000A415FF1F9439FF1F9015FF1F0000594008
:103AA0008C15FF1F38B5084C251D14F8010B05F0C7
:103AB000FDFCAC42F9D1054803F090FDFFF70EFF85
:103AC000034B00221A7038BD0840FF1F5817FF1F14
:103AD000A856FF1FF8B5124E124D134F04F014FCF8
:103AE00000B9F8BD3478002CFBD104F01DFC2B7814
:103AF000C0B23BB13E280D4B09D01A78511CB854C6
:103B00001970EBE73C28E9D101232B70E6E7074B5E
:103B10002C7019781C7001227C543270DEE700BFD3
:103B2000A856FF1F3476FF1F0840FF1FF83FFF1FF6
:103B30002DE9F043DFF86C90DFF86CC0D9F8008015
:103B40004FF0000E08F14807A7F14000ACF1E00685
:103B500065462EF00604A0F1080332462946012CE2
:103B60000CBF0B60136001338342A1F10401A2F189
:103B70000402F4D103F108008742A5F1200506F103
:103B80002006E8D10EF1010EBEF1080F03F148073F
:103B90000CF5807CD8D108F50073C9F80030BDE879
:103BA000F08300BFE839FF1F0023FF1F2DE9F0431A
:103BB0000F2183B0544805F0F5FB544803F00EFD87
:103BC000534801F0A1FA534801F09EFA524801F01F
:103BD0009BFA4FF4FA6003F049FF11214F4805F0BA
:103BE000E1FB4A4803F0FAFC40F6354004F004FBE0
:103BF000642004F0F9F91B21494805F0D3FB434840
:103C000003F0ECFCFFF794FF0B21464805F0CAFBDC
:103C10003E4803F0E3FCFDF731FA1521424805F078
:103C2000C1FB3A4803F0DAFC4048036813F0010492
:103C300047D03F493F48DFF804914FF4807200239A
:103C40000C4600F0D3FE3C4B64201B7889F8003012
:103C500004F0CAF94846012100F0F0FFC82004F042
:103C6000C3F904F570680027FF266425214601A8E2
:103C700003348DF804708DF805608DF8065001F05E
:103C8000FBF84445F2D199F800102C4800F014FFDD
:103C900041F2883004F0A8F90121284800F0CEFF55
:103CA0000B21274805F07EFB184803F097FC0F21F5
:103CB000244805F077FB154803F090FC03B0BDE8FD
:103CC000F08304F079F80028B3D01F49194B086835
:103CD0005C60FF2201255C619C609D741A735A73BD
:103CE0009A73DA731A745A7460B1184A116801B180
:103CF0008B60174913600D48196000229A6104F027
:103D000061F896E70B60F0E784BF00005817FF1FCB
:103D10001076FF1F1C76FF1F2876FF1F94BF000040
:103D2000A8BF0000C4BF0000D0BF0000D821FF1F03
:103D3000942AFF1FDC21FF1F6815FF1FDCA6FF1F51
:103D4000E8BF0000F4BF0000ECA6FF1FFCA6FF1FA9
:103D5000F4BE00002DE9F04F0026DFF8E0A0354F5B
:103D6000DFF8D48083B03546FF24AAF5807B0BF1C1
:103D70002009032EDBF800108DF8045011DD01F549
:103D8000007101EB4101394401A88DF805408DF81F
:103D9000064001F071F8DBF800108DF8045001F5D1
:103DA000407101EB4101394401A88DF805408DF8BF
:103DB000064001F061F898F800101F4800F07CFE02
:103DC0003C2004F011F91B4A511C02F5706011F8F7
:103DD000013C03EB431E03EB4E03C3EB83031B12B7
:103DE00001F8013C92F801E093780EEB4E1C0EEBCB
:103DF0004C0E03EB431C03EB4C03CEEB8E0EC3EBDC
:103E000083034FEA2E2E1B1282F801E093700332D7
:103E1000904201F10301DAD10BF1040BCB45A8D19B
:103E2000DA45A4D10136082E0AF5807A9DD103B077
:103E3000BDE8F08F942AFF1FDCA6FF1F0423FF1F9D
:103E40002DE9F047DFF8B480DFF8B490D8F80030FF
:103E5000FF2B3AD013B9D9F8002092BB204B214D4B
:103E60001B78214A214C52F82330214E98472A785A
:103E7000204B53F82230984798F800A004F570675B
:103E80002546314628465246033500F067FFBD42BD
:103E900006F10306F5D1D8F80030174DC3F1FF0342
:103EA000DEB2294620463246033400F057FFBC42BA
:103EB00005F10305F5D1D8F80030C9F80030BDE8A8
:103EC000F087074A074D1370CBE7D9F80030054D4E
:103ED000FF2B01D000232B70014B1B78C1E700BFE3
:103EE0008C2AFF1FC475FF1FAC15FF1F942AFF1FEC
:103EF000B865FF1F9C15FF1FB856FF1F948FFF1F4B
:103F0000B056FF1F2DE9F0410D4CDFF840800D4FFA
:103F10000D4E82B004F5706598F800103A78337849
:103F20008DF8051001A8214603348DF806208DF880
:103F3000043000F0A1FFAC42EED102B0BDE8F08148
:103F4000942AFF1F6915FF1F333AFF1FA415FF1F97
:103F5000124B1B68013B042B1ED8DFE803F005075A
:103F6000091B0300FFF7F6BEFCF788BAFEF742BE56
:103F700070B5FEF76FFD0A4C0A4D04F570662946D0
:103F80002046FF22033400F0E9FEB44205F10305A8
:103F9000F5D170BDFEF780BE704700BFA015FF1FB2
:103FA000942AFF1FB865FF1F4E4B1B68013B70B57D
:103FB000092B06D8DFE803F00A1B5F3D812C704E09
:103FC000920670BDBDE87040FFF7C4BE464C474D39
:103FD000FDF7E6FF04F5706629462046FF2203340C
:103FE00000F0BCFEA64205F10305F5D170BD3E4CC4
:103FF0003E4DFCF795FB04F5706629462046FF22EE
:10400000033400F0ABFEA64205F10305F5D170BD07
:10401000354C374DFFF7EEFA04F570662946204619
:10402000FF22033400F09AFEB44205F10305F5D1F6
:1040300070BD2D4C2D4DFEF7C5F904F5706629466F
:104040002046FF22033400F089FEB44205F1030547
:10405000F5D170BD244C254DFEF7CEFF04F57066FA
:1040600029462046FF22033400F078FEB44205F1D1
:104070000305F5D170BD1C4C1C4DFCF743FA04F54B
:10408000706629462046FF22033400F067FEB442E2
:1040900005F10305F5D170BD134C154DFEF7E8FB96
:1040A00004F5706629462046FF22033400F056FED0
:1040B000B44205F10305F5D170BD0B4C0B4DFEF775
:1040C0004FF804F5706629462046FF22033400F0BD
:1040D00045FEB44205F10305F5D170BDBDE8704061
:1040E000FCF7CCB99815FF1F942AFF1FB856FF1F85
:1040F000B865FF1F70B51A4B1B6882B0042B06D839
:10410000DFE803F0072125290300FFF7FBFE02B0DB
:1041100070BD144C002504F57066214601A80334D7
:104120008DF804508DF805508DF8065000F0A4FE6F
:10413000B442F2D103210C4805F034F90B4803F0E6
:104140004DFA02B070BDFFF77BFE02B070BDFFF705
:104150002BFF02B070BDFFF7FBFE02B070BD00BFC9
:104160003415FF1F942AFF1F04C000005817FF1FBB
:10417000F8B5FFF7AFFC3D4B1B78002B44D13C4C0E
:104180002378002B46D13B4D3B4E33782B703B4878
:1041900000F0E2FF18B13A4A13680133136039485E
:1041A00000F0DAFF18B1384A13680133136037485A
:1041B00000F0D2FF18B1237883F001032370FDF7DC
:1041C0006BFBFFF797FF324B03F5407493F8000346
:1041D00093F8011393F8022383F8000983F8000C85
:1041E00083F8011983F8011C83F8022983F8022C53
:1041F0000333A342EAD1052003F0F6FE29781D48D7
:10420000BDE8F84000F058BC194CFFF74BFC237890
:10421000002BB8D0162003F067FCC0F57F70033088
:10422000652303FB00F3002BB8BF03F2FF33124EEC
:10423000104D184FC3F387230F2033702B7003F0FA
:1042400053FC40F2E93303FB00F00028B8BF00F252
:10425000FF30801206F0B4FC0F4B002206F040FE47
:104260002378C7E90001002B91D18EE7A856FF1FE4
:104270008C15FF1FDCA6FF1F6815FF1F1076FF1FA0
:104280003415FF1F1C76FF1F9815FF1F2876FF1F90
:10429000942AFF1F9015FF1F000059402DE9F0439D
:1042A000032185B08F48904F904CDFF8A08200F03A
:1042B0001FFF04218E4800F01BFF0C218D4800F0E9
:1042C00017FF3A68C4F800800023637223612372E9
:1042D000E3600AB9FFE01A465369002BFBD1546131
:1042E0000026854D854B81486661A680E680A672D2
:1042F000236001F019FA042005F128023346314603
:104300002E72EE60C5F8008068722A612E4600E0C9
:10431000326942F823106A7A774801339A42F7DC0F
:104320003A68714B0AB9D8E01A465369002BFBD1A1
:104330005561734EDFF818C2C6F8008000214FF4B3
:1043400080304FF0010E06F5A25286F809E00B46C8
:1043500032616961A980E980A9723172F160B64663
:10436000C5F800C0A861E8612862686201E0DEF873
:10437000102042F82310727A614801339A42F6DC29
:104380003A68594B0AB9AAE01A465369002BFBD187
:10439000566141F23C4241F23D430027DFF8B481CF
:1043A00058495948B754F7543A4601233160C6F882
:1043B00018044FF480617761B780F780B772534873
:1043C000DFF8949106F00CF8404688E8300088F851
:1043D000087088F80970C8F80C7088F8107002F03E
:1043E00031FE4B4A4B49404606F098FFDFF86C819E
:1043F000C9F80C700123484689F8083089F809305B
:1044000089E8300089F8107002F01CFE404A4149EA
:10441000414C484606F082FF404688E8600088F834
:10442000087088F80970C8F80C7088F8107002F0ED
:1044300009FE374A3749404606F070FF374B384A85
:104440001A6038480A221A7200F0CCFD04F5A075F3
:104450002046143400F0C6FDAC42F9D1324B334C47
:1044600003F1400122680392039A43F8042B8B4224
:104470002E4AF7D113680193019E136802932C4DC5
:104480002C4B029A2C492D481A602E60FCF798FD9F
:104490002B4B002203F5B45003F5347103F8042CC0
:1044A00003F8032C24339942F8D188420B46F3D108
:1044B000244B002203F5A06103F8042C03F8032C1D
:1044C00040338B42F8D123680093009A1E4B1A6048
:1044D00005B0BDE8F0833C6002E7186029E718608A
:1044E00057E700BF1076FF1F0CACFF1F003AFF1FFD
:1044F0001C76FF1F2876FF1FC03AFF1F40C8000030
:104500001440FF1F18C0000038C000005854FF1F9F
:104510003015FF1F750900006855FF1F203AFF1F67
:1045200024C00000C874FF1F3C76FF1FBCACFF1FF7
:10453000902AFF1FB874FF1F10BF00003C3AFF1FF6
:104540004490FF1F383BFF1FE039FF1FE8BE00000B
:104550004CC80000502AFF1F642AFF1F782AFF1F43
:1045600008B5064A064B12791A7003F019FD054A80
:10457000054B106000221A7008BD00BFCCA6FF1FBB
:104580001F800040B0A6FF1FC8A6FF1F10B504463D
:1045900002F08AFE204610BDF0B4064F064E074DCD
:1045A000074C39809DF8101032602B602170F0BCF0
:1045B000704700BFB8A6FF1FB4A6FF1FC4A6FF1F09
:1045C000ACA6FF1FF8B5A24BA24E1C88306804EBC6
:1045D0004404E4002246002107F0B8F99E4B186815
:1045E000002800F003812246002107F0AFF99B4B21
:1045F0009B4F9C4DFF221A600121022003F0CAFC50
:1046000001210E2003F0C6FC0121072003F0C2FCAB
:104610000121082003F0BEFC0121062003F0BAFCB2
:104620000121142003F0B6FC0121152003F0B2FC97
:104630000520012103F0AEFC8B4B8C4A1B788C4982
:10464000DFF858C203F0F003102B4FF0080E4FF0C4
:1046500000030CBF95204A2013603B600860C2F83D
:1046600000E0A1F5DD210CBF4FF0230E4FF0110E3D
:104670004FF06902CCF800207E482A60A1F5FC6169
:10468000C7F80CE0DFF808E27B4A0CBF672533254A
:1046900005600A60DEF80020784DD3710221917127
:1046A0007748D18810601561D58B938021F4E06143
:1046B00021F00701D360938293612F044FF001032F
:1046C0009360D18000F19580B4F5004FA1B2C0F2A3
:1046D0008A80958B6B4FD6F800C03B686A4EADB2AE
:1046E00045F00805958300250222DD719A71C3F813
:1046F00000C0DA88D983D9821E616642DE60DE8B13
:104700009D8222F4E0629D61012522F007029D80D6
:104710009D603504DA8000F18980B4F5004F5FDBDD
:104720009A8B5A4D92B242F008029A832B684B4AF8
:104730001860022098710020D8711A61DA88988078
:1047400022F4E06222F00702D86098829861D88B48
:10475000DA8001229A6002045AD4B4F5004F3CDB9F
:104760009E8B9EF804404A4A46494848B6B246F0F5
:1047700008069E839E8B04F18044B6B204F504348F
:1047800046F002069E830026B123267023703B79F3
:1047900003F1804303F504339E241E701C702B79B3
:1047A00003F1804303F504339F241E701C7002F054
:1047B00097FD2A793748384D53119B0003F1604328
:1047C00002F1100403F5614302F01F02012101FA16
:1047D00002F240F824501A60F8BDD983D982BFE7AD
:1047E000D983D9829CE7D183D18272E732681A607B
:1047F000FDE6B4F5007F28DAD38BA1B203F47E4343
:104800000B43D383D38A03F47E430B43D38260E705
:10481000B4F5007FA4DADA8B02F47E420A43DA832D
:10482000DA8A02F47E421143D98299E7B4F5007F17
:10483000BFF676AFDA8B02F47E420A43DA83DA8A75
:1048400002F47E420A43DA826AE7A1B241E700BF7E
:10485000B8A6FF1FB4A6FF1FC4A6FF1FC8F00F40D5
:1048600004800B4014800B40ACA6FF1F00800B405F
:1048700008800B4018800B4000030100C4F00F407B
:10488000C015FF1FD4A6FF1FC0F00F40CCA6FF1F0E
:10489000BCA6FF1F0010FF1F614500000C800B40ED
:1048A000F8B52C4C2378002BFCD12B4A2B4B1168EC
:1048B0001868814206D02A4B1A8802EB4202D200C5
:1048C00003F098F9274D03F06BFB2B68C01AB0F585
:1048D000967FF8D324482549254A282303600B6096
:1048E000136872B610390A689342FCD221490A68EB
:1048F0009342FCD31F4802681E499342FBD81E4EC8
:104900001E4D1F4837792E79174BDFF87CE0174A88
:10491000002505600D60012121701A4D28244FF4F7
:104920008061CEF800101C606921D3F800E02D7979
:1049300019606FF47F6EA3F52F237344146008246D
:10494000D2F800E011601F701E701D70046062B626
:10495000F8BD00BFC8A6FF1FC4A6FF1FB4A6FF1F57
:10496000B8A6FF1FB0A6FF1F0C800B4014800B40A1
:1049700018800B4004800B40BCA6FF1FD4A6FF1F6D
:1049800000800B40CCA6FF1FA09004402DE9F04111
:10499000DFF85480104D114C114F124E404600214B
:1049A00002F01CFC2A462146404606F0B7FC384679
:1049B000002102F013FC2A462146384606F0AEFCE0
:1049C0003046002102F00AFC2A4621463046BDE866
:1049D000F04106F0A3BC00BF3015FF1F8D4500005D
:1049E000D4A6FF1FCCA6FF1FBCA6FF1FF8B51E1E36
:1049F00003680446CCBF02EB420500250F469B68C6
:104A0000D8BF164698477A19236862605B690A4ADC
:104A10006661934201D12046F8BD204698470028A0
:104A2000F9D0064A064B516893FBF0F0884238BF34
:104A3000084650602046F8BD6D040000DCA6FF1F4C
:104A400040420F00084B10B51C685CB16368002140
:104A5000184623B1626902EB420206F077FFA468B0
:104A6000002CF3D110BD00BFECA6FF1F70B40F4C9B
:104A70002268531C8A4283B0236013DB0C4D0D4A1D
:104A80002968019101992D6800951668009D1560AF
:104A90004FF47A720025891B02FB03F32560B3FBF8
:104AA000F1F3438003B070BC704700BFF0A6FF1F56
:104AB000BCACFF1FF8A6FF1F2DE9F04F43682D4C3B
:104AC00083B006468946002B4BD103F069FAF368A0
:104AD00020601BB14846B16898478146264B1C6848
:104AE0000025002C36D07388A77C61686269632B2F
:104AF000236898BFA574D3F804808DF804508DF80E
:104B000005508DF80650B9F1000F1CD004F10B03CD
:104B10000DF1040E04F10E0C13F801BFBBF1000FF0
:104B20000DD093F803A00AF101000BFB0000BAF1CD
:104B3000000F04D009FB00F0000C8EF80000634564
:104B40000EF1010EE8D1204601ABC047A774A4685E
:104B5000002CC8D130461921FFF788FF03B0BDE80B
:104B6000F08F03F01DFA22687368801A9842AAD366
:104B7000ABE700BFF4A6FF1FECA6FF1F2DE9F04F27
:104B800043682C4C83B006468A469146002B49D197
:104B900003F006FAF36820601BB14846B1689847F5
:104BA0008146254B1C680025002C34D07388A77CD7
:104BB0006269632B236898BFA574D3F800808DF8D1
:104BC00004508DF805508DF80650B9F1000F1AD039
:104BD00004F10B0301A804F10E0E13F801BFBBF1A1
:104BE000000F0CD093F803C00CF101010BFB011175
:104BF000BCF1000F03D009FB01F1090C01707345F2
:104C000000F10100E9D1204601AB5146C047A7742D
:104C1000A468002CCAD130461921FFF727FF03B042
:104C2000BDE8F08F03F0BCF922687368801A9842DF
:104C3000ACD3ADE7F4A6FF1FECA6FF1F10B50446EA
:104C400082B051B100231A4601A98DF804308DF8C5
:104C500005308DF80630FFF791FF2046FFF7F2FE92
:104C600002B010BD00207047044B0022FF204FF01F
:104C7000FF31187099605A80DA607047DCA6FF1F18
:104C80002DE9F04F8B42099E52D396F800E015783B
:104C9000777896F80280547892F802C0C1EB030B43
:104CA000C5EB0E0EC4EB070ACCEB08061FFA8BF21D
:104CB0004FEACE1E4FEACA1AF601B2B30FFA82FBD0
:104CC0009EFBFBFE9AFBFBFA4FEA4E0E4FEA4A0AA6
:104CD00096FBFBFB99424FEA4B0B1FFA8EFE1FFA25
:104CE0008AFA1FFA8BFB4FEA05254FEA04244FEAA4
:104CF0000C2218D801EB41070131C61989B24FEADD
:104D000025294FEA24284FEA222C754454445A445A
:104D10008B4200F80790ADB286F80180A4B286F805
:104D200002C092B2E6D2BDE8F08F4FF0010BC7E7A8
:104D30008946357892F800E07478577896F802C082
:104D400092F802801570194686F800E04B465470C0
:104D5000777082F802C086F802809FE722B3FF2AAC
:104D600023D0F0B404780E78437895B2A719D243D3
:104D700006FB0576D2B204FB0264C4F30724047078
:104D80004C7886781F1904FB057403FB0243C3F3B8
:104D9000072343708B78F11803FB051506FB0252BD
:104DA000F0BCC2F30722827070470B7803704B7817
:104DB00043708B78837070472DE9F043141104EB36
:104DC000440512F00F020D449DF81C6000D0E6B9B6
:104DD0002C786978AA78FF2B12D0002B43D00133AE
:104DE000DBB21CB103FB0444C4F3072419B103FB79
:104DF0000111C1F307211AB103FB0222C2F30722FA
:104E0000047041708270BDE8F0830F2C2E7895F805
:104E10000190AF7800D0E91C120182F0FF056C1CF4
:104E200091F800C091F801E091F8028004FB06F6C9
:104E3000511C04FB09F504FB07F4C4F30724C6F373
:104E4000072701FB08F201FB0CF6C5F3072501FB60
:104E50000EFE04EB222207EB262605EB2E21F4B2F0
:104E6000C9B2D2B2B7E71A4619461C46047041705F
:104E70008270BDE8F08300BFF0B404784678827891
:104E8000E00000F0F80000EB800303EB03130344A1
:104E90002506C3F307235FD404F0400505F0FF07A0
:104EA00004F02004002D46D104F0FF00002C6CD04B
:104EB0005533DDB2AB243B46FF2E1CD0002E79D0FB
:104EC0001CB106FB0444C4F307241DB106FB0555C1
:104ED000C5F307251BB106FB0333C3F30723F043D8
:104EE000C0B200FB0000C0F30720044405440344A3
:104EF000E4B2EDB2DBB2FF2A18D012FB02F00032AE
:104F000018BF012202EB102212F0FF0256D01CB192
:104F100002FB0444C4F307241DB102FB0555C5F38D
:104F200007251BB102FB0333C3F307230C704D703D
:104F30008B70F0BC704704F0FF075CBB00EBC00453
:104F400000EB440000EBC0000412563BC4F1AB047C
:104F5000DDB2E4B23B46AFE704F0400707F0FF05DF
:104F6000E7B904F0200707F0FF04002F36D100EB6B
:104F7000C00300EB430000EBC000C0F30720C0F10A
:104F8000AB055530EDB2C3B296E7DC43E4B21D4643
:104F9000034691E70024DD43EDB28DE704F02004E1
:104FA00004F0FF0594B903F15504E4B2C3F1AB0377
:104FB000DBB281E7FF231D461C469CE715461446DD
:104FC00013460C704D708B70F0BC7047A3F1560403
:104FD000E4B20025C3F15503DBB26DE7D8431C46AC
:104FE000C3B269E700220021016042608260C260B2
:104FF0000261704700230022026043608360C36047
:1050000003617047026862B9D0ED017A80ED020A4F
:1050100077EE807A012380ED030AC0ED017A036008
:105020007047D0ED027AB4EEE70AF1EE10FA2BD415
:10503000D0ED037AB4EEE70AF1EE10FAC8BF80EDC6
:10504000030A90ED016A531C30EE066A012B80EDD5
:10505000016A036017D907EE903AF8EE677A07EE17
:10506000102AC6EE276AB8EE477A36EEC00A90EDEF
:10507000046A67EE807A67EE807AC7EE876A76EE1A
:10508000267AC0ED047A704780ED020AD9E700BFA6
:10509000036843B107EE903A90ED017AF8EE677A33
:1050A00087EE270A70479FED010A70470000C07F16
:1050B00008B5036813B99FED0D0A08BD07EE903AD5
:1050C00090ED047AF8EE677AC7EE276A16EE900A3A
:1050D00005F088FD41EC100B05F0EEFA51EC100BD9
:1050E00006F0CCF800EE100A08BD00BF0000C07F3B
:1050F00030B464250124002245800471017042719E
:10510000826030BC704700BF0078022102F042BFCD
:1051100030B5104D82682B6883B00093009B9A4293
:1051200003D90379184603B030BD0446007802F075
:1051300023FF23799842F5D02A6801926188019A69
:1051400083F001030A44184601212371A2606171B2
:1051500003B030BDBCACFF1F10B50446FFF7D8FF4D
:1051600020B9637903B16071184610BD0023184659
:1051700010BD00BFF8B50021054601F035FF00283D
:1051800000F0D08041F23C43EB5C072B00F2CA8078
:10519000DFE803F0C9D0D7DEE5ECF304D5F81C74E2
:1051A000C5F8380405F587643B1D224607F582776C
:1051B00005F23C4133F8026B42F8046F9F42F9D18B
:1051C000D5F8207405F5C7623B1D07F5827733F8E3
:1051D000026B42F8046F9F42F9D1D5F8247405F6AA
:1051E00038023B1D07F5827733F8026B42F8046FF3
:1051F0009F42F9D1D5F8287405F638223B1D07F5F2
:10520000827733F8026B42F8046F9F42F9D1D5F8E8
:105210002C7405F638423B1D07F5827733F8026B94
:1052200042F8046F9F42F9D1D5F8307405F6386220
:105230003B1D07F5827733F8026B42F8046F9F42FB
:10524000F9D1D5F8347405F581523B1D183207F5B4
:10525000827733F8026B42F8046F9F42F9D105F56B
:105260009152031D183200F5827033F8026B42F838
:10527000046F8342F9D1D5F8180480B105F588622E
:1052800000F5006732F9043C30F9026B03FB06F3CA
:10529000DB13874222F8043C02F10402F2D105F547
:1052A000A2500430384E05F07DF805F2164705F19E
:1052B000160054F8041F21FB01F1B1FA81F336F80E
:1052C0001320B1FBF2F31A445308B1FBF3F10B4482
:1052D0005B0820F8023FB842EBD141F23D43012286
:1052E000EA54D5F81C0401F03BFED5F8200401F087
:1052F00037FED5F8240401F033FED5F8280401F078
:105300002FFE41F23C430422EA5405F586610EC9A2
:10531000D5F82C04C5F81C04C5F82014C5F82424BD
:10532000C5F82834F8BD41F23C430122C5F81C04FD
:10533000EA54F8BD41F23C430222C5F82004EA5485
:10534000F8BD41F23C430322C5F82404EA54F8BDF9
:1053500041F23C430422C5F82804EA54F8BD41F266
:105360003C430522C5F82C04EA54F8BD41F23C4305
:105370000622C5F83004EA54F8BD41F23C43072246
:10538000C5F83404EA54F8BD50C800000020704746
:1053900000207047F8B5144C037A242908BFC28056
:1053A0005B0001250E462046C1F30721174684F80D
:1053B0003B3084F85E5084F85D5001F03FFBF1B261
:1053C000204601F03BFBC7F30721204601F036FBE6
:1053D000F9B2204601F032FB2946204601F09AFC42
:1053E000B0FA80F04009F8BD7416FF1F70B50126B1
:1053F00004460671344801F035FB052002F0F4FD47
:10540000204644F260023021FFF7C4FF0546002821
:1054100058D06C2226212046FFF7BCFF4FF4F972CA
:1054200028212046FFF7B6FF40F622722C212046A5
:10543000FFF7B0FF44F246423C212046FFF7AAFFA7
:1054400040F2371224212046FFF7A4FF44F2FF0266
:1054500030212046FFF79EFF732202212046FFF7EE
:1054600099FF4FF4C87002F0BFFD41F61D522E2186
:105470002046FFF78FFF042211462046FFF78AFFE0
:105480004FF4987206212046FFF784FF10220A216C
:105490002046FFF77FFF00220E212046FFF77AFF0C
:1054A00043F63C4210212046FFF774FF47F67F7217
:1054B00022212046FFF76EFF362224212046FFF7E7
:1054C00069FF6672284670BD7416FF1F10B504464A
:1054D00019B1012911D0002010BD55222021FFF75C
:1054E00059FF0028F7D0E28842F00402204692B229
:1054F0002421BDE81040FFF74DBF40F273122A216E
:10550000FFF748FF0028E6D0882220212046FFF739
:1055100041FF0028DFD0E288204622F00402242147
:10552000BDE81040FFF736BF38B50546F1B1802918
:1055300003799ABFC1F1800444EA0424002433B9FA
:10554000224628462221BDE83840FFF723BFC28803
:10555000002322F0100203712421FFF71BFF2246D3
:1055600028462221BDE83840FFF714BF012303710C
:1055700047F67F722221FFF70DFFEA8842F0100202
:10558000284692B22421BDE83840FFF703BF00BF90
:105590009FED057ADFED057AE0EE077AFCEEE77A1B
:1055A00017EE901AFFF7C0BF00000143EE7CFF3EEC
:1055B000024A0349034805F0B1BE00BF3015FF1F82
:1055C0008D45000000A7FF1F38B5074D074C084860
:1055D0002A46214605F0A2FE2A4621460548BDE896
:1055E000384005F09BBE00BF3015FF1F8D45000001
:1055F00008A7FF1F10A7FF1F1A4A1B4B11681B4863
:10560000096970B499421279027008D2184A127866
:105610002AB3184A0121116003F5807402E01C4688
:10562000A3F58073144A154912680D68AAB1A5B193
:10563000134E3088402810D841000A444030294495
:1056400002320231308033F9040B22F8020F9C42FF
:1056500033F9020C21F8020FF5D870BC704703F53E
:105660008074DFE724A9FF1F1CA8FF1F1F800040D4
:105670001CA9FF1F08E200E02CA9FF1F20A9FF1FA3
:1056800018A7FF1FF8B5064601F016FC0446E8B15E
:1056900001F012FC054600283AD072B61F4B1A885A
:1056A0007F2A19D8002C31D01D490A6842B162B650
:1056B000204601F055FC2846BDE8F84001F050BCFA
:1056C00018480C601A80056062B6F8BD054672B6CF
:1056D000124B1A887F2AE5D9114A124917681460BB
:1056E00000220C681A800D6062B63946304601F01F
:1056F00061FC384601F034FC30462146012201F0BD
:1057000059FC2046BDE8F84001F02ABC62B6F8BD5D
:10571000204601F025FC2C46BFE700BF18A7FF1F5D
:105720002CA9FF1F20A9FF1FF8B5284C284E294F90
:10573000294D2046012101F051FD00F02BF9274BA6
:10574000274A28484FF480611960236800211A60B5
:10575000998022791E6102F1804240F20116DE80BA
:105760009F6102F504324FF480760627DE82DE83E5
:105770009F8302268C27D9609E609E8211701770CD
:105780002B68194E43F0124343F001032B6003686A
:10579000164D43F01043036001F0C6FC2279144B10
:1057A000144C187053119B0003F16043174602F12B
:1057B000100003F5614302F01F020121377001FA66
:1057C00002F245F820401A60F8BD00BF24A9FF1F6F
:1057D0001CA7FF1F00FEFFFF80F0024014B0044032
:1057E000A2F0024000F002401B8000400010FF1FAA
:1057F0001CA9FF1FF9550000024A0349034805F0A0
:105800008DBD00BF3015FF1F8D45000024A9FF1F6F
:10581000024A0349034805F081BD00BF3015FF1F50
:105820008D45000030A9FF1F024A0349034805F0D7
:1058300075BD00BF3015FF1F8D45000038A9FF1F43
:10584000024A0349034805F069BD00BF3015FF1F38
:105850008D45000040A9FF1F2DE9F8434FF00008D7
:10586000064600F11805474641463046002F4FD006
:1058700001F0BAFBF0B12C68B4F5803F07F10401E8
:1058800000F1040E07F5827C27D05EF8042B34FB70
:1058900002F334FB12F903F30F0209F30F03C2EA18
:1058A00003430A6893FA12F341F8043B8C45ECD8A1
:1058B00001F056FB08F10108B8F1040F05F10405E9
:1058C000D2D1002F40D030463946002201F072FB81
:1058D0003846BDE8F84301F043BB07F10C0100F185
:1058E0000C0451F8083C54F8082C93FA12F341F8D0
:1058F000083C54F8042C51F8043C93FA12F38C45FC
:1059000041F8043C04F1080401F10801E9D8CFE7AB
:1059100001F076FB07460028CCD02868B0F5803F20
:10592000C8D0391D07F582740B6830FB03F230FBD9
:1059300013F302F30F0203F30F03C2EA034341F828
:10594000043B8C42F0D8B5E7BDE8F883024A03492E
:10595000034805F0E3BC00BF3015FF1F8D45000074
:1059600048A9FF1F024A0349034805F0D7BC00BFFE
:105970003015FF1F8D45000050A9FF1F024A034943
:10598000034805F0CBBC00BF3015FF1F8D4500005C
:1059900058A9FF1F284B29491A68294842F4004298
:1059A0001A600A6842F002020A601A6842F00202B3
:1059B0001A600368002B3EDB224B1B68002B3ADB8E
:1059C000214A4FF0804313601368002BFCDBF0B5D5
:1059D0001E4C1F48DFF8A8E01E491F4B1F4A204FEE
:1059E000204E214D4FF2FE0CC4F800C0002404608C
:1059F0000120CEF80000DFF88CE0C1F800E04FF4A1
:105A000080311960194B1360DFF87CE0184A3A6066
:105A10003460286000F18E40CEF80000154CB96764
:105A20001548164946F8503C4FF4C0632A6123607C
:105A300003600B60F0BD70473C8004404080044030
:105A400000F0024080F0024000F1024004F1024008
:105A500060F0024008F002400CF0024010F00240FA
:105A600014F00240E0F0024084F002401B1F0100ED
:105A7000001F1F1F08B004400CB0044018B00440C1
:105A800004F002400100000788F00240024A034986
:105A9000034805F043BC00BF3015FF1F8D450000D3
:105AA00060A9FF1F024A0349034805F037BC00BF45
:105AB0003015FF1F8D45000068A9FF1F024A0349EA
:105AC000034805F02BBC00BF3015FF1F8D450000BB
:105AD00070A9FF1F024A0349034805F01FBC00BF1D
