:1000000000000320D1010000458F0000FD8E00009C
:10001000FD8E0000FD8E0000FD8E0000FD8E0000B4
:10002000FD8E0000FD8E0000FD8E0000458F00005B
:10003000458F0000FD8E0000F1850000F586000070
:10004000458F0000458F0000458F0000458F000060
:10005000458F0000458F0000458F0000458F000050
:10006000458F0000458F0000458F0000458F000040
:10007000458F0000458F0000458F0000458F000030
:10008000458F0000458F0000458F0000458F000020
:10009000458F0000458F0000458F0000458F000010
:1000A0007D7F0000897F0000458F0000458F0000A4
:1000B000458F0000458F0000458F000065950000CA
:1000C000458F00007DA80000458F0000A9A9000011
:1000D000458F0000A1AA0000458F0000458F000059
:1000E000458F0000458F0000458F0000458F0000C0
:1000F000458F0000458F0000458F0000458F0000B0
:10010000458F0000458F0000458F0000458F00009F
:10011000458F000025980000458F0000458F0000A6
:10012000458F0000458F0000458F0000458F00007F
:10013000458F0000458F0000458F0000458F00006F
:10014000AD820000458F000099AB0000458F000094
:10015000458F0000458F0000458F0000458F00004F
:10016000458F0000458F0000957F0000458F0000FF
:10017000458F0000458F0000458F0000458F00002F
:10018000458F0000458F0000458F0000458F00001F
:10019000458F0000458F000091AC0000458F0000A6
:1001A000458F0000458F0000458F0000458F0000FF
:1001B000458F0000458F0000458F0000458F0000EF
:1001C000458F0000458F0000458F0000458F0000DF
:1001D0005C4B4CF2205210B51A804DF628121A8052
:1001E00000BF00BF08F0B2FE574B4FF030621A60FC
:1001F000564A9A60564ADA60564B4FF470021A60BB
:10020000554B564A1A60564B1A78110703D51A787F
:1002100042F008021A70534B5349AA221A70534AEB
:10022000534B8B4204D252F8040F43F8040BF8E707
:10023000504B514900228B4202D243F8042BFAE77B
:100240004E494F4A002352F8230041F8230001335E
:10025000742BF8D14B4B4C4A802103F8011B93427D
:10026000FBD14A4B454A1A60494B8A221A70A3F5C2
:10027000805324225A70A0221A709A799207FCD5D2
:100280009A79D406FCD4434A937903F00C03082BE3
:10029000FAD1414B60221A7002331A78802AFCD1BD
:1002A0003C4B01221A715D225A719A799006FCD555
:1002B0009979384A4906FBD5384B394919600021EC
:1002C000596020231370937903F00C030C2BFAD19F
:1002D000344B354A1A60354A354C136813F4807331
:1002E00003D123604FF4A8531360324B324A1A6093
:1002F00000225A60072243F8042C304AC3F80C2D20
:1003000062B608F0ADFF2368DA0705D52C4808F07F
:1003100005FF2C4B2C4A1A602C4B1B785B0609D529
:10032000284C294B22689A4204D1254808F0F6FE51
:10033000002323600CF0F4F808F00EFE08F03CFDFA
:10034000FEE700BF0E20054030800440823F0400DD
:100350000100002B88ED00E0002008E0030000858C
:1003600002D0074000E007401022FF1F64DA0100BE
:100370003015FF1F1022FF1F50B2FF1F0010FF1F7C
:100380000000000000E400E064E400E008ED00E0AC
:10039000005006400040064001E007404480044011
:1003A0000000060204800440C010070010D0034083
:1003B00014D0034014E000E01FBF02000000202022
:1003C000816220601CE00340A5C3945A00F00740FE
:1003D000FFFFFFFFFFFFFFFFFFFFFFFFFFFFFFFF2D
:1003E000FFFFFFFFFFFFFFFFFFFFFFFFFFFFFFFF1D
:1003F000FFFFFFFFFFFFFFFFFFFFFFFFFFFFFFFF0D
:10040000FFFFFFFFFFFFFFFFFFFFFFFFDEF9FFFF23
:1004100010B5054C237833B9044B13B10448AFF33E
:1004200000800123237010BD1022FF1F0000000078
:1004300068DA0100084B10B51BB108490848AFF352
:1004400000800848036803B910BD074B002BFBD0A0
:10045000BDE81040184700BF000000001422FF1F35
:1004600068DA01001022FF1F000000000020704722
:10047000704700BF4069C000704700BF2DE9F04FD2
:10048000DFF8A4A0DFF8A4B09AF80030244F87B0BA
:100490000133DBB200228AF8003003924FF00109E9
:1004A0000BF58072DDF80C8002925E46002401E0BC
:1004B0009AF8003056F8045F1A49CDF8009004EB22
:1004C00008021A44D2B2FF2305A805EB45050A34F9
:1004D00005F01CFDE4B27B199DF814009DF8151081
:1004E0009DF816207855502C59709A70E0D1029BD7
:1004F0000BF1200B08F105085B455FFA88F802D084
:100500009AF80030D1E7039B0533DBB2282B039325
:1005100002D09AF80030C3E707B0BDE8F08F00BF03
:10052000302BFF1FE83AFF1FF076FF1F5C22FF1FF2
:10053000844B854A196840F6B8338B42A8BF0B46F6
:1005400023EAE37303EB830103EBC10382FB031292
:10055000DB17C3EBA2237D4A1268C3F12A0393423F
:1005600080F2EC802DE9F04F2DED028BDFF8FCA13D
:10057000774A9AF80030774D774C89B001338AF882
:100580000030724B0492002203951A600292059586
:1005900013E0724A1B0282FB0328DB17C3EB2828F7
:1005A000B8F1320F17DC029B039ADC3302F580723C
:1005B000B3F5DC6F0293039264D0049A52F8043FBF
:1005C0000492674A52F82330002BECDBB3F5167F18
:1005D000DFDD4FF0FF08029B039FC3F3C70B00262C
:1005E000B0EE0C8A4FF0010932E007EE906AF8EEA7
:1005F000E77A9AF80020FD69CDF8009077EEC87A86
:1006000005EB4505FDEEE77A5A4417EE903A002BCC
:10061000B8BF5B42D2B298FBF3F3DBB205F076FCD5
:100620006119635D9DF81C2083FA52F363554A7883
:100630009DF81D3082FA53F24A708B789DF81E2087
:1006400083FA52F30136082E8B7007F12007AAD0E7
:10065000F31E012B434907A8C7D89AF80020FD696B
:10066000CDF800905A445FFA88F3D2B205F04EFC00
:1006700005EB4503E118E25C9DF81C0082FA50F29C
:10068000E254D4E7DFF8E880059D374E08F50069AD
:10069000A8F5807C614651F81C3D51F8042F02EB0F
:1006A000420E03EB430306EB0E07E01816F80EA00C
:1006B00097F801E0BF7804F803A06145134680F87D
:1006C00001E08770E9D101F1200CE045E2D101F5AC
:1006D0009078C145DCD1DFF89CE005F58070EA69CF
:1006E00002EB4202A118A35C03EB8306C6EB0616DD
:1006F00003EB46031B12A3544A788B7802EB820764
:1007000003EB8306C7EB0717C6EB061602EB47029F
:1007100003EB4603203512121B12A8424A708B705D
:10072000DDD170450546D8D1084B1A68074B013218
:100730001A6009B0BDEC028BBDE8F08F034B0132AB
:100740001A607047343AFF1FD32A5A57E8A7FF1F91
:100750003815FF1F6022FF1F9C57FF1F37800B6D4E
:100760005C55FF1FE83AFF1F302BFF1FF076FF1F7D
:100770007C23FF1F602AFF1F2DE9F04F624B9B78FF
:10078000022B87B000F0D680604C2368072B40F323
:100790003C825F4EDFF89081D8F80030DB0740F1F3
:1007A00099805C4F5C4D3B68059395E80600059B7E
:1007B0005B1A9A4240F29F80DFF870B1DFF86481E3
:1007C000DFF86CA14FF00809544B53F82910544B33
:1007D000B1F5617FA8BF4FF4617121EAE17101EBCE
:1007E0004101490083FB01300844C917C1EB602176
:1007F000CBF80010002945D0002425469627BAF8EA
:1008000000108DF8085001EB412001EB800101F54B
:10081000585119311FFA81FC0CEB4C200CEB800075
:1008200000F55850193081B201EB412E01EB8E0ECC
:100830000EF5585E0EF1190E1FFA8EFE01EB112017
:100840000CEB1C2CCCF3811CC0F381110EEB1E2091
:1008500001EBCC01C0F3811000EBC101923102A881
:1008600058F821108DF8095001EB410131448DF801
:100870000A70AAF800E005F0A9FBDBF800100134CB
:10088000A142BCDC09F10209B9F1100F9CD1204949
:10089000481C01F5706610F8013CC3EB031203EB32
:1008A00002131B1200F8013C4A788B78C2EB021548
:1008B000C3EB031402EB051203EB041312121B1219
:1008C0004A708B7003318E4200F10300E3D107B010
:1008D000BDE8F08F404608F059FB0E4F0E4D002842
:1008E00040F089813B68059395E80600059B5B1AFB
:1008F0009342FFF461AF3A6823680492049A2A6035
:100900000133236058E700BF883AFF1FD077FF1FED
:100910009C66FF1F00AEFF1FA475FF1F5C55FF1FE5
:10092000AF5279916022FF1F6077FF1FB877FF1FDA
:100930001616FF1FB749DFF8F0820A78B64C563218
:10094000D2B200230A7088F8002023604FF001091A
:10095000B24DB349CDF800901F0205A8FF23EF590F
:10096000B04E05F0D3FA236898F80020CDF8009037
:10097000590107EB470306EB030E6F589DF814105F
:10098000F1549DF815009DF816308EF801008EF890
:100990000230A34905A8FF2305F0B8FA07EB470387
:1009A00006EB030E9DF8141098F8002027689DF8B8
:1009B0001500CDF80090F1549DF816308EF8010026
:1009C0008EF80230964955F8277005A8FF2305F0E8
:1009D0009DFA236898F800209DF81500CDF8009046
:1009E00007EB4707C3F1070306EB070C05EB032EE4
:1009F0009DF81430F3559DF816308CF801008CF8F2
:100A000002308749DEF8E07005A8FF2305F07EFA82
:100A100023689DF814C098F800209DF81500CDF8C3
:100A20000090C3F13F0107EB470306EB030E4901BA
:100A300006F803C09DF816306F588EF801008EF846
:100A40000230774905A8FF2305F060FA216898F87D
:100A500000209DF81500CDF8009007EB4707F3192B
:100A600001F5FC7E9DF81410F1559DF81670587034
:100A70009F706B4955F82E7005A8FF2305F046FAC4
:100A8000236898F800209DF81500CDF8009007EB3A
:100A90004707C3F1070306EB070C05EB032E9DF890
:100AA0001430F3559DF816308CF801008CF80230A4
:100AB0005B49DEF81C7005A8FF2305F027FA2168C2
:100AC0009DF814C098F800209DF81500CDF800900E
:100AD00007EB4703C1F5E37106EB030E494406F843
:100AE00003C09DF8163055F821708EF801008EF87D
:100AF00002304B4905A8FF2305F008FA216898F851
:100B000000209DF81500CDF8009007EB470705EB96
:100B1000411EF3199DF81410F1559DF81670587088
:100B20009F703F49DEF81C7705A8FF2305F0EEF91A
:100B300023689DF814C098F800209DF81500CDF8A2
:100B40000090C3F1070107EB470306EB030E05EB2B
:100B5000411106F803C09DF81630CF698EF80100E8
:100B60008EF802302E4905A8FF2305F0CFF9216841
:100B700098F800209DF81500CDF8009007EB470786
:100B8000F319C1F13F0E9DF81410F1559DF8167040
:100B900058709F70224955F82E7005A8FF2305F064
:100BA000B5F9236898F80020CDF8009005EB0325EF
:100BB00007EB470706EB070ED5F8FC509DF81430FD
:100BC0009DF815809DF816C0F35515498EF80180E3
:100BD00005A8FF2305EB45058EF802C005F096F940
:100BE00073199DF814009DF815109DF81620705586
:100BF00059709A70CEE53B680393039B2B603223B8
:100C000040466B6008F0C8F96CE6DFF81C8098F885
:100C100000209BE6A476FF1FD077FF1F6022FF1FF6
:100C2000E83AFF1F9C66FF1F1D56FF1F10B50446C4
:100C300007F0E6FA204610BD30B585B001EBC001E3
:100C40009DF8205002EBC1020C49012051F82240CE
:100C500000901A4603A82B46094905F057F9094A9E
:100C60009DF80C509DF80D009DF80E1004EB440407
:100C7000131915555870997005B030BD6022FF1FCB
:100C8000E83AFF1F9C57FF1F2DE9F04F564989B0E6
:100C9000481C01F5706410F8013CC3EBC30303EB7F
:100CA00043131B1200F8013C4A788B78C2EBC20256
:100CB000C3EBC30302EB421203EB431312121B12EA
:100CC0004A708B7003318C4200F10300E3D1474B33
:100CD0004748484E484D0393194650F8043F51F891
:100CE000042F56F823304B3BB3F5167FA8BF4FF4C3
:100CF000167323EAE373DB0085FB0374DB17C3EB96
:100D0000242301339A42B8BF0B603C4B8B42E4D1A1
:100D10004FF0000BA3F11C07CDF808B04FF0FF0A0D
:100D20003B689DF80880CBF3C7090025002B13DD35
:100D3000EEB2002401E0A3420EDDE2B2072A04F184
:100D40000104F8D84B46CDF800A031464046FFF7E5
:100D500073FF3B68A342F0DC0135082DE6D1029B0E
:100D60000BF1DC0B0133BBF5DC6F029307F10407D9
:100D7000D6D1234E3368DB071BD5224D224C2B687E
:100D8000079394E80600079B5B1A9A420ED82B68DB
:100D90000693069B039A236052F8043F012BC4BFBD
:100DA00003F1FF331360154B9342F5D109B0BDE851
:100DB000F08F304608F0EAF8124D134C50B92B680A
:100DC000079394E80600079B5B1A9342DFD209B0B1
:100DD000BDE8F08F2B680593059B236032233046D6
:100DE000636008F0D9F8EAE79C57FF1F1C56FF1F05
:100DF0003815FF1F5C55FF1F37800B6D3C56FF1FDA
:100E0000783AFF1F00AEFF1FA477FF1F30B585B0F3
:100E100001EBC0019DF8205002EBC1020C490120FA
:100E200051F8224000901A4603A82B46094905F0C4
:100E30006DF8094A9DF80C509DF80D009DF80E10B4
:100E400004EB4404131915555870997005B030BD62
:100E50006022FF1FE83AFF1F9C66FF1F2DE9F04F3D
:100E6000866985B005460C46002E00F07181A368A6
:100E7000EA69002B40F366812746183257F8148B35
:100E800004F1340094F812900DF10706394609F187
:100E90000109B446BE465EF8043F18F8033043B17A
:100EA00094F80CA083FA5AF3DBB209FB03F3C3F303
:100EB000072370450CF8013FEDD1DDF80880039B56
:100EC00088EAD81C83EAD31E0CF0AA1C0EF0AA1ED6
:100ED00088EA0C0883EA0E0388EACC1C83EACE1E5B
:100EE0004CF6CC488CEA9C3A8EEA9E39434609EA95
:100EF00003030AEA08088CEA080C8EEA030E8CEA5F
:100F0000883C8EEA833E4FEA0E184FEA1C130EF01F
:100F1000F03E0CF00F3C08F0F03803F00F3343EADA
:100F20000E0348EA0C0E4FEA1E494FEA1E684FEACC
:100F3000132C02F811EC02F8153C4FEA1E2A4FEA76
:100F4000134E1B0E02F816CC02F817EC02F812AC86
:100F500002F8139C02F8148C02F8183C94F81390D1
:100F6000D4F8008009F101090DF1070CBE465EF8C6
:100F7000043F43445B7843B194F80DA083FA5AF3DD
:100F8000DBB209FB03F3C3F3072386450CF8013FEB
:100F9000EDD1DDF80880039B88EAD81C83EAD31ED4
:100FA0000CF0AA1C0EF0AA1E88EA0C0883EA0E03B5
:100FB00088EACC1C83EACE1E4CF6CC488CEA9C3ADC
:100FC0008EEA9E39434609EA03030AEA08088CEAD6
:100FD000080C8EEA030E8CEA883C8EEA833E4FEAC8
:100FE0000E184FEA1C130EF0F03E0CF00F3C08F008
:100FF000F03803F00F3343EA0E0348EA0C0E02F810
:1010000009EC4FEA132C02F80D3C4FEA1E2A4FEA76
:101010001E494FEA1E684FEA134E1B0E02F80AAC37
:1010200002F80B9C02F80C8C02F80ECC02F80FECC4
:1010300002F8103C94F814C0D4F800E00CF1010C54
:1010400051F8043F73449B7843B194F80E8083FABF
:1010500058F3DBB20CFB03F3C3F30723884206F813
:10106000013FEDD1029B039E83EAD31186EAD61E8F
:101070000EF0AA1E01F0AA114B4086EA0E0683EA82
:10108000C11186EACE164CF6CC4381EA913886EA45
:10109000963C9E460CEA0E0E08EA0303594086EA87
:1010A0000E0681EA833186EA8E3633014FEA111E3D
:1010B0000EF00F3E01F00F3106F0F03603F0F03382
:1010C0000B434EEA06064FEA132A4FEA13494FEA4A
:1010D00013684FEA162C4FEA164E310E02F8013C07
:1010E00002F8056C02F802AC02F8039C02F8048CCA
:1010F00002F806CC02F807EC02F8081CA36894F882
:101100000CC094F80DE094F80E90266894F80FB097
:1011100094F810A0617C94F91580013BCCEB0B0C8A
:10112000CEEB0A0EC9EB0101B044002B02F118020C
:1011300084F80CC084F80DE0A173C4F80080A360AB
:101140003FF7A0AEA86905B0BDE8F04F04F052BC6F
:10115000D1F8048008EB4807FF0038460BF00CFA82
:10116000E86138460BF008FA2862012007F04CFFCE
:10117000EB692A6A00960746414604F0B7FAAF6168
:10118000384604F0C9FA72E6F0B591B0002305685C
:101190008DF800308DF801308DF802302E683A4A13
:1011A0008DF8043096428DF805308DF8063064D104
:1011B000827C0391012A044604918DF81A308DF83F
:1011C0001B308DF81C30CDF808D01AD08DF81930AE
:1011D0008DF818308DF817308DF816308DF81530E1
:1011E0008DF8143000228DF81D2007AB0FA943F8AD
:1011F000042F9942FBD1AB69204602A9984711B050
:10120000F0BD224A1378013303F0070313F0010FF6
:1012100014BF8021002113709A0744BF41F04001A0
:10122000C9B25B0748BF41F0200110310022C9B2AA
:101230000DF117030DF11A074FF4807EAAB19EFB42
:10124000F2F2D2B2501CC0B200FB01152D12187080
:10125000EEB205B1013E03F8036C00B11A70013320
:101260009F4208D0DA78002AE9D11A7003F8032CDB
:1012700001339F42F6D12568B4E70A4601AB6946BF
:10128000B04711B0F0BD00BF691300002C22FF1F52
:10129000F0B5857C1C785E789B788FB0012D8DE849
:1012A000060002928DF812408DF813608DF814300C
:1012B00020D000238DF811308DF810308DF80F30CC
:1012C0008DF80E308DF80D308DF80C300321002391
:1012D0008DF8151002EB4202194605AC01310829C0
:1012E00044F8043F1344F9D1036869469B69984761
:1012F0000FB0F0BD1B490B78013303F0070313F067
:10130000010F0B7014BF802100219D0744BF41F0E5
:101310004001C9B25B0748BF41F020011031C9B29A
:101320000DF10F030DF1120E4FF4807CACB19CFB5C
:10133000F4F4E4B2651CEDB205FB011636121D7023
:10134000F7B206B1013F03F8037C05B11C7001330D
:101350007345BBD0DC78002CE9D11C7003F8034C3A
:10136000F5E700BF2C22FF1FF0B5857C1C785E7866
:101370009B788FB0012D8DE8060002928DF8124007
:101380008DF813608DF814301BD000238DF81130C8
:101390008DF810308DF80F308DF80E308DF80D303F
:1013A0008DF80C3000228DF8152005AB0DA943F8FF
:1013B000042F8B42FBD1036869469B6998470FB0A5
:1013C000F0BD1B4A1378013303F0070313F0010F3C
:1013D000137014BF80220022990744BF42F04002DC
:1013E000D2B25B0748BF42F020021032D2B20DF1F8
:1013F0000F030DF112074FF4807EACB19EFBF4F4A5
:10140000E4B2611CC9B201FB02252D121970EEB2C3
:1014100005B1013E03F8036C01B11C7001339F421A
:10142000C0D0DC78002CE9D11C7003F8034CF5E740
:101430002C22FF1F2DE9F04F8BB00027069051F8AA
:101440002730DBB20137FF2BBFB2F8D10B6807970B
:101450004FEA1368C3F3072BC3F307494FF0FF3379
:10146000C64600240593884658F8045F0698C5F3DD
:1014700007274FEA241CC5F30746ECB2F9B2C5F3BF
:1014800007650391E9B204915FFA8CF10291079923
:101490000F2908AA4FEA14135FFA86FA0CD80599A7
:1014A0008C4507DC0F2905D00131C9B28B4202916E
:1014B00038BF0B4659B2059109A9009102998DF8E0
:1014C00020B08DF821908DF822E08DF824708DF8F1
:1014D00025608DF8265004F07DFCFF2CDDF810E02F
:1014E000DDF80CB0D146BFD106980BB0BDE8F08F47
:1014F00038B52A4804F0DAFED8B1294C012323601C
:101500000C21284809F038F8274807F011F9274D31
:1015100027480C2106F044FD284605F011F8236801
:10152000ABB1012B23D0234B4FF400429A61DA6117
:1015300038BD1B4C03460C211F48236009F01CF8E2
:10154000194807F0F5F82368012BE0D1D8E75522B8
:101550002021284604F0C8FF0028E4D0EA8842F0A1
:10156000040292B22846242104F0BEFFDBE740F2D9
:1015700073122A21284604F0B7FF0028D3D088220E
:101580002021284604F0B0FF0028CCD0EA88284665
:1015900022F00402242104F0A7FFC4E73477FF1FE0
:1015A000EC76FF1F1CD10000AC17FF1FC03AFF1FD5
:1015B0000002FF1F6C3BFF1F0CD100002DE9F84F0C
:1015C000104C114F114EDFF848B0DFF848A0DFF89B
:1015D000489004F58C780025204604F0B5FD1434BD
:1015E00002230C21CBF8003044454FF0080347F8A4
:1015F000045F46F8045FCAF80030C9F80010EBD168
:10160000BDE8F88F4456FF1F283BFF1FA476FF1F3D
:10161000A42AFF1F243BFF1FD43AFF1F70B5224BA3
:1016200086B0002453F8042F092A04F1010120DCBC
:10163000CCB20E2CF6D11D4D1D4E2B680193019B93
:1016400031681C4A5B1A93421DD82B6803931A4BCE
:10165000039A1B6832602A680592059AD31AB3F57B
:101660007A7F04D9FFF7AAFF144B01221A7006B043
:1016700070BD0E4D0E4E2B680193019B31680D4AD3
:101680005B1A934205D92B680293029B3360FFF7E4
:1016900095FF0B2CD9D82B6807490493049B074A64
:1016A0000B6000211170D6E75855FF1F00AEFF1FD9
:1016B0009C75FF1FE09304002C2BFF1FE075FF1F9C
:1016C000E64BE74A03F1380053F8041F42F8041FC1
:1016D0009842F9D12DE9F047DFF8C093DFF8C083D5
:1016E000B9F8183007EE903A2DED028BDD4BDFEDA7
:1016F000DE8AF8EE677AD3E9006767EEA87A4C468F
:1017000017EE900A0AF05AFB32463B460AF0AAFB53
:101710000022D64B0AF0A6FB0AF054FEB9F81A30A4
:10172000C8F8000007EE903AF8EE677A08EE100A63
:1017300067EEA87A09F1360517EE900A0AF03EFB2B
:1017400032463B460AF08EFB0022C84B0AF08AFB69
:101750000AF038FEB9F81E20B9F81C30C8F80400A9
:10176000134407EE903AF8EEE77A67EEA87A17EEA0
:10177000900A0AF023FB32463B460AF073FB002234
:10178000BA4B0AF06FFB0AF01DFEB9F82010B9F849
:101790002230B9F82420C8F808000B44134407EE9F
:1017A000903AF8EEE77A67EEA87A17EE900A0AF018
:1017B00005FB32463B460AF055FB0022AB4B0AF0D4
:1017C00051FB0AF0FFFDB9F828E0B9F82630B9F866
:1017D0002A1034F82C2FC8F80C0073440B4413441F
:1017E00007EE903AF8EEE77A67EEA87A17EE900ADD
:1017F0000AF0E4FA32463B460AF034FB9B4B0022E7
:101800000AF030FB0AF0DEFD0023C8F8100034F8BF
:10181000022FA5421344FAD107EE903AFBEEC97AA3
:10182000934C17EE900A0AF0C9FA32463B460AF08A
:1018300019FB00228D4B0AF015FB0AF0C3FDC8F816
:101840001400002035F8023FAC421844FAD107EEEC
:10185000900AFBEEC97A874D17EE900A0AF0AEFAAD
:1018600032463B460AF0FEFA0022804B0AF0FAFAB2
:101870000AF0A8FDC8F81800002034F8023FA5427D
:101880001844FAD107EE900AFBEEC97A7A4C17EEAB
:10189000900A0AF093FA32463B460AF0E3FA002235
:1018A000724B0AF0DFFA0AF08DFDC8F81C00002028
:1018B00035F8023FAC421844FAD107EE900AFBEE2D
:1018C000C97A6E4D17EE900A0AF078FA32463B4616
:1018D0000AF0C8FA0022654B0AF0C4FA0AF072FD59
:1018E000C8F82000002034F8023FA5421844FAD17D
:1018F00007EE900AFBEEC97A614C17EE900A0AF0E7
:101900005DFA32463B460AF0ADFA0022574B0AF028
:10191000A9FA0AF057FDC8F82400002035F8023F64
:10192000AC421844FAD107EE900AFBEEC97A554D45
:1019300017EE900A0AF042FA32463B460AF092FA53
:1019400000224A4B0AF08EFA0AF03CFDC8F8280043
:10195000002034F8023FA5421844FAD107EE900A5D
:10196000FBEEC97A484C17EE900A0AF027FA324685
:101970003B460AF077FA00223C4B0AF073FA0AF071
:1019800021FDC8F82C00002035F8023FAC42184475
:10199000FAD107EE900AFBEEC97A3C4D17EE900A99
:1019A0000AF00CFA32463B460AF05CFA00222F4B52
:1019B0000AF058FA0AF006FDC8F83000002034F8A2
:1019C000023FA5421844FAD107EE900AFBEEC97A0D
:1019D0002F4C17EE900A0AF0F1F932463B460AF016
:1019E00041FA0022214B0AF03DFA0AF0EBFCC8F85C
:1019F0003400002035F8023FAC421844FAD107EE1B
:101A0000900AFBEEC97A17EE900A0AF0D7F932462F
:101A10003B460AF027FA0022144B0AF023FA0AF098
:101A2000D1FC1C4AC8F83800002034F8023FA2421A
:101A30001844FAD107EE900AFBEEC97ADFF86490F9
:101A4000154CDFF864A017EE900A0AF0B7F9324699
:101A50003B460AF007FA0022044B27E05855FF1FC7
:101A6000343AFF1FC015FF1F0000803800408F4030
:101A70000841FF1F1C41FF1F3841FF1F6041FF1F2E
:101A80009641FF1FE241FF1F4C42FF1FDE42FF1F36
:101A9000AA43FF1FDA44FF1F4456FF1FC440FF1F25
:101AA0005C55FF1F343AFF1FE875FF1F1B4F1C4E8C
:101AB0000AF0D8F90AF086FC0025C8F83C00C9F8FD
:101AC000005001E096ED008A2046B8EEC80A04F006
:101AD00043FB204604F086FB10EE100A0AF06EF974
:101AE000E7E80201204604F08DFB10EE100A0AF030
:101AF00065F9D9F8003056F8042B01351344102D40
:101B000004F11404EAE80201C9F80030DAD1BDECAE
:101B1000028BBDE8F047FFF781BD00BFE890FF1FD3
:101B20005C55FF1FF0B530490B5C022B85B02ED001
:101B30002E4B53F82020002A0DDD2D4A2D4C126823
:101B40002D490392039A54F8204051F82010121B9B
:101B5000323191420BD303280EDD284B1B680A2B30
:101B6000274BCCBF012200221A7005B0F0BD002225
:101B7000032843F82020F0DC204953F820200B688C
:101B80009A42ECDD1F4C0A6013462070E7E7184CC0
:101B9000184D23680093009B55F820609B1BF92B80
:101BA00005D8124B012453F820200C54C3E72368B6
:101BB0000193154F019B57F820202468DFF838E087
:101BC0000294991B521A094B029C4EF820101D32A8
:101BD0003A2A53F8202047F820109CBF013243F8DE
:101BE000202045F82040A6E7883AFF1F1855FF1F20
:101BF00000AEFF1F6477FF1FAC2AFF1FE090FF1F9E
:101C00001C56FF1F602AFF1F642AFF1FFFFFFFFFF4
:101C10002DE9F843284B53F82090804648460AF0B7
:101C2000BBF8264A4FEAC8031A440D462449D2E9B4
:101C300000670B440446D3E900011DA3D3E9002348
:101C40000AF010F932463B4609F05AFF02460B46AD
:101C5000204629460AF096FB68B1B9F5967F0ADD61
:101C6000184B13F80820022A1AD052B9022203F89E
:101C70000820BDE8F883DFF84C9019F80830012BF4
:101C800001D0BDE8F88332463B46204629460AF09B
:101C900065FB0028F5D0002309F80830BDE8F8837B
:101CA000012203F80820BDE8F88300BFAFF30080ED
:101CB00000000060666602405C55FF1FE890FF1F51
:101CC000E875FF1F883AFF1F10B40E4B0E4A53F8F9
:101CD00020100E4C52F82030245C0529C4BF02337A
:101CE00042F82030022C04BF013342F82030B3F513
:101CF000967F04DD0129DCBF023B42F820305DF80D
:101D0000044B70471855FF1FA876FF1F883AFF1F26
:101D10002DE9F04F91B0FFF7D3FCA04BA04A0293FE
:101D200019460023DFF8B892DFF8B8B213609A467C
:101D3000884622E0DBF800000AF02EF83246CDE9B2
:101D400000013B462046294609F0D8FE0022954B6B
:101D50000AF088F802460B46DDE9000109F0D0FEE2
:101D60000AF030FBCBF800000AF1010A80F308000A
:101D7000BAF10E0F4BF8040B31D05046FFF748FF75
:101D80005046FFF7CFFE5046FFF79EFF59F8040F6D
:101D90000AF002F8F8E8026732463B4604460D4670
:101DA0000AF0F0FA0028C5D1DBF8000009F0F4FFD2
:101DB0002246CDE900012B463046394609F09EFE09
:101DC0000022784B0AF04EF802460B46DDE900018E
:101DD00009F094FE0AF0F6FACBF80000C4E7724A64
:101DE000724B1768724A1B68D2F80090714A724DA4
:101DF000D2F80080714A0B9312680592704A0993D9
:101E00004FF0000ACDF818A0CDF81CA0CDF820A006
:101E1000CDF828A0CDF80CA05446CDF810A0D2F8EB
:101E200000B00095BA46029F5C4B634903EBC80EB5
:101E300004F109030293009B1A68099B51F82330AF
:101E40009A4203DD01230B9409940A9300995A4B9B
:101E5000594D4A6953F82A30486A55F82910029DAD
:101E60009A4204F10503C8BF9A46089BC8BF0123E4
:101E70008842C8BFA946D7E90001079D0893C8BF9B
:101E80000125DEE9002307950AF07CFA059D434A07
:101E9000069E002802EBC50318BF0126D3E90023E4
:101EA000D7E90A0118BFA04606960AF06BFA3B4A2A
:101EB000002804F1050602EBCB0308BF2E46D3E948
:101EC0000023D7E912010596049E18BF0126049647
:101ED0000AF058FA009B029D002803F1040304F164
:101EE0000104009318BFAB46039B18BF0123042CC9
:101EF000039307F1080797D15746DDF810A0002B90
:101F000047D10A9B13B1294B0B9A1A60089B0BB15E
:101F1000254B1F60079B13B1254BC3F80090069B10
:101F200013B1244BC3F80080BAF1000F02D0234B49
:101F3000059A1A60234B09995A5C022A54D0224A06
:101F400052F82120082A4FDC9B78022B4CD01F4FDF
:101F50001F4C3B68DB074FD51E4E1F4D33680F9358
:101F600095E806000F9B5B1A9A4253D923681B49D8
:101F70000A2BA8BF0A236FF009000A688342B8BF82
:101F800003461A4482F3080223600A6011B0BDE8D8
:101F9000F08F0B4BC3F800B0B3E700BFE890FF1F12
:101FA000E090FF1F0000E03F243BFF1FA42AFF1F1B
:101FB000D43AFF1FD03AFF1FA876FF1FB43AFF1F85
:101FC000B040FF1F883AFF1F1855FF1FE03AFF1F60
:101FD0005C77FF1F00AEFF1F183BFF1FDC90FF1F49
:101FE0005855FF1FF476FF1F134C144F2368053319
:101FF00023603B68DB07AFD4384606F0C7FF104EBE
:10200000104D70B933680F9395E806000F9B5B1A6B
:102010009342ABD333680E9323680E9A2A60013B38
:10202000A5E733680D930D9B2B60C82338466B6082
:1020300006F0B2FFE6E700BF5C77FF1FE03AFF1F44
:1020400000AEFF1F183BFF1F2DE9F04F15464B4A0E
:102050004B4C52F8252027684A4E1344B3F5FA7FBB
:10206000A8BF4FF4FA732DED028B23EAE3731A0233
:1020700086FB02E4B7F5FA7F4FEAE27289B0824646
:102080008946C2EBA41470DA07FB033386FB0320F6
:10209000DB17C3EBA0108DED020B09F07DFE9DED6B
:1020A000020B53EC102B09F0DDFE0AF08BF9DFF880
:1020B000ECB00028CBF8000052DDFA23023D324A92
:1020C000DFF8DC80314F324E03FB05F582FB052340
:1020D000ED17C5EB63051FFA8AFAE3B2CAEB0909EB
:1020E0000593EBB21FFA89F902930025B6EE008A38
:1020F000B8F8003027490122009203EB432203EB9A
:10210000820303F55853193398B209FB00F4059B79
:10211000029AA8F8000007A803F0F8FEDBED007AA9
:102120009DF81C009DF81D109DF81E20B8EEE77A62
:10213000D6ED007A0AEB1444F8EEE77AA4B204EB89
:102140004404E7EE087A3B19385559709A70DBF869
:1021500000300135FDEEE77AAB42C6ED007AC7DC10
:1021600009B0BDEC028BBDE8F08F0B4803FB07F311
:1021700080FB0320DB17C3EB60108CE75C55FF1F6F
:10218000E815FF1F41DDB320E9A28B2E9C57FF1FEE
:10219000E43AFF1FE83AFF1FD34D6210C040FF1F13
:1021A0001616FF1FFFFFFFFF30B583B00024204647
:1021B000019400946FF031039FED2B0B02224FF43A
:1021C0000071FFF741FF40232046019400939FEDEB
:1021D000280B6FF0310305224FF40071FFF734FF35
:1021E00082232046019400939FED210B6FF0310371
:1021F00008224FF40071FFF727FFDC2320460194EB
:1022000000930C226FF031034FF400719FED180B17
:10221000FFF71AFF1849194B0A68023A0A2AA8BFA1
:102220000A2222EAE272C2F1FF040A60A4B2581C38
:1022300003F5706510F8012C04FB02F2121200F88D
:10224000012C59789A7804FB01F104FB02F209127F
:10225000121259709A7003339D4200F10300E9D1C4
:1022600003B030BDAFF30080000000A09999C93FD2
:10227000000000403333C33FE43AFF1F9C57FF1F69
:102280002DE9F047424C434D54F821102D68424C43
:102290001144B1F5FA7FA8BF4FF4FA712DED028B0E
:1022A00021EAE1710A0284FB0269B5F5FA7F4FEA7F
:1022B000E2729A46C2EBA91984B0074653EC102B80
:1022C0005DDA05FB011184FB0140C917C1EBA010C9
:1022D000CDE9022309F060FDDDE9022309F0C2FD2A
:1022E0000AF070F8DFF8C0800028C8F8000041DD6F
:1022F0002A4E2B4DFFB25FFA8AFA5FFA89F9002461
:10230000B6EE008A11E0D8ED007AD8F80030B8EEC9
:10231000E77AD5ED007AF8EEE77AA342E7EE087A9D
:10232000FDEEE77AC5ED007A24DD338803EB432028
:1023300003EB800000F55850193080B200EB4021CB
:1023400000EB810101F55851193189B2072F04F1D1
:1023500001043180D7D801EB112100EB1020C1F32B
:102360004211C0F34210CDF8009053463A46FEF7B2
:1023700063FCC8E704B0BDEC028BBDE8F0870948F8
:1023800001FB05F180FB0140C917C1EB60109FE71D
:102390005C55FF1FE815FF1F41DDB3201616FF1F18
:1023A000E43AFF1FD34D62101856FF1FFFFFFFFFD7
:1023B00030B583B0002400940F236FF031029FEDFD
:1023C000560B02210320FFF75BFF00940F236FF0F1
:1023D00031029FED510B02210420FFF751FF2346EC
:1023E00000946FF031029FED4C0B01210320FFF7A9
:1023F00047FF234600946FF031029FED470B012108
:102400000420FFF73DFF00943C236FF031029FED65
:10241000420B04210220FFF733FF00943C236FF0AE
:1024200031029FED3D0B04210520FFF729FF0094A9
:102430005F236FF031029FED380B07210220FFF779
:102440001FFF00945F236FF031029FED330B0721D4
:102450000520FFF715FF009482236FF031029FEDF6
:102460002E0B0A210120FFF70BFF009482236FF04F
:1024700031029FED290B0A210620FFF701FF2046BC
:102480000094AA236FF031029FED230B0C21FFF77C
:10249000F7FE0094AA236FF031029FED1F0B0C2171
:1024A0000720FFF7EDFE20460094DC236FF0310299
:1024B0009FED190B0E21FFF7E3FE0094DC236FF074
:1024C00031020E2107209FED140BFFF7D9FE1449AE
:1024D000144B0A68023A82F30402C2F1FF040A6054
:1024E000A4B2581C03F5706510F8012C04FB02F22D
:1024F000121200F8012C59789A7804FB01F104FBC0
:1025000002F20912121259709A7003339D4200F1BF
:102510000300E9D103B030BD000000A09999C93F84
:10252000E43AFF1F9C57FF1F2DE9F04F89B0234C61
:10253000DFF894B002941F46002305900391904663
:102540000493029BDDF810A0A3F5807404F120062B
:10255000554602E00434B4421ED0AF424544F9D19E
:10256000D4F800909DF8482015490123009307A84E
:10257000FF2309EB490903F0C9FC04340BEB090301
:102580009DF81C009DF81D109DF81E200BF80900F9
:10259000B44259709A70E0D1039B9A44029BA342C3
:1025A000D4D1049A05990A440492064A03F580732B
:1025B0009A420293C5D109B0BDE8F08F6023FF1F96
:1025C000E83AFF1F602BFF1F9C66FF1F2DE9F04FAD
:1025D00095B08DED100B8DED0E1B8DED042B8DED5B
:1025E000063B8DED084B00230B9112931390129C28
:1025F000204609F0D1FBDDE9102309F07FFA0246FD
:102600000B4609F02FFCCDE90C010023E2B2DDF806
:102610004CA00A929B46584609F0BEFBDDE90E230A
:1026200009F06CFA02460B4609F01CFCDDE90C23AC
:1026300009F066FA0024CDE902015FFA8BF512E099
:10264000B946DDE908234946404609F07DFEE2B27D
:1026500053460134294620B10B9800900A98FEF7A2
:10266000D5FB082C24D0204609F096FBDDE9042395
:1026700009F044FA02460B4609F0F4FBDDE90223B7
:1026800009F03EFA41EC100B09F002F9DDE90623EE
:1026900051EC100B09F032FA0022002306460F46D7
:1026A00009F070FEB0460028CAD107F10049C8E71A
:1026B0000BF1010BBBF1080FADD1129B0133082BBD
:1026C000129394D115B0BDE8F08F00BFFFFFFFFF5C
:1026D0002DE9F0436C4B6D4A1B68D35C022B85B02F
:1026E00077D06B4D05F150082C46F4E802670022C4
:1026F000684B3046394609F027FE5FA3D3E9002333
:1027000028B13046394609F0FBF944E90201A045F9
:10271000EBD1DFF8A091002402E001340A2C2FD085
:10272000F5E8026700225B4B3046394609F00CFEA3
:102730000028F2D0584B19F8248053F8240009F0EF
:102740002BFB564BCDE9020153F8240009F024FB82
:10275000534BCDE9000153F8240009F01DFB01346F
:1027600041EC100B9DED022B9DED001B4046FF211F
:102770009FED434B47EC136BFFF728FF0A2CCFD19B
:102780004849481C01F5706410F8013C03EB431202
:1027900003EB4203C3EB83031B1200F8013C4A78AE
:1027A0008B7802EB421603EB431502EB460203EB78
:1027B0004503C2EB8202C3EB830312121B124A7061
:1027C0008B7003318C4200F10300DDD105B0BDE810
:1027D000F083354E354D3388354C2878216803EB2E
:1027E000432203EB820303F5585319339BB203EBE7
:1027F000432203EB820202F55852193292B202EBE5
:10280000422702EB870707F558571937BFB207EB86
:10281000172E378003EB13231D4E1F4FCEF3C01E20
:10282000563002EB1222C3F3C0130EF1030E2870D0
:10283000C2F3C01206EBC10503335FFA8EFE184ED9
:1028400047F821E0DBB20332144F46F82130D2B210
:102850004B1C47F821200A2B164A4FF000084FF076
:10286000000908BF002342F82100C5E90089236060
:1028700037E700BFAFF300800000002085EBB13FD9
:10288000000000000000F03FA42AFF1F883AFF1F4D
:102890006815FF1F00001440F055FF1FC855FF1FAB
:1028A000A055FF1F9C66FF1F1616FF1FB83AFF1F9B
:1028B000B075FF1F6C76FF1F2DE9F04F91B08DEDC5
:1028C0000C0B8DED021B8DED082B8DED043B8DED7A
:1028D000064B0B904FF0000B584609F05DFADDE90E
:1028E0000C2309F00BF902460B4609F0BBFA4FF036
:1028F000000ACDF828B080468946DDF82CB004E007
:102900000AF1010ABAF1080F5AD0504609F044FA08
:10291000DDE9022309F0F2F802460B4609F0A2FABB
:1029200042464B4609F0ECF841EC100B08F0B0FFC2
:10293000DDE9042351EC100B09F0E0F8002200233C
:1029400006460F4609F01EFD3446002842D03D469B
:10295000DDE906232046294609F0F6FC0028CFD001
:10296000DDE9080109F02EFD0A9B1C4A1C490AEB0F
:10297000C30300EBC300012352F8206000935FFA09
:102980008BF20FA8FF2303F0C1FA06EB4606154AA7
:102990009DF83C00935D911983FA50F393559DF88F
:1029A0003D304A7882FA53F24A708B789DF83E2087
:1029B00083FA52F30AF1010ABAF1080F8B70A4D11D
:1029C000DDF828B00BF1010BBBF1080F84D111B079
:1029D000BDE8F08F07F10045BAE700BF6022FF1F96
:1029E000E83AFF1F9C57FF1F674B684A196840F67B
:1029F000B8338B42A8BF0B4623EAE37303EB830192
:102A000003EBC1032DE9F047614D82FB0312DB1795
:102A1000C3EBA2232A68C3F12A0393426FDA5D490C
:102A2000DFF87CA10B78DFF87C91DFF87C81002255
:102A3000013317460B702A60144659F824305AF8AF
:102A40002330002B4FEA840607DBB3F5167F47F2ED
:102A5000BA7258DCB2EB032F55DB0234082C07F5B1
:102A6000DC77EAD1DFF844E14B490EF5006CAEF5B6
:102A700080773C4654F81C3D54F8040F00EB4002AC
:102A800003EB43038E5CCE540A440B4456785E70CD
:102A900092789A70A7420346EED12037BE45E8D11E
:102AA0000EF5807EF445E2D13C4C04F5006704F558
:102AB0008076E26902EB420288188B5C03EB830E9E
:102AC000CEEB0E1E03EB4E031B128B544278837821
:102AD00002EB820C03EB830ECCEB0C1CCEEB0E1E38
:102AE00002EB4C0203EB4E03203412121B12A642DF
:102AF00042708370DDD1BE423446D8D12A6801329B
:102B00002A60BDE8F087C4B1264488FB0630F6177A
:102B1000C6EB6000023009F03FF99FED111B41EC5C
:102B2000130BB0EE410AF0EE610A9FED0F4B9FEDE3
:102B3000102BF810FFF7C0FE8FE79FED091B9FEDEC
:102B40000E4BB0EE410AF0EE610A9FED0D3B9FED9A
:102B5000082B2046FFF7B0FED6E700BFAFF300809A
:102B60000000000000000C40000000000000E03FFA
:102B70000000000000001C400000000000000040B9
:102B80000000000000000000343AFF1FD32A5A570B
:102B90005855FF1FF076FF1F9C57FF1F6022FF1F35
:102BA0005C55FF1F3C15FF1F398EE3387C23FF1F48
:102BB0000138F0B4112824D8DFE810F012003B00EF
:102BC0004700560062006900750084009000A5006F
:102BD000AD00BC00C700D900E200EA00F10025000A
:102BE000734B744A1B68744D744C75491360012013
:102BF0000022072B2A602260086015DD714B00223D
:102C00001A70F0BC70476A4B6A4E1B686A4D6B4C79
:102C10006B49C3F10E0701224FF0FF30152B3760CF
:102C20002A6022600860E9DC664B01221A70F0BC61
:102C300070475F4B5F4E1B685F4D604C6049C3F14E
:102C40000807002201203760D3E7594B594A1B6817
:102C5000594C5A485A49136001250022072B256018
:102C600002600A60CADCDFE7514B524E1B68524CCF
:102C700052485349C3F10807012500223760EDE7A8
:102C80004B4B4C4A1B684C4D4D4C4C49AEE7484BA6
:102C9000484E1B68484D4A4C4849C3F1080700227A
:102CA00001203760A5E7424B424A1B68424D434C26
:102CB00043491360002001220E2B2A602260086025
:102CC0009CDCB1E73A4B3B4E1B683B4D3B4C3C49CF
:102CD000C3F10F07012200203760EDE7344B35497F
:102CE0001B68354D3548364AC3F107074FF0FF36AC
:102CF00001240F600E2B4FF000012E600460116064
:102D00003FF77CAF90E72A4B2A491B682A4D2B4896
:102D10002B4ADF1FEAE7264A264B1268264C274833
:102D200027491A600123152A236003600B603FF7CF
:102D300065AF79E71E4B1F4D1A681F4C1F4820498D
:102D4000C2F1150601232E60EDE7194B194E1B68E1
:102D5000194C1A481A49DF1F01224FF0FF35152B75
:102D60003760256002600A603FF748AF5CE7104BB0
:102D7000104E1B68104C11481149C3F10E07EBE7C8
:102D80000B4B0C4E1B680C4D0D4C0C49DF1F42E7E2
:102D9000074B084E1B68084D094C084939E7044B9E
:102DA000044E1B68044D054C0549DF1F33E700BF87
:102DB000E475FF1FAC75FF1FBC3AFF1FCC3AFF1F25
:102DC0009C55FF1FA075FF1F3A493B4A0B781068BE
:102DD00083F00103421E0B70092A5AD8DFE802F083
:102DE0001B21282F363D444B5205344934480B886B
:102DF00003EB432203EB820303F5585319339BB2D1
:102E000003EB1322D2B202EBC202D2110132D2B2D0
:102E10000B8002607047002B294B08BF022018600E
:102E20007047002B264B14BF032204221A60704700
:102E3000002B234B14BF052206221A607047002B7B
:102E40001F4B14BF072208221A607047002B1C4B2F
:102E500014BF09220A221A607047002B184B14BFB6
:102E60000B220C221A607047002B154B14BF0D2249
:102E70000E221A607047002B114B14BF0F22102234
:102E80001A607047002B0E4B14BF112212221A60D9
:102E900070470A490A480B8803EB432203EB82037D
:102EA00003F5585319339BB203EB1322D2B202EB52
:102EB0008202AAE7203BFF1F5C22FF1F1616FF1F9E
:102EC0003815FF1FFFFFFFFF2DE9F041664B674AF2
:102ED0001B68674FD35C674E022B84B07CD0664B77
:102EE0001868FFF765FE337864498DF80C3003A845
:102EF000FF238DF80D308DF80E3003F067F834782D
:102F00005F4B604A604961481B6812680968006845
:102F10000134E4B200943470FFF706FB4EA3D3E90A
:102F20000023D7E9000108F0EBFD0022002304464E
:102F30000D4609F009FA002840F08B800022544B1E
:102F40002046294609F01EFA00283CD15149C7E91C
:102F50000045481C01F5706710F8013CC3EBC30342
:102F600003EB43131B1200F8013C4A788B78C2EB49
:102F7000C202C3EBC30302EB421203EB4313121270
:102F80001B124A708B7003318F4200F10300E3D1B2
:102F9000DFF81481D8F80070384608F0FDFE0246CC
:102FA0000B462046294609F0CFF978B13A493378E3
:102FB0000A680333013201270A603370C8F80070D1
:102FC00004B0BDE8F0810024314DBFE70137C8F8F7
:102FD000007004B0BDE8F081D7E9004520A3D3E933
:102FE00000232046294608F03DFF024620462B4C90
:102FF0000B46294608F082FD2388294DDFF898E02A
:103000002A7803EB432C03EB8C0303F55853193355
:103010009BB2C7E9000103EB132182F0010231707A
:10302000002123802A70CEF800107AB103EB4322EE
:1030300003EB820303F5585319339BB203EB1322BE
:10304000C2F3811217492380931D0B60FFF7BCFE6A
:1030500045E70024002579E7000000E051B8BE3FB5
:10306000000000403333EB3FA42AFF1F883AFF1FC4
:103070006015FF1FF076FF1F3815FF1FECA7FF1F1D
:10308000AC75FF1F9C55FF1FCC3AFF1FBC3AFF1FBA
:10309000000054409C66FF1FE475FF1F1616FF1FBB
:1030A000AD40FF1F5C22FF1FD890FF1FF0B5564EAA
:1030B0003368DB0787B040F19380544C544D23684C
:1030C000059395E80600059B5B1A934255D2514C37
:1030D000514B1868FFF76CFD237850498DF8083084
:1030E00002A8FF238DF809308DF80A3002F06EFF38
:1030F00025784B4B4B4A4C494C48096800681B6883
:1031000012680135EDB200952570FFF70DFA4849B8
:10311000481C01F5706610F8013CC3EB8312C3EB49
:1031200082031B1200F8013C4A788B78C2EB8217AD
:10313000C3EB8315C2EB8702C3EB850312121B128C
:103140004A708B7003318E4200F10300E3D1394E97
:103150003568284608F020FE0022374B09F012F9A6
:10316000002839D0354923780A6803330132012514
:103170000A602370356007B0F0BD314924680B88C0
:10318000049403EB432403EB840303F558532D48C5
:10319000204C0278294E19339BB203EB132727707A
:1031A000049F2F6082F0010200250B8002703560C1
:1031B0007AB103EB432203EB820303F5585319332F
:1031C0009BB203EB1322C2F381121F480B80931DA5
:1031D0000360FFF7F9FD7BE70135356007B0F0BD0F
:1031E000304605F0D3FE094C094D00283FF467AF87
:1031F00023680393039B2B604FF47A7330466B6014
:1032000005F0CAFE5BE700BFC875FF1F00AEFF1FD9
:10321000C477FF1FF076FF1F3815FF1FECA7FF1FB5
:10322000AC75FF1F9C55FF1FCC3AFF1FBC3AFF1F18
:103230009C66FF1F803AFF1F00001440E475FF1FCB
:103240001616FF1FCC77FF1F5C22FF1F2DE9F041F0
:103250002B4E2C4D84B00324012733882A49009734
:1032600003EB432203EB820303F5585319339BB25C
:103270004FEA432803EB080003EB800000F55850A9
:10328000193080B200EB10224FEA1848D2B2FF2367
:10329000308008EB480803A802F038FE05EB08036D
:1032A0009DF80C009DF80D109DF80E2005F8080003
:1032B000013C59709A70D0D11249481C01F57066D2
:1032C00010F8013CC3EB031203EB02131B1200F8CE
:1032D000013C4A788B78C2EB0215C3EB031402EB76
:1032E000051203EB041312121B124A708B70033188
:1032F0008E4200F10300E3D104B0BDE8F08100BFCD
:103300001616FF1F302BFF1FE83AFF1FFFFFFFFFBE
:103310002DE9F0414A4B84B01B68039303984FF4A6
:10332000AF1303FB00F0000EC3B259067AD5DB439E
:10333000D9B201F00F035A1C01F03F010B114149B2
:10334000414E424D5B00CC18CB5C6178404C11FB88
:1033500002F203EB2213DBB2020648BF5B425BB210
:10336000803BDBB203EB830203EBC200C0F3072018
:1033700008F002FD0022374B08F09EFE0022364B7B
:10338000C4E90001CDE9000108F06CFD09F042F844
:103390009FED272BC0B29DED003BB0EE421AF0EE40
:1033A000621AB0EE420AF0EE620AFF219FED224B54
:1033B000FFF70CF906F570682F4639463046FF22B4
:1033C000033602F075FDB04507F10307F5D1234937
:1033D00001F6FF6011F8013CC3EBC30303EB431399
:1033E0001B1201F8013C6A78AB78C2EBC202C3EB56
:1033F000C30302EB421203EB431312121B126A7057
:10340000AB700335A84201F10301E3D1022194ED31
:10341000000B134805F0E4F9114805F089F904B0F0
:10342000BDE8F08103F03F0103F00F0286E700BF23
:103430000000000000000840000000000000E03F25
:1034400000AEFF1F00D20000302BFF1F9C66FF1F45
:103450009876FF1F0000244000004E409D66FF1F2D
:10346000AC17FF1F2DE9F04F2F4E33688BB0DA07F2
:10347000039040F1F7812D4D2D4C2B680693069A51
:103480002C4823886188A0FB0202C3EB92139BB2F5
:10349000994259D9DFF8AC90DFF8A880D9F800300C
:1034A000072B6FDD244E3368DB0740F1D4812B6896
:1034B000224C099394E80600099B5B1A934208D3B7
:1034C0002A68D9F800300892089A22600133C9F8B6
:1034D0000030039B2BB31A4C651C04F5706615F87D
:1034E000013C03EB430203EB820303EB03131B12C8
:1034F00005F8013C6278A37802EB420003EB43013C
:1035000002EB800203EB810302EB021203EB0313D5
:1035100012121B126270A3700334A64205F1030558
:10352000DDD10BB0BDE8F08F8857FF1F00AEFF1F45
:10353000B03AFF1FD34D62104056FF1FBC77FF1FEC
:10354000302BFF1F9457FF1F2B680593059BD64A0E
:10355000DFF87C93DFF87883A2FB03239B0900222A
:10356000642132202380C9F8002005F04DFACF4AAB
:10357000CF4913781844C3B213700B70D9F80030D8
:10358000072B8FDCDFF828B3CA4E9BF80020CA490E
:10359000CA4C4FF0010A1F0209A8CDF800A0FF2372
:1035A000F75902F0B3FCD8F80030CDF800A059016B
:1035B00007EB470304EB030E77589DF82410E15402
:1035C0009DF825009DF826308EF801008EF8023017
:1035D0009BF80020B84909A8FF2302F097FC07EBED
:1035E000470304EB030E9DF82410D8F800709DF8F3
:1035F0002500CDF800A0E1549DF826308EF801009A
:103600008EF802309BF80020AB4956F8277009A8C5
:10361000FF2302F07BFCD8F800309DF82500CDF8A0
:1036200000A007EB4707C3F1070304EB070C06EB09
:10363000032E9DF82430E3559DF826308CF80100C8
:103640008CF802309BF800209B49DEF8E07009A856
:10365000FF2302F05BFCD8F80030CDF800A0C3F1E6
:103660003F0307EB47015B0104EB010E9DF824C00B
:10367000F7589DF825009DF8263004F801C09BF806
:1036800000208EF801008EF802308B4909A8FF2334
:1036900002F03CFCD8F800109DF82500CDF800A001
:1036A00007EB4707E31901F5FC7E9DF82410E1556F
:1036B0009DF8267058709F709BF800207E4956F840
:1036C0002E7009A8FF2302F021FCD8F800309DF8E5
:1036D0002500CDF800A007EB4707C3F1070304EB73
:1036E000070C06EB032E9DF82430E3559DF8263099
:1036F0008CF801008CF802309BF800206E49DEF84F
:103700001C7009A8FF2302F001FCD8F800109DF8F6
:1037100024C0CDF800A007EB4703C1F5E37104EB2B
:10372000030E514404F803C09DF825009DF826308F
:1037300056F821708EF801008EF802309BF80020B8
:103740005D4909A8FF2302F0E1FBD8F800109DF8BD
:103750002500CDF800A007EB470706EB411EE31953
:103760009DF82410E1559DF8267058709F709BF8C5
:1037700000205149DEF81C7709A8FF2302F0C6FBA0
:10378000D8F80030CDF800A0C3F1070307EB4701DC
:1037900006EB431304EB010E9DF824C0DF699DF88E
:1037A00025009DF8263004F801C09BF800208EF813
:1037B00001008EF80230404909A8FF2302F0A6FB61
:1037C000D8F800109DF82500CDF800A007EB4707BA
:1037D000E319C1F13F0E9DF82410E1559DF82670C4
:1037E00058709F709BF80020334956F82E7009A836
:1037F000FF2302F08BFBD8F80030CDF800A006EBD9
:10380000032607EB4707D6F8FC809DF824309DF887
:1038100025C09DF826E0E355E6199BF800202649CF
:1038200086F801C009A8FF2386F802E008EB4808E3
:1038300002F06CFB224E9DF824009DF825109DF8A7
:10384000262004F8080004EB080359709A703368C6
:10385000DB073FF52CAE304605F098FBC0B9194C9C
:103860002B6826E6304605F091FB174D00283FF403
:1038700003AE2B6804930C4A049B144CA2FB032355
:103880009B09012230462380628005F085FBF4E528
:103890002B680C4C0793079B2360322330466360F0
:1038A00005F07AFBDCE700BFD34D6210B93AFF1F89
:1038B0006876FF1F6022FF1FE83AFF1F302BFF1FB3
:1038C0004056FF1FBC77FF1F00AEFF1FB03AFF1F1F
:1038D0009457FF1F2DE9F04F2F4E33688BB0DA0756
:1038E000039040F14A822D4D2D4C2B680693069A89
:1038F0002C4823886188A0FB0202C3EB92139BB281
:10390000994259D9DFF8A080274FD8F80030072B0B
:103910006FDD264E3368DB0740F128822B68244C8C
:10392000099394E80600099B5B1A934208D32A681E
:10393000D8F800300892089A22600133C8F80030A5
:10394000039B2BB31B4C651C04F5706615F8013CFA
:1039500003EB430203EB820303EB03131B1205F893
:10396000013C6278A37802EB420003EB430102EBD7
:10397000800203EB810302EB021203EB031312122A
:103980001B126270A3700334A64205F10305DDD15A
:103990000BB0BDE8F08F00BFB077FF1F00AEFF1F78
:1039A000CC75FF1FD34D6210AC77FF1FB477FF1F9C
:1039B000D075FF1F302BFF1F2B680593059BE14A35
:1039C000DFF88483E04FA2FB03239B0900226421DC
:1039D00032202380C8F8002005F016F8DB4ADC49C5
:1039E00013781844C3B213700B70D8F80030072B4B
:1039F0008FDCDFF85CA3D74E9AF80020D649D74C6D
:103A000003EB83004FF001094FEA032E02EB800223
:103A1000D2B209A8CDF80090FF2356F80EB002F0FC
:103A200075FA39689AF800309DF825009DF826C08F
:103A3000CDF800900BEB4B0B01EB810203EB820204
:103A400004EB0B034FEA411E9DF8241004F80B1001
:103A5000D2B2587083F802C0BF4956F80EB009A818
:103A6000FF2302F053FAD7F800E09AF800309DF8EF
:103A700024109DF825009DF826C0CDF800900BEB92
:103A80004B0B0EEB8E0203EB820204EB0B0304F8EC
:103A90000B10D2B2587083F802C0AF4956F82EB05E
:103AA00009A8FF2302F032FA3B689AF80020CDF80B
:103AB00000900BEB4B0B03EB8301C3F1070304EB0B
:103AC0000B0C06EB032E9DF8243004F80B309DF808
:103AD00025009DF826308CF8010002EB81028CF85D
:103AE00002309D49DEF8E0B0D2B209A8FF2302F00F
:103AF0000DFA3B689AF80020CDF800900BEB4B0BC9
:103B000003EB8301C3F13F0304EB0B0C4FEA431EAD
:103B10009DF8243004F80B309DF825009DF82630E0
:103B20008CF8010002EB81028CF802308A4956F8C9
:103B30000EB0D2B209A8FF2302F0E8F939689AF86A
:103B400000309DF825009DF826C0CDF800900BEBC5
:103B50004B0B01EB810203EB820204EB0B0301F53B
:103B6000FC7E9DF8241004F80B10D2B2587083F834
:103B700002C0794956F82EB009A8FF2302F0C6F911
:103B80003B689AF80020CDF800900BEB4B0B03EB51
:103B90008301C3F1070304EB0B0C06EB032E9DF826
:103BA000243004F80B309DF825009DF826308CF861
:103BB000010002EB81028CF80230DEF81CB066498D
:103BC000D2B209A8FF2302F0A1F93B689AF80020BD
:103BD0009DF825009DF826C0CDF800900BEB4B0B0F
:103BE00003EB8301C3F5E37E04EB0B03CE4402EB4E
:103BF00081029DF8241004F80B10D2B2587083F89B
:103C000002C0554956F82EB009A8FF2302F07EF9EC
:103C100039689AF800309DF825009DF826C0CDF847
:103C200000900BEB4B0B01EB810203EB820204EBE8
:103C30000B0306EB411E9DF8241004F80B10D2B2C2
:103C4000587083F802C04449DEF81CB709A8FF2366
:103C500002F05CF93B689AF80020CDF800900BEB7D
:103C60004B0B03EB8301C3F1070304EB0B0C06EBD7
:103C7000431E9DF8243004F80B309DF825009DF874
:103C800026308CF8010002EB81028CF802303249B8
:103C9000DEF81CB0D2B209A8FF2302F037F9396868
:103CA0009AF800309DF825009DF826C0CDF80090C8
:103CB0000BEB4B0B01EB810203EB820204EB0B03DA
:103CC000C1F13F0E9DF8241004F80B10D2B25870C9
:103CD00083F802C0204956F82EB009A8FF2302F04D
:103CE00015F93B689AF80020CDF8009006EB032602
:103CF0000BEB4B0BD6F8FC609DF825C09DF826E039
:103D0000154904EB0B0703EB830302EB83039DF8D8
:103D1000242004F80B2006EB4606DAB209A8FF239C
:103D200087F801C087F802E002F0F0F89DF824005F
:103D3000A055A3190A4E9DF825109DF8262059700C
:103D40009A700FE0D34D6210AC77FF1FD875FF1F3C
:103D50005822FF1F6022FF1FE83AFF1F302BFF1F72
:103D6000B477FF1F3368DB073FF5D8AD304605F069
:103D70000DF9C0B9114C2B68D2E5304605F006F9B3
:103D80000F4D00283FF4B0AD2B6804930D4A049BFF
:103D90000D4CA2FB03239B09012230462380628045
:103DA00005F0FAF8A1E52B68044C0793079B236004
:103DB00032233046636005F0EFF8DCE7D075FF1F73
:103DC00000AEFF1FD34D6210CC75FF1F84B0F0B55D
:103DD00083B0DDE9104508AE86E80F00204629468D
:103DE0000022002308F0C4FA002871D029460022DE
:103DF0003C4B204607F084FE08F0E4FA0546DDE976
:103E00001267002200233046394608F0B1FA002834
:103E100054D00022334B3046394607F071FE08F08B
:103E2000D1FA0446DDE91467002200233046394602
:103E300008F09EFA002838D000222A4B3046394636
:103E400007F05EFE08F0BEFA04EBC50400EBC40404
:103E5000254A9DF8583052F824408DF802309DF8DC
:103E60005C208DF80020FF2301A968468DF8013001
:103E700002F0ACF804EB44031C489DF80440C25C1B
:103E8000C11882FA54F2C2549DF805304A7882FA79
:103E900053F24A708B789DF8062083FA52F38B70A8
:103EA00003B0BDE8F04004B0704700220D4B30462F
:103EB000394607F023FE08F085FAC5E70022094BD2
:103EC0003046394607F01AFE08F07CFA0446A9E7A6
:103ED00029460022034B204607F010FE08F072FA34
:103EE00005468CE70000E03F6022FF1F9C57FF1F44
:103EF0002DE9F04F2DED068B95B09B4B0D939FED6B
:103F0000969B9FED97AB0023984FDFF88882DFF8F0
:103F10008892974C9FED978A4FF0030B9A460D9A23
:103F2000D8F86C5352F8043B0D92934A934952F8D7
:103F30002330934AB3F5167FA8BF4FF4167323EAD4
:103F4000E3731B0282FB0320DB17C3EB2020012657
:103F5000CAF3870EC0B200960346724689F8000085
:103F600087F800E013A801F0D1FF05EB45016018C8
:103F70009DF84CE004F801E0D8F88C539DF84D1002
:103F80009DF84EE099F800303A780096417080F83C
:103F900002E07A4913A801F0B9FF05EB450160186A
:103FA0009DF84CE004F801E0D8F86C549DF84D10F1
:103FB0009DF84EE099F800303A780096417080F80C
:103FC00002E06E4913A801F0A1FF05EB450199F845
:103FD00000303A78D8F88C549DF84CE0009666187A
:103FE00004F801E09DF84D009DF84EE070706349C3
:103FF00086F802E013A801F089FF99F800200F92DB
:1040000005EB4505631916469DF84C009DF84D10CB
:104010009DF84E206055642E59709A7040F28A8047
:10402000584B58491B88584E03EB432203EB82033D
:1040300003F5585319339BB203EB13220B80D3B211
:104040000E93002301E0642B74D09D014E49725DF4
:104050000133002AF7D14B19012283ED089B83ED30
:104060000A9B58464A55109307F096FE0E9B03F1A3
:10407000400E5FFA8EFE109B1EF0400FC3E90C014C
:1040800000F049816FEA0E02D2B202F00F01013155
:1040900002F03F023D4B11931211520098189A5CA6
:1040A000407810FB01F102EB21121EF0800FD2B21A
:1040B00018BF524252B207EE902AF8EEE77A721910
:1040C00087EE887A109217EE100A07F077FE109AA2
:1040D000119BC2E902010E9A12F0400F00F0158107
:1040E000D243D2B202F00F01013102F03F021211AD
:1040F000520098189B5C427812FB01F10E9A03EB78
:1041000021131206DBB248BF5B425BB207EE903A66
:10411000F8EEE77A354487EE887A17EE100A07F052
:104120004DFE85ED06ABC5E904013B780F9AAA6305
:1041300085F83C300BF1FF3BBBF1FF3F0AF1FF0A72
:1041400007F10107A8F104087FF4E9AE104D00263D
:10415000A5F1280AB14628E00000000000000C404C
:1041600000000000000000000416FF1FDC75FF1FA8
:104170009C57FF1F00007A445C55FF1FE83AFF1F61
:1041800037800B6D1616FF1FD877FF1F00D2000077
:104190000078FF1F6022FF1F9476FF1F05F8289C00
:1041A0000136642E05F140053FD015F8283C002B60
:1041B000F6D015ED020B07F0DBFA51EC100B08F00E
:1041C00001F9071EEADB95ED000B07F0D1FA51EC7F
:1041D000100B08F0F7F8B0F10008DFDB95ED020BEB
:1041E00007F0C6FA062FD9DCB8F1060F51EC100B18
:1041F000D4DC08F0E7F80628D0D80AEB861C0CF1CE
:10420000100EBEE80F006F460FC7BEE80F000FC7C5
:104210009EE80F0087E80F0001369CE80F00FFF7CB
:10422000D5FD642E05F14005BFD14C4B4C4A1B68AF
:104230004C4DB3F57A7FA8BF4FF47A7323EAE3734A
:1042400003EB830103EB410382FB0312DB17C3EB98
:1042500022232A68C3F10A03934261DB02F10108B9
:10426000DFF80CE10EF5006CAEF5807606F11C006F
:1042700006F11007314651F8042B50F8043902EBCF
:10428000420203EB430314F8029004F80390224423
:10429000234492F8019083F8019092789A708F42AB
:1042A000E9D12036B645E1D10EF5807EF445DBD16B
:1042B0002D4CC5F8008004F57066651C15F8013CAE
:1042C00003EB430203EB820303EB03131B1205F81A
:1042D000013C6278A37802EB420003EB430102EB5E
:1042E000800203EB810302EB021203EB03131212B1
:1042F0001B126270A3700334A64205F10305DDD1E1
:1043000015B0BDEC068BBDE8F08F0E9901F03F02B1
:1043100001F00F01EBE60EF03F020EF00F01B9E6DF
:10432000124F07F5C85817F8203C8BB107F1180950
:104330003E4656E90623D6E9000107F0E1FBE6E830
:1043400002014E45F5D13B7E053B23EAE373BB6199
:104350004037B845E7D14FF0010881E7343AFF1FF5
:104360009F7478418C57FF1F9C57FF1FF877FF1FE2
:104370006023FF1FFFFFFFFF2DE9F04FDFF858A17B
:1043800085010AEB050487B094F83DB0BBF1000F3E
:1043900011D1A06807F000FDD4E906678046894680
:1043A00002460B463046394607F0CEFF002856D16C
:1043B00007B0BDE8F08F636B226B934204DA0133E0
:1043C000636307B0BDE8F08F002641A3D3E9002363
:1043D000D4E90A01666307F093FB06460F46206A9C
:1043E00094F80CB0C4E90A6707F0D6FC00228046B6
:1043F0008946334B3046394607F034FD0B460246BA
:104400004946404607F07CFB08F004F85FFA80F864
:10441000A06807F0C1FCCDE90201606807F0BCFCB0
:10442000CDE900015AF8050007F0B6FC47EC136B24
:1044300041EC100B9DED022B594640469DED001BB3
:104440009FED1D4BFEF7C2F8E368012BB0DDA26BB8
:104450009B1A83F30803E36007B0BDE8F08F324690
:104460003B464046494607F049FB0022154B07F002
:1044700023FE32463B4607F043FB5AF805206368AB
:10448000114E124DC4E9060103EBC20407F09AFF76
:1044900000EBC400FF2356F820108DF814B001EB98
:1044A0004101294405A88DF815B08DF8163001F0AA
:1044B0008DFD07B0BDE8F08F000000000000F03F68
:1044C00000002440000059406022FF1F9C66FF1F2F
:1044D000000000A09999C93FA83BFF1F2DE9F04FAC
:1044E000AE4BAF4A1B68D35C022B87B000F0C8808C
:1044F0000025AC4C2E4606E084F83C600135142DB6
:1045000004F1400413D094F83C10A74B002200297A
:10451000F4D0D4E90A0107F035FF0028ECD1284691
:104520000135FFF729FF142D04F14004EBD19F4B17
:104530000293DFF894929E4F00230393029B9D4ABF
:104540001B6AB3F5617FA8BF4FF4617323EAE3737D
:1045500003EB43035B0082FB03201844DB17C3EB30
:104560006020C9F8000000285ED0039B924EDFF85F
:104570005CB24FEAE30808F1A0085FFA88F800256A
:104580004FF0640A33888D4903EB432203EB820228
:1045900002F55852193292B202EB422302EB830326
:1045A00003F5585319339BB203EB432E03EB8E0EE6
:1045B0000EF5585E0EF1190E02EB122203EB1323D7
:1045C0001FFA8EFEC3F34213C2F342120EEB1E24F7
:1045D00003EBC2027A4BA6F800E0C4F3C0140AFB56
:1045E00000F004EBC20283FB0043C017C0EB63037F
:1045F0005BF8224064330122DBB2009205A84246F8
:1046000001F084FC04EB4404D9F800009DF814E0A8
:104610009DF815109DF8162007F804E03B190135A8
:10462000A84259709A70ADDC039B029A8C33083211
:10463000B3F50C7F0393029280D15D4C651C04F5A9
:10464000706615F8013CC3EB8312C3EB82031B12A7
:1046500005F8013C6278A378C2EB8210C3EB8311AA
:10466000C2EB8002C3EB810312121B126270A370B3
:104670000334A64205F10305E3D107B0BDE8F08F8E
:10468000DFF84CA1DFF84C91DFF8188115260027E0
:10469000CAF80060C9F8006044463D460FE094F84F
:1046A0003D10484B002229B9D4E9060107F060FE0D
:1046B000002863D10135142D04F140040BD094F887
:1046C0003C30002BEBD12E460135142D4FF0010765
:1046D00004F14004F3D1002F5CD13749D9F80040F0
:1046E0000B8803EB432203EB820303F55853193382
:1046F0009BB203EB432203EB820202F558521932BC
:1047000092B202EB422002EB800000F5585002EB1F
:104710001222A4011930C2F3811280B2023248F889
:10472000042003EB1323A04400EB102200260027F3
:10473000DBB2C2F38112C8E90667C8E90A67023230
:10474000C82706260925C8F820300524012308803B
:104750000021C8F80C70C8F80420C8F80860C8F830
:104760001450C8F8384088F83C30C8F83030C8F8E1
:104770003430C8F8101088F83D10B9E63FB908EB9E
:1047800085180123CAF8005088F83D30B0E6C9F812
:104790000060F4E7C9F800609FE700BFA42AFF1F8C
:1047A000883AFF1FA83BFF1F000024405C55FF1FF5
:1047B0009C66FF1FAF5279911616FF1FE83AFF1F44
:1047C0006766666600000840A076FF1F6022FF1F34
:1047D000A82AFF1FDC3AFF1F2DE9F04F9A4C2378DF
:1047E000612B8BB024D0622B4CD0662B5BD0692B15
:1047F00000F0A8806D2B5FD06F2B00F0A980732B89
:104800002ED0742B74D0782B6ED0792B00F0828050
:104810007A2B40F0A9808D4B60781870A178E278EF
:10482000597018469A7007F06BFE894B187026E095
:10483000864B6078A178E2781870184659709A70A3
:1048400007F05EFE834A844B0146116083480322D1
:104850001A6003F0BDFF814803F06AFF2378CBE7BD
:104860007A4B61787C4AA5781970E4785D701846B7
:1048700004219C70116007F043FE794B18700BB057
:10488000BDE8F08F714B744A61781970A678E578AD
:104890005E70184604219D70116007F031FE714A68
:1048A00023781070A8E76C4B6F4A196811600022DA
:1048B0001A600BB0BDE8F08F644B6078A178E278A5
:1048C0001870184659709A7007F01AFE674B624AC2
:1048D0001860022319466148136003F079FF5F48AE
:1048E00003F026FF237887E75B4B01221A60C6E7B7
:1048F000564B6178584AA5781970E4785D700421A8
:1049000018469C70116007F0FBFD594B18700BB0F6
:10491000BDE8F08F4D4B6078E278A17818701846AA
:104920009A70597007F0ECFD524B534C186007F029
:1049300033FA0022514B07F0BFFBC4E900010BB072
:10494000BDE8F08F4E4B00221A700BB0BDE8F08F1F
:10495000454C4248216803F03BFF404803F0E8FE25
:104960003D4B22681A608AE7702B88D1374B6078FC
:104970001870A178E278597018469A7007F0C0FD57
:10498000404BC0B20F28187059D83F4B53F82080C5
:10499000002758F82730DBB20137FF2BBFB2F8D120
:1049A000D8F8003007974FF0FF324FEA13690692AC
:1049B000C3F3072BC3F3074A0024CE4658F8045F1D
:1049C0003248C5F30727C5F30746F9B24FEA241C5E
:1049D0000491F1B205915FFA8CF103910799ECB261
:1049E0000F29C5F3076508AA4FEA14135FFA85F982
:1049F0000CD806998C4507DC0F2905D00131C9B2C6
:104A00008B42039138BF0B4659B2069109A9009118
:104A100003998DF820B08DF821A08DF822E08DF853
:104A200024708DF825608DF8265001F0D3F9FF2C05
:104A3000DDF810B0DDF814A0CE46BFD11FE700228C
:104A4000DFF84C801A70A3E7B440FF1FD83AFF1F6D
:104A5000B815FF1FEC15FF1F3415FF1FAC17FF1F04
:104A6000DB3AFF1FC815FF1F283BFF1FCC15FF1F98
:104A7000F015FF1F303AFF1FC015FF1F00005940FF
:104A8000C915FF1FA175FF1F70D20000E83AFF1F74
:104A90003CD2000038B5084C251D14F8010B05F078
:104AA000EFFDAC42F9D1054803F042FEFFF794FE5A
:104AB000034B00221A7038BDB440FF1FAC17FF1F14
:104AC0008457FF1FF8B5124E124D134F04F006FD28
:104AD00000B9F8BD3478002CFBD104F00FFD2B7821
:104AE000C0B23BB13E280D4B09D01A78511CB854C6
:104AF0001970EBE73C28E9D101232B70E6E7074B5F
:104B00002C7019781C7001227C543270DEE700BFD3
:104B10008457FF1F5877FF1FB440FF1FAC40FF1F93
:104B20002DE9F043DFF86C90DFF86CC0D9F8008015
:104B30004FF0000E08F14807A7F14000ACF1E00685
:104B400065462EF00604A0F1080332462946012CE2
:104B50000CBF0B60136001338342A1F10401A2F189
:104B60000402F4D103F108008742A5F1200506F103
:104B70002006E8D10EF1010EBEF1080F03F148073F
:104B80000CF5807CD8D108F50073C9F80030BDE879
:104B9000F08300BF843AFF1F5C23FF1F38B50F214D
:104BA0003F4805F0E9FC3F4803F0C2FD3E4801F0F4
:104BB00055FB3E4801F052FB3D4801F04FFB4FF4DE
:104BC000FA6004F03DF811213A4805F0D5FC35486B
:104BD00003F0AEFD40F6354004F0F8FB642004F02D
:104BE000EDFA1B21344805F0C7FC2E4803F0A0FD68
:104BF000FFF796FF0B21314805F0BEFC294803F072
:104C000097FDFCF775FC15212D4805F0B5FC2548EE
:104C100003F08EFD2B48036813F001041DD04FF400
:104C2000807200232849294800F08AFF284B294830
:104C30001B780370012101F0ABF80B21264805F029
:104C40009BFC184803F074FD0F21244805F094FCE8
:104C50001448BDE8384003F06BBD04F097F9002814
:104C6000DDD01F49194B08685C60FF2201255C619B
:104C70009C609D741A735A739A73DA731A745A7417
:104C800060B1184A116801B18B60174913600D4873
:104C9000196000229A6104F07FF9C0E70B60F0E729
:104CA00074D10000AC17FF1F3477FF1F4077FF1F40
:104CB0004C77FF1F84D1000098D10000B4D10000D0
:104CC000C0D100003022FF1F302BFF1F3422FF1FF6
:104CD000B815FF1F1CA8FF1FD8D10000E4D10000A9
:104CE0002CA8FF1F3CA8FF1FCCD000002DE9F04FDF
:104CF000B44E3368DB0795B040F1D780B24CB34D6A
:104D0000DFF800A3DAF80020FF2A00F0DE80236835
:104D1000002A40F083800F930F9A2B68AA48AB4D6E
:104D2000D21A43F2C8218A4240F26E81A849026831
:104D30000B88109203EB432203EB820202F55852D8
:104D4000193292B202EB1223DBB203EB4300A14B08
:104D500008931E460A80109B2B60C2113270226895
:104D60001192119A9C4A09922268139213999B48B6
:104D7000C91A0A22002303F0EBFC984803F0D8FC80
:104D8000DAF80030FF2B76D0002B40F0A080944F53
:104D90003B68002B00F086808D490B8803EB432293
:104DA00003EB820202F55852193292B202EB12233F
:104DB0000A80099AC3F3811313708A4A8A4C52F805
:104DC00023308A4E9847089B1A78894B53F8223033
:104DD00098479AF8009004F57068254631462846B1
:104DE0004A46033501F064F8454506F10306F5D15E
:104DF000DAF800307F4DC3F1FF03DEB229462046CA
:104E00003246033401F054F8444505F10305F5D169
:104E1000DAF800303B6015B0BDE8F08F0E930E9BC2
:104E20002B6021680F910F99216811911199664E9D
:104E3000C91A43F2C820814240F2BF80FF2A40F0E5
:104E4000BC80634932680B88129203EB432203EB68
:104E5000820202F55852604B0993193292B21E46F3
:104E600002EB12200A80129B5A490891C0F381126A
:104E700032702B6078E75A4F3B68FF2B12D05449B1
:104E80000B8803EB432203EB820303F558531933DA
:104E90009BB203EB1322D2B202EB42020B80089BBF
:104EA000D2111A70099B1B7887E7304604F06EF820
:104EB000454C464D00283FF423AF23680D930D9BCE
:104EC0002B60304604F068F81AE72B68A9E7783BB6
:104ED0000A2B6ED83E49484C0B88484803EB4322C6
:104EE00003EB820303F5585319339BB203EB1322F0
:104EF000C2F342120B8054F822800270002758F847
:104F00002730DBB20137FF2BBFB2F8D1D8F8003021
:104F100007974FF0FF3206924FEA1369C3F3072257
:104F200000240392C3F3074B2546CE4658F8044F9E
:104F30003348C4F307464FEA251CC4F30727E5B2FC
:104F4000F1B2C4F307640491E1B205915FFA8CF108
:104F5000029107990F290BAA4FEA15135FFA87F9F7
:104F60000CD806998C4507DC0F2905D00131C9B250
:104F70008B42029138BF0B4659B206910CA90091A1
:104F80009DF80CC002998DF82DB08DF82EE08DF8AB
:104F90002CC08DF830708DF831608DF8324000F003
:104FA00019FFFF2DCDF80C90DDF810B0DDF814E0FE
:104FB000BCD1099B0A4F1B78FFE6064A0892064AB5
:104FC0000992D1E6A840FF1F00AEFF1F9857FF1FB0
:104FD0001616FF1FE876FF1F282BFF1FAC17FF1FB9
:104FE0009057FF1FF415FF1F302BFF1F9C66FF1FFC
:104FF000D015FF1F9C57FF1F70D20000A175FF1F27
:10500000E83AFF1FDC90FF1F014A0892A7E600BFA5
:10501000E876FF1F2DE9F0410D4CDFF840800D4F81
:105020000D4E82B004F5706598F800103A78337828
:105030008DF8051001A8214603348DF806208DF85F
:10504000043000F0C3FFAC42EED102B0BDE8F08105
:10505000302BFF1FC815FF1FDB3AFF1FF015FF1F86
:10506000174B1B68013B072B29D8DFE803F0070922
:105070000B1D251F22040120FEF72CBCFBF7FEB9F7
:10508000FEF7E4B870B5FEF711F80E4C0E4D04F5BE
:10509000706629462046FF22033400F009FFB4421F
:1050A00005F10305F5D170BDFEF732B90020FEF71A
:1050B00011BC0120FEF7D6B90020FEF7D3B9704726
:1050C000EC15FF1F302BFF1F9C66FF1F5B4B1B68FF
:1050D000013B70B5092B16D8DFE803F016276B49A2
:1050E0008D387C5A9E05564C564DFDF75DF804F5FB
:1050F000706629462046FF22033400F0D9FEB442F0
:1051000005F10305F5D170BD4D4C4E4DFDF76CFC1E
:1051100004F5706629462046FF22033400F0C8FEDD
:10512000A64205F10305F5D170BD454C454DFBF791
:10513000FFF904F5706629462046FF22033400F08B
:10514000B7FEA64205F10305F5D170BD3C4C3E4DBE
:10515000FFF7C4F904F5706629462046FF220334A0
:1051600000F0A6FEB44205F10305F5D170BD344C44
:10517000344DFBF789FD04F5706629462046FF2271
:10518000033400F095FEB44205F10305F5D170BD7E
:105190002B4C2C4DFEF7ACFE04F5706629462046DC
:1051A000FF22033400F084FEB44205F10305F5D17B
:1051B00070BD234C244DFDF78BFA04F5706629462B
:1051C0002046FF22033400F073FEA64205F10305DA
:1051D000F5D170BD1A4C1C4DFDF776FE04F57066D6
:1051E00029462046FF22033400F062FEB44205F156
:1051F0000305F5D170BD124C134DFBF7BDFA04F554
:10520000706629462046FF22033400F051FEB44266
:1052100005F10305F5D170BD094C0A4DFDF7C8F83D
:1052200004F5706629462046FF22033400F040FE54
:10523000B44205F10305F5D170BD00BFCC15FF1FC9
:10524000302BFF1F9C57FF1F9C66FF1F70B51A4B2A
:105250001B6882B0042B06D8DFE803F0072125295C
:105260000300FFF7D7FE02B070BD144C002504F513
:105270007066214601A803348DF804508DF805505E
:105280008DF8065000F0A2FEB442F2D103210C4882
:1052900005F072F90B4803F04BFA02B070BDFFF74E
:1052A00025FD02B070BDFFF711FF02B070BDFFF722
:1052B000D7FE02B070BD00BF3415FF1F302BFF1F9B
:1052C000F4D10000AC17FF1FF8B5FFF7FBFB3C4B18
:1052D0001B78002B41D13B4C2378002B43D13A4D16
:1052E0003A4E33782B703A4800F0E0FF18B1394A53
:1052F000136801331360384800F0D8FF18B1374AFB
:10530000136801331360364800F0D0FF18B12378DA
:1053100083F001032370FCF7FBFCFFF797FF314B91
:1053200003F5407493F8000393F8011393F80223F4
:1053300083F8000983F8000C83F8011983F8011C35
:1053400083F8022983F8022C0333A342EAD1297897
:105350001D48BDE8F84000F059BC1A4CFFF79AFB15
:105360002378002BBBD0162003F0A8FCC0F57F707B
:105370000330652303FB00F3002BB8BF03F2FF33B8
:10538000124E114D184FC3F387230F2033702B702B
:1053900003F094FC40F2E93303FB00F00028B8BFAF
:1053A00000F2FF30801206F0F7FC104B002206F0EE
:1053B00083FE2378C7E90001002B94D191E700BF59
:1053C0008457FF1FC915FF1F1CA8FF1FB815FF1F1B
:1053D0003477FF1F3415FF1F4077FF1FCC15FF1FC9
:1053E0004C77FF1F302BFF1FC015FF1F00005940D7
:1053F0002DE9F043032185B08F48904F904CDFF8A2
:10540000A08200F01FFF04218E4800F01BFF0C213A
:105410008D4800F017FF3A68C4F8008000236372DB
:1054200023612372E3600AB9FFE01A465369002B37
:10543000FBD154610026854D854B81486661A6806D
:10544000E680A672236001F019FA042005F1280213
:10545000334631462E72EE60C5F8008068722A61CC
:105460002E4600E0326942F823106A7A7748013309
:105470009A42F7DC3A68714B0AB9D8E01A46536988
:10548000002BFBD15561734EDFF818C2C6F80080BF
:1054900000214FF480304FF0010E06F5A25286F83D
:1054A00009E00B4632616961A980E980A972317215
:1054B000F160B646C5F800C0A861E861286268627C
:1054C00001E0DEF8102042F82310727A61480133BF
:1054D0009A42F6DC3A68594B0AB9AAE01A4653696F
:1054E000002BFBD1566141F23C4241F23D43002783
:1054F000DFF8B48158495948B754F7543A46012364
:105500003160C6F818044FF480617761B780F78086
:10551000B7725348DFF8949106F04CF8404688E89B
:10552000300088F8087088F80970C8F80C7088F89E
:10553000107002F031FE4B4A4B49404606F0DAFF4C
:10554000DFF86C81C9F80C700123484689F80830EF
:1055500089F8093089E8300089F8107002F01CFEE3
:10556000404A4149414C484606F0C4FF404688E85D
:10557000600088F8087088F80970C8F80C7088F81E
:10558000107002F009FE374A3749404606F0B2FF74
:10559000374B384A1A6038480A221A7200F0CCFD9C
:1055A00004F5A0752046143400F0C6FDAC42F9D1D4
:1055B000324B334C03F1400122680392039A43F8C3
:1055C000042B8B422E4AF7D113680193019E136876
:1055D00002932C4D2C4B029A2C492D481A602E60B8
:1055E000FBF728FF2B4B002203F5B45003F5347171
:1055F00003F8042C03F8032C24339942F8D1884291
:105600000B46F3D1244B002203F5A06103F8042CD0
:1056100003F8032C40338B42F8D123680093009A9F
:105620001E4B1A6005B0BDE8F0833C6002E71860CD
:1056300029E7186057E700BF3477FF1F4CADFF1F05
:10564000983AFF1F4077FF1F4C77FF1F6C3BFF1FEF
:1056500008DB0000C440FF1FE0D2000000D30000C0
:105660000855FF1F3015FF1F2D0C00004456FF1F6B
:10567000C03AFF1FECD20000B475FF1F6477FF1F14
:1056800000AEFF1F2C2BFF1F9C75FF1F14D20000C4
:10569000E83AFF1F8C91FF1FE83BFF1F7C3AFF1F7A
:1056A000C0D0000014DB0000EC2AFF1F002BFF1FFE
:1056B000142BFF1F08B5064A064B12791A7003F027
:1056C00059FD054A054B106000221A7008BD00BF45
:1056D0000CA8FF1F1F800040F0A7FF1F08A8FF1F96
:1056E00010B5044602F08AFE204610BDF0B4064F05
:1056F000064E074D074C39809DF8101032602B6024
:105700002170F0BC704700BFF8A7FF1FF4A7FF1F70
:1057100004A8FF1FEFA7FF1FF8B5A24BA24E1C88DD
:10572000306804EB4404E4002246002107F0FAF953
:105730009E4B1868002800F003812246002107F0E4
:10574000F1F99B4B9B4F9C4DFF221A6001210220D7
:1057500003F00AFD01210E2003F006FD01210720C0
:1057600003F002FD0121082003F0FEFC01210620C8
:1057700003F0FAFC0121142003F0F6FC01211520AE
:1057800003F0F2FC0520012103F0EEFC8B4B8C4A68
:105790001B788C49DFF858C203F0F003102B4FF050
:1057A000080E4FF000030CBF95204A2013603B60A9
:1057B0000860C2F800E0A1F5DD210CBF4FF0230E18
:1057C0004FF0110E4FF06902CCF800207E482A609D
:1057D000A1F5FC61C7F80CE0DFF808E27B4A0CBFDA
:1057E0006725332505600A60DEF80020784DD37107
:1057F000022191717748D18810601561D58B938013
:1058000021F4E06121F00701D360938293612F04BA
:105810004FF001039360D18000F19580B4F5004F03
:10582000A1B2C0F28A80958B6B4FD6F800C03B685E
:105830006A4EADB245F00805958300250222DD7160
:105840009A71C3F800C0DA88D983D9821E61664292
:10585000DE60DE8B9D8222F4E0629D61012522F0F4
:1058600007029D809D603504DA8000F18980B4F5DF
:10587000004F5FDB9A8B5A4D92B242F008029A8336
:105880002B684B4A1860022098710020D8711A6169
:10589000DA88988022F4E06222F00702D8609882C9
:1058A0009861D88BDA8001229A6002045AD4B4F548
:1058B000004F3CDB9E8B9EF804404A4A46494848CC
:1058C000B6B246F008069E839E8B04F18044B6B2C1
:1058D00004F5043446F002069E830026B1232670A8
:1058E00023703B7903F1804303F504339E241E703B
:1058F0001C702B7903F1804303F504339F241E7041
:105900001C7002F097FD2A793748384D53119B00DF
:1059100003F1604302F1100403F5614302F01F023A
:10592000012101FA02F240F824501A60F8BDD9832F
:10593000D982BFE7D983D9829CE7D183D18272E72C
:1059400032681A60FDE6B4F5007F28DAD38BA1B285
:1059500003F47E430B43D383D38A03F47E430B4388
:10596000D38260E7B4F5007FA4DADA8B02F47E42DA
:105970000A43DA83DA8A02F47E421143D98299E734
:10598000B4F5007FBFF676AFDA8B02F47E420A43AD
:10599000DA83DA8A02F47E420A43DA826AE7A1B243
:1059A00041E700BFF8A7FF1FF4A7FF1F04A8FF1FD0
:1059B000C8F00F4004800B4014800B40EFA7FF1F7E
:1059C00000800B4008800B4018800B400003010052
:1059D000C4F00F401416FF1F14A8FF1FC0F00F40A3
:1059E0000CA8FF1FFCA7FF1F0010FF1FB5560000EB
:1059F0000C800B40F8B52C4C2378002BFCD12B4AA3
:105A00002B4B11681868814206D02A4B1A8802EB8A
:105A10004202D20003F0D8F9274D03F0ABFB2B680C
:105A2000C01AB0F5967FF8D324482549254A282383
:105A300003600B60136872B610390A689342FCD297
:105A400021490A689342FCD31F4802681E499342C9
:105A5000FBD81E4E1E4D1F4837792E79174BDFF8A5
:105A60007CE0174A002505600D60012121701A4D68
:105A700028244FF48061CEF800101C606921D3F80F
:105A800000E02D7919606FF47F6EA3F52F23734426
:105A900014600824D2F800E011601F701E701D70A1
:105AA000046062B6F8BD00BF08A8FF1F04A8FF1F6E
:105AB000F4A7FF1FF8A7FF1FF0A7FF1F0C800B40E4
:105AC00014800B4018800B4004800B40FCA7FF1F84
:105AD00014A8FF1F00800B400CA8FF1FA0900440DB
